{
  "contractName": "AttendeeRoleMock",
  "abi": [
    {
      "inputs": [],
      "stateMutability": "nonpayable",
      "type": "constructor"
    },
    {
      "anonymous": false,
      "inputs": [
        {
          "indexed": true,
          "internalType": "address",
          "name": "account",
          "type": "address"
        }
      ],
      "name": "AttendeeAdded",
      "type": "event"
    },
    {
      "anonymous": false,
      "inputs": [
        {
          "indexed": true,
          "internalType": "address",
          "name": "account",
          "type": "address"
        }
      ],
      "name": "AttendeeRemoved",
      "type": "event"
    },
    {
      "inputs": [
        {
          "internalType": "address",
          "name": "account",
          "type": "address"
        }
      ],
      "name": "addAttendee",
      "outputs": [],
      "stateMutability": "nonpayable",
      "type": "function"
    },
    {
      "inputs": [
        {
          "internalType": "address",
          "name": "account",
          "type": "address"
        }
      ],
      "name": "isAttendee",
      "outputs": [
        {
          "internalType": "bool",
          "name": "",
          "type": "bool"
        }
      ],
      "stateMutability": "view",
      "type": "function"
    },
    {
      "inputs": [],
      "name": "renounceAttendee",
      "outputs": [],
      "stateMutability": "nonpayable",
      "type": "function"
    },
    {
      "inputs": [
        {
          "internalType": "address",
          "name": "account",
          "type": "address"
        }
      ],
      "name": "removeAttendee",
      "outputs": [],
      "stateMutability": "nonpayable",
      "type": "function"
    },
    {
      "inputs": [],
      "name": "onlyAttendeeMock",
      "outputs": [],
      "stateMutability": "view",
      "type": "function"
    }
  ],
  "bytecode": "0x608060405234801561001057600080fd5b503380610064576040805162461bcd60e51b815260206004820152601460248201527f496e76616c6964207a65726f2061646472657373000000000000000000000000604482015290519081900360640190fd5b61006d81610073565b506101aa565b61008b8160006100c260201b6101ae1790919060201c565b6040516001600160a01b038216907ff965229cbef17c17a2ced10d89ec5f669942d8dd77bd8a5debcaed392434504e90600090a250565b6100cc8282610143565b1561011e576040805162461bcd60e51b815260206004820152601f60248201527f526f6c65733a206163636f756e7420616c72656164792068617320726f6c6500604482015290519081900360640190fd5b6001600160a01b0316600090815260209190915260409020805460ff19166001179055565b60006001600160a01b03821661018a5760405162461bcd60e51b81526004018080602001828103825260228152602001806105e86022913960400191505060405180910390fd5b506001600160a01b03166000908152602091909152604090205460ff1690565b61042f806101b96000396000f3fe608060405234801561001057600080fd5b50600436106100575760003560e01c8063102462541461005c5780636cad259014610084578063b977672a146100be578063e55448fc146100c6578063fb1da543146100ec575b600080fd5b6100826004803603602081101561007257600080fd5b50356001600160a01b03166100f4565b005b6100aa6004803603602081101561009a57600080fd5b50356001600160a01b0316610144565b604080519115158252519081900360200190f35b610082610156565b610082600480360360208110156100dc57600080fd5b50356001600160a01b031661019c565b6100826101a5565b6100fd33610144565b6101385760405162461bcd60e51b81526004018080602001828103825260318152602001806103c96031913960400191505060405180910390fd5b6101418161022f565b50565b60006101508183610271565b92915050565b61015f33610144565b61019a5760405162461bcd60e51b81526004018080602001828103825260318152602001806103c96031913960400191505060405180910390fd5b565b610141816102d8565b61019a336102d8565b6101b88282610271565b1561020a576040805162461bcd60e51b815260206004820152601f60248201527f526f6c65733a206163636f756e7420616c72656164792068617320726f6c6500604482015290519081900360640190fd5b6001600160a01b0316600090815260209190915260409020805460ff19166001179055565b61023a6000826101ae565b6040516001600160a01b038216907ff965229cbef17c17a2ced10d89ec5f669942d8dd77bd8a5debcaed392434504e90600090a250565b60006001600160a01b0382166102b85760405162461bcd60e51b81526004018080602001828103825260228152602001806103a76022913960400191505060405180910390fd5b506001600160a01b03166000908152602091909152604090205460ff1690565b610141816102e760008261031e565b6040516001600160a01b038216907fac9358f7f807517a7bfea84ce37617a495e55d78f95d2efadcdfbf94817220e090600090a250565b6103288282610271565b6103635760405162461bcd60e51b81526004018080602001828103825260218152602001806103866021913960400191505060405180910390fd5b6001600160a01b0316600090815260209190915260409020805460ff1916905556fe526f6c65733a206163636f756e7420646f6573206e6f74206861766520726f6c65526f6c65733a206163636f756e7420697320746865207a65726f2061646472657373417474656e646565526f6c653a2063616c6c657220646f6573206e6f74206861766520417474656e64656520526f6c652ea2646970667358221220ca9b01987ec30b96b9ee5e413ad51b84fad5078d1d7298102039bf80ef7142fb64736f6c63430007060033526f6c65733a206163636f756e7420697320746865207a65726f2061646472657373",
  "immutableReferences": {},
  "source": "// SPDX-License-Identifier: UNLICENSED\n\n// Based on OpenZeppelin's https://github.com/OpenZeppelin/openzeppelin-contracts/blob/master/contracts/mocks/MinterRoleMock.sol\n\npragma solidity >=0.7.0 <0.8.0;\n\nimport \"../roles/AttendeeRole.sol\";\n\ncontract AttendeeRoleMock is AttendeeRole {\n    constructor() AttendeeRole(msg.sender) {}\n\n    function removeAttendee(address account) public {\n        _removeAttendee(account);\n    }\n\n    function onlyAttendeeMock() public view onlyAttendee {\n        // solhint-disable-previous-line no-empty-blocks\n    }\n\n    // Causes a compilation error if super._removeAttendee is not internal\n    function _removeAttendee(address account) internal override {\n        super._removeAttendee(account);\n    }\n}\n",
  "sourcePath": "/media/fodisi/56401C55401C3DE5/dev/Projects/hackapay/contracts/mocks/AttendeeRoleMock.sol",
  "compiler": {
    "name": "solc",
    "version": "0.7.6+commit.7338295f.Emscripten.clang"
  },
  "schemaVersion": "3.3.2",
  "updatedAt": "2021-01-22T04:14:17.084Z",
  "devdoc": {
    "kind": "dev",
    "methods": {},
    "version": 1
  },
  "userdoc": {
    "kind": "user",
    "methods": {},
    "version": 1
  }
}