{
  "contractName": "ContestTeam",
  "abi": [
    {
      "constant": false,
      "inputs": [
        {
          "name": "account",
          "type": "address"
        }
      ],
      "name": "addAttendee",
      "outputs": [],
      "payable": false,
      "stateMutability": "nonpayable",
      "type": "function"
    },
    {
      "constant": true,
      "inputs": [
        {
          "name": "account",
          "type": "address"
        }
      ],
      "name": "isAttendee",
      "outputs": [
        {
          "name": "",
          "type": "bool"
        }
      ],
      "payable": false,
      "stateMutability": "view",
      "type": "function"
    },
    {
      "constant": true,
      "inputs": [],
      "name": "isPaused",
      "outputs": [
        {
          "name": "",
          "type": "bool"
        }
      ],
      "payable": false,
      "stateMutability": "view",
      "type": "function"
    },
    {
      "constant": false,
      "inputs": [],
      "name": "deposit",
      "outputs": [],
      "payable": true,
      "stateMutability": "payable",
      "type": "function"
    },
    {
      "constant": false,
      "inputs": [],
      "name": "renounceAttendee",
      "outputs": [],
      "payable": false,
      "stateMutability": "nonpayable",
      "type": "function"
    },
    {
      "constant": false,
      "inputs": [],
      "name": "_unpause",
      "outputs": [],
      "payable": false,
      "stateMutability": "nonpayable",
      "type": "function"
    },
    {
      "inputs": [
        {
          "name": "initialAttendee",
          "type": "address"
        }
      ],
      "payable": false,
      "stateMutability": "nonpayable",
      "type": "constructor"
    },
    {
      "anonymous": false,
      "inputs": [
        {
          "indexed": true,
          "name": "to",
          "type": "address"
        },
        {
          "indexed": false,
          "name": "amount",
          "type": "uint256"
        },
        {
          "indexed": true,
          "name": "datetime",
          "type": "uint256"
        }
      ],
      "name": "Withdraw",
      "type": "event"
    },
    {
      "anonymous": false,
      "inputs": [
        {
          "indexed": true,
          "name": "sender",
          "type": "address"
        },
        {
          "indexed": false,
          "name": "totalPrize",
          "type": "uint256"
        },
        {
          "indexed": false,
          "name": "membersCount",
          "type": "uint256"
        },
        {
          "indexed": false,
          "name": "memberPrize",
          "type": "uint256"
        },
        {
          "indexed": true,
          "name": "datetime",
          "type": "uint256"
        }
      ],
      "name": "PrizeSplit",
      "type": "event"
    },
    {
      "anonymous": false,
      "inputs": [
        {
          "indexed": false,
          "name": "account",
          "type": "address"
        }
      ],
      "name": "Paused",
      "type": "event"
    },
    {
      "anonymous": false,
      "inputs": [
        {
          "indexed": false,
          "name": "account",
          "type": "address"
        }
      ],
      "name": "Unpaused",
      "type": "event"
    },
    {
      "anonymous": false,
      "inputs": [
        {
          "indexed": true,
          "name": "account",
          "type": "address"
        }
      ],
      "name": "AttendeeAdded",
      "type": "event"
    },
    {
      "anonymous": false,
      "inputs": [
        {
          "indexed": true,
          "name": "account",
          "type": "address"
        }
      ],
      "name": "AttendeeRemoved",
      "type": "event"
    },
    {
      "anonymous": false,
      "inputs": [
        {
          "indexed": true,
          "name": "from",
          "type": "address"
        },
        {
          "indexed": false,
          "name": "amount",
          "type": "uint256"
        },
        {
          "indexed": true,
          "name": "datetime",
          "type": "uint256"
        }
      ],
      "name": "Deposit",
      "type": "event"
    },
    {
      "constant": false,
      "inputs": [],
      "name": "splitPrize",
      "outputs": [],
      "payable": false,
      "stateMutability": "nonpayable",
      "type": "function"
    },
    {
      "constant": false,
      "inputs": [
        {
          "name": "amount",
          "type": "uint256"
        }
      ],
      "name": "withdraw",
      "outputs": [],
      "payable": false,
      "stateMutability": "nonpayable",
      "type": "function"
    },
    {
      "constant": true,
      "inputs": [],
      "name": "getActiveMembers",
      "outputs": [
        {
          "name": "",
          "type": "address[]"
        }
      ],
      "payable": false,
      "stateMutability": "view",
      "type": "function"
    },
    {
      "constant": true,
      "inputs": [],
      "name": "getActiveMembersCount",
      "outputs": [
        {
          "name": "",
          "type": "uint256"
        }
      ],
      "payable": false,
      "stateMutability": "view",
      "type": "function"
    },
    {
      "constant": true,
      "inputs": [],
      "name": "balanceOf",
      "outputs": [
        {
          "name": "",
          "type": "uint256"
        }
      ],
      "payable": false,
      "stateMutability": "view",
      "type": "function"
    },
    {
      "constant": false,
      "inputs": [],
      "name": "pause",
      "outputs": [],
      "payable": false,
      "stateMutability": "nonpayable",
      "type": "function"
    },
    {
      "constant": false,
      "inputs": [],
      "name": "unpause",
      "outputs": [],
      "payable": false,
      "stateMutability": "nonpayable",
      "type": "function"
    }
  ],
  "bytecode": "0x60806040523480156200001157600080fd5b5060405160208062001f2b833981018060405260208110156200003357600080fd5b810190808051906020019092919050505080600073ffffffffffffffffffffffffffffffffffffffff168173ffffffffffffffffffffffffffffffffffffffff161415620000e9576040517f08c379a00000000000000000000000000000000000000000000000000000000081526004018080602001828103825260148152602001807f496e76616c6964207a65726f206164647265737300000000000000000000000081525060200191505060405180910390fd5b620000fa816200011d60201b60201c565b506000600160006101000a81548160ff0219169083151502179055505062000549565b600160009054906101000a900460ff1615620001a1576040517f08c379a00000000000000000000000000000000000000000000000000000000081526004018080602001828103825260128152602001807f436f6e747261637420697320706175736564000000000000000000000000000081525060200191505060405180910390fd5b620001b7816200029b60201b6200150b1760201c565b60028190806001815401808255809150509060018203906000526020600020016000909192909190916101000a81548173ffffffffffffffffffffffffffffffffffffffff021916908373ffffffffffffffffffffffffffffffffffffffff160217905550506001600460008373ffffffffffffffffffffffffffffffffffffffff1673ffffffffffffffffffffffffffffffffffffffff16815260200190815260200160002060006101000a81548160ff021916908315150217905550620002926001600354620002fc60201b620010ca1790919060201c565b60038190555050565b620002b68160006200038560201b620016c11790919060201c565b8073ffffffffffffffffffffffffffffffffffffffff167ff965229cbef17c17a2ced10d89ec5f669942d8dd77bd8a5debcaed392434504e60405160405180910390a250565b6000808284019050838110156200037b576040517f08c379a000000000000000000000000000000000000000000000000000000000815260040180806020018281038252601b8152602001807f536166654d6174683a206164646974696f6e206f766572666c6f77000000000081525060200191505060405180910390fd5b8091505092915050565b6200039782826200046960201b60201c565b156200040b576040517f08c379a000000000000000000000000000000000000000000000000000000000815260040180806020018281038252601f8152602001807f526f6c65733a206163636f756e7420616c72656164792068617320726f6c650081525060200191505060405180910390fd5b60018260000160008373ffffffffffffffffffffffffffffffffffffffff1673ffffffffffffffffffffffffffffffffffffffff16815260200190815260200160002060006101000a81548160ff0219169083151502179055505050565b60008073ffffffffffffffffffffffffffffffffffffffff168273ffffffffffffffffffffffffffffffffffffffff161415620004f2576040517f08c379a000000000000000000000000000000000000000000000000000000000815260040180806020018281038252602281526020018062001f096022913960400191505060405180910390fd5b8260000160008373ffffffffffffffffffffffffffffffffffffffff1673ffffffffffffffffffffffffffffffffffffffff16815260200190815260200160002060009054906101000a900460ff16905092915050565b6119b080620005596000396000f3fe6080604052600436106100c25760003560e01c8063722713f71161007f578063b187bd2611610059578063b187bd26146102c3578063d0e30db0146102f2578063fb1da543146102fc578063fc8234cb14610313576100c2565b8063722713f7146102565780638456cb59146102815780638f7c851914610298576100c2565b806307057382146100c757806310246254146100de5780632e1a7d4d1461012f5780633f4ba83a1461016a5780634876aebc146101815780636cad2590146101ed575b600080fd5b3480156100d357600080fd5b506100dc61032a565b005b3480156100ea57600080fd5b5061012d6004803603602081101561010157600080fd5b81019080803573ffffffffffffffffffffffffffffffffffffffff1690602001909291905050506107ff565b005b34801561013b57600080fd5b506101686004803603602081101561015257600080fd5b8101908080359060200190929190505050610869565b005b34801561017657600080fd5b5061017f610a70565b005b34801561018d57600080fd5b50610196610ad8565b6040518080602001828103825283818151815260200191508051906020019060200280838360005b838110156101d95780820151818401526020810190506101be565b505050509050019250505060405180910390f35b3480156101f957600080fd5b5061023c6004803603602081101561021057600080fd5b81019080803573ffffffffffffffffffffffffffffffffffffffff169060200190929190505050610c2a565b604051808215151515815260200191505060405180910390f35b34801561026257600080fd5b5061026b610c47565b6040518082815260200191505060405180910390f35b34801561028d57600080fd5b50610296610cec565b005b3480156102a457600080fd5b506102ad610d54565b6040518082815260200191505060405180910390f35b3480156102cf57600080fd5b506102d8610d5e565b604051808215151515815260200191505060405180910390f35b6102fa610d75565b005b34801561030857600080fd5b50610311610e1f565b005b34801561031f57600080fd5b50610328610e2a565b005b61033333610c2a565b610388576040517f08c379a000000000000000000000000000000000000000000000000000000000815260040180806020018281038252603181526020018061192d6031913960400191505060405180910390fd5b600160009054906101000a900460ff161561040b576040517f08c379a00000000000000000000000000000000000000000000000000000000081526004018080602001828103825260128152602001807f436f6e747261637420697320706175736564000000000000000000000000000081525060200191505060405180910390fd5b60006104396006543073ffffffffffffffffffffffffffffffffffffffff1631610f2c90919063ffffffff16565b9050600081116104b1576040517f08c379a000000000000000000000000000000000000000000000000000000000815260040180806020018281038252601b8152602001807f436f6e74657374616e745465616d2062616c616e63652069732030000000000081525060200191505060405180910390fd5b60006104c860035483610fb590919063ffffffff16565b905060008111610540576040517f08c379a00000000000000000000000000000000000000000000000000000000081526004018080602001828103825260118152602001807f4d656d626572207072697a65206973203000000000000000000000000000000081525060200191505060405180910390fd5b600061054e82600354611044565b9050600080600090505b6002805490508110156106b35760006002828154811061057457fe5b9060005260206000200160009054906101000a900473ffffffffffffffffffffffffffffffffffffffff16905060011515600460008373ffffffffffffffffffffffffffffffffffffffff1673ffffffffffffffffffffffffffffffffffffffff16815260200190815260200160002060009054906101000a900460ff16151514156106a55761064c85600560008473ffffffffffffffffffffffffffffffffffffffff1673ffffffffffffffffffffffffffffffffffffffff168152602001908152602001600020546110ca90919063ffffffff16565b600560008373ffffffffffffffffffffffffffffffffffffffff1673ffffffffffffffffffffffffffffffffffffffff168152602001908152602001600020819055506106a285846110ca90919063ffffffff16565b92505b508080600101915050610558565b506106c9846006546110ca90919063ffffffff16565b600681905550818114610727576040517f08c379a000000000000000000000000000000000000000000000000000000000815260040180806020018281038252602481526020018061187b6024913960400191505060405180910390fd5b6006543073ffffffffffffffffffffffffffffffffffffffff163114610798576040517f08c379a000000000000000000000000000000000000000000000000000000000815260040180806020018281038252602a81526020018061189f602a913960400191505060405180910390fd5b423373ffffffffffffffffffffffffffffffffffffffff167f347ce84d9ed7334a67bdbc36e6519fbbc870a22468c5fa79fcbb5d68f5bc220d866003548760405180848152602001838152602001828152602001935050505060405180910390a350505050565b61080833610c2a565b61085d576040517f08c379a000000000000000000000000000000000000000000000000000000000815260040180806020018281038252603181526020018061192d6031913960400191505060405180910390fd5b61086681611152565b50565b80600560003373ffffffffffffffffffffffffffffffffffffffff1673ffffffffffffffffffffffffffffffffffffffff16815260200190815260200160002054101561091e576040517f08c379a00000000000000000000000000000000000000000000000000000000081526004018080602001828103825260128152602001807f4e6f7420656e6f7567682062616c616e6365000000000000000000000000000081525060200191505060405180910390fd5b6000600560003373ffffffffffffffffffffffffffffffffffffffff1673ffffffffffffffffffffffffffffffffffffffff1681526020019081526020016000205490506109758282610f2c90919063ffffffff16565b905080600560003373ffffffffffffffffffffffffffffffffffffffff1673ffffffffffffffffffffffffffffffffffffffff168152602001908152602001600020819055506109d082600654610f2c90919063ffffffff16565b6006819055503373ffffffffffffffffffffffffffffffffffffffff166108fc839081150290604051600060405180830381858888f19350505050158015610a1c573d6000803e3d6000fd5b50423373ffffffffffffffffffffffffffffffffffffffff167ff279e6a1f5e320cca91135676d9cb6e44ca8a08c0b88342bcdb1144f6511b568846040518082815260200191505060405180910390a35050565b610a7933610c2a565b610ace576040517f08c379a000000000000000000000000000000000000000000000000000000000815260040180806020018281038252603181526020018061192d6031913960400191505060405180910390fd5b610ad66112bb565b565b60606002805490506003541115610aee57600080fd5b6060600354604051908082528060200260200182016040528015610b215781602001602082028038833980820191505090505b50905060008090505b600280549050811015610c2257600060028281548110610b4657fe5b9060005260206000200160009054906101000a900473ffffffffffffffffffffffffffffffffffffffff16905060011515600460008373ffffffffffffffffffffffffffffffffffffffff1673ffffffffffffffffffffffffffffffffffffffff16815260200190815260200160002060009054906101000a900460ff1615151415610c145780838381518110610bd957fe5b602002602001019073ffffffffffffffffffffffffffffffffffffffff16908173ffffffffffffffffffffffffffffffffffffffff16815250505b508080600101915050610b2a565b508091505090565b6000610c408260006112c590919063ffffffff16565b9050919050565b6000610c5233610c2a565b610ca7576040517f08c379a000000000000000000000000000000000000000000000000000000000815260040180806020018281038252603181526020018061192d6031913960400191505060405180910390fd5b600560003373ffffffffffffffffffffffffffffffffffffffff1673ffffffffffffffffffffffffffffffffffffffff16815260200190815260200160002054905090565b610cf533610c2a565b610d4a576040517f08c379a000000000000000000000000000000000000000000000000000000000815260040180806020018281038252603181526020018061192d6031913960400191505060405180910390fd5b610d526113a3565b565b6000600354905090565b6000600160009054906101000a900460ff16905090565b60003411610dce576040517f08c379a000000000000000000000000000000000000000000000000000000000815260040180806020018281038252602181526020018061185a6021913960400191505060405180910390fd5b423373ffffffffffffffffffffffffffffffffffffffff167f90890809c654f11d6e72a28fa60149770a0d11ec6c92319d6ceb2bb0a4ea1a15346040518082815260200191505060405180910390a3565b610e28336113ad565b565b600160009054906101000a900460ff16610eac576040517f08c379a00000000000000000000000000000000000000000000000000000000081526004018080602001828103825260168152602001807f436f6e7472616374206973206e6f74207061757365640000000000000000000081525060200191505060405180910390fd5b6000600160006101000a81548160ff0219169083151502179055507f5db9ee0a495bf2e6ff9c91a7834c1ba4fdd244a5e8aa4e537bd38aeae4b073aa33604051808273ffffffffffffffffffffffffffffffffffffffff1673ffffffffffffffffffffffffffffffffffffffff16815260200191505060405180910390a1565b600082821115610fa4576040517f08c379a000000000000000000000000000000000000000000000000000000000815260040180806020018281038252601e8152602001807f536166654d6174683a207375627472616374696f6e206f766572666c6f77000081525060200191505060405180910390fd5b600082840390508091505092915050565b600080821161102c576040517f08c379a000000000000000000000000000000000000000000000000000000000815260040180806020018281038252601a8152602001807f536166654d6174683a206469766973696f6e206279207a65726f00000000000081525060200191505060405180910390fd5b600082848161103757fe5b0490508091505092915050565b60008083141561105757600090506110c4565b600082840290508284828161106857fe5b04146110bf576040517f08c379a00000000000000000000000000000000000000000000000000000000081526004018080602001828103825260218152602001806118ea6021913960400191505060405180910390fd5b809150505b92915050565b600080828401905083811015611148576040517f08c379a000000000000000000000000000000000000000000000000000000000815260040180806020018281038252601b8152602001807f536166654d6174683a206164646974696f6e206f766572666c6f77000000000081525060200191505060405180910390fd5b8091505092915050565b600160009054906101000a900460ff16156111d5576040517f08c379a00000000000000000000000000000000000000000000000000000000081526004018080602001828103825260128152602001807f436f6e747261637420697320706175736564000000000000000000000000000081525060200191505060405180910390fd5b6111de8161150b565b60028190806001815401808255809150509060018203906000526020600020016000909192909190916101000a81548173ffffffffffffffffffffffffffffffffffffffff021916908373ffffffffffffffffffffffffffffffffffffffff160217905550506001600460008373ffffffffffffffffffffffffffffffffffffffff1673ffffffffffffffffffffffffffffffffffffffff16815260200190815260200160002060006101000a81548160ff0219169083151502179055506112b260016003546110ca90919063ffffffff16565b60038190555050565b6112c3610e2a565b565b60008073ffffffffffffffffffffffffffffffffffffffff168273ffffffffffffffffffffffffffffffffffffffff16141561134c576040517f08c379a000000000000000000000000000000000000000000000000000000000815260040180806020018281038252602281526020018061190b6022913960400191505060405180910390fd5b8260000160008373ffffffffffffffffffffffffffffffffffffffff1673ffffffffffffffffffffffffffffffffffffffff16815260200190815260200160002060009054906101000a900460ff16905092915050565b6113ab611565565b565b600160009054906101000a900460ff1615611430576040517f08c379a00000000000000000000000000000000000000000000000000000000081526004018080602001828103825260128152602001807f436f6e747261637420697320706175736564000000000000000000000000000081525060200191505060405180910390fd5b60016003541161148b576040517f08c379a000000000000000000000000000000000000000000000000000000000815260040180806020018281038252602781526020018061195e6027913960400191505060405180910390fd5b61149481611667565b6000600460008373ffffffffffffffffffffffffffffffffffffffff1673ffffffffffffffffffffffffffffffffffffffff16815260200190815260200160002060006101000a81548160ff0219169083151502179055506115026001600354610f2c90919063ffffffff16565b60038190555050565b61151f8160006116c190919063ffffffff16565b8073ffffffffffffffffffffffffffffffffffffffff167ff965229cbef17c17a2ced10d89ec5f669942d8dd77bd8a5debcaed392434504e60405160405180910390a250565b600160009054906101000a900460ff16156115e8576040517f08c379a00000000000000000000000000000000000000000000000000000000081526004018080602001828103825260128152602001807f436f6e747261637420697320706175736564000000000000000000000000000081525060200191505060405180910390fd5b60018060006101000a81548160ff0219169083151502179055507f62e78cea01bee320cd4e420270b5ea74000d11b0c9f74754ebdbfc544b05a25833604051808273ffffffffffffffffffffffffffffffffffffffff1673ffffffffffffffffffffffffffffffffffffffff16815260200191505060405180910390a1565b61167b81600061179c90919063ffffffff16565b8073ffffffffffffffffffffffffffffffffffffffff167fac9358f7f807517a7bfea84ce37617a495e55d78f95d2efadcdfbf94817220e060405160405180910390a250565b6116cb82826112c5565b1561173e576040517f08c379a000000000000000000000000000000000000000000000000000000000815260040180806020018281038252601f8152602001807f526f6c65733a206163636f756e7420616c72656164792068617320726f6c650081525060200191505060405180910390fd5b60018260000160008373ffffffffffffffffffffffffffffffffffffffff1673ffffffffffffffffffffffffffffffffffffffff16815260200190815260200160002060006101000a81548160ff0219169083151502179055505050565b6117a682826112c5565b6117fb576040517f08c379a00000000000000000000000000000000000000000000000000000000081526004018080602001828103825260218152602001806118c96021913960400191505060405180910390fd5b60008260000160008373ffffffffffffffffffffffffffffffffffffffff1673ffffffffffffffffffffffffffffffffffffffff16815260200190815260200160002060006101000a81548160ff021916908315150217905550505056fe6d73672e76616c7565206d757374206265206772656174686572207468616e2030496e76616c69642073706c6974206265747765656e20616374697665206d656d6265727352657365727665642062616c616e63656420776173206e6f7420757064617465642070726f7065726c79526f6c65733a206163636f756e7420646f6573206e6f74206861766520726f6c65536166654d6174683a206d756c7469706c69636174696f6e206f766572666c6f77526f6c65733a206163636f756e7420697320746865207a65726f2061646472657373417474656e646565526f6c653a2063616c6c657220646f6573206e6f74206861766520417474656e64656520526f6c652e43616e6e6f742072656d6f7665206c617374206d656d6265722066726f6d20636f6e7472616374a165627a7a7230582082e8d1d5c8bdfee3a3c9413cf8739a2d3429c2c8b5c1fe2da10e3614d93c0c0d0029526f6c65733a206163636f756e7420697320746865207a65726f2061646472657373",
  "source": "pragma solidity ^0.5.0;\n\nimport \"openzeppelin-solidity/contracts/math/SafeMath.sol\";\nimport \"../roles/AttendeeRole.sol\";\nimport \"../payment/Payable.sol\";\nimport \"../lifecycle/Pausable.sol\";\n\n/**\n * @notice Represents a Contest Team, allowing the team to receive prizes, and members to split and withdraw their prizes.\n * @dev This contract follows the \"withdraw pattern\". This means that payments are not automatically forwarded to the\n * accounts but kept in this contract, and the actual transfer is triggered as a separate step by calling the {withdraw}\n * function.\n */\n\n// Future improvements\n//TODO: implement multisig to close the contract for new members.\n//TODO: implement multisig to destroy the contract.\n//TODO: implement multisig to remove members.\n//TODO: implement multisig to transfer contract's funds to another address. See TODO on {splitPrize}.\ncontract ContestTeam is Payable, AttendeeRole, Pausable {\n    using SafeMath for uint256;\n\n    address[] internal teamMembers; // List of members\n    uint256 internal activeTeamMembersCount; // Helper for {splitPrize} and {getActiveMembers}.\n    mapping(address => bool) internal activeTeamMembers; // Controls active members\n    mapping(address => uint256) internal balances; // Controls member's balances.\n    uint256 internal reservedBalance; // Controls reserved balance, that was already split.\n\n    /// @notice emitted when a member withdraws from the contract.\n    event Withdraw(address indexed to, uint256 amount, uint256 indexed datetime);\n    /// @notice emitted when the contract's balance (prize) is split between active members.\n    event PrizeSplit(\n        address indexed sender,\n        uint256 totalPrize,\n        uint256 membersCount,\n        uint256 memberPrize,\n        uint256 indexed datetime\n    );\n\n    /// @dev Needs to be inherited.\n    constructor(address initialAttendee) public Payable() AttendeeRole(initialAttendee) Pausable() {}\n\n    /**\n     * @notice Splits the available's contract balance between active team members.\n     * @dev Implements the \"withdraw pattern\" by allocating balances to team \n     * members, so they can request a withdraw once the split is done.\n     */\n    function splitPrize() external onlyAttendee whenNotPaused {\n        // Cannot split amounts that were split in the past and are still pending from withdraw.\n        uint256 availableBalance = address(this).balance.sub(reservedBalance);\n        require(availableBalance > 0, \"ContestantTeam balance is 0\");\n\n        uint256 prize = availableBalance.div(activeTeamMembersCount);\n        require(prize > 0, \"Member prize is 0\");\n\n        uint256 expectedDistribution = SafeMath.mul(prize, activeTeamMembersCount);\n        uint256 distributedPrize;\n\n        for (uint256 index = 0; index < teamMembers.length; index++) {\n            address member = teamMembers[index];\n            // Credits active member's balance.\n            if (activeTeamMembers[member] == true) {\n                balances[member] = balances[member].add(prize);\n                distributedPrize = distributedPrize.add(prize);\n            }\n        }\n\n        // Makes sure new split is reserved and accounted in future splits\n        reservedBalance = reservedBalance.add(availableBalance);\n        // Makes sure no invalid distribution was done between members. If so, it reverts.\n        // TODO: In case there's a bug in the above logic, contract's funds could be stuck\n        // in the contract. See future improvements related to multisignature implementation to mitigate\n        // this issue in case a bug is found (tests do not show bugs, but untested scenarioes may rise).\n        require(distributedPrize == expectedDistribution, \"Invalid split between active members\");\n        require(address(this).balance == reservedBalance, \"Reserved balanced was not updated properly\");\n        emit PrizeSplit(msg.sender, availableBalance, activeTeamMembersCount, prize, now);\n    }\n\n    /**\n     * @notice Allows a team member to withdraw its funds from the contract.\n     * @dev Implements the \"withdraw pattern\" allowing members to withdraw funds.\n     * The method is public, so inactive members (that renounced membership)\n     * are still able to withdraw funds in case balance > 0. \n     */\n    function withdraw(uint256 amount) external {\n        require(balances[msg.sender] >= amount, \"Not enough balance\");\n        uint256 currentBalance = balances[msg.sender];\n        currentBalance = currentBalance.sub(amount);\n        balances[msg.sender] = currentBalance;\n        // Updates contract's reserved balance, so future splits will be correctly calculated.\n        reservedBalance = reservedBalance.sub(amount);\n        msg.sender.transfer(amount);\n        emit Withdraw(msg.sender, amount, now);\n    }\n\n    /// @notice Gets the active members in the team.\n    function getActiveMembers() public view returns (address[] memory) {\n        require(activeTeamMembersCount <= teamMembers.length);\n        address[] memory activeMembers = new address[](activeTeamMembersCount);\n        // {teamMembers} can have INACTIVE members, so need to loop through to return only active members.\n        for (uint256 index = 0; index < teamMembers.length; index++) {\n            address member = teamMembers[index];\n            if (activeTeamMembers[member] == true) {\n                activeMembers[index] = member;\n            }\n        }\n        return activeMembers;\n    }\n\n    /// @notice Gets the number of active team members.\n    function getActiveMembersCount() external view returns (uint256) {\n        return activeTeamMembersCount;\n    }\n\n    /// @notice Get the balance of a team member\n    function balanceOf() public view onlyAttendee returns (uint256) {\n        return balances[msg.sender];\n    }\n\n    /**\n        @notice Trigger the paused state.\n        @dev Implements the onlyAttendee modifier for access control.\n     */\n    function pause() public onlyAttendee {\n        super.pause();\n    }\n\n    /**\n        @notice Lifts the paused state.\n        @dev Implements the onlyAttendee modifier for access control.\n     */\n    function unpause() public onlyAttendee {\n        super.unpause();\n    }\n\n    /// @dev Overrides {AttendeeRole} internal method, to properly update internal storage related to team members.\n    function _addAttendee(address account) internal whenNotPaused {\n        super._addAttendee(account);\n        teamMembers.push(account);\n        activeTeamMembers[account] = true;\n        activeTeamMembersCount = activeTeamMembersCount.add(1);\n    }\n\n    /// @dev Overrides {AttendeeRole} internal method, to properly update internal storage related to team members.\n    function _removeAttendee(address account) internal whenNotPaused {\n        // Makes sure the contract have at least of member/owner.\n        require(activeTeamMembersCount > 1, \"Cannot remove last member from contract\");\n        super._removeAttendee(account);\n        activeTeamMembers[account] = false;\n        activeTeamMembersCount = activeTeamMembersCount.sub(1);\n    }\n}\n",
  "sourcePath": "/home/odisi/dev/projects/hackapay/contracts/core/ContestTeam.sol",
  "compiler": {
    "name": "solc",
    "version": "0.5.8+commit.23d335f2.Emscripten.clang"
  },
  "schemaVersion": "3.0.11",
  "updatedAt": "2019-07-29T15:59:47.372Z",
  "devdoc": {
    "details": "This contract follows the \"withdraw pattern\". This means that payments are not automatically forwarded to the accounts but kept in this contract, and the actual transfer is triggered as a separate step by calling the {withdraw} function.",
    "methods": {
      "_unpause()": {
        "details": "Internal implementation that lifts the paused state."
      },
      "constructor": {
        "details": "Needs to be inherited."
      },
      "isPaused()": {
        "return": "{true} if the contract is paused; otherwise, {false}."
      },
      "pause()": {
        "details": "Implements the onlyAttendee modifier for access control."
      },
      "splitPrize()": {
        "details": "Implements the \"withdraw pattern\" by allocating balances to team  members, so they can request a withdraw once the split is done."
      },
      "unpause()": {
        "details": "Implements the onlyAttendee modifier for access control."
      },
      "withdraw(uint256)": {
        "details": "Implements the \"withdraw pattern\" allowing members to withdraw funds. The method is public, so inactive members (that renounced membership) are still able to withdraw funds in case balance > 0. "
      }
    }
  },
  "userdoc": {
    "methods": {
      "balanceOf()": {
        "notice": "Get the balance of a team member"
      },
      "deposit()": {
        "notice": "Allows the contract to receive funds."
      },
      "getActiveMembers()": {
        "notice": "Gets the active members in the team."
      },
      "getActiveMembersCount()": {
        "notice": "Gets the number of active team members."
      },
      "isPaused()": {
        "notice": "Returns if the contract is paused or not."
      },
      "pause()": {
        "notice": "Trigger the paused state."
      },
      "splitPrize()": {
        "notice": "Splits the available's contract balance between active team members."
      },
      "unpause()": {
        "notice": "Lifts the paused state."
      },
      "withdraw(uint256)": {
        "notice": "Allows a team member to withdraw its funds from the contract."
      }
    },
    "notice": "Represents a Contest Team, allowing the team to receive prizes, and members to split and withdraw their prizes."
  }
}