{
  "contractName": "ContestRoleManagerMock",
  "abi": [
    {
      "inputs": [],
      "payable": false,
      "stateMutability": "nonpayable",
      "type": "constructor"
    },
    {
      "anonymous": false,
      "inputs": [
        {
          "indexed": true,
          "internalType": "address",
          "name": "account",
          "type": "address"
        }
      ],
      "name": "JudgeAdded",
      "type": "event"
    },
    {
      "anonymous": false,
      "inputs": [
        {
          "indexed": true,
          "internalType": "address",
          "name": "account",
          "type": "address"
        }
      ],
      "name": "JudgeRemoved",
      "type": "event"
    },
    {
      "anonymous": false,
      "inputs": [
        {
          "indexed": true,
          "internalType": "address",
          "name": "account",
          "type": "address"
        }
      ],
      "name": "OrganizerAdded",
      "type": "event"
    },
    {
      "anonymous": false,
      "inputs": [
        {
          "indexed": true,
          "internalType": "address",
          "name": "account",
          "type": "address"
        }
      ],
      "name": "OrganizerRemoved",
      "type": "event"
    },
    {
      "constant": false,
      "inputs": [
        {
          "internalType": "address",
          "name": "account",
          "type": "address"
        }
      ],
      "name": "addJudge",
      "outputs": [],
      "payable": false,
      "stateMutability": "nonpayable",
      "type": "function"
    },
    {
      "constant": false,
      "inputs": [
        {
          "internalType": "address",
          "name": "account",
          "type": "address"
        }
      ],
      "name": "addOrganizer",
      "outputs": [],
      "payable": false,
      "stateMutability": "nonpayable",
      "type": "function"
    },
    {
      "constant": true,
      "inputs": [
        {
          "internalType": "address",
          "name": "account",
          "type": "address"
        }
      ],
      "name": "isJudge",
      "outputs": [
        {
          "internalType": "bool",
          "name": "",
          "type": "bool"
        }
      ],
      "payable": false,
      "stateMutability": "view",
      "type": "function"
    },
    {
      "constant": true,
      "inputs": [
        {
          "internalType": "address",
          "name": "account",
          "type": "address"
        }
      ],
      "name": "isOrganizer",
      "outputs": [
        {
          "internalType": "bool",
          "name": "",
          "type": "bool"
        }
      ],
      "payable": false,
      "stateMutability": "view",
      "type": "function"
    },
    {
      "constant": false,
      "inputs": [
        {
          "internalType": "address",
          "name": "account",
          "type": "address"
        }
      ],
      "name": "removeJudge",
      "outputs": [],
      "payable": false,
      "stateMutability": "nonpayable",
      "type": "function"
    },
    {
      "constant": false,
      "inputs": [],
      "name": "renounceJudge",
      "outputs": [],
      "payable": false,
      "stateMutability": "nonpayable",
      "type": "function"
    },
    {
      "constant": false,
      "inputs": [],
      "name": "renounceOrganizer",
      "outputs": [],
      "payable": false,
      "stateMutability": "nonpayable",
      "type": "function"
    },
    {
      "constant": true,
      "inputs": [],
      "name": "getActiveOrganizersCount",
      "outputs": [
        {
          "internalType": "uint256",
          "name": "",
          "type": "uint256"
        }
      ],
      "payable": false,
      "stateMutability": "view",
      "type": "function"
    },
    {
      "constant": true,
      "inputs": [],
      "name": "getActiveJudgesCount",
      "outputs": [
        {
          "internalType": "uint256",
          "name": "",
          "type": "uint256"
        }
      ],
      "payable": false,
      "stateMutability": "view",
      "type": "function"
    }
  ],
  "bytecode": "0x608060405234801561001057600080fd5b50338080610065576040805162461bcd60e51b815260206004820152601460248201527f496e76616c6964207a65726f2061646472657373000000000000000000000000604482015290519081900360640190fd5b610077816001600160e01b0361007e16565b50506102b3565b6100918161011260201b6106291760201c565b6005805460018082019092557f036b6384b5eca791c62761152d0c79bb0604c104a5fb6f4eb0703f3154bb3db00180546001600160a01b0319166001600160a01b0384169081179091556000908152600760209081526040909120805460ff19168317905560065461010c929091610161811b6105cf17901c565b60065550565b61012a8160006101c260201b61076f1790919060201c565b6040516001600160a01b038216907f37e96fc6762bae414e69ea6e2490e63bc46f2a1335de0f6b91f49cf808829bcf90600090a250565b6000828201838110156101bb576040805162461bcd60e51b815260206004820152601b60248201527f536166654d6174683a206164646974696f6e206f766572666c6f770000000000604482015290519081900360640190fd5b9392505050565b6101d582826001600160e01b0361024c16565b15610227576040805162461bcd60e51b815260206004820152601f60248201527f526f6c65733a206163636f756e7420616c72656164792068617320726f6c6500604482015290519081900360640190fd5b6001600160a01b0316600090815260209190915260409020805460ff19166001179055565b60006001600160a01b0382166102935760405162461bcd60e51b8152600401808060200182810382526022815260200180610b5d6022913960400191505060405180910390fd5b506001600160a01b03166000908152602091909152604090205460ff1690565b61089b806102c26000396000f3fe608060405234801561001057600080fd5b50600436106100935760003560e01c8063927cab4711610066578063927cab47146100fe578063ae2ac4ae14610124578063ce46e79d1461014a578063e4725f0214610152578063ed896d661461017857610093565b806341676f15146100985780634b30b66f146100d2578063567ad862146100dc578063820429ba146100e4575b600080fd5b6100be600480360360208110156100ae57600080fd5b50356001600160a01b031661019e565b604080519115158252519081900360200190f35b6100da6101b6565b005b6100da6101c1565b6100ec6101ca565b60408051918252519081900360200190f35b6100da6004803603602081101561011457600080fd5b50356001600160a01b03166101d0565b6100da6004803603602081101561013a57600080fd5b50356001600160a01b0316610220565b6100ec61026d565b6100da6004803603602081101561016857600080fd5b50356001600160a01b0316610273565b6100be6004803603602081101561018e57600080fd5b50356001600160a01b03166102c0565b60006101b0818363ffffffff6102d316565b92915050565b6101bf3361033a565b565b6101bf3361037d565b60035490565b6101d93361019e565b6102145760405162461bcd60e51b81526004018080602001828103825260338152602001806107f16033913960400191505060405180910390fd5b61021d816103c0565b50565b6102293361019e565b6102645760405162461bcd60e51b81526004018080602001828103825260338152602001806107f16033913960400191505060405180910390fd5b61021d8161033a565b60065490565b61027c3361019e565b6102b75760405162461bcd60e51b81526004018080602001828103825260338152602001806107f16033913960400191505060405180910390fd5b61021d81610437565b60006101b060018363ffffffff6102d316565b60006001600160a01b03821661031a5760405162461bcd60e51b81526004018080602001828103825260228152602001806108456022913960400191505060405180910390fd5b506001600160a01b03166000908152602091909152604090205460ff1690565b610343816104ae565b6001600160a01b0381166000908152600460205260409020805460ff1916905560035461037790600163ffffffff6104f616565b60035550565b6103868161053f565b6001600160a01b0381166000908152600760205260409020805460ff191690556006546103ba90600163ffffffff6104f616565b60065550565b6103c981610587565b6002805460018082019092557f405787fa12a823e0f2b7631cc41b3ba8828b3321ca811111fa75cd3aa3bb5ace0180546001600160a01b0319166001600160a01b0384169081179091556000908152600460205260409020805460ff191682179055600354610377916105cf565b61044081610629565b6005805460018082019092557f036b6384b5eca791c62761152d0c79bb0604c104a5fb6f4eb0703f3154bb3db00180546001600160a01b0319166001600160a01b0384169081179091556000908152600760205260409020805460ff1916821790556006546103ba916105cf565b6104bf60018263ffffffff61067116565b6040516001600160a01b038216907f32a792a099c63670df7161917c5efb2fdc734cf9f943ebddccbecef87664f2b790600090a250565b600061053883836040518060400160405280601e81526020017f536166654d6174683a207375627472616374696f6e206f766572666c6f7700008152506106d8565b9392505050565b61055060008263ffffffff61067116565b6040516001600160a01b038216907fc459bd414676a5877fcf10a0d73ecf7e1f672a339650b03e628c4046534300e390600090a250565b61059860018263ffffffff61076f16565b6040516001600160a01b038216907fe7f15f9ffff540ae14fdebcd9b6d6cc1fc143933338656c99caa595e8b80903990600090a250565b600082820183811015610538576040805162461bcd60e51b815260206004820152601b60248201527f536166654d6174683a206164646974696f6e206f766572666c6f770000000000604482015290519081900360640190fd5b61063a60008263ffffffff61076f16565b6040516001600160a01b038216907f37e96fc6762bae414e69ea6e2490e63bc46f2a1335de0f6b91f49cf808829bcf90600090a250565b61067b82826102d3565b6106b65760405162461bcd60e51b81526004018080602001828103825260218152602001806108246021913960400191505060405180910390fd5b6001600160a01b0316600090815260209190915260409020805460ff19169055565b600081848411156107675760405162461bcd60e51b81526004018080602001828103825283818151815260200191508051906020019080838360005b8381101561072c578181015183820152602001610714565b50505050905090810190601f1680156107595780820380516001836020036101000a031916815260200191505b509250505060405180910390fd5b505050900390565b61077982826102d3565b156107cb576040805162461bcd60e51b815260206004820152601f60248201527f526f6c65733a206163636f756e7420616c72656164792068617320726f6c6500604482015290519081900360640190fd5b6001600160a01b0316600090815260209190915260409020805460ff1916600117905556fe4f7267616e697a6572526f6c653a2063616c6c657220646f6573206e6f742068617665204f7267616e697a657220526f6c652e526f6c65733a206163636f756e7420646f6573206e6f74206861766520726f6c65526f6c65733a206163636f756e7420697320746865207a65726f2061646472657373a265627a7a72315820a02f1745b5957509302e049a2a55e62bc4b93e535e5fb6f8dbbe2ae4da171f1064736f6c63430005100032526f6c65733a206163636f756e7420697320746865207a65726f2061646472657373",
  "source": "pragma solidity 0.5.16;\n\nimport \"../roles/ContestRoleManager.sol\";\n\ncontract ContestRoleManagerMock is ContestRoleManager {\n    constructor() public ContestRoleManager(msg.sender) {}\n\n    function getActiveOrganizersCount() public view returns (uint256) {\n        return activeOrganizersCount;\n    }\n\n    function getActiveJudgesCount() public view returns (uint256) {\n        return activeJudgesCount;\n    }\n\n}\n",
  "sourcePath": "/media/fodisi/56401C55401C3DE5/dev/Projects/hackapay/contracts/mocks/ContestRoleManagerMock.sol",
  "compiler": {
    "name": "solc",
    "version": "0.5.16+commit.9c3226ce.Emscripten.clang"
  },
  "schemaVersion": "3.0.23",
  "updatedAt": "2020-03-09T03:26:21.874Z",
  "devdoc": {
    "methods": {}
  },
  "userdoc": {
    "methods": {}
  }
}