{
  "contractName": "Contest",
  "abi": [
    {
      "constant": true,
      "inputs": [],
      "name": "name",
      "outputs": [
        {
          "name": "",
          "type": "bytes32"
        }
      ],
      "payable": false,
      "stateMutability": "view",
      "type": "function"
    },
    {
      "constant": true,
      "inputs": [
        {
          "name": "account",
          "type": "address"
        }
      ],
      "name": "isOrganizer",
      "outputs": [
        {
          "name": "",
          "type": "bool"
        }
      ],
      "payable": false,
      "stateMutability": "view",
      "type": "function"
    },
    {
      "constant": false,
      "inputs": [],
      "name": "renounceJudge",
      "outputs": [],
      "payable": false,
      "stateMutability": "nonpayable",
      "type": "function"
    },
    {
      "constant": false,
      "inputs": [],
      "name": "renounceOrganizer",
      "outputs": [],
      "payable": false,
      "stateMutability": "nonpayable",
      "type": "function"
    },
    {
      "constant": true,
      "inputs": [],
      "name": "description",
      "outputs": [
        {
          "name": "",
          "type": "bytes32"
        }
      ],
      "payable": false,
      "stateMutability": "view",
      "type": "function"
    },
    {
      "constant": true,
      "inputs": [],
      "name": "id",
      "outputs": [
        {
          "name": "",
          "type": "uint256"
        }
      ],
      "payable": false,
      "stateMutability": "view",
      "type": "function"
    },
    {
      "constant": false,
      "inputs": [
        {
          "name": "account",
          "type": "address"
        }
      ],
      "name": "addOrganizer",
      "outputs": [],
      "payable": false,
      "stateMutability": "nonpayable",
      "type": "function"
    },
    {
      "constant": true,
      "inputs": [
        {
          "name": "account",
          "type": "address"
        }
      ],
      "name": "isJudge",
      "outputs": [
        {
          "name": "",
          "type": "bool"
        }
      ],
      "payable": false,
      "stateMutability": "view",
      "type": "function"
    },
    {
      "inputs": [
        {
          "name": "_id",
          "type": "uint256"
        },
        {
          "name": "_name",
          "type": "bytes32"
        },
        {
          "name": "_description",
          "type": "bytes32"
        }
      ],
      "payable": false,
      "stateMutability": "nonpayable",
      "type": "constructor"
    },
    {
      "anonymous": false,
      "inputs": [
        {
          "indexed": true,
          "name": "account",
          "type": "address"
        }
      ],
      "name": "JudgeAdded",
      "type": "event"
    },
    {
      "anonymous": false,
      "inputs": [
        {
          "indexed": true,
          "name": "account",
          "type": "address"
        }
      ],
      "name": "JudgeRemoved",
      "type": "event"
    },
    {
      "anonymous": false,
      "inputs": [
        {
          "indexed": true,
          "name": "account",
          "type": "address"
        }
      ],
      "name": "OrganizerAdded",
      "type": "event"
    },
    {
      "anonymous": false,
      "inputs": [
        {
          "indexed": true,
          "name": "account",
          "type": "address"
        }
      ],
      "name": "OrganizerRemoved",
      "type": "event"
    },
    {
      "constant": false,
      "inputs": [
        {
          "name": "account",
          "type": "address"
        }
      ],
      "name": "addJudge",
      "outputs": [],
      "payable": false,
      "stateMutability": "nonpayable",
      "type": "function"
    },
    {
      "constant": false,
      "inputs": [
        {
          "name": "account",
          "type": "address"
        }
      ],
      "name": "removeJudge",
      "outputs": [],
      "payable": false,
      "stateMutability": "nonpayable",
      "type": "function"
    }
  ],
  "bytecode": "0x60806040523480156200001157600080fd5b50604051606080620011a1833981018060405260608110156200003357600080fd5b8101908080519060200190929190805190602001909291908051906020019092919050505062000069336200013560201b60201c565b600060f81b826000602081106200007c57fe5b1a60f81b7effffffffffffffffffffffffffffffffffffffffffffffffffffffffffffff1916141562000117576040517f08c379a00000000000000000000000000000000000000000000000000000000081526004018080602001828103825260148152602001807f6e616d652063616e6e6f7420626520656d70747900000000000000000000000081525060200191505060405180910390fd5b826008819055508160098190555080600a81905550505050620004dd565b6200014b816200022f60201b620009fe1760201c565b60058190806001815401808255809150509060018203906000526020600020016000909192909190916101000a81548173ffffffffffffffffffffffffffffffffffffffff021916908373ffffffffffffffffffffffffffffffffffffffff160217905550506001600760008373ffffffffffffffffffffffffffffffffffffffff1673ffffffffffffffffffffffffffffffffffffffff16815260200190815260200160002060006101000a81548160ff0219169083151502179055506200022660016006546200029060201b620009761790919060201c565b60068190555050565b6200024a8160006200031960201b62000b151790919060201c565b8073ffffffffffffffffffffffffffffffffffffffff167f37e96fc6762bae414e69ea6e2490e63bc46f2a1335de0f6b91f49cf808829bcf60405160405180910390a250565b6000808284019050838110156200030f576040517f08c379a000000000000000000000000000000000000000000000000000000000815260040180806020018281038252601b8152602001807f536166654d6174683a206164646974696f6e206f766572666c6f77000000000081525060200191505060405180910390fd5b8091505092915050565b6200032b8282620003fd60201b60201c565b156200039f576040517f08c379a000000000000000000000000000000000000000000000000000000000815260040180806020018281038252601f8152602001807f526f6c65733a206163636f756e7420616c72656164792068617320726f6c650081525060200191505060405180910390fd5b60018260000160008373ffffffffffffffffffffffffffffffffffffffff1673ffffffffffffffffffffffffffffffffffffffff16815260200190815260200160002060006101000a81548160ff0219169083151502179055505050565b60008073ffffffffffffffffffffffffffffffffffffffff168273ffffffffffffffffffffffffffffffffffffffff16141562000486576040517f08c379a00000000000000000000000000000000000000000000000000000000081526004018080602001828103825260228152602001806200117f6022913960400191505060405180910390fd5b8260000160008373ffffffffffffffffffffffffffffffffffffffff1673ffffffffffffffffffffffffffffffffffffffff16815260200190815260200160002060009054906101000a900460ff16905092915050565b610c9280620004ed6000396000f3fe608060405234801561001057600080fd5b506004361061009e5760003560e01c8063927cab4711610066578063927cab471461014f578063ae2ac4ae14610193578063af640d0f146101d7578063e4725f02146101f5578063ed896d66146102395761009e565b806306fdde03146100a357806341676f15146100c15780634b30b66f1461011d578063567ad862146101275780637284e41614610131575b600080fd5b6100ab610295565b6040518082815260200191505060405180910390f35b610103600480360360208110156100d757600080fd5b81019080803573ffffffffffffffffffffffffffffffffffffffff16906020019092919050505061029b565b604051808215151515815260200191505060405180910390f35b6101256102b8565b005b61012f6102c3565b005b6101396102ce565b6040518082815260200191505060405180910390f35b6101916004803603602081101561016557600080fd5b81019080803573ffffffffffffffffffffffffffffffffffffffff1690602001909291905050506102d4565b005b6101d5600480360360208110156101a957600080fd5b81019080803573ffffffffffffffffffffffffffffffffffffffff16906020019092919050505061033e565b005b6101df6103a8565b6040518082815260200191505060405180910390f35b6102376004803603602081101561020b57600080fd5b81019080803573ffffffffffffffffffffffffffffffffffffffff1690602001909291905050506103ae565b005b61027b6004803603602081101561024f57600080fd5b81019080803573ffffffffffffffffffffffffffffffffffffffff169060200190929190505050610418565b604051808215151515815260200191505060405180910390f35b60095481565b60006102b182600061043590919063ffffffff16565b9050919050565b6102c133610513565b565b6102cc33610593565b565b600a5481565b6102dd3361029b565b610332576040517f08c379a0000000000000000000000000000000000000000000000000000000008152600401808060200182810382526033815260200180610bf16033913960400191505060405180910390fd5b61033b81610613565b50565b6103473361029b565b61039c576040517f08c379a0000000000000000000000000000000000000000000000000000000008152600401808060200182810382526033815260200180610bf16033913960400191505060405180910390fd5b6103a581610513565b50565b60085481565b6103b73361029b565b61040c576040517f08c379a0000000000000000000000000000000000000000000000000000000008152600401808060200182810382526033815260200180610bf16033913960400191505060405180910390fd5b610415816106f9565b50565b600061042e82600161043590919063ffffffff16565b9050919050565b60008073ffffffffffffffffffffffffffffffffffffffff168273ffffffffffffffffffffffffffffffffffffffff1614156104bc576040517f08c379a0000000000000000000000000000000000000000000000000000000008152600401808060200182810382526022815260200180610c456022913960400191505060405180910390fd5b8260000160008373ffffffffffffffffffffffffffffffffffffffff1673ffffffffffffffffffffffffffffffffffffffff16815260200190815260200160002060009054906101000a900460ff16905092915050565b61051c816107df565b6000600460008373ffffffffffffffffffffffffffffffffffffffff1673ffffffffffffffffffffffffffffffffffffffff16815260200190815260200160002060006101000a81548160ff02191690831515021790555061058a600160035461083990919063ffffffff16565b60038190555050565b61059c816108c2565b6000600760008373ffffffffffffffffffffffffffffffffffffffff1673ffffffffffffffffffffffffffffffffffffffff16815260200190815260200160002060006101000a81548160ff02191690831515021790555061060a600160065461083990919063ffffffff16565b60068190555050565b61061c8161091c565b60028190806001815401808255809150509060018203906000526020600020016000909192909190916101000a81548173ffffffffffffffffffffffffffffffffffffffff021916908373ffffffffffffffffffffffffffffffffffffffff160217905550506001600460008373ffffffffffffffffffffffffffffffffffffffff1673ffffffffffffffffffffffffffffffffffffffff16815260200190815260200160002060006101000a81548160ff0219169083151502179055506106f0600160035461097690919063ffffffff16565b60038190555050565b610702816109fe565b60058190806001815401808255809150509060018203906000526020600020016000909192909190916101000a81548173ffffffffffffffffffffffffffffffffffffffff021916908373ffffffffffffffffffffffffffffffffffffffff160217905550506001600760008373ffffffffffffffffffffffffffffffffffffffff1673ffffffffffffffffffffffffffffffffffffffff16815260200190815260200160002060006101000a81548160ff0219169083151502179055506107d6600160065461097690919063ffffffff16565b60068190555050565b6107f3816001610a5890919063ffffffff16565b8073ffffffffffffffffffffffffffffffffffffffff167f32a792a099c63670df7161917c5efb2fdc734cf9f943ebddccbecef87664f2b760405160405180910390a250565b6000828211156108b1576040517f08c379a000000000000000000000000000000000000000000000000000000000815260040180806020018281038252601e8152602001807f536166654d6174683a207375627472616374696f6e206f766572666c6f77000081525060200191505060405180910390fd5b600082840390508091505092915050565b6108d6816000610a5890919063ffffffff16565b8073ffffffffffffffffffffffffffffffffffffffff167fc459bd414676a5877fcf10a0d73ecf7e1f672a339650b03e628c4046534300e360405160405180910390a250565b610930816001610b1590919063ffffffff16565b8073ffffffffffffffffffffffffffffffffffffffff167fe7f15f9ffff540ae14fdebcd9b6d6cc1fc143933338656c99caa595e8b80903960405160405180910390a250565b6000808284019050838110156109f4576040517f08c379a000000000000000000000000000000000000000000000000000000000815260040180806020018281038252601b8152602001807f536166654d6174683a206164646974696f6e206f766572666c6f77000000000081525060200191505060405180910390fd5b8091505092915050565b610a12816000610b1590919063ffffffff16565b8073ffffffffffffffffffffffffffffffffffffffff167f37e96fc6762bae414e69ea6e2490e63bc46f2a1335de0f6b91f49cf808829bcf60405160405180910390a250565b610a628282610435565b610ab7576040517f08c379a0000000000000000000000000000000000000000000000000000000008152600401808060200182810382526021815260200180610c246021913960400191505060405180910390fd5b60008260000160008373ffffffffffffffffffffffffffffffffffffffff1673ffffffffffffffffffffffffffffffffffffffff16815260200190815260200160002060006101000a81548160ff0219169083151502179055505050565b610b1f8282610435565b15610b92576040517f08c379a000000000000000000000000000000000000000000000000000000000815260040180806020018281038252601f8152602001807f526f6c65733a206163636f756e7420616c72656164792068617320726f6c650081525060200191505060405180910390fd5b60018260000160008373ffffffffffffffffffffffffffffffffffffffff1673ffffffffffffffffffffffffffffffffffffffff16815260200190815260200160002060006101000a81548160ff021916908315150217905550505056fe4f7267616e697a6572526f6c653a2063616c6c657220646f6573206e6f742068617665204f7267616e697a657220526f6c652e526f6c65733a206163636f756e7420646f6573206e6f74206861766520726f6c65526f6c65733a206163636f756e7420697320746865207a65726f2061646472657373a165627a7a723058201a528ed23f7934688734335673f6b950e7131a3ab24aed135f60f5f48ad77aaa0029526f6c65733a206163636f756e7420697320746865207a65726f2061646472657373",
  "source": "pragma solidity ^0.5.0;\n\nimport \"openzeppelin-solidity/contracts/math/SafeMath.sol\";\nimport \"../roles/OrganizerRole.sol\";\nimport \"../roles/JudgeRole.sol\";\nimport \"./IContest.sol\";\n\n\ncontract Contest is IContest, OrganizerRole, JudgeRole {\n    using SafeMath for uint256;\n\n    address[] internal judges; // List of members\n    uint256 internal activeJudgesCount; // Helper for {splitPrize} and {getActiveMembers}.\n    mapping(address => bool) internal activeJudges; // Controls active members\n\n    address[] internal organizers; // List of members\n    uint256 internal activeOrganizersCount; // Helper for {splitPrize} and {getActiveMembers}.\n    mapping(address => bool) internal activeOrganizers; // Controls active members\n\n    uint256 public id;\n    bytes32 public name;\n    bytes32 public description;\n\n    constructor(uint256 _id, bytes32 _name, bytes32 _description) public OrganizerRole() JudgeRole() {\n        require(_name[0] != 0, \"name cannot be empty\");\n        id = _id;\n        name = _name;\n        description = _description;\n    }\n\n    function addJudge(address account) public onlyOrganizer {\n        _addJudge(account);\n    }\n\n    function removeJudge(address account) public onlyOrganizer {\n        _removeJudge(account);\n    }\n\n    function _addJudge(address account) internal {\n        super._addJudge(account);\n        judges.push(account);\n        activeJudges[account] = true;\n        activeJudgesCount = activeJudgesCount.add(1);\n    }\n\n    function _removeJudge(address account) internal {\n        super._removeJudge(account);\n        activeJudges[account] = false;\n        activeJudgesCount = activeJudgesCount.sub(1);\n    }\n\n    function _addOrganizer(address account) internal {\n        super._addOrganizer(account);\n        organizers.push(account);\n        activeOrganizers[account] = true;\n        activeOrganizersCount = activeOrganizersCount.add(1);\n    }\n\n    function _removeOrganizer(address account) internal {\n        super._removeOrganizer(account);\n        activeOrganizers[account] = false;\n        activeOrganizersCount = activeOrganizersCount.sub(1);\n    }\n}\n",
  "sourcePath": "/home/odisi/dev/projects/hackapay/contracts/core/Contest.sol",
  "compiler": {
    "name": "solc",
    "version": "0.5.8+commit.23d335f2.Emscripten.clang"
  },
  "schemaVersion": "3.0.11",
  "updatedAt": "2019-07-22T01:31:38.427Z",
  "devdoc": {
    "methods": {}
  },
  "userdoc": {
    "methods": {}
  }
}