{
  "contractName": "ContestTeamMock",
  "abi": [
    {
      "constant": false,
      "inputs": [],
      "name": "splitPrize",
      "outputs": [],
      "payable": false,
      "stateMutability": "nonpayable",
      "type": "function"
    },
    {
      "constant": false,
      "inputs": [
        {
          "name": "account",
          "type": "address"
        }
      ],
      "name": "addAttendee",
      "outputs": [],
      "payable": false,
      "stateMutability": "nonpayable",
      "type": "function"
    },
    {
      "constant": false,
      "inputs": [
        {
          "name": "amount",
          "type": "uint256"
        }
      ],
      "name": "withdraw",
      "outputs": [],
      "payable": false,
      "stateMutability": "nonpayable",
      "type": "function"
    },
    {
      "constant": false,
      "inputs": [],
      "name": "unpause",
      "outputs": [],
      "payable": false,
      "stateMutability": "nonpayable",
      "type": "function"
    },
    {
      "constant": true,
      "inputs": [],
      "name": "getActiveMembers",
      "outputs": [
        {
          "name": "",
          "type": "address[]"
        }
      ],
      "payable": false,
      "stateMutability": "view",
      "type": "function"
    },
    {
      "constant": true,
      "inputs": [
        {
          "name": "account",
          "type": "address"
        }
      ],
      "name": "isAttendee",
      "outputs": [
        {
          "name": "",
          "type": "bool"
        }
      ],
      "payable": false,
      "stateMutability": "view",
      "type": "function"
    },
    {
      "constant": true,
      "inputs": [],
      "name": "balanceOf",
      "outputs": [
        {
          "name": "",
          "type": "uint256"
        }
      ],
      "payable": false,
      "stateMutability": "view",
      "type": "function"
    },
    {
      "constant": false,
      "inputs": [],
      "name": "pause",
      "outputs": [],
      "payable": false,
      "stateMutability": "nonpayable",
      "type": "function"
    },
    {
      "constant": true,
      "inputs": [],
      "name": "getActiveMembersCount",
      "outputs": [
        {
          "name": "",
          "type": "uint256"
        }
      ],
      "payable": false,
      "stateMutability": "view",
      "type": "function"
    },
    {
      "constant": true,
      "inputs": [],
      "name": "isPaused",
      "outputs": [
        {
          "name": "",
          "type": "bool"
        }
      ],
      "payable": false,
      "stateMutability": "view",
      "type": "function"
    },
    {
      "constant": false,
      "inputs": [],
      "name": "deposit",
      "outputs": [],
      "payable": true,
      "stateMutability": "payable",
      "type": "function"
    },
    {
      "constant": false,
      "inputs": [],
      "name": "renounceAttendee",
      "outputs": [],
      "payable": false,
      "stateMutability": "nonpayable",
      "type": "function"
    },
    {
      "constant": false,
      "inputs": [],
      "name": "_unpause",
      "outputs": [],
      "payable": false,
      "stateMutability": "nonpayable",
      "type": "function"
    },
    {
      "inputs": [],
      "payable": false,
      "stateMutability": "nonpayable",
      "type": "constructor"
    },
    {
      "anonymous": false,
      "inputs": [
        {
          "indexed": true,
          "name": "to",
          "type": "address"
        },
        {
          "indexed": false,
          "name": "amount",
          "type": "uint256"
        },
        {
          "indexed": true,
          "name": "datetime",
          "type": "uint256"
        }
      ],
      "name": "Withdraw",
      "type": "event"
    },
    {
      "anonymous": false,
      "inputs": [
        {
          "indexed": true,
          "name": "sender",
          "type": "address"
        },
        {
          "indexed": false,
          "name": "totalPrize",
          "type": "uint256"
        },
        {
          "indexed": false,
          "name": "membersCount",
          "type": "uint256"
        },
        {
          "indexed": false,
          "name": "memberPrize",
          "type": "uint256"
        },
        {
          "indexed": true,
          "name": "datetime",
          "type": "uint256"
        }
      ],
      "name": "PrizeSplit",
      "type": "event"
    },
    {
      "anonymous": false,
      "inputs": [
        {
          "indexed": false,
          "name": "account",
          "type": "address"
        }
      ],
      "name": "Paused",
      "type": "event"
    },
    {
      "anonymous": false,
      "inputs": [
        {
          "indexed": false,
          "name": "account",
          "type": "address"
        }
      ],
      "name": "Unpaused",
      "type": "event"
    },
    {
      "anonymous": false,
      "inputs": [
        {
          "indexed": true,
          "name": "account",
          "type": "address"
        }
      ],
      "name": "AttendeeAdded",
      "type": "event"
    },
    {
      "anonymous": false,
      "inputs": [
        {
          "indexed": true,
          "name": "account",
          "type": "address"
        }
      ],
      "name": "AttendeeRemoved",
      "type": "event"
    },
    {
      "anonymous": false,
      "inputs": [
        {
          "indexed": true,
          "name": "from",
          "type": "address"
        },
        {
          "indexed": false,
          "name": "amount",
          "type": "uint256"
        },
        {
          "indexed": true,
          "name": "datetime",
          "type": "uint256"
        }
      ],
      "name": "Deposit",
      "type": "event"
    },
    {
      "constant": true,
      "inputs": [],
      "name": "getReservedBalance",
      "outputs": [
        {
          "name": "",
          "type": "uint256"
        }
      ],
      "payable": false,
      "stateMutability": "view",
      "type": "function"
    },
    {
      "constant": true,
      "inputs": [],
      "name": "getAvailableBalance",
      "outputs": [
        {
          "name": "",
          "type": "uint256"
        }
      ],
      "payable": false,
      "stateMutability": "view",
      "type": "function"
    },
    {
      "constant": true,
      "inputs": [],
      "name": "getBalance",
      "outputs": [
        {
          "name": "",
          "type": "uint256"
        }
      ],
      "payable": false,
      "stateMutability": "view",
      "type": "function"
    }
  ],
  "bytecode": "0x60806040523480156200001157600080fd5b503380600073ffffffffffffffffffffffffffffffffffffffff168173ffffffffffffffffffffffffffffffffffffffff161415620000b8576040517f08c379a00000000000000000000000000000000000000000000000000000000081526004018080602001828103825260148152602001807f496e76616c6964207a65726f206164647265737300000000000000000000000081525060200191505060405180910390fd5b620000c981620000ec60201b60201c565b506000600160006101000a81548160ff0219169083151502179055505062000518565b600160009054906101000a900460ff161562000170576040517f08c379a00000000000000000000000000000000000000000000000000000000081526004018080602001828103825260128152602001807f436f6e747261637420697320706175736564000000000000000000000000000081525060200191505060405180910390fd5b62000186816200026a60201b620016191760201c565b60028190806001815401808255809150509060018203906000526020600020016000909192909190916101000a81548173ffffffffffffffffffffffffffffffffffffffff021916908373ffffffffffffffffffffffffffffffffffffffff160217905550506001600460008373ffffffffffffffffffffffffffffffffffffffff1673ffffffffffffffffffffffffffffffffffffffff16815260200190815260200160002060006101000a81548160ff021916908315150217905550620002616001600354620002cb60201b620011d81790919060201c565b60038190555050565b620002858160006200035460201b620017cf1790919060201c565b8073ffffffffffffffffffffffffffffffffffffffff167ff965229cbef17c17a2ced10d89ec5f669942d8dd77bd8a5debcaed392434504e60405160405180910390a250565b6000808284019050838110156200034a576040517f08c379a000000000000000000000000000000000000000000000000000000000815260040180806020018281038252601b8152602001807f536166654d6174683a206164646974696f6e206f766572666c6f77000000000081525060200191505060405180910390fd5b8091505092915050565b6200036682826200043860201b60201c565b15620003da576040517f08c379a000000000000000000000000000000000000000000000000000000000815260040180806020018281038252601f8152602001807f526f6c65733a206163636f756e7420616c72656164792068617320726f6c650081525060200191505060405180910390fd5b60018260000160008373ffffffffffffffffffffffffffffffffffffffff1673ffffffffffffffffffffffffffffffffffffffff16815260200190815260200160002060006101000a81548160ff0219169083151502179055505050565b60008073ffffffffffffffffffffffffffffffffffffffff168273ffffffffffffffffffffffffffffffffffffffff161415620004c1576040517f08c379a000000000000000000000000000000000000000000000000000000000815260040180806020018281038252602281526020018062001fe66022913960400191505060405180910390fd5b8260000160008373ffffffffffffffffffffffffffffffffffffffff1673ffffffffffffffffffffffffffffffffffffffff16815260200190815260200160002060009054906101000a900460ff16905092915050565b611abe80620005286000396000f3fe6080604052600436106100f35760003560e01c8063809dab6a1161008a578063d0e30db011610059578063d0e30db014610379578063d9a1554914610383578063fb1da543146103ae578063fc8234cb146103c5576100f3565b8063809dab6a146102dd5780638456cb59146103085780638f7c85191461031f578063b187bd261461034a576100f3565b80633f4ba83a116100c65780633f4ba83a146101c65780634876aebc146101dd5780636cad259014610249578063722713f7146102b2576100f3565b806307057382146100f8578063102462541461010f57806312065fe0146101605780632e1a7d4d1461018b575b600080fd5b34801561010457600080fd5b5061010d6103dc565b005b34801561011b57600080fd5b5061015e6004803603602081101561013257600080fd5b81019080803573ffffffffffffffffffffffffffffffffffffffff1690602001909291905050506108b1565b005b34801561016c57600080fd5b5061017561091b565b6040518082815260200191505060405180910390f35b34801561019757600080fd5b506101c4600480360360208110156101ae57600080fd5b810190808035906020019092919050505061093a565b005b3480156101d257600080fd5b506101db610b41565b005b3480156101e957600080fd5b506101f2610ba9565b6040518080602001828103825283818151815260200191508051906020019060200280838360005b8381101561023557808201518184015260208101905061021a565b505050509050019250505060405180910390f35b34801561025557600080fd5b506102986004803603602081101561026c57600080fd5b81019080803573ffffffffffffffffffffffffffffffffffffffff169060200190929190505050610cfb565b604051808215151515815260200191505060405180910390f35b3480156102be57600080fd5b506102c7610d18565b6040518082815260200191505060405180910390f35b3480156102e957600080fd5b506102f2610dbd565b6040518082815260200191505060405180910390f35b34801561031457600080fd5b5061031d610df0565b005b34801561032b57600080fd5b50610334610e58565b6040518082815260200191505060405180910390f35b34801561035657600080fd5b5061035f610e62565b604051808215151515815260200191505060405180910390f35b610381610e79565b005b34801561038f57600080fd5b50610398610f23565b6040518082815260200191505060405180910390f35b3480156103ba57600080fd5b506103c3610f2d565b005b3480156103d157600080fd5b506103da610f38565b005b6103e533610cfb565b61043a576040517f08c379a0000000000000000000000000000000000000000000000000000000008152600401808060200182810382526031815260200180611a3b6031913960400191505060405180910390fd5b600160009054906101000a900460ff16156104bd576040517f08c379a00000000000000000000000000000000000000000000000000000000081526004018080602001828103825260128152602001807f436f6e747261637420697320706175736564000000000000000000000000000081525060200191505060405180910390fd5b60006104eb6006543073ffffffffffffffffffffffffffffffffffffffff163161103a90919063ffffffff16565b905060008111610563576040517f08c379a000000000000000000000000000000000000000000000000000000000815260040180806020018281038252601b8152602001807f436f6e74657374616e745465616d2062616c616e63652069732030000000000081525060200191505060405180910390fd5b600061057a600354836110c390919063ffffffff16565b9050600081116105f2576040517f08c379a00000000000000000000000000000000000000000000000000000000081526004018080602001828103825260118152602001807f4d656d626572207072697a65206973203000000000000000000000000000000081525060200191505060405180910390fd5b600061060082600354611152565b9050600080600090505b6002805490508110156107655760006002828154811061062657fe5b9060005260206000200160009054906101000a900473ffffffffffffffffffffffffffffffffffffffff16905060011515600460008373ffffffffffffffffffffffffffffffffffffffff1673ffffffffffffffffffffffffffffffffffffffff16815260200190815260200160002060009054906101000a900460ff1615151415610757576106fe85600560008473ffffffffffffffffffffffffffffffffffffffff1673ffffffffffffffffffffffffffffffffffffffff168152602001908152602001600020546111d890919063ffffffff16565b600560008373ffffffffffffffffffffffffffffffffffffffff1673ffffffffffffffffffffffffffffffffffffffff1681526020019081526020016000208190555061075485846111d890919063ffffffff16565b92505b50808060010191505061060a565b5061077b846006546111d890919063ffffffff16565b6006819055508181146107d9576040517f08c379a00000000000000000000000000000000000000000000000000000000081526004018080602001828103825260248152602001806119896024913960400191505060405180910390fd5b6006543073ffffffffffffffffffffffffffffffffffffffff16311461084a576040517f08c379a000000000000000000000000000000000000000000000000000000000815260040180806020018281038252602a8152602001806119ad602a913960400191505060405180910390fd5b423373ffffffffffffffffffffffffffffffffffffffff167f347ce84d9ed7334a67bdbc36e6519fbbc870a22468c5fa79fcbb5d68f5bc220d866003548760405180848152602001838152602001828152602001935050505060405180910390a350505050565b6108ba33610cfb565b61090f576040517f08c379a0000000000000000000000000000000000000000000000000000000008152600401808060200182810382526031815260200180611a3b6031913960400191505060405180910390fd5b61091881611260565b50565b60003073ffffffffffffffffffffffffffffffffffffffff1631905090565b80600560003373ffffffffffffffffffffffffffffffffffffffff1673ffffffffffffffffffffffffffffffffffffffff1681526020019081526020016000205410156109ef576040517f08c379a00000000000000000000000000000000000000000000000000000000081526004018080602001828103825260128152602001807f4e6f7420656e6f7567682062616c616e6365000000000000000000000000000081525060200191505060405180910390fd5b6000600560003373ffffffffffffffffffffffffffffffffffffffff1673ffffffffffffffffffffffffffffffffffffffff168152602001908152602001600020549050610a46828261103a90919063ffffffff16565b905080600560003373ffffffffffffffffffffffffffffffffffffffff1673ffffffffffffffffffffffffffffffffffffffff16815260200190815260200160002081905550610aa18260065461103a90919063ffffffff16565b6006819055503373ffffffffffffffffffffffffffffffffffffffff166108fc839081150290604051600060405180830381858888f19350505050158015610aed573d6000803e3d6000fd5b50423373ffffffffffffffffffffffffffffffffffffffff167ff279e6a1f5e320cca91135676d9cb6e44ca8a08c0b88342bcdb1144f6511b568846040518082815260200191505060405180910390a35050565b610b4a33610cfb565b610b9f576040517f08c379a0000000000000000000000000000000000000000000000000000000008152600401808060200182810382526031815260200180611a3b6031913960400191505060405180910390fd5b610ba76113c9565b565b60606002805490506003541115610bbf57600080fd5b6060600354604051908082528060200260200182016040528015610bf25781602001602082028038833980820191505090505b50905060008090505b600280549050811015610cf357600060028281548110610c1757fe5b9060005260206000200160009054906101000a900473ffffffffffffffffffffffffffffffffffffffff16905060011515600460008373ffffffffffffffffffffffffffffffffffffffff1673ffffffffffffffffffffffffffffffffffffffff16815260200190815260200160002060009054906101000a900460ff1615151415610ce55780838381518110610caa57fe5b602002602001019073ffffffffffffffffffffffffffffffffffffffff16908173ffffffffffffffffffffffffffffffffffffffff16815250505b508080600101915050610bfb565b508091505090565b6000610d118260006113d390919063ffffffff16565b9050919050565b6000610d2333610cfb565b610d78576040517f08c379a0000000000000000000000000000000000000000000000000000000008152600401808060200182810382526031815260200180611a3b6031913960400191505060405180910390fd5b600560003373ffffffffffffffffffffffffffffffffffffffff1673ffffffffffffffffffffffffffffffffffffffff16815260200190815260200160002054905090565b6000610deb6006543073ffffffffffffffffffffffffffffffffffffffff163161103a90919063ffffffff16565b905090565b610df933610cfb565b610e4e576040517f08c379a0000000000000000000000000000000000000000000000000000000008152600401808060200182810382526031815260200180611a3b6031913960400191505060405180910390fd5b610e566114b1565b565b6000600354905090565b6000600160009054906101000a900460ff16905090565b60003411610ed2576040517f08c379a00000000000000000000000000000000000000000000000000000000081526004018080602001828103825260218152602001806119686021913960400191505060405180910390fd5b423373ffffffffffffffffffffffffffffffffffffffff167f90890809c654f11d6e72a28fa60149770a0d11ec6c92319d6ceb2bb0a4ea1a15346040518082815260200191505060405180910390a3565b6000600654905090565b610f36336114bb565b565b600160009054906101000a900460ff16610fba576040517f08c379a00000000000000000000000000000000000000000000000000000000081526004018080602001828103825260168152602001807f436f6e7472616374206973206e6f74207061757365640000000000000000000081525060200191505060405180910390fd5b6000600160006101000a81548160ff0219169083151502179055507f5db9ee0a495bf2e6ff9c91a7834c1ba4fdd244a5e8aa4e537bd38aeae4b073aa33604051808273ffffffffffffffffffffffffffffffffffffffff1673ffffffffffffffffffffffffffffffffffffffff16815260200191505060405180910390a1565b6000828211156110b2576040517f08c379a000000000000000000000000000000000000000000000000000000000815260040180806020018281038252601e8152602001807f536166654d6174683a207375627472616374696f6e206f766572666c6f77000081525060200191505060405180910390fd5b600082840390508091505092915050565b600080821161113a576040517f08c379a000000000000000000000000000000000000000000000000000000000815260040180806020018281038252601a8152602001807f536166654d6174683a206469766973696f6e206279207a65726f00000000000081525060200191505060405180910390fd5b600082848161114557fe5b0490508091505092915050565b60008083141561116557600090506111d2565b600082840290508284828161117657fe5b04146111cd576040517f08c379a00000000000000000000000000000000000000000000000000000000081526004018080602001828103825260218152602001806119f86021913960400191505060405180910390fd5b809150505b92915050565b600080828401905083811015611256576040517f08c379a000000000000000000000000000000000000000000000000000000000815260040180806020018281038252601b8152602001807f536166654d6174683a206164646974696f6e206f766572666c6f77000000000081525060200191505060405180910390fd5b8091505092915050565b600160009054906101000a900460ff16156112e3576040517f08c379a00000000000000000000000000000000000000000000000000000000081526004018080602001828103825260128152602001807f436f6e747261637420697320706175736564000000000000000000000000000081525060200191505060405180910390fd5b6112ec81611619565b60028190806001815401808255809150509060018203906000526020600020016000909192909190916101000a81548173ffffffffffffffffffffffffffffffffffffffff021916908373ffffffffffffffffffffffffffffffffffffffff160217905550506001600460008373ffffffffffffffffffffffffffffffffffffffff1673ffffffffffffffffffffffffffffffffffffffff16815260200190815260200160002060006101000a81548160ff0219169083151502179055506113c060016003546111d890919063ffffffff16565b60038190555050565b6113d1610f38565b565b60008073ffffffffffffffffffffffffffffffffffffffff168273ffffffffffffffffffffffffffffffffffffffff16141561145a576040517f08c379a0000000000000000000000000000000000000000000000000000000008152600401808060200182810382526022815260200180611a196022913960400191505060405180910390fd5b8260000160008373ffffffffffffffffffffffffffffffffffffffff1673ffffffffffffffffffffffffffffffffffffffff16815260200190815260200160002060009054906101000a900460ff16905092915050565b6114b9611673565b565b600160009054906101000a900460ff161561153e576040517f08c379a00000000000000000000000000000000000000000000000000000000081526004018080602001828103825260128152602001807f436f6e747261637420697320706175736564000000000000000000000000000081525060200191505060405180910390fd5b600160035411611599576040517f08c379a0000000000000000000000000000000000000000000000000000000008152600401808060200182810382526027815260200180611a6c6027913960400191505060405180910390fd5b6115a281611775565b6000600460008373ffffffffffffffffffffffffffffffffffffffff1673ffffffffffffffffffffffffffffffffffffffff16815260200190815260200160002060006101000a81548160ff021916908315150217905550611610600160035461103a90919063ffffffff16565b60038190555050565b61162d8160006117cf90919063ffffffff16565b8073ffffffffffffffffffffffffffffffffffffffff167ff965229cbef17c17a2ced10d89ec5f669942d8dd77bd8a5debcaed392434504e60405160405180910390a250565b600160009054906101000a900460ff16156116f6576040517f08c379a00000000000000000000000000000000000000000000000000000000081526004018080602001828103825260128152602001807f436f6e747261637420697320706175736564000000000000000000000000000081525060200191505060405180910390fd5b60018060006101000a81548160ff0219169083151502179055507f62e78cea01bee320cd4e420270b5ea74000d11b0c9f74754ebdbfc544b05a25833604051808273ffffffffffffffffffffffffffffffffffffffff1673ffffffffffffffffffffffffffffffffffffffff16815260200191505060405180910390a1565b6117898160006118aa90919063ffffffff16565b8073ffffffffffffffffffffffffffffffffffffffff167fac9358f7f807517a7bfea84ce37617a495e55d78f95d2efadcdfbf94817220e060405160405180910390a250565b6117d982826113d3565b1561184c576040517f08c379a000000000000000000000000000000000000000000000000000000000815260040180806020018281038252601f8152602001807f526f6c65733a206163636f756e7420616c72656164792068617320726f6c650081525060200191505060405180910390fd5b60018260000160008373ffffffffffffffffffffffffffffffffffffffff1673ffffffffffffffffffffffffffffffffffffffff16815260200190815260200160002060006101000a81548160ff0219169083151502179055505050565b6118b482826113d3565b611909576040517f08c379a00000000000000000000000000000000000000000000000000000000081526004018080602001828103825260218152602001806119d76021913960400191505060405180910390fd5b60008260000160008373ffffffffffffffffffffffffffffffffffffffff1673ffffffffffffffffffffffffffffffffffffffff16815260200190815260200160002060006101000a81548160ff021916908315150217905550505056fe6d73672e76616c7565206d757374206265206772656174686572207468616e2030496e76616c69642073706c6974206265747765656e20616374697665206d656d6265727352657365727665642062616c616e63656420776173206e6f7420757064617465642070726f7065726c79526f6c65733a206163636f756e7420646f6573206e6f74206861766520726f6c65536166654d6174683a206d756c7469706c69636174696f6e206f766572666c6f77526f6c65733a206163636f756e7420697320746865207a65726f2061646472657373417474656e646565526f6c653a2063616c6c657220646f6573206e6f74206861766520417474656e64656520526f6c652e43616e6e6f742072656d6f7665206c617374206d656d6265722066726f6d20636f6e7472616374a165627a7a723058207ca202a0885f827fdc883c1670a38d16d3ca8058058bab0dc28abc92b72b06260029526f6c65733a206163636f756e7420697320746865207a65726f2061646472657373",
  "source": "pragma solidity ^0.5.0;\n\nimport \"openzeppelin-solidity/contracts/math/SafeMath.sol\";\n\nimport \"../core/ContestTeam.sol\";\n\ncontract ContestTeamMock is ContestTeam {\n    using SafeMath for uint256;\n\n    constructor() public ContestTeam(msg.sender) {}\n\n    // Helper testing functions.\n    function getReservedBalance() public view returns (uint256) {\n        return reservedBalance;\n    }\n\n    function getAvailableBalance() public view returns (uint256) {\n        return address(this).balance.sub(reservedBalance);\n    }\n\n    function getBalance() public view returns (uint256) {\n        return address(this).balance;\n    }\n}\n",
  "sourcePath": "/home/odisi/dev/projects/hackapay/contracts/mocks/ContestTeamMock.sol",
  "compiler": {
    "name": "solc",
    "version": "0.5.8+commit.23d335f2.Emscripten.clang"
  },
  "schemaVersion": "3.0.11",
  "updatedAt": "2019-07-29T15:59:47.397Z",
  "devdoc": {
    "methods": {
      "_unpause()": {
        "details": "Internal implementation that lifts the paused state."
      },
      "isPaused()": {
        "return": "{true} if the contract is paused; otherwise, {false}."
      },
      "pause()": {
        "details": "Implements the onlyAttendee modifier for access control."
      },
      "splitPrize()": {
        "details": "Implements the \"withdraw pattern\" by allocating balances to team  members, so they can request a withdraw once the split is done."
      },
      "unpause()": {
        "details": "Implements the onlyAttendee modifier for access control."
      },
      "withdraw(uint256)": {
        "details": "Implements the \"withdraw pattern\" allowing members to withdraw funds. The method is public, so inactive members (that renounced membership) are still able to withdraw funds in case balance > 0. "
      }
    }
  },
  "userdoc": {
    "methods": {
      "balanceOf()": {
        "notice": "Get the balance of a team member"
      },
      "deposit()": {
        "notice": "Allows the contract to receive funds."
      },
      "getActiveMembers()": {
        "notice": "Gets the active members in the team."
      },
      "getActiveMembersCount()": {
        "notice": "Gets the number of active team members."
      },
      "isPaused()": {
        "notice": "Returns if the contract is paused or not."
      },
      "pause()": {
        "notice": "Trigger the paused state."
      },
      "splitPrize()": {
        "notice": "Splits the available's contract balance between active team members."
      },
      "unpause()": {
        "notice": "Lifts the paused state."
      },
      "withdraw(uint256)": {
        "notice": "Allows a team member to withdraw its funds from the contract."
      }
    }
  }
}