{
  "contractName": "ContestBracketRegistryMock",
  "abi": [
    {
      "inputs": [],
      "stateMutability": "nonpayable",
      "type": "constructor"
    },
    {
      "anonymous": false,
      "inputs": [
        {
          "indexed": false,
          "internalType": "bool",
          "name": "enabled",
          "type": "bool"
        }
      ],
      "name": "EvaluationStatusUpdated",
      "type": "event"
    },
    {
      "anonymous": false,
      "inputs": [
        {
          "indexed": true,
          "internalType": "address",
          "name": "account",
          "type": "address"
        }
      ],
      "name": "JudgeAdded",
      "type": "event"
    },
    {
      "anonymous": false,
      "inputs": [
        {
          "indexed": true,
          "internalType": "address",
          "name": "account",
          "type": "address"
        }
      ],
      "name": "JudgeRemoved",
      "type": "event"
    },
    {
      "anonymous": false,
      "inputs": [
        {
          "indexed": true,
          "internalType": "uint256",
          "name": "id",
          "type": "uint256"
        },
        {
          "indexed": false,
          "internalType": "address",
          "name": "judgeAddress",
          "type": "address"
        }
      ],
      "name": "JudgeVoted",
      "type": "event"
    },
    {
      "anonymous": false,
      "inputs": [
        {
          "indexed": true,
          "internalType": "address",
          "name": "account",
          "type": "address"
        }
      ],
      "name": "OrganizerAdded",
      "type": "event"
    },
    {
      "anonymous": false,
      "inputs": [
        {
          "indexed": true,
          "internalType": "address",
          "name": "account",
          "type": "address"
        }
      ],
      "name": "OrganizerRemoved",
      "type": "event"
    },
    {
      "anonymous": false,
      "inputs": [
        {
          "indexed": false,
          "internalType": "bool",
          "name": "enabled",
          "type": "bool"
        }
      ],
      "name": "RegistrationStatusUpdated",
      "type": "event"
    },
    {
      "anonymous": false,
      "inputs": [
        {
          "indexed": false,
          "internalType": "bool",
          "name": "enabled",
          "type": "bool"
        }
      ],
      "name": "SubmissionStatusUpdated",
      "type": "event"
    },
    {
      "anonymous": false,
      "inputs": [
        {
          "indexed": true,
          "internalType": "uint256",
          "name": "teamId",
          "type": "uint256"
        },
        {
          "indexed": true,
          "internalType": "address",
          "name": "teamAddress",
          "type": "address"
        },
        {
          "indexed": false,
          "internalType": "bytes32",
          "name": "proposalData",
          "type": "bytes32"
        }
      ],
      "name": "TeamProposalUpdated",
      "type": "event"
    },
    {
      "anonymous": false,
      "inputs": [
        {
          "indexed": true,
          "internalType": "uint256",
          "name": "teamId",
          "type": "uint256"
        },
        {
          "indexed": false,
          "internalType": "bytes32",
          "name": "teamName",
          "type": "bytes32"
        },
        {
          "indexed": true,
          "internalType": "address",
          "name": "teamAddress",
          "type": "address"
        },
        {
          "indexed": false,
          "internalType": "bool",
          "name": "approved",
          "type": "bool"
        }
      ],
      "name": "TeamRegistered",
      "type": "event"
    },
    {
      "anonymous": false,
      "inputs": [
        {
          "indexed": true,
          "internalType": "uint256",
          "name": "teamId",
          "type": "uint256"
        },
        {
          "indexed": true,
          "internalType": "address",
          "name": "teamAddress",
          "type": "address"
        },
        {
          "indexed": false,
          "internalType": "bool",
          "name": "approved",
          "type": "bool"
        }
      ],
      "name": "TeamStatusUpdated",
      "type": "event"
    },
    {
      "anonymous": false,
      "inputs": [
        {
          "indexed": false,
          "internalType": "uint256",
          "name": "teamId",
          "type": "uint256"
        },
        {
          "indexed": false,
          "internalType": "address",
          "name": "teamAddress",
          "type": "address"
        },
        {
          "indexed": false,
          "internalType": "uint256",
          "name": "finalGrade",
          "type": "uint256"
        },
        {
          "indexed": false,
          "internalType": "uint8",
          "name": "rankPosition",
          "type": "uint8"
        }
      ],
      "name": "WinnerAnnouced",
      "type": "event"
    },
    {
      "inputs": [
        {
          "internalType": "address",
          "name": "account",
          "type": "address"
        }
      ],
      "name": "addJudge",
      "outputs": [],
      "stateMutability": "nonpayable",
      "type": "function"
    },
    {
      "inputs": [
        {
          "internalType": "address",
          "name": "account",
          "type": "address"
        }
      ],
      "name": "addOrganizer",
      "outputs": [],
      "stateMutability": "nonpayable",
      "type": "function"
    },
    {
      "inputs": [
        {
          "internalType": "uint256",
          "name": "teamId",
          "type": "uint256"
        }
      ],
      "name": "approveTeam",
      "outputs": [],
      "stateMutability": "nonpayable",
      "type": "function"
    },
    {
      "inputs": [],
      "name": "closeEvaluation",
      "outputs": [],
      "stateMutability": "nonpayable",
      "type": "function"
    },
    {
      "inputs": [],
      "name": "closeRegistration",
      "outputs": [],
      "stateMutability": "nonpayable",
      "type": "function"
    },
    {
      "inputs": [],
      "name": "closeSubmission",
      "outputs": [],
      "stateMutability": "nonpayable",
      "type": "function"
    },
    {
      "inputs": [],
      "name": "getEvaluationStatus",
      "outputs": [
        {
          "internalType": "bool",
          "name": "",
          "type": "bool"
        }
      ],
      "stateMutability": "view",
      "type": "function"
    },
    {
      "inputs": [],
      "name": "getRegistrationStatus",
      "outputs": [
        {
          "internalType": "bool",
          "name": "",
          "type": "bool"
        }
      ],
      "stateMutability": "view",
      "type": "function"
    },
    {
      "inputs": [],
      "name": "getSubmissionStatus",
      "outputs": [
        {
          "internalType": "bool",
          "name": "",
          "type": "bool"
        }
      ],
      "stateMutability": "view",
      "type": "function"
    },
    {
      "inputs": [
        {
          "internalType": "uint256",
          "name": "teamId",
          "type": "uint256"
        }
      ],
      "name": "getTeam",
      "outputs": [
        {
          "internalType": "bytes32",
          "name": "",
          "type": "bytes32"
        },
        {
          "internalType": "address",
          "name": "",
          "type": "address"
        },
        {
          "internalType": "bytes32",
          "name": "",
          "type": "bytes32"
        },
        {
          "internalType": "bool",
          "name": "",
          "type": "bool"
        },
        {
          "internalType": "uint256",
          "name": "",
          "type": "uint256"
        }
      ],
      "stateMutability": "view",
      "type": "function"
    },
    {
      "inputs": [
        {
          "internalType": "address",
          "name": "teamAddress",
          "type": "address"
        }
      ],
      "name": "getTeamByAddress",
      "outputs": [
        {
          "internalType": "bytes32",
          "name": "",
          "type": "bytes32"
        },
        {
          "internalType": "address",
          "name": "",
          "type": "address"
        },
        {
          "internalType": "bytes32",
          "name": "",
          "type": "bytes32"
        },
        {
          "internalType": "bool",
          "name": "",
          "type": "bool"
        },
        {
          "internalType": "uint256",
          "name": "",
          "type": "uint256"
        }
      ],
      "stateMutability": "view",
      "type": "function"
    },
    {
      "inputs": [],
      "name": "getWinnersIds",
      "outputs": [
        {
          "internalType": "uint256",
          "name": "",
          "type": "uint256"
        },
        {
          "internalType": "uint256",
          "name": "",
          "type": "uint256"
        },
        {
          "internalType": "uint256",
          "name": "",
          "type": "uint256"
        }
      ],
      "stateMutability": "view",
      "type": "function"
    },
    {
      "inputs": [
        {
          "internalType": "address",
          "name": "account",
          "type": "address"
        }
      ],
      "name": "isJudge",
      "outputs": [
        {
          "internalType": "bool",
          "name": "",
          "type": "bool"
        }
      ],
      "stateMutability": "view",
      "type": "function"
    },
    {
      "inputs": [
        {
          "internalType": "address",
          "name": "account",
          "type": "address"
        }
      ],
      "name": "isOrganizer",
      "outputs": [
        {
          "internalType": "bool",
          "name": "",
          "type": "bool"
        }
      ],
      "stateMutability": "view",
      "type": "function"
    },
    {
      "inputs": [],
      "name": "openEvaluation",
      "outputs": [],
      "stateMutability": "nonpayable",
      "type": "function"
    },
    {
      "inputs": [],
      "name": "openRegistration",
      "outputs": [],
      "stateMutability": "nonpayable",
      "type": "function"
    },
    {
      "inputs": [],
      "name": "openSubmission",
      "outputs": [],
      "stateMutability": "nonpayable",
      "type": "function"
    },
    {
      "inputs": [],
      "name": "publishRank",
      "outputs": [],
      "stateMutability": "nonpayable",
      "type": "function"
    },
    {
      "inputs": [
        {
          "internalType": "bytes32",
          "name": "teamName",
          "type": "bytes32"
        },
        {
          "internalType": "address",
          "name": "teamAddress",
          "type": "address"
        },
        {
          "internalType": "bytes32",
          "name": "proposalData",
          "type": "bytes32"
        }
      ],
      "name": "registerTeam",
      "outputs": [
        {
          "internalType": "uint256",
          "name": "",
          "type": "uint256"
        }
      ],
      "stateMutability": "nonpayable",
      "type": "function"
    },
    {
      "inputs": [
        {
          "internalType": "address",
          "name": "account",
          "type": "address"
        }
      ],
      "name": "removeJudge",
      "outputs": [],
      "stateMutability": "nonpayable",
      "type": "function"
    },
    {
      "inputs": [],
      "name": "renounceJudge",
      "outputs": [],
      "stateMutability": "nonpayable",
      "type": "function"
    },
    {
      "inputs": [],
      "name": "renounceOrganizer",
      "outputs": [],
      "stateMutability": "nonpayable",
      "type": "function"
    },
    {
      "inputs": [
        {
          "internalType": "uint256",
          "name": "teamId",
          "type": "uint256"
        }
      ],
      "name": "reproveTeam",
      "outputs": [],
      "stateMutability": "nonpayable",
      "type": "function"
    },
    {
      "inputs": [
        {
          "internalType": "uint256[]",
          "name": "teamIds",
          "type": "uint256[]"
        }
      ],
      "name": "reproveTeams",
      "outputs": [],
      "stateMutability": "nonpayable",
      "type": "function"
    },
    {
      "inputs": [
        {
          "internalType": "uint256[]",
          "name": "teamIds",
          "type": "uint256[]"
        },
        {
          "internalType": "uint8[]",
          "name": "teamGrades",
          "type": "uint8[]"
        }
      ],
      "name": "submitEvaluation",
      "outputs": [],
      "stateMutability": "nonpayable",
      "type": "function"
    },
    {
      "inputs": [
        {
          "internalType": "uint256",
          "name": "",
          "type": "uint256"
        }
      ],
      "name": "teams",
      "outputs": [
        {
          "internalType": "uint256",
          "name": "id",
          "type": "uint256"
        },
        {
          "internalType": "bytes32",
          "name": "name",
          "type": "bytes32"
        },
        {
          "internalType": "address",
          "name": "teamAddress",
          "type": "address"
        },
        {
          "internalType": "bytes32",
          "name": "proposalData",
          "type": "bytes32"
        },
        {
          "internalType": "bool",
          "name": "approved",
          "type": "bool"
        },
        {
          "internalType": "uint256",
          "name": "grade",
          "type": "uint256"
        }
      ],
      "stateMutability": "view",
      "type": "function"
    },
    {
      "inputs": [
        {
          "internalType": "uint256",
          "name": "teamId",
          "type": "uint256"
        },
        {
          "internalType": "bytes32",
          "name": "proposalData",
          "type": "bytes32"
        }
      ],
      "name": "updateProposalData",
      "outputs": [],
      "stateMutability": "nonpayable",
      "type": "function"
    }
  ],
  "bytecode": "0x60806040523480156200001157600080fd5b503380808062000068576040805162461bcd60e51b815260206004820152601460248201527f496e76616c6964207a65726f2061646472657373000000000000000000000000604482015290519081900360640190fd5b62000073816200007c565b505050620002b7565b62000092816200011660201b62001a8c1760201c565b6009805460018082019092557f6e1540171b6c0c960b71a7020d9f60077f6af931a8bbf590da0223dacf75c7af0180546001600160a01b0319166001600160a01b0384169081179091556000908152600b60209081526040909120805460ff191683179055600a546200011092909162000168811b62001ace17901c565b600a5550565b62000131816004620001ca60201b62001b2f1790919060201c565b6040516001600160a01b038216907f37e96fc6762bae414e69ea6e2490e63bc46f2a1335de0f6b91f49cf808829bcf90600090a250565b600082820183811015620001c3576040805162461bcd60e51b815260206004820152601b60248201527f536166654d6174683a206164646974696f6e206f766572666c6f770000000000604482015290519081900360640190fd5b9392505050565b620001d682826200024e565b1562000229576040805162461bcd60e51b815260206004820152601f60248201527f526f6c65733a206163636f756e7420616c72656164792068617320726f6c6500604482015290519081900360640190fd5b6001600160a01b0316600090815260209190915260409020805460ff19166001179055565b60006001600160a01b038216620002975760405162461bcd60e51b815260040180806020018281038252602281526020018062002a4a6022913960400191505060405180910390fd5b506001600160a01b03166000908152602091909152604090205460ff1690565b61278380620002c76000396000f3fe608060405234801561001057600080fd5b50600436106101a85760003560e01c80637dc673bc116100f9578063d06e4ee711610097578063eaf2f9cd11610071578063eaf2f9cd1461053e578063ed896d6614610561578063f540548b14610587578063ffc6ff1e146105a4576101a8565b8063d06e4ee714610508578063e35fb24114610510578063e4725f0214610518576101a8565b8063a2bce8bd116100d3578063a2bce8bd146104ca578063ae237c77146104d2578063ae2ac4ae146104da578063b2a13f9214610500576101a8565b80637dc673bc1461049457806390d768e41461049c578063927cab47146104a4576101a8565b80634b30b66f11610166578063567ad86211610140578063567ad8621461041a57806358e2f50e14610422578063737a63401461042a5780637385712c14610450576101a8565b80634b30b66f146103e45780634ea701a8146103ec57806354e1db2b14610412576101a8565b80628e0f1b146101ad57806324ba9fab146101ff578063288c4a461461021e5780633e091f641461028e5780633ed2b77a1461035057806341676f15146103aa575b600080fd5b6101ca600480360360208110156101c357600080fd5b50356105ac565b604080519586526001600160a01b03909416602086015284840192909252151560608401526080830152519081900360a00190f35b61021c6004803603602081101561021557600080fd5b5035610690565b005b61021c6004803603602081101561023457600080fd5b81019060208101813564010000000081111561024f57600080fd5b82018360208201111561026157600080fd5b8035906020019184602083028401116401000000008311171561028357600080fd5b50909250905061069c565b61021c600480360360408110156102a457600080fd5b8101906020810181356401000000008111156102bf57600080fd5b8201836020820111156102d157600080fd5b803590602001918460208302840111640100000000831117156102f357600080fd5b91939092909160208101903564010000000081111561031157600080fd5b82018360208201111561032357600080fd5b8035906020019184602083028401116401000000008311171561034557600080fd5b5090925090506106dc565b61036d6004803603602081101561036657600080fd5b5035610a6b565b6040805196875260208701959095526001600160a01b039093168585015260608501919091521515608084015260a0830152519081900360c00190f35b6103d0600480360360208110156103c057600080fd5b50356001600160a01b0316610ac1565b604080519115158252519081900360200190f35b61021c610ad6565b6101ca6004803603602081101561040257600080fd5b50356001600160a01b0316610ae1565b6103d0610bb2565b61021c610bc0565b61021c610bc9565b610432610c67565b60408051938452602084019290925282820152519081900360600190f35b6104826004803603606081101561046657600080fd5b508035906001600160a01b036020820135169060400135610c75565b60408051918252519081900360200190f35b61021c611042565b61021c6110de565b61021c600480360360208110156104ba57600080fd5b50356001600160a01b03166115a4565b6103d06115f1565b61021c6115fa565b61021c600480360360208110156104f057600080fd5b50356001600160a01b0316611694565b61021c6116e1565b61021c61177a565b6103d0611815565b61021c6004803603602081101561052e57600080fd5b50356001600160a01b031661181e565b61021c6004803603604081101561055457600080fd5b508035906020013561186b565b6103d06004803603602081101561057757600080fd5b50356001600160a01b03166119d7565b61021c6004803603602081101561059d57600080fd5b50356119e4565b61021c6119ed565b6000806000806000856105be81611bb0565b610601576040805162461bcd60e51b815260206004820152600f60248201526e125b9d985b1a59081d19585b481a59608a1b604482015290519081900360640190fd5b60006001888154811061061057fe5b60009182526020918290206040805160c08101825260069390930290910180548352600181015493830184905260028101546001600160a01b0316918301829052600381015460608401819052600482015460ff1615156080850181905260059092015460a0909401849052939c919b5092995091975095509350505050565b61069981611bb7565b50565b6106d8828280806020026020016040519081016040528093929190818152602001838360200280828437600092019190915250611cf392505050565b5050565b600e5460ff1661072a576040805162461bcd60e51b8152602060048201526014602482015273115d985b1d585d1a5bdb881a5cc818db1bdcd95960621b604482015290519081900360640190fd5b610733336119d7565b61076e5760405162461bcd60e51b815260040180806020018281038252602b81526020018061263b602b913960400191505060405180910390fd5b8281146107ac5760405162461bcd60e51b81526004018080602001828103825260338152602001806126f96033913960400191505060405180910390fd5b60025483146107ec5760405162461bcd60e51b815260040180806020018281038252603f8152602001806126ba603f913960400191505060405180910390fd5b600060025411610843576040805162461bcd60e51b815260206004820152601d60248201527f4e6f20617070726f766564207465616d7320746f206576616c75617465000000604482015290519081900360640190fd5b336000908152600d602052604090206001810154600160a81b900460ff161561089d5760405162461bcd60e51b81526004018080602001828103825260228152602001806126196022913960400191505060405180910390fd5b60005b600254811015610a0b5760008686838181106108b857fe5b90506020020135905060008585848181106108cf57fe5b9050602002013560ff1690506108e482611bb0565b610927576040805162461bcd60e51b815260206004820152600f60248201526e125b9d985b1a59081d19585b481a59608a1b604482015290519081900360640190fd5b61093082611d23565b610978576040805162461bcd60e51b81526020600482015260146024820152731519585b481a5cc81b9bdd08185c1c1c9bdd995960621b604482015290519081900360640190fd5b61098181611db7565b6109c2576040805162461bcd60e51b815260206004820152600d60248201526c496e76616c696420677261646560981b604482015290519081900360640190fd5b6000600183815481106109d157fe5b906000526020600020906006020190506109fb8260ff168260050154611ace90919063ffffffff16565b60059091015550506001016108a0565b5060018101805460ff60a81b1916600160a81b17908190558154604080516001600160a01b0390931683525190917fd62869bbd78965284c34750092d78b62093e2d02b730d0ce696ebdcb371bb5dc919081900360200190a25050505050565b60018181548110610a7b57600080fd5b600091825260209091206006909102018054600182015460028301546003840154600485015460059095015493955091936001600160a01b039091169260ff9091169086565b6000610ace600483611dc3565b90505b919050565b610adf33611e2a565b565b6000808080806001600160a01b038616610b39576040805162461bcd60e51b8152602060048201526014602482015273496e76616c6964207a65726f206164647265737360601b604482015290519081900360640190fd5b505050506001600160a01b0391821660009081526020818152604091829020825160c0810184528154815260018201549281018390526002820154909516928501839052600381015460608601819052600482015460ff1615156080870181905260059092015460a09096018690529195929491935091565b600354610100900460ff1690565b610adf33611e5a565b600354610100900460ff1615610c1b576040805162461bcd60e51b815260206004820152601260248201527129bab136b4b9b9b4b7b71034b99037b832b760711b604482015290519081900360640190fd5b610c2433610ac1565b610c5f5760405162461bcd60e51b81526004018080602001828103825260338152602001806126666033913960400191505060405180910390fd5b610adf611e97565b600f54601554601b54909192565b60035460009060ff16610cc8576040805162461bcd60e51b8152602060048201526016602482015275149959da5cdd1c985d1a5bdb881a5cc818db1bdcd95960521b604482015290519081900360640190fd5b8360001a60f81b6001600160f81b031916610d2a576040805162461bcd60e51b815260206004820152601960248201527f5465616d206e616d652063616e6e6f7420626520656d70747900000000000000604482015290519081900360640190fd5b6001600160a01b038316610d85576040805162461bcd60e51b815260206004820152601b60248201527f5465616d20616464726573732063616e6e6f74206265207a65726f0000000000604482015290519081900360640190fd5b6001600160a01b038381166000908152602081905260409020600201541615610df5576040805162461bcd60e51b815260206004820152601760248201527f5465616d20616c72656164792072656769737465726564000000000000000000604482015290519081900360640190fd5b600180546040805160c081018252828152602081018881526001600160a01b038881169383019384526060830188815260808401878152600060a08601818152888a018a559089905285517fb10e2d527612073b26eecdfd717e6a320cf44b4afac2b0732d9fcbe2b7fa0cf660068a029081019190915594517fb10e2d527612073b26eecdfd717e6a320cf44b4afac2b0732d9fcbe2b7fa0cf786015595517fb10e2d527612073b26eecdfd717e6a320cf44b4afac2b0732d9fcbe2b7fa0cf8850180546001600160a01b0319169190941617909255517fb10e2d527612073b26eecdfd717e6a320cf44b4afac2b0732d9fcbe2b7fa0cf9830155517fb10e2d527612073b26eecdfd717e6a320cf44b4afac2b0732d9fcbe2b7fa0cfa8201805460ff191691151591909117905591517fb10e2d527612073b26eecdfd717e6a320cf44b4afac2b0732d9fcbe2b7fa0cfb9092019190915582549192909183908110610f5d57fe5b600091825260208083206001600160a01b03808a1685529184905260409093206006909202909201805482556001808201548184015560028083015481850180546001600160a01b031916919096161790945560038083015490840155600480830154908401805460ff909216151560ff1990921691909117905560059182015491909201559054610fee91611ace565b600255604080518781526001602082015281516001600160a01b0388169285927f443b25596b838f2775d21b1153b87036f08c058fd4702446f1136ab26e5f3b90929081900390910190a350949350505050565b60035460ff16611092576040805162461bcd60e51b8152602060048201526016602482015275149959da5cdd1c985d1a5bdb881a5cc818db1bdcd95960521b604482015290519081900360640190fd5b61109b33610ac1565b6110d65760405162461bcd60e51b81526004018080602001828103825260338152602001806126666033913960400191505060405180910390fd5b610adf611ee7565b60035460ff161561112d576040805162461bcd60e51b81526020600482015260146024820152732932b3b4b9ba3930ba34b7b71034b99037b832b760611b604482015290519081900360640190fd5b600354610100900460ff161561117f576040805162461bcd60e51b815260206004820152601260248201527129bab136b4b9b9b4b7b71034b99037b832b760711b604482015290519081900360640190fd5b600e5460ff16156111cc576040805162461bcd60e51b815260206004820152601260248201527122bb30b63ab0ba34b7b71034b99037b832b760711b604482015290519081900360640190fd5b6111d533610ac1565b6112105760405162461bcd60e51b81526004018080602001828103825260338152602001806126666033913960400191505060405180910390fd5b60215460ff1615611261576040805162461bcd60e51b815260206004820152601660248201527514985b9ac8185b1c9958591e481c1d589b1a5cda195960521b604482015290519081900360640190fd5b6000600254116112ae576040805162461bcd60e51b8152602060048201526013602482015272139bc81d19585b5cc81c9959da5cdd195c9959606a1b604482015290519081900360640190fd5b6112b66125e3565b6112be6125e3565b6112c66125e3565b6112ce6125e3565b60005b6001548110156113b957600181815481106112e857fe5b60009182526020918290206040805160c08101825260069093029091018054835260018101549383019390935260028301546001600160a01b03169082015260038201546060820152600482015460ff16158015608083015260059092015460a082015295508061136057508160a001518560a00151105b1561136a576113b1565b8360a001518560a0015111156113845784939291506113b1565b8260a001518560a00151111561139d57849291506113b1565b8160a001518560a0015111156113b1578491505b6001016112d1565b508251600f819055602080850151601055604080860151601180546001600160a01b03199081166001600160a01b0393841617918290556060808a01516012556080808b01516013805460ff1990811692151592909217905560a0808d015160148190558c516015558c8a01516016558c890151601780548816918a169190911790558c8501516018558c8401516019805485169115159190911790558c820151601a558b51601b558b8a0151601c558b890151601d8054909716908916179095558a840151601e558a830151601f805484169115159190911790558a01518855602180549091166001908117909155865198895293909416958701959095528584015292840192909252517f78bd43bbb342abb837e10002dd4fcda5ea371db518ce4e9aff10ab136441a99c9281900390910190a1601554601754601a54604080519384526001600160a01b0390921660208401528282015260026060830152517f78bd43bbb342abb837e10002dd4fcda5ea371db518ce4e9aff10ab136441a99c9181900360800190a1601b54601d5460208054604080519485526001600160a01b03909316918401919091528282015260036060830152517f78bd43bbb342abb837e10002dd4fcda5ea371db518ce4e9aff10ab136441a99c9181900360800190a150505050565b6115ad33610ac1565b6115e85760405162461bcd60e51b81526004018080602001828103825260338152602001806126666033913960400191505060405180910390fd5b61069981611f27565b600e5460ff1690565b600e5460ff16611648576040805162461bcd60e51b8152602060048201526014602482015273115d985b1d585d1a5bdb881a5cc818db1bdcd95960621b604482015290519081900360640190fd5b61165133610ac1565b61168c5760405162461bcd60e51b81526004018080602001828103825260338152602001806126666033913960400191505060405180910390fd5b610adf6120b8565b61169d33610ac1565b6116d85760405162461bcd60e51b81526004018080602001828103825260338152602001806126666033913960400191505060405180910390fd5b61069981611e2a565b600e5460ff161561172e576040805162461bcd60e51b815260206004820152601260248201527122bb30b63ab0ba34b7b71034b99037b832b760711b604482015290519081900360640190fd5b61173733610ac1565b6117725760405162461bcd60e51b81526004018080602001828103825260338152602001806126666033913960400191505060405180910390fd5b610adf6120f8565b60035460ff16156117c9576040805162461bcd60e51b81526020600482015260146024820152732932b3b4b9ba3930ba34b7b71034b99037b832b760611b604482015290519081900360640190fd5b6117d233610ac1565b61180d5760405162461bcd60e51b81526004018080602001828103825260338152602001806126666033913960400191505060405180910390fd5b610adf612142565b60035460ff1690565b61182733610ac1565b6118625760405162461bcd60e51b81526004018080602001828103825260338152602001806126666033913960400191505060405180910390fd5b6106998161218c565b8161187581611bb0565b6118b8576040805162461bcd60e51b815260206004820152600f60248201526e125b9d985b1a59081d19585b481a59608a1b604482015290519081900360640190fd5b826118c281611d23565b61190a576040805162461bcd60e51b81526020600482015260146024820152731519585b481a5cc81b9bdd08185c1c1c9bdd995960621b604482015290519081900360640190fd5b600354610100900460ff1661195d576040805162461bcd60e51b815260206004820152601460248201527314dd589b5a5cdcda5bdb881a5cc818db1bdcd95960621b604482015290519081900360640190fd5b60006001858154811061196c57fe5b60009182526020918290206003600690920201908101869055600281015481546040805189815290519395506001600160a01b039092169390927fa44de9e6ce79675199796005de8516704078af25aaf78ab4be180213882560ee9281900390910190a35050505050565b6000610ace600583611dc3565b61069981612203565b600354610100900460ff16611a40576040805162461bcd60e51b815260206004820152601460248201527314dd589b5a5cdcda5bdb881a5cc818db1bdcd95960621b604482015290519081900360640190fd5b611a4933610ac1565b611a845760405162461bcd60e51b81526004018080602001828103825260338152602001806126666033913960400191505060405180910390fd5b610adf6122de565b611a97600482611b2f565b6040516001600160a01b038216907f37e96fc6762bae414e69ea6e2490e63bc46f2a1335de0f6b91f49cf808829bcf90600090a250565b600082820183811015611b28576040805162461bcd60e51b815260206004820152601b60248201527f536166654d6174683a206164646974696f6e206f766572666c6f770000000000604482015290519081900360640190fd5b9392505050565b611b398282611dc3565b15611b8b576040805162461bcd60e51b815260206004820152601f60248201527f526f6c65733a206163636f756e7420616c72656164792068617320726f6c6500604482015290519081900360640190fd5b6001600160a01b0316600090815260209190915260409020805460ff19166001179055565b6001541190565b80611bc181611bb0565b611c04576040805162461bcd60e51b815260206004820152600f60248201526e125b9d985b1a59081d19585b481a59608a1b604482015290519081900360640190fd5b81611c0e81611d23565b15611c58576040805162461bcd60e51b81526020600482015260156024820152742a32b0b69034b9903737ba103932b83937bb32b21760591b604482015290519081900360640190fd5b600060018481548110611c6757fe5b600091825260209091206004600690920201908101805460ff19166001908117909155600254919250611c9a9190611ace565b6002908155810154815460048301546040805160ff90921615158252516001600160a01b03909316927fd903780bcf5bcea81714ac3450a34cb3de7b0735a59883e1eb90edd901a54ad49181900360200190a350505050565b60005b81518110156106d857611d1b828281518110611d0e57fe5b6020026020010151612203565b600101611cf6565b6000611d2e82611bb0565b611d3a57506000610ad1565b600060018381548110611d4957fe5b60009182526020918290206040805160c08101825260069093029091018054835260018101549383019390935260028301546001600160a01b03169082015260038201546060820152600482015460ff1615156080820181905260059092015460a090910152915050919050565b600a60ff909116111590565b60006001600160a01b038216611e0a5760405162461bcd60e51b815260040180806020018281038252602281526020018061272c6022913960400191505060405180910390fd5b506001600160a01b03166000908152602091909152604090205460ff1690565b611e3381612329565b6001600160a01b03166000908152600d60205260409020600101805460ff60a01b19169055565b611e6381612366565b6001600160a01b0381166000908152600b60205260409020805460ff19169055600a54611e919060016123a8565b600a5550565b6003805461ff00191661010090811791829055604080519190920460ff161515815290517f48fbf5c7b70581e7e2145562de373e14a5af56d09f9b96d73545d0d35f71f0889181900360200190a1565b6003805460ff19169055604080516000815290517f78b477400a612eb4ec0a343596323cccfac06b27624264a549d8322c736d055c9181900360200190a1565b611f30816123ea565b6000600c80549050905060006040518060800160405280838152602001846001600160a01b03168152602001600115158152602001600015158152509050600c8190806001815401808255809150506001900390600052602060002090600202016000909190919091506000820151816000015560208201518160010160006101000a8154816001600160a01b0302191690836001600160a01b0316021790555060408201518160010160146101000a81548160ff02191690831515021790555060608201518160010160156101000a81548160ff021916908315150217905550505080600d6000856001600160a01b03166001600160a01b031681526020019081526020016000206000820151816000015560208201518160010160006101000a8154816001600160a01b0302191690836001600160a01b0316021790555060408201518160010160146101000a81548160ff02191690831515021790555060608201518160010160156101000a81548160ff021916908315150217905550905050505050565b600e805460ff19169055604080516000815290517f0266365b4830894a247179cbad20f3dfe40ba70917925976027d2af68d950bed9181900360200190a1565b600e805460ff1916600117908190556040805160ff9290921615158252517f0266365b4830894a247179cbad20f3dfe40ba70917925976027d2af68d950bed9181900360200190a1565b6003805460ff1916600117908190556040805160ff9290921615158252517f78b477400a612eb4ec0a343596323cccfac06b27624264a549d8322c736d055c9181900360200190a1565b61219581611a8c565b6009805460018082019092557f6e1540171b6c0c960b71a7020d9f60077f6af931a8bbf590da0223dacf75c7af0180546001600160a01b0319166001600160a01b0384169081179091556000908152600b60205260409020805460ff191682179055600a54611e9191611ace565b8061220d81611bb0565b612250576040805162461bcd60e51b815260206004820152600f60248201526e125b9d985b1a59081d19585b481a59608a1b604482015290519081900360640190fd5b8161225a81611d23565b6122a2576040805162461bcd60e51b81526020600482015260146024820152731519585b481a5cc81b9bdd08185c1c1c9bdd995960621b604482015290519081900360640190fd5b6000600184815481106122b157fe5b6000918252602090912060069091020160048101805460ff19169055600254909150611c9a9060016123a8565b6003805461ff001916908190556040805161010090920460ff1615158252517f48fbf5c7b70581e7e2145562de373e14a5af56d09f9b96d73545d0d35f71f0889181900360200190a1565b61233281612461565b6001600160a01b0381166000908152600860205260409020805460ff191690556007546123609060016123a8565b60075550565b6123716004826124a3565b6040516001600160a01b038216907fc459bd414676a5877fcf10a0d73ecf7e1f672a339650b03e628c4046534300e390600090a250565b6000611b2883836040518060400160405280601e81526020017f536166654d6174683a207375627472616374696f6e206f766572666c6f77000081525061250a565b6123f3816125a1565b6006805460018082019092557ff652222313e28459528d920b65115c16c04f3efc82aaedc97be59f3f377c0d3f0180546001600160a01b0319166001600160a01b0384169081179091556000908152600860205260409020805460ff19168217905560075461236091611ace565b61246c6005826124a3565b6040516001600160a01b038216907f32a792a099c63670df7161917c5efb2fdc734cf9f943ebddccbecef87664f2b790600090a250565b6124ad8282611dc3565b6124e85760405162461bcd60e51b81526004018080602001828103825260218152602001806126996021913960400191505060405180910390fd5b6001600160a01b0316600090815260209190915260409020805460ff19169055565b600081848411156125995760405162461bcd60e51b81526004018080602001828103825283818151815260200191508051906020019080838360005b8381101561255e578181015183820152602001612546565b50505050905090810190601f16801561258b5780820380516001836020036101000a031916815260200191505b509250505060405180910390fd5b505050900390565b6125ac600582611b2f565b6040516001600160a01b038216907fe7f15f9ffff540ae14fdebcd9b6d6cc1fc143933338656c99caa595e8b80903990600090a250565b6040805160c081018252600080825260208201819052918101829052606081018290526080810182905260a08101919091529056fe4a7564676520616c7265616479207375626d6974746564206576616c756174696f6e4a75646765526f6c653a2063616c6c657220646f6573206e6f742068617665204a7564676520526f6c652e4f7267616e697a6572526f6c653a2063616c6c657220646f6573206e6f742068617665204f7267616e697a657220526f6c652e526f6c65733a206163636f756e7420646f6573206e6f74206861766520726f6c657465616d7349647320616e642067726164657320646f206e6f74206d617463682074686520636f756e74696e67206f6620617070726f766564207465616d734c656e677468206f66207465616d7320616e64207465616d47726164657320617272617973206d75737420626520657175616c526f6c65733a206163636f756e7420697320746865207a65726f2061646472657373a2646970667358221220065d41154009d9db868d9cbe8b10df1c35c29c072705b64322b2a155ff1edf6b64736f6c63430007060033526f6c65733a206163636f756e7420697320746865207a65726f2061646472657373",
  "immutableReferences": {},
  "source": "// SPDX-License-Identifier: UNLICENSED\n\npragma solidity >=0.7.0 <0.8.0;\n\nimport \"../core/ContestBracketRegistry.sol\";\n\ncontract ContestBracketRegistryMock is ContestBracketRegistry {\n    constructor() ContestBracketRegistry(msg.sender) {}\n\n}\n",
  "sourcePath": "/media/fodisi/56401C55401C3DE5/dev/Projects/hackapay/contracts/mocks/ContestBracketRegistryMock.sol",
  "compiler": {
    "name": "solc",
    "version": "0.7.6+commit.7338295f.Emscripten.clang"
  },
  "schemaVersion": "3.3.2",
  "updatedAt": "2021-01-22T04:14:17.087Z",
  "devdoc": {
    "kind": "dev",
    "methods": {
      "approveTeam(uint256)": {
        "details": "Should be overwritten on inherited contract to add modifier or require statements for access control.",
        "params": {
          "teamId": "{uint256} the ids of the teams to be approved"
        }
      },
      "closeEvaluation()": {
        "details": "Should be overwritten on inherited contract to add modifier or require statements for access control."
      },
      "closeRegistration()": {
        "details": "Overwritten to add modifier for access control."
      },
      "closeSubmission()": {
        "details": "Should be overwritten on inherited contract to add modifier or require statements for access control."
      },
      "getEvaluationStatus()": {
        "returns": {
          "_0": "{bool} returns {true} if enabled; otherwise, {false}."
        }
      },
      "getRegistrationStatus()": {
        "returns": {
          "_0": "{bool} returns {true} if enabled; otherwise, {false}."
        }
      },
      "getSubmissionStatus()": {
        "returns": {
          "_0": "{bool} returns {true} if enabled; otherwise, {false}."
        }
      },
      "getTeam(uint256)": {
        "params": {
          "teamId": "{uint256} the team's unique identifier returned on registration"
        },
        "returns": {
          "_0": "{bytes32} team's name",
          "_1": "{address} team's address",
          "_2": "{bytes32} team's proposal data",
          "_3": "{bool} team's status: {true} for approved; {false} for reproved;",
          "_4": "{uint256} team's grade"
        }
      },
      "getTeamByAddress(address)": {
        "params": {
          "teamAddress": "{address} the team's contract address used on registration"
        },
        "returns": {
          "_0": "{bytes32} team's name",
          "_1": "{address} team's address",
          "_2": "{bytes32} team's proposal data",
          "_3": "{bool} team's status: {true} for approved; {false} for reproved;",
          "_4": "{uint256} team's grade"
        }
      },
      "getWinnersIds()": {
        "returns": {
          "_0": "{uint256} First place's id",
          "_1": "{uint256} Second place's id",
          "_2": "{uint256} Third place's id"
        }
      },
      "openEvaluation()": {
        "details": "Should be overwritten on inherited contract to add modifier or require statements for access control."
      },
      "openRegistration()": {
        "details": "Overwritten to add modifier for access control."
      },
      "openSubmission()": {
        "details": "Should be overwritten on inherited contract to add modifier or require statements for access control."
      },
      "publishRank()": {
        "details": "emitts an WinnerAnnounced event for each winner (1st, 2nd, 3rd place)."
      },
      "registerTeam(bytes32,address,bytes32)": {
        "details": "Registration process must be open.",
        "params": {
          "teamName": "{bytes32} team's proposal data; could be a hash for a file  on IPFS or for a github link; not required"
        }
      },
      "reproveTeam(uint256)": {
        "details": "Should be overwritten on inherited contract to add modifier or require statements for access control.",
        "params": {
          "teamId": "{uint256} the ids of the teams to be reproved"
        }
      },
      "reproveTeams(uint256[])": {
        "details": "Should be overwritten on inherited contract to add modifier or require statements for access control.",
        "params": {
          "teamIds": "{uint256[]} an array containing the ids of the teams to be reproved"
        }
      },
      "submitEvaluation(uint256[],uint8[])": {
        "details": "The position of teamId and teamGrade must be the same in the array. For example, if teamId \"1\" is sent at {teamIds} array position \"5\" (zero-based), the grade for team \"1\" must be sent at position \"5\" in {teamGrades} array.",
        "params": {
          "teamGrades": "Array of the grades given by the judge for each team.",
          "teamIds": "Array of the ids associated with each team that is going to be evaluated."
        }
      },
      "updateProposalData(uint256,bytes32)": {
        "params": {
          "proposalData": "the updated data for the team's proposal",
          "teamId": "team's unique identifier; required"
        }
      }
    },
    "version": 1
  },
  "userdoc": {
    "kind": "user",
    "methods": {
      "addJudge(address)": {
        "notice": "@dev Needs to be implemented by a inherited contract."
      },
      "approveTeam(uint256)": {
        "notice": "(re)approves a team in participating in the contest"
      },
      "closeEvaluation()": {
        "notice": "Closes the evaluation process"
      },
      "closeRegistration()": {
        "notice": "Closes the registration process"
      },
      "closeSubmission()": {
        "notice": "Closes the proposal submission process"
      },
      "getEvaluationStatus()": {
        "notice": "Gets the evaluation status"
      },
      "getRegistrationStatus()": {
        "notice": "Gets the registration status"
      },
      "getSubmissionStatus()": {
        "notice": "Gets the submission status"
      },
      "getTeam(uint256)": {
        "notice": "Returns the stored information of a team"
      },
      "getTeamByAddress(address)": {
        "notice": "Returns the stored information of a team, based on a provided address"
      },
      "getWinnersIds()": {
        "notice": "Gets the id of the winner teams."
      },
      "openEvaluation()": {
        "notice": "Opens the evaluation process"
      },
      "openRegistration()": {
        "notice": "Opens the registration process"
      },
      "openSubmission()": {
        "notice": "Opens the proposal submission process"
      },
      "publishRank()": {
        "notice": "Published the ranking results of the contest."
      },
      "registerTeam(bytes32,address,bytes32)": {
        "notice": "Registers a new team in the contest registry."
      },
      "reproveTeam(uint256)": {
        "notice": "reproves a team from participating in the contest"
      },
      "reproveTeams(uint256[])": {
        "notice": "reprove teams from participating in the contest"
      },
      "submitEvaluation(uint256[],uint8[])": {
        "notice": "Allows a judge to submit its evaluation for the teams competing in the contest. The evaluation for all teams must be submitted once."
      },
      "updateProposalData(uint256,bytes32)": {
        "notice": "Updates the proposal data for a specific team."
      }
    },
    "version": 1
  }
}