{
  "contractName": "ContestRoleManagerMock",
  "abi": [
    {
      "constant": true,
      "inputs": [
        {
          "name": "account",
          "type": "address"
        }
      ],
      "name": "isOrganizer",
      "outputs": [
        {
          "name": "",
          "type": "bool"
        }
      ],
      "payable": false,
      "stateMutability": "view",
      "type": "function"
    },
    {
      "constant": false,
      "inputs": [],
      "name": "renounceJudge",
      "outputs": [],
      "payable": false,
      "stateMutability": "nonpayable",
      "type": "function"
    },
    {
      "constant": false,
      "inputs": [],
      "name": "renounceOrganizer",
      "outputs": [],
      "payable": false,
      "stateMutability": "nonpayable",
      "type": "function"
    },
    {
      "constant": false,
      "inputs": [
        {
          "name": "account",
          "type": "address"
        }
      ],
      "name": "addJudge",
      "outputs": [],
      "payable": false,
      "stateMutability": "nonpayable",
      "type": "function"
    },
    {
      "constant": false,
      "inputs": [
        {
          "name": "account",
          "type": "address"
        }
      ],
      "name": "removeJudge",
      "outputs": [],
      "payable": false,
      "stateMutability": "nonpayable",
      "type": "function"
    },
    {
      "constant": false,
      "inputs": [
        {
          "name": "account",
          "type": "address"
        }
      ],
      "name": "addOrganizer",
      "outputs": [],
      "payable": false,
      "stateMutability": "nonpayable",
      "type": "function"
    },
    {
      "constant": true,
      "inputs": [
        {
          "name": "account",
          "type": "address"
        }
      ],
      "name": "isJudge",
      "outputs": [
        {
          "name": "",
          "type": "bool"
        }
      ],
      "payable": false,
      "stateMutability": "view",
      "type": "function"
    },
    {
      "inputs": [],
      "payable": false,
      "stateMutability": "nonpayable",
      "type": "constructor"
    },
    {
      "anonymous": false,
      "inputs": [
        {
          "indexed": true,
          "name": "account",
          "type": "address"
        }
      ],
      "name": "JudgeAdded",
      "type": "event"
    },
    {
      "anonymous": false,
      "inputs": [
        {
          "indexed": true,
          "name": "account",
          "type": "address"
        }
      ],
      "name": "JudgeRemoved",
      "type": "event"
    },
    {
      "anonymous": false,
      "inputs": [
        {
          "indexed": true,
          "name": "account",
          "type": "address"
        }
      ],
      "name": "OrganizerAdded",
      "type": "event"
    },
    {
      "anonymous": false,
      "inputs": [
        {
          "indexed": true,
          "name": "account",
          "type": "address"
        }
      ],
      "name": "OrganizerRemoved",
      "type": "event"
    },
    {
      "constant": true,
      "inputs": [],
      "name": "getActiveOrganizersCount",
      "outputs": [
        {
          "name": "",
          "type": "uint256"
        }
      ],
      "payable": false,
      "stateMutability": "view",
      "type": "function"
    },
    {
      "constant": true,
      "inputs": [],
      "name": "getActiveJudgesCount",
      "outputs": [
        {
          "name": "",
          "type": "uint256"
        }
      ],
      "payable": false,
      "stateMutability": "view",
      "type": "function"
    }
  ],
  "bytecode": "0x608060405234801561001057600080fd5b5033808061007f57604080517f08c379a000000000000000000000000000000000000000000000000000000000815260206004820152601460248201527f496e76616c6964207a65726f2061646472657373000000000000000000000000604482015290519081900360640190fd5b61008e8161009560201b60201c565b5050610315565b6100a88161012960201b6106561760201c565b6005805460018082019092557f036b6384b5eca791c62761152d0c79bb0604c104a5fb6f4eb0703f3154bb3db00180546001600160a01b0319166001600160a01b0384169081179091556000908152600760209081526040909120805460ff191683179055600654610123929091610178811b6105f217901c565b60065550565b6101418160006101f360201b6107081790919060201c565b6040516001600160a01b038216907f37e96fc6762bae414e69ea6e2490e63bc46f2a1335de0f6b91f49cf808829bcf90600090a250565b6000828201838110156101ec57604080517f08c379a000000000000000000000000000000000000000000000000000000000815260206004820152601b60248201527f536166654d6174683a206164646974696f6e206f766572666c6f770000000000604482015290519081900360640190fd5b9392505050565b610203828261029460201b60201c565b1561026f57604080517f08c379a000000000000000000000000000000000000000000000000000000000815260206004820152601f60248201527f526f6c65733a206163636f756e7420616c72656164792068617320726f6c6500604482015290519081900360640190fd5b6001600160a01b0316600090815260209190915260409020805460ff19166001179055565b60006001600160a01b0382166102f5576040517f08c379a0000000000000000000000000000000000000000000000000000000008152600401808060200182810382526022815260200180610b526022913960400191505060405180910390fd5b506001600160a01b03166000908152602091909152604090205460ff1690565b61082e806103246000396000f3fe608060405234801561001057600080fd5b50600436106100935760003560e01c8063927cab4711610066578063927cab47146100fe578063ae2ac4ae14610124578063ce46e79d1461014a578063e4725f0214610152578063ed896d661461017857610093565b806341676f15146100985780634b30b66f146100d2578063567ad862146100dc578063820429ba146100e4575b600080fd5b6100be600480360360208110156100ae57600080fd5b50356001600160a01b031661019e565b604080519115158252519081900360200190f35b6100da6101b6565b005b6100da6101c1565b6100ec6101ca565b60408051918252519081900360200190f35b6100da6004803603602081101561011457600080fd5b50356001600160a01b03166101d0565b6100da6004803603602081101561013a57600080fd5b50356001600160a01b0316610223565b6100ec610273565b6100da6004803603602081101561016857600080fd5b50356001600160a01b0316610279565b6100be6004803603602081101561018e57600080fd5b50356001600160a01b03166102c9565b60006101b0818363ffffffff6102dc16565b92915050565b6101bf33610346565b565b6101bf33610389565b60035490565b6101d93361019e565b61021757604051600160e51b62461bcd02815260040180806020018281038252603381526020018061078d6033913960400191505060405180910390fd5b610220816103cc565b50565b61022c3361019e565b61026a57604051600160e51b62461bcd02815260040180806020018281038252603381526020018061078d6033913960400191505060405180910390fd5b61022081610346565b60065490565b6102823361019e565b6102c057604051600160e51b62461bcd02815260040180806020018281038252603381526020018061078d6033913960400191505060405180910390fd5b61022081610443565b60006101b060018363ffffffff6102dc16565b60006001600160a01b03821661032657604051600160e51b62461bcd0281526004018080602001828103825260228152602001806107e16022913960400191505060405180910390fd5b506001600160a01b03166000908152602091909152604090205460ff1690565b61034f816104ba565b6001600160a01b0381166000908152600460205260409020805460ff1916905560035461038390600163ffffffff61050216565b60035550565b61039281610562565b6001600160a01b0381166000908152600760205260409020805460ff191690556006546103c690600163ffffffff61050216565b60065550565b6103d5816105aa565b6002805460018082019092557f405787fa12a823e0f2b7631cc41b3ba8828b3321ca811111fa75cd3aa3bb5ace0180546001600160a01b0319166001600160a01b0384169081179091556000908152600460205260409020805460ff191682179055600354610383916105f2565b61044c81610656565b6005805460018082019092557f036b6384b5eca791c62761152d0c79bb0604c104a5fb6f4eb0703f3154bb3db00180546001600160a01b0319166001600160a01b0384169081179091556000908152600760205260409020805460ff1916821790556006546103c6916105f2565b6104cb60018263ffffffff61069e16565b6040516001600160a01b038216907f32a792a099c63670df7161917c5efb2fdc734cf9f943ebddccbecef87664f2b790600090a250565b60008282111561055c5760408051600160e51b62461bcd02815260206004820152601e60248201527f536166654d6174683a207375627472616374696f6e206f766572666c6f770000604482015290519081900360640190fd5b50900390565b61057360008263ffffffff61069e16565b6040516001600160a01b038216907fc459bd414676a5877fcf10a0d73ecf7e1f672a339650b03e628c4046534300e390600090a250565b6105bb60018263ffffffff61070816565b6040516001600160a01b038216907fe7f15f9ffff540ae14fdebcd9b6d6cc1fc143933338656c99caa595e8b80903990600090a250565b60008282018381101561064f5760408051600160e51b62461bcd02815260206004820152601b60248201527f536166654d6174683a206164646974696f6e206f766572666c6f770000000000604482015290519081900360640190fd5b9392505050565b61066760008263ffffffff61070816565b6040516001600160a01b038216907f37e96fc6762bae414e69ea6e2490e63bc46f2a1335de0f6b91f49cf808829bcf90600090a250565b6106a882826102dc565b6106e657604051600160e51b62461bcd0281526004018080602001828103825260218152602001806107c06021913960400191505060405180910390fd5b6001600160a01b0316600090815260209190915260409020805460ff19169055565b61071282826102dc565b156107675760408051600160e51b62461bcd02815260206004820152601f60248201527f526f6c65733a206163636f756e7420616c72656164792068617320726f6c6500604482015290519081900360640190fd5b6001600160a01b0316600090815260209190915260409020805460ff1916600117905556fe4f7267616e697a6572526f6c653a2063616c6c657220646f6573206e6f742068617665204f7267616e697a657220526f6c652e526f6c65733a206163636f756e7420646f6573206e6f74206861766520726f6c65526f6c65733a206163636f756e7420697320746865207a65726f2061646472657373a165627a7a723058208753974037b0a07d9f3d115f195118ca5c283bbd10b75e6114830faaf835d8840029526f6c65733a206163636f756e7420697320746865207a65726f2061646472657373",
  "source": "pragma solidity ^0.5.0;\n\nimport \"../roles/ContestRoleManager.sol\";\n\ncontract ContestRoleManagerMock is ContestRoleManager {\n    constructor() public ContestRoleManager(msg.sender) {}\n\n    function getActiveOrganizersCount() public view returns (uint256) {\n        return activeOrganizersCount;\n    }\n\n    function getActiveJudgesCount() public view returns (uint256) {\n        return activeJudgesCount;\n    }\n\n}\n",
  "sourcePath": "/home/odisi/dev/projects/hackapay/contracts/mocks/ContestRoleManagerMock.sol",
  "compiler": {
    "name": "solc",
    "version": "0.5.8+commit.23d335f2.Emscripten.clang"
  },
  "schemaVersion": "3.0.11",
  "updatedAt": "2019-07-31T21:53:16.835Z",
  "devdoc": {
    "methods": {}
  },
  "userdoc": {
    "methods": {}
  }
}