{
  "contractName": "ContestTeamRegistryMock",
  "abi": [
    {
      "constant": true,
      "inputs": [
        {
          "name": "teamId",
          "type": "uint256"
        }
      ],
      "name": "getTeam",
      "outputs": [
        {
          "name": "",
          "type": "bytes32"
        },
        {
          "name": "",
          "type": "address"
        },
        {
          "name": "",
          "type": "bytes32"
        },
        {
          "name": "",
          "type": "bool"
        },
        {
          "name": "",
          "type": "uint256"
        }
      ],
      "payable": false,
      "stateMutability": "view",
      "type": "function"
    },
    {
      "constant": false,
      "inputs": [
        {
          "name": "teamId",
          "type": "uint256"
        }
      ],
      "name": "approveTeam",
      "outputs": [],
      "payable": false,
      "stateMutability": "nonpayable",
      "type": "function"
    },
    {
      "constant": false,
      "inputs": [
        {
          "name": "teamIds",
          "type": "uint256[]"
        }
      ],
      "name": "reproveTeams",
      "outputs": [],
      "payable": false,
      "stateMutability": "nonpayable",
      "type": "function"
    },
    {
      "constant": true,
      "inputs": [
        {
          "name": "",
          "type": "uint256"
        }
      ],
      "name": "teams",
      "outputs": [
        {
          "name": "id",
          "type": "uint256"
        },
        {
          "name": "name",
          "type": "bytes32"
        },
        {
          "name": "teamAddress",
          "type": "address"
        },
        {
          "name": "proposalData",
          "type": "bytes32"
        },
        {
          "name": "approved",
          "type": "bool"
        },
        {
          "name": "grade",
          "type": "uint256"
        }
      ],
      "payable": false,
      "stateMutability": "view",
      "type": "function"
    },
    {
      "constant": true,
      "inputs": [
        {
          "name": "teamAddress",
          "type": "address"
        }
      ],
      "name": "getTeamByAddress",
      "outputs": [
        {
          "name": "",
          "type": "bytes32"
        },
        {
          "name": "",
          "type": "address"
        },
        {
          "name": "",
          "type": "bytes32"
        },
        {
          "name": "",
          "type": "bool"
        },
        {
          "name": "",
          "type": "uint256"
        }
      ],
      "payable": false,
      "stateMutability": "view",
      "type": "function"
    },
    {
      "constant": true,
      "inputs": [],
      "name": "getSubmissionStatus",
      "outputs": [
        {
          "name": "",
          "type": "bool"
        }
      ],
      "payable": false,
      "stateMutability": "view",
      "type": "function"
    },
    {
      "constant": false,
      "inputs": [],
      "name": "openSubmission",
      "outputs": [],
      "payable": false,
      "stateMutability": "nonpayable",
      "type": "function"
    },
    {
      "constant": false,
      "inputs": [
        {
          "name": "teamName",
          "type": "bytes32"
        },
        {
          "name": "teamAddress",
          "type": "address"
        },
        {
          "name": "proposalData",
          "type": "bytes32"
        }
      ],
      "name": "registerTeam",
      "outputs": [
        {
          "name": "",
          "type": "uint256"
        }
      ],
      "payable": false,
      "stateMutability": "nonpayable",
      "type": "function"
    },
    {
      "constant": false,
      "inputs": [],
      "name": "closeRegistration",
      "outputs": [],
      "payable": false,
      "stateMutability": "nonpayable",
      "type": "function"
    },
    {
      "constant": false,
      "inputs": [],
      "name": "openRegistration",
      "outputs": [],
      "payable": false,
      "stateMutability": "nonpayable",
      "type": "function"
    },
    {
      "constant": true,
      "inputs": [],
      "name": "getRegistrationStatus",
      "outputs": [
        {
          "name": "",
          "type": "bool"
        }
      ],
      "payable": false,
      "stateMutability": "view",
      "type": "function"
    },
    {
      "constant": false,
      "inputs": [
        {
          "name": "teamId",
          "type": "uint256"
        },
        {
          "name": "proposalData",
          "type": "bytes32"
        }
      ],
      "name": "updateProposalData",
      "outputs": [],
      "payable": false,
      "stateMutability": "nonpayable",
      "type": "function"
    },
    {
      "constant": false,
      "inputs": [
        {
          "name": "teamId",
          "type": "uint256"
        }
      ],
      "name": "reproveTeam",
      "outputs": [],
      "payable": false,
      "stateMutability": "nonpayable",
      "type": "function"
    },
    {
      "constant": false,
      "inputs": [],
      "name": "closeSubmission",
      "outputs": [],
      "payable": false,
      "stateMutability": "nonpayable",
      "type": "function"
    },
    {
      "inputs": [],
      "payable": false,
      "stateMutability": "nonpayable",
      "type": "constructor"
    },
    {
      "anonymous": false,
      "inputs": [
        {
          "indexed": true,
          "name": "teamId",
          "type": "uint256"
        },
        {
          "indexed": false,
          "name": "teamName",
          "type": "bytes32"
        },
        {
          "indexed": true,
          "name": "teamAddress",
          "type": "address"
        },
        {
          "indexed": false,
          "name": "approved",
          "type": "bool"
        }
      ],
      "name": "TeamRegistered",
      "type": "event"
    },
    {
      "anonymous": false,
      "inputs": [
        {
          "indexed": false,
          "name": "enabled",
          "type": "bool"
        }
      ],
      "name": "RegistrationStatusUpdated",
      "type": "event"
    },
    {
      "anonymous": false,
      "inputs": [
        {
          "indexed": false,
          "name": "enabled",
          "type": "bool"
        }
      ],
      "name": "SubmissionStatusUpdated",
      "type": "event"
    },
    {
      "anonymous": false,
      "inputs": [
        {
          "indexed": true,
          "name": "teamId",
          "type": "uint256"
        },
        {
          "indexed": true,
          "name": "teamAddress",
          "type": "address"
        },
        {
          "indexed": false,
          "name": "proposalData",
          "type": "bytes32"
        }
      ],
      "name": "TeamProposalUpdated",
      "type": "event"
    },
    {
      "anonymous": false,
      "inputs": [
        {
          "indexed": true,
          "name": "teamId",
          "type": "uint256"
        },
        {
          "indexed": true,
          "name": "teamAddress",
          "type": "address"
        },
        {
          "indexed": false,
          "name": "approved",
          "type": "bool"
        }
      ],
      "name": "TeamStatusUpdated",
      "type": "event"
    },
    {
      "constant": true,
      "inputs": [],
      "name": "getApprovedTeamsCount",
      "outputs": [
        {
          "name": "",
          "type": "uint256"
        }
      ],
      "payable": false,
      "stateMutability": "view",
      "type": "function"
    }
  ],
  "bytecode": "0x608060405234801561001057600080fd5b50611236806100206000396000f3fe608060405234801561001057600080fd5b50600436106100f45760003560e01c80637385712c11610097578063e35fb24111610066578063e35fb241146102da578063eaf2f9cd146102e2578063f540548b14610305578063ffc6ff1e14610322576100f4565b80637385712c1461027e5780637dc673bc146102c2578063b103b43a146102ca578063d06e4ee7146102d2576100f4565b80633ed2b77a116100d35780633ed2b77a146101da5780634ea701a81461023457806354e1db2b1461025a57806358e2f50e14610276576100f4565b80628e0f1b146100f957806324ba9fab1461014b578063288c4a461461016a575b600080fd5b6101166004803603602081101561010f57600080fd5b503561032a565b604080519586526001600160a01b03909416602086015284840192909252151560608401526080830152519081900360a00190f35b6101686004803603602081101561016157600080fd5b503561041a565b005b6101686004803603602081101561018057600080fd5b81019060208101813564010000000081111561019b57600080fd5b8201836020820111156101ad57600080fd5b803590602001918460208302840111640100000000831117156101cf57600080fd5b509092509050610426565b6101f7600480360360208110156101f057600080fd5b5035610466565b6040805196875260208701959095526001600160a01b039093168585015260608501919091521515608084015260a0830152519081900360c00190f35b6101166004803603602081101561024a57600080fd5b50356001600160a01b03166104b9565b6102626105a0565b604080519115158252519081900360200190f35b6101686105ae565b6102b06004803603606081101561029457600080fd5b508035906001600160a01b036020820135169060400135610618565b60408051918252519081900360200190f35b610168610a09565b6102b0610a6b565b610168610a71565b610262610ad4565b610168600480360360408110156102f857600080fd5b5080359060200135610add565b6101686004803603602081101561031b57600080fd5b5035610c67565b610168610c70565b60008060008060008561033c81610cd7565b6103855760408051600160e51b62461bcd02815260206004820152600f60248201526001608a1b6e125b9d985b1a59081d19585b481a5902604482015290519081900360640190fd5b61038d6111d5565b6001888154811061039a57fe5b60009182526020918290206040805160c08101825260069390930290910180548352600181015493830184905260028101546001600160a01b0316918301829052600381015460608401819052600482015460ff1615156080850181905260059092015460a0909401849052939c919b5092995091975095509350505050565b61042381610ce2565b50565b610462828280806020026020016040519081016040528093929190818152602001838360200280828437600092019190915250610e3592505050565b5050565b6001818154811061047357fe5b600091825260209091206006909102018054600182015460028301546003840154600485015460059095015493955091936001600160a01b039091169260ff9091169086565b6000808080806001600160a01b03861661051d5760408051600160e51b62461bcd02815260206004820152601460248201527f496e76616c6964207a65726f2061646472657373000000000000000000000000604482015290519081900360640190fd5b6105256111d5565b505050506001600160a01b0392831660009081526020818152604091829020825160c0810184528154815260018201549281018390526002820154909616928601839052600381015460608701819052600482015460ff1615156080880181905260059092015460a090970187905291969295919450925090565b600354610100900460ff1690565b600354610100900460ff161561060e5760408051600160e51b62461bcd02815260206004820152601260248201527f5375626d697373696f6e206973206f70656e0000000000000000000000000000604482015290519081900360640190fd5b610616610e65565b565b60035460009060ff166106755760408051600160e51b62461bcd02815260206004820152601660248201527f526567697374726174696f6e20697320636c6f73656400000000000000000000604482015290519081900360640190fd5b8360001a60f81b6001600160f81b0319166106da5760408051600160e51b62461bcd02815260206004820152601960248201527f5465616d206e616d652063616e6e6f7420626520656d70747900000000000000604482015290519081900360640190fd5b6001600160a01b0383166107385760408051600160e51b62461bcd02815260206004820152601b60248201527f5465616d20616464726573732063616e6e6f74206265207a65726f0000000000604482015290519081900360640190fd5b6001600160a01b0383811660009081526020819052604090206002015416156107ab5760408051600160e51b62461bcd02815260206004820152601760248201527f5465616d20616c72656164792072656769737465726564000000000000000000604482015290519081900360640190fd5b6001546107b66111d5565b506040805160c081018252828152602081018781526001600160a01b0387811693830193845260608301878152600160808501818152600060a08701818152835480850185559184905287517fb10e2d527612073b26eecdfd717e6a320cf44b4afac2b0732d9fcbe2b7fa0cf660069093029283015595517fb10e2d527612073b26eecdfd717e6a320cf44b4afac2b0732d9fcbe2b7fa0cf782015596517fb10e2d527612073b26eecdfd717e6a320cf44b4afac2b0732d9fcbe2b7fa0cf8880180546001600160a01b031916919095161790935590517fb10e2d527612073b26eecdfd717e6a320cf44b4afac2b0732d9fcbe2b7fa0cf986015590517fb10e2d527612073b26eecdfd717e6a320cf44b4afac2b0732d9fcbe2b7fa0cfa8501805460ff191691151591909117905590517fb10e2d527612073b26eecdfd717e6a320cf44b4afac2b0732d9fcbe2b7fa0cfb9093019290925581549091908390811061091e57fe5b600091825260208083206001600160a01b03808a1685529184905260409093206006909202909201805482556001808201548184015560028083015481850180546001600160a01b031916919096161790945560038083015490840155600480830154908401805460ff909216151560ff19909216919091179055600591820154919092015590546109b59163ffffffff610eb516565b600255604080518781526001602082015281516001600160a01b0388169285927f443b25596b838f2775d21b1153b87036f08c058fd4702446f1136ab26e5f3b90929081900390910190a350949350505050565b60035460ff16610a635760408051600160e51b62461bcd02815260206004820152601660248201527f526567697374726174696f6e20697320636c6f73656400000000000000000000604482015290519081900360640190fd5b610616610f19565b60025490565b60035460ff1615610acc5760408051600160e51b62461bcd02815260206004820152601460248201527f526567697374726174696f6e206973206f70656e000000000000000000000000604482015290519081900360640190fd5b610616610f59565b60035460ff1690565b81610ae781610cd7565b610b305760408051600160e51b62461bcd02815260206004820152600f60248201526001608a1b6e125b9d985b1a59081d19585b481a5902604482015290519081900360640190fd5b82610b3a81610fa3565b610b8e5760408051600160e51b62461bcd02815260206004820152601460248201527f5465616d206973206e6f7420617070726f766564000000000000000000000000604482015290519081900360640190fd5b600354610100900460ff16610bed5760408051600160e51b62461bcd02815260206004820152601460248201527f5375626d697373696f6e20697320636c6f736564000000000000000000000000604482015290519081900360640190fd5b600060018581548110610bfc57fe5b60009182526020918290206003600690920201908101869055600281015481546040805189815290519395506001600160a01b039092169390927fa44de9e6ce79675199796005de8516704078af25aaf78ab4be180213882560ee9281900390910190a35050505050565b6104238161103d565b600354610100900460ff16610ccf5760408051600160e51b62461bcd02815260206004820152601460248201527f5375626d697373696f6e20697320636c6f736564000000000000000000000000604482015290519081900360640190fd5b61061661112a565b60015481105b919050565b80610cec81610cd7565b610d355760408051600160e51b62461bcd02815260206004820152600f60248201526001608a1b6e125b9d985b1a59081d19585b481a5902604482015290519081900360640190fd5b81610d3f81610fa3565b15610d945760408051600160e51b62461bcd02815260206004820152601560248201527f5465616d206973206e6f7420726570726f7665642e0000000000000000000000604482015290519081900360640190fd5b600060018481548110610da357fe5b600091825260209091206004600690920201908101805460ff19166001908117909155600254919250610ddc919063ffffffff610eb516565b6002908155810154815460048301546040805160ff90921615158252516001600160a01b03909316927fd903780bcf5bcea81714ac3450a34cb3de7b0735a59883e1eb90edd901a54ad49181900360200190a350505050565b60005b815181101561046257610e5d828281518110610e5057fe5b602002602001015161103d565b600101610e38565b6003805461ff00191661010090811791829055604080519190920460ff161515815290517f48fbf5c7b70581e7e2145562de373e14a5af56d09f9b96d73545d0d35f71f0889181900360200190a1565b600082820183811015610f125760408051600160e51b62461bcd02815260206004820152601b60248201527f536166654d6174683a206164646974696f6e206f766572666c6f770000000000604482015290519081900360640190fd5b9392505050565b6003805460ff19169055604080516000815290517f78b477400a612eb4ec0a343596323cccfac06b27624264a549d8322c736d055c9181900360200190a1565b6003805460ff1916600117908190556040805160ff9290921615158252517f78b477400a612eb4ec0a343596323cccfac06b27624264a549d8322c736d055c9181900360200190a1565b6000610fae82610cd7565b610fba57506000610cdd565b610fc26111d5565b60018381548110610fcf57fe5b60009182526020918290206040805160c08101825260069093029091018054835260018101549383019390935260028301546001600160a01b03169082015260038201546060820152600482015460ff1615156080820181905260059092015460a090910152915050919050565b8061104781610cd7565b6110905760408051600160e51b62461bcd02815260206004820152600f60248201526001608a1b6e125b9d985b1a59081d19585b481a5902604482015290519081900360640190fd5b8161109a81610fa3565b6110ee5760408051600160e51b62461bcd02815260206004820152601460248201527f5465616d206973206e6f7420617070726f766564000000000000000000000000604482015290519081900360640190fd5b6000600184815481106110fd57fe5b6000918252602090912060069091020160048101805460ff19169055600254909150610ddc906001611175565b6003805461ff001916908190556040805161010090920460ff1615158252517f48fbf5c7b70581e7e2145562de373e14a5af56d09f9b96d73545d0d35f71f0889181900360200190a1565b6000828211156111cf5760408051600160e51b62461bcd02815260206004820152601e60248201527f536166654d6174683a207375627472616374696f6e206f766572666c6f770000604482015290519081900360640190fd5b50900390565b6040805160c081018252600080825260208201819052918101829052606081018290526080810182905260a08101919091529056fea165627a7a723058209665351eaec8f93e2f698570e47266a1cb76e777169678345dc33c60e876499a0029",
  "source": "pragma solidity ^0.5.0;\n\nimport \"../core/ContestTeamRegistry.sol\";\n\ncontract ContestTeamRegistryMock is ContestTeamRegistry {\n    constructor() public ContestTeamRegistry() {}\n\n    function getApprovedTeamsCount() external view returns (uint256) {\n        return approvedTeamsCount;\n    }\n\n}\n",
  "sourcePath": "/home/odisi/dev/projects/hackapay/contracts/mocks/ContestTeamRegistryMock.sol",
  "compiler": {
    "name": "solc",
    "version": "0.5.8+commit.23d335f2.Emscripten.clang"
  },
  "schemaVersion": "3.0.11",
  "updatedAt": "2019-07-31T01:58:33.619Z",
  "devdoc": {
    "methods": {
      "approveTeam(uint256)": {
        "details": "Should be overwritten on inherited contract to add modifier or require statements for access control.",
        "params": {
          "teamId": "{uint256} the ids of the teams to be approved"
        }
      },
      "closeRegistration()": {
        "details": "Should be overwritten on inherited contract to add modifier or require statements for access control."
      },
      "closeSubmission()": {
        "details": "Should be overwritten on inherited contract to add modifier or require statements for access control."
      },
      "getRegistrationStatus()": {
        "return": "{bool} returns {true} if enabled; otherwise, {false}."
      },
      "getTeam(uint256)": {
        "params": {
          "teamId": "{uint256} the team's unique identifier returned on registration"
        },
        "return": "{bytes32} team's name{address} team's address{bytes32} team's proposal data{bool} team's status: {true} for approved; {false} for reproved;{uint256} team's grade"
      },
      "getTeamByAddress(address)": {
        "params": {
          "teamAddress": "{address} the team's contract address used on registration"
        },
        "return": "{bytes32} team's name{address} team's address{bytes32} team's proposal data{bool} team's status: {true} for approved; {false} for reproved;{uint256} team's grade"
      },
      "openRegistration()": {
        "details": "Should be overwritten on inherited contract to add modifier or require statements for access control."
      },
      "openSubmission()": {
        "details": "Should be overwritten on inherited contract to add modifier or require statements for access control."
      },
      "registerTeam(bytes32,address,bytes32)": {
        "details": "Registration process must be open.",
        "params": {
          "teamName": "{bytes32} team's proposal data; could be a hash for a file  on IPFS or for a github link; not required"
        }
      },
      "reproveTeam(uint256)": {
        "details": "Should be overwritten on inherited contract to add modifier or require statements for access control.",
        "params": {
          "teamId": "{uint256} the ids of the teams to be reproved"
        }
      },
      "reproveTeams(uint256[])": {
        "details": "Should be overwritten on inherited contract to add modifier or require statements for access control.",
        "params": {
          "teamIds": "{uint256[]} an array containing the ids of the teams to be reproved"
        }
      },
      "updateProposalData(uint256,bytes32)": {
        "params": {
          "proposalData": "the updated data for the team's proposal",
          "teamId": "team's unique identifier; required"
        }
      }
    }
  },
  "userdoc": {
    "methods": {
      "approveTeam(uint256)": {
        "notice": "(re)approves a team in participating in the contest"
      },
      "closeRegistration()": {
        "notice": "Closes the registration process"
      },
      "closeSubmission()": {
        "notice": "Closes the proposal submission process"
      },
      "getRegistrationStatus()": {
        "notice": "Gets the registration status"
      },
      "getTeam(uint256)": {
        "notice": "Returns the stored information of a team"
      },
      "getTeamByAddress(address)": {
        "notice": "Returns the stored information of a team, based on a provided address"
      },
      "openRegistration()": {
        "notice": "Opens the registration process"
      },
      "openSubmission()": {
        "notice": "Opens the proposal submission process"
      },
      "registerTeam(bytes32,address,bytes32)": {
        "notice": "Registers a new team in the contest registry."
      },
      "reproveTeam(uint256)": {
        "notice": "reproves a team from participating in the contest"
      },
      "reproveTeams(uint256[])": {
        "notice": "reprove teams from participating in the contest"
      },
      "updateProposalData(uint256,bytes32)": {
        "notice": "Updates the proposal data for a specific team."
      }
    }
  }
}