{
  "contractName": "ContestTeamFactory",
  "abi": [
    {
      "anonymous": false,
      "inputs": [
        {
          "indexed": false,
          "internalType": "uint256",
          "name": "id",
          "type": "uint256"
        },
        {
          "indexed": false,
          "internalType": "bytes32",
          "name": "name",
          "type": "bytes32"
        },
        {
          "indexed": false,
          "internalType": "address",
          "name": "contractAddress",
          "type": "address"
        },
        {
          "indexed": false,
          "internalType": "address",
          "name": "creator",
          "type": "address"
        }
      ],
      "name": "NewContestTeamContract",
      "type": "event"
    },
    {
      "constant": false,
      "inputs": [
        {
          "internalType": "bytes32",
          "name": "name",
          "type": "bytes32"
        }
      ],
      "name": "createTeamContract",
      "outputs": [
        {
          "internalType": "address",
          "name": "",
          "type": "address"
        }
      ],
      "payable": true,
      "stateMutability": "payable",
      "type": "function"
    },
    {
      "constant": true,
      "inputs": [],
      "name": "getDeployedTeamContracts",
      "outputs": [
        {
          "internalType": "address[]",
          "name": "",
          "type": "address[]"
        }
      ],
      "payable": false,
      "stateMutability": "view",
      "type": "function"
    },
    {
      "constant": true,
      "inputs": [
        {
          "internalType": "uint256",
          "name": "id",
          "type": "uint256"
        }
      ],
      "name": "getTeamContractById",
      "outputs": [
        {
          "internalType": "address",
          "name": "",
          "type": "address"
        }
      ],
      "payable": false,
      "stateMutability": "view",
      "type": "function"
    },
    {
      "constant": true,
      "inputs": [
        {
          "internalType": "bytes32",
          "name": "name",
          "type": "bytes32"
        }
      ],
      "name": "getTeamContractByName",
      "outputs": [
        {
          "internalType": "address",
          "name": "",
          "type": "address"
        }
      ],
      "payable": false,
      "stateMutability": "view",
      "type": "function"
    }
  ],
  "bytecode": "0x608060405234801561001057600080fd5b50611942806100206000396000f3fe60806040526004361061003f5760003560e01c806313bfb2ae14610044578063270603eb146100a95780633f3abe74146100e257806371629c401461010c575b600080fd5b34801561005057600080fd5b50610059610136565b60408051602080825283518183015283519192839290830191858101910280838360005b8381101561009557818101518382015260200161007d565b505050509050019250505060405180910390f35b6100c6600480360360208110156100bf57600080fd5b5035610198565b604080516001600160a01b039092168252519081900360200190f35b3480156100ee57600080fd5b506100c66004803603602081101561010557600080fd5b5035610358565b34801561011857600080fd5b506100c66004803603602081101561012f57600080fd5b50356103d5565b6060600080548060200260200160405190810160405280929190818152602001828054801561018e57602002820191906000526020600020905b81546001600160a01b03168152600190910190602001808311610170575b5050505050905090565b60008180821a60f81b6001600160f81b0319166101f8576040805162461bcd60e51b81526020600482015260196024820152785465616d206e616d652063616e6e6f7420626520656d70747960381b604482015290519081900360640190fd5b60008381526001602052604090205483906001600160a01b031615610264576040805162461bcd60e51b815260206004820152601860248201527f5465616d206e616d6520616c726561647920696e207573650000000000000000604482015290519081900360640190fd5b6000805460405190919033906102799061040c565b6001600160a01b03909116815260405190819003602001906000f0801580156102a6573d6000803e3d6000fd5b5060008054600181810183557f290decd9548b62a8d60345a988386fc84ba6bc95484008f6362f93160ef3e56390910180546001600160a01b0385166001600160a01b031991821681179092558a8452602092835260409384902080549091168217905582518681529182018a90528183015233606082015290519192507f78338f4fdbc2ea6c9f377be8b6a3c14a22c354f517a423c2a2971896c3e995fc919081900360800190a195945050505050565b60008180821a60f81b6001600160f81b0319166103b8576040805162461bcd60e51b81526020600482015260196024820152785465616d206e616d652063616e6e6f7420626520656d70747960381b604482015290519081900360640190fd5b50506000908152600160205260409020546001600160a01b031690565b6000805482106103e457600080fd5b600082815481106103f157fe5b6000918252602090912001546001600160a01b031692915050565b6114f48061041a8339019056fe60806040523480156200001157600080fd5b50604051620014f4380380620014f4833981810160405260208110156200003757600080fd5b5051806001600160a01b038116620000b057604080517f08c379a000000000000000000000000000000000000000000000000000000000815260206004820152601460248201527f496e76616c6964207a65726f2061646472657373000000000000000000000000604482015290519081900360640190fd5b620000c4816001600160e01b03620000d616565b50506001805460ff19169055620003db565b60015460ff16156200014957604080517f08c379a000000000000000000000000000000000000000000000000000000000815260206004820152601260248201527f436f6e7472616374206973207061757365640000000000000000000000000000604482015290519081900360640190fd5b6200015f81620001e360201b62000d811760201c565b6002805460018082019092557f405787fa12a823e0f2b7631cc41b3ba8828b3321ca811111fa75cd3aa3bb5ace0180546001600160a01b0319166001600160a01b0384169081179091556000908152600460209081526040909120805460ff191683179055600354620001dd92909162000235811b62000b1b17901c565b60035550565b620001fe816000620002b160201b62000e9f1790919060201c565b6040516001600160a01b038216907ff965229cbef17c17a2ced10d89ec5f669942d8dd77bd8a5debcaed392434504e90600090a250565b600082820183811015620002aa57604080517f08c379a000000000000000000000000000000000000000000000000000000000815260206004820152601b60248201527f536166654d6174683a206164646974696f6e206f766572666c6f770000000000604482015290519081900360640190fd5b9392505050565b620002c682826001600160e01b036200035816565b156200033357604080517f08c379a000000000000000000000000000000000000000000000000000000000815260206004820152601f60248201527f526f6c65733a206163636f756e7420616c72656164792068617320726f6c6500604482015290519081900360640190fd5b6001600160a01b0316600090815260209190915260409020805460ff19166001179055565b60006001600160a01b038216620003bb576040517f08c379a0000000000000000000000000000000000000000000000000000000008152600401808060200182810382526022815260200180620014d26022913960400191505060405180910390fd5b506001600160a01b03166000908152602091909152604090205460ff1690565b6110e780620003eb6000396000f3fe6080604052600436106100c25760003560e01c8063722713f71161007f578063b187bd2611610059578063b187bd261461024d578063d0e30db014610262578063fb1da5431461026a578063fc8234cb1461027f576100c2565b8063722713f7146101fc5780638456cb59146102235780638f7c851914610238576100c2565b806307057382146100c757806310246254146100de5780632e1a7d4d146101115780633f4ba83a1461013b5780634876aebc146101505780636cad2590146101b5575b600080fd5b3480156100d357600080fd5b506100dc610294565b005b3480156100ea57600080fd5b506100dc6004803603602081101561010157600080fd5b50356001600160a01b0316610599565b34801561011d57600080fd5b506100dc6004803603602081101561013457600080fd5b50356105e9565b34801561014757600080fd5b506100dc6106f6565b34801561015c57600080fd5b50610165610744565b60408051602080825283518183015283519192839290830191858101910280838360005b838110156101a1578181015183820152602001610189565b505050509050019250505060405180910390f35b3480156101c157600080fd5b506101e8600480360360208110156101d857600080fd5b50356001600160a01b0316610817565b604080519115158252519081900360200190f35b34801561020857600080fd5b5061021161082f565b60408051918252519081900360200190f35b34801561022f57600080fd5b506100dc610889565b34801561024457600080fd5b506102116108d5565b34801561025957600080fd5b506101e86108db565b6100dc6108e4565b34801561027657600080fd5b506100dc61095c565b34801561028b57600080fd5b506100dc610965565b61029d33610817565b6102d85760405162461bcd60e51b815260040180806020018281038252603181526020018061105b6031913960400191505060405180910390fd5b60015460ff1615610325576040805162461bcd60e51b815260206004820152601260248201527110dbdb9d1c9858dd081a5cc81c185d5cd95960721b604482015290519081900360640190fd5b60065460009061033d9030319063ffffffff6109f416565b905060008111610394576040805162461bcd60e51b815260206004820152601b60248201527f436f6e74657374616e745465616d2062616c616e636520697320300000000000604482015290519081900360640190fd5b60006103ab60035483610a5190919063ffffffff16565b9050600081116103f6576040805162461bcd60e51b815260206004820152601160248201527004d656d626572207072697a65206973203607c1b604482015290519081900360640190fd5b600061040482600354610abb565b90506000805b6002548110156104b65760006002828154811061042357fe5b60009182526020808320909101546001600160a01b0316808352600490915260409091205490915060ff161515600114156104ad576001600160a01b038116600090815260056020526040902054610481908663ffffffff610b1b16565b6001600160a01b0382166000908152600560205260409020556104aa838663ffffffff610b1b16565b92505b5060010161040a565b506006546104ca908563ffffffff610b1b16565b60065580821461050b5760405162461bcd60e51b8152600401808060200182810382526024815260200180610fa96024913960400191505060405180910390fd5b60065430311461054c5760405162461bcd60e51b815260040180806020018281038252602a815260200180610fcd602a913960400191505060405180910390fd5b60035460408051868152602081019290925281810185905251429133917f347ce84d9ed7334a67bdbc36e6519fbbc870a22468c5fa79fcbb5d68f5bc220d9181900360600190a350505050565b6105a233610817565b6105dd5760405162461bcd60e51b815260040180806020018281038252603181526020018061105b6031913960400191505060405180910390fd5b6105e681610b75565b50565b33600090815260056020526040902054811115610642576040805162461bcd60e51b81526020600482015260126024820152714e6f7420656e6f7567682062616c616e636560701b604482015290519081900360640190fd5b33600090815260056020526040902054610662818363ffffffff6109f416565b33600090815260056020526040902081905560065490915061068a908363ffffffff6109f416565b600655604051339083156108fc029084906000818181858888f193505050501580156106ba573d6000803e3d6000fd5b50604080518381529051429133917ff279e6a1f5e320cca91135676d9cb6e44ca8a08c0b88342bcdb1144f6511b5689181900360200190a35050565b6106ff33610817565b61073a5760405162461bcd60e51b815260040180806020018281038252603181526020018061105b6031913960400191505060405180910390fd5b610742610c3f565b565b600254600354606091101561075857600080fd5b6060600354604051908082528060200260200182016040528015610786578160200160208202803883390190505b50905060005b600254811015610811576000600282815481106107a557fe5b60009182526020808320909101546001600160a01b0316808352600490915260409091205490915060ff1615156001141561080857808383815181106107e757fe5b60200260200101906001600160a01b031690816001600160a01b0316815250505b5060010161078c565b50905090565b6000610829818363ffffffff610c4716565b92915050565b600061083a33610817565b6108755760405162461bcd60e51b815260040180806020018281038252603181526020018061105b6031913960400191505060405180910390fd5b503360009081526005602052604090205490565b61089233610817565b6108cd5760405162461bcd60e51b815260040180806020018281038252603181526020018061105b6031913960400191505060405180910390fd5b610742610cae565b60035490565b60015460ff1690565b600034116109235760405162461bcd60e51b8152600401808060200182810382526021815260200180610f886021913960400191505060405180910390fd5b604080513481529051429133917f90890809c654f11d6e72a28fa60149770a0d11ec6c92319d6ceb2bb0a4ea1a159181900360200190a3565b61074233610cb6565b60015460ff166109b5576040805162461bcd60e51b815260206004820152601660248201527510dbdb9d1c9858dd081a5cc81b9bdd081c185d5cd95960521b604482015290519081900360640190fd5b6001805460ff191690556040805133815290517f5db9ee0a495bf2e6ff9c91a7834c1ba4fdd244a5e8aa4e537bd38aeae4b073aa9181900360200190a1565b600082821115610a4b576040805162461bcd60e51b815260206004820152601e60248201527f536166654d6174683a207375627472616374696f6e206f766572666c6f770000604482015290519081900360640190fd5b50900390565b6000808211610aa7576040805162461bcd60e51b815260206004820152601a60248201527f536166654d6174683a206469766973696f6e206279207a65726f000000000000604482015290519081900360640190fd5b6000828481610ab257fe5b04949350505050565b600082610aca57506000610829565b82820282848281610ad757fe5b0414610b145760405162461bcd60e51b81526004018080602001828103825260218152602001806110186021913960400191505060405180910390fd5b9392505050565b600082820183811015610b14576040805162461bcd60e51b815260206004820152601b60248201527f536166654d6174683a206164646974696f6e206f766572666c6f770000000000604482015290519081900360640190fd5b60015460ff1615610bc2576040805162461bcd60e51b815260206004820152601260248201527110dbdb9d1c9858dd081a5cc81c185d5cd95960721b604482015290519081900360640190fd5b610bcb81610d81565b6002805460018082019092557f405787fa12a823e0f2b7631cc41b3ba8828b3321ca811111fa75cd3aa3bb5ace0180546001600160a01b0319166001600160a01b0384169081179091556000908152600460205260409020805460ff191682179055600354610c3991610b1b565b60035550565b610742610965565b60006001600160a01b038216610c8e5760405162461bcd60e51b81526004018080602001828103825260228152602001806110396022913960400191505060405180910390fd5b506001600160a01b03166000908152602091909152604090205460ff1690565b610742610dc9565b60015460ff1615610d03576040805162461bcd60e51b815260206004820152601260248201527110dbdb9d1c9858dd081a5cc81c185d5cd95960721b604482015290519081900360640190fd5b600160035411610d445760405162461bcd60e51b815260040180806020018281038252602781526020018061108c6027913960400191505060405180910390fd5b610d4d81610e57565b6001600160a01b0381166000908152600460205260409020805460ff19169055600354610c3990600163ffffffff6109f416565b610d9260008263ffffffff610e9f16565b6040516001600160a01b038216907ff965229cbef17c17a2ced10d89ec5f669942d8dd77bd8a5debcaed392434504e90600090a250565b60015460ff1615610e16576040805162461bcd60e51b815260206004820152601260248201527110dbdb9d1c9858dd081a5cc81c185d5cd95960721b604482015290519081900360640190fd5b6001805460ff1916811790556040805133815290517f62e78cea01bee320cd4e420270b5ea74000d11b0c9f74754ebdbfc544b05a2589181900360200190a1565b610e6860008263ffffffff610f2016565b6040516001600160a01b038216907fac9358f7f807517a7bfea84ce37617a495e55d78f95d2efadcdfbf94817220e090600090a250565b610ea98282610c47565b15610efb576040805162461bcd60e51b815260206004820152601f60248201527f526f6c65733a206163636f756e7420616c72656164792068617320726f6c6500604482015290519081900360640190fd5b6001600160a01b0316600090815260209190915260409020805460ff19166001179055565b610f2a8282610c47565b610f655760405162461bcd60e51b8152600401808060200182810382526021815260200180610ff76021913960400191505060405180910390fd5b6001600160a01b0316600090815260209190915260409020805460ff1916905556fe6d73672e76616c7565206d757374206265206772656174686572207468616e2030496e76616c69642073706c6974206265747765656e20616374697665206d656d6265727352657365727665642062616c616e63656420776173206e6f7420757064617465642070726f7065726c79526f6c65733a206163636f756e7420646f6573206e6f74206861766520726f6c65536166654d6174683a206d756c7469706c69636174696f6e206f766572666c6f77526f6c65733a206163636f756e7420697320746865207a65726f2061646472657373417474656e646565526f6c653a2063616c6c657220646f6573206e6f74206861766520417474656e64656520526f6c652e43616e6e6f742072656d6f7665206c617374206d656d6265722066726f6d20636f6e7472616374a265627a7a72315820f829eabddfeab00c29dfeb8d3c9a156ee2ecb5d00f8b928c47df7bd82e1b7f0564736f6c634300050c0032526f6c65733a206163636f756e7420697320746865207a65726f2061646472657373a265627a7a723158202d7f30aa1c6239034c085334f077cee177574321712821b96216c2a4b72ea17f64736f6c634300050c0032",
  "source": "pragma solidity ^0.5.0;\n\nimport \"openzeppelin-solidity/contracts/math/SafeMath.sol\";\n\nimport \"../core/ContestTeam.sol\";\n\n/**\n    @notice A factory to deploy new ContestTeam contracts, and provide functionality to retrieve the deployed contracts' addresses.\n    @dev TODO: use struct to keep record of hackathon names, and allow implementing upgradability.\n */\ncontract ContestTeamFactory {\n    using SafeMath for uint256;\n\n    address[] private deployedTeams;\n    mapping(bytes32 => address) private teamsByName;\n\n    /// @dev emitted when a new ContestTeam contract is deployed.\n    event NewContestTeamContract(uint256 id, bytes32 name, address contractAddress, address creator);\n\n    /// @dev Modifier to check if team name is not empty.\n    modifier notEmptyName(bytes32 name) {\n        require(name[0] != 0, \"Team name cannot be empty\");\n        _;\n    }\n\n    /// @dev Modifier to check if team name is unique.\n    modifier uniqueTeamName(bytes32 name) {\n        require(teamsByName[name] == address(0), \"Team name already in use\");\n        _;\n    }\n\n    /**\n    @notice Creates and deploys a new ContestTeam contract.\n    @param name Unique team's name, used internally for identification using a human-friendly text.\n    @return The new contract's address.\n    @dev  The param {name} is not linked or related to the name used by a team when registering for a hackathon.\n    */\n    function createTeamContract(bytes32 name) public payable notEmptyName(name) uniqueTeamName(name) returns (address) {\n        // TODO: insert check if the sent ether is enough to cover the car asset ...\n        uint256 id = deployedTeams.length;\n        address newTeam = address(new ContestTeam(msg.sender));\n        deployedTeams.push(newTeam);\n        teamsByName[name] = newTeam;\n        emit NewContestTeamContract(id, name, newTeam, msg.sender);\n        return newTeam;\n    }\n\n    /**\n        @notice Get a list with the addresses of the deployed contracts.\n        @return List of deployed contract's addresses \n    */\n    function getDeployedTeamContracts() public view returns (address[] memory) {\n        return deployedTeams;\n    }\n\n    /**\n        @notice Get a contract address with the internal id.\n        @return An address representing a deployed contract\n    */\n    function getTeamContractById(uint256 id) public view returns (address) {\n        require(id < deployedTeams.length);\n        return deployedTeams[id];\n    }\n\n    /**\n        @notice Get a contract address with the internal name.\n        @return An address representing a deployed contract\n    */\n    function getTeamContractByName(bytes32 name) public view notEmptyName(name) returns (address) {\n        return teamsByName[name];\n    }\n}\n",
  "sourcePath": "/media/fodisi/56401C55401C3DE5/dev/Projects/hackapay/contracts/factory/ContestTeamFactory.sol",
  "compiler": {
    "name": "solc",
    "version": "0.5.12+commit.7709ece9.Emscripten.clang"
  },
  "schemaVersion": "3.0.20",
  "updatedAt": "2020-01-30T11:37:34.459Z",
  "networkType": "ethereum",
  "devdoc": {
    "details": "TODO: use struct to keep record of hackathon names, and allow implementing upgradability.",
    "methods": {
      "createTeamContract(bytes32)": {
        "details": "The param {name} is not linked or related to the name used by a team when registering for a hackathon.",
        "params": {
          "name": "Unique team's name, used internally for identification using a human-friendly text."
        },
        "return": "The new contract's address."
      },
      "getDeployedTeamContracts()": {
        "return": "List of deployed contract's addresses "
      },
      "getTeamContractById(uint256)": {
        "return": "An address representing a deployed contract"
      },
      "getTeamContractByName(bytes32)": {
        "return": "An address representing a deployed contract"
      }
    }
  },
  "userdoc": {
    "methods": {
      "createTeamContract(bytes32)": {
        "notice": "Creates and deploys a new ContestTeam contract."
      },
      "getDeployedTeamContracts()": {
        "notice": "Get a list with the addresses of the deployed contracts."
      },
      "getTeamContractById(uint256)": {
        "notice": "Get a contract address with the internal id."
      },
      "getTeamContractByName(bytes32)": {
        "notice": "Get a contract address with the internal name."
      }
    },
    "notice": "A factory to deploy new ContestTeam contracts, and provide functionality to retrieve the deployed contracts' addresses."
  }
}