{
  "contractName": "ContestBracketRegistryMock",
  "abi": [
    {
      "constant": true,
      "inputs": [
        {
          "name": "teamId",
          "type": "uint256"
        }
      ],
      "name": "getTeam",
      "outputs": [
        {
          "name": "",
          "type": "bytes32"
        },
        {
          "name": "",
          "type": "address"
        },
        {
          "name": "",
          "type": "bytes32"
        },
        {
          "name": "",
          "type": "bool"
        },
        {
          "name": "",
          "type": "uint256"
        }
      ],
      "payable": false,
      "stateMutability": "view",
      "type": "function"
    },
    {
      "constant": false,
      "inputs": [
        {
          "name": "teamId",
          "type": "uint256"
        }
      ],
      "name": "approveTeam",
      "outputs": [],
      "payable": false,
      "stateMutability": "nonpayable",
      "type": "function"
    },
    {
      "constant": false,
      "inputs": [
        {
          "name": "teamIds",
          "type": "uint256[]"
        }
      ],
      "name": "reproveTeams",
      "outputs": [],
      "payable": false,
      "stateMutability": "nonpayable",
      "type": "function"
    },
    {
      "constant": false,
      "inputs": [
        {
          "name": "teamIds",
          "type": "uint256[]"
        },
        {
          "name": "teamGrades",
          "type": "uint8[]"
        }
      ],
      "name": "submitEvaluation",
      "outputs": [],
      "payable": false,
      "stateMutability": "nonpayable",
      "type": "function"
    },
    {
      "constant": true,
      "inputs": [
        {
          "name": "",
          "type": "uint256"
        }
      ],
      "name": "teams",
      "outputs": [
        {
          "name": "id",
          "type": "uint256"
        },
        {
          "name": "name",
          "type": "bytes32"
        },
        {
          "name": "teamAddress",
          "type": "address"
        },
        {
          "name": "proposalData",
          "type": "bytes32"
        },
        {
          "name": "approved",
          "type": "bool"
        },
        {
          "name": "grade",
          "type": "uint256"
        }
      ],
      "payable": false,
      "stateMutability": "view",
      "type": "function"
    },
    {
      "constant": true,
      "inputs": [
        {
          "name": "account",
          "type": "address"
        }
      ],
      "name": "isOrganizer",
      "outputs": [
        {
          "name": "",
          "type": "bool"
        }
      ],
      "payable": false,
      "stateMutability": "view",
      "type": "function"
    },
    {
      "constant": false,
      "inputs": [],
      "name": "renounceJudge",
      "outputs": [],
      "payable": false,
      "stateMutability": "nonpayable",
      "type": "function"
    },
    {
      "constant": true,
      "inputs": [
        {
          "name": "teamAddress",
          "type": "address"
        }
      ],
      "name": "getTeamByAddress",
      "outputs": [
        {
          "name": "",
          "type": "bytes32"
        },
        {
          "name": "",
          "type": "address"
        },
        {
          "name": "",
          "type": "bytes32"
        },
        {
          "name": "",
          "type": "bool"
        },
        {
          "name": "",
          "type": "uint256"
        }
      ],
      "payable": false,
      "stateMutability": "view",
      "type": "function"
    },
    {
      "constant": true,
      "inputs": [],
      "name": "getSubmissionStatus",
      "outputs": [
        {
          "name": "",
          "type": "bool"
        }
      ],
      "payable": false,
      "stateMutability": "view",
      "type": "function"
    },
    {
      "constant": false,
      "inputs": [],
      "name": "renounceOrganizer",
      "outputs": [],
      "payable": false,
      "stateMutability": "nonpayable",
      "type": "function"
    },
    {
      "constant": false,
      "inputs": [],
      "name": "openSubmission",
      "outputs": [],
      "payable": false,
      "stateMutability": "nonpayable",
      "type": "function"
    },
    {
      "constant": true,
      "inputs": [],
      "name": "getWinnersIds",
      "outputs": [
        {
          "name": "",
          "type": "uint256"
        },
        {
          "name": "",
          "type": "uint256"
        },
        {
          "name": "",
          "type": "uint256"
        }
      ],
      "payable": false,
      "stateMutability": "view",
      "type": "function"
    },
    {
      "constant": false,
      "inputs": [
        {
          "name": "teamName",
          "type": "bytes32"
        },
        {
          "name": "teamAddress",
          "type": "address"
        },
        {
          "name": "proposalData",
          "type": "bytes32"
        }
      ],
      "name": "registerTeam",
      "outputs": [
        {
          "name": "",
          "type": "uint256"
        }
      ],
      "payable": false,
      "stateMutability": "nonpayable",
      "type": "function"
    },
    {
      "constant": false,
      "inputs": [],
      "name": "closeRegistration",
      "outputs": [],
      "payable": false,
      "stateMutability": "nonpayable",
      "type": "function"
    },
    {
      "constant": false,
      "inputs": [],
      "name": "publishRank",
      "outputs": [],
      "payable": false,
      "stateMutability": "nonpayable",
      "type": "function"
    },
    {
      "constant": false,
      "inputs": [
        {
          "name": "account",
          "type": "address"
        }
      ],
      "name": "addJudge",
      "outputs": [],
      "payable": false,
      "stateMutability": "nonpayable",
      "type": "function"
    },
    {
      "constant": true,
      "inputs": [],
      "name": "getEvaluationStatus",
      "outputs": [
        {
          "name": "",
          "type": "bool"
        }
      ],
      "payable": false,
      "stateMutability": "view",
      "type": "function"
    },
    {
      "constant": false,
      "inputs": [],
      "name": "closeEvaluation",
      "outputs": [],
      "payable": false,
      "stateMutability": "nonpayable",
      "type": "function"
    },
    {
      "constant": false,
      "inputs": [
        {
          "name": "account",
          "type": "address"
        }
      ],
      "name": "removeJudge",
      "outputs": [],
      "payable": false,
      "stateMutability": "nonpayable",
      "type": "function"
    },
    {
      "constant": false,
      "inputs": [],
      "name": "openEvaluation",
      "outputs": [],
      "payable": false,
      "stateMutability": "nonpayable",
      "type": "function"
    },
    {
      "constant": false,
      "inputs": [],
      "name": "openRegistration",
      "outputs": [],
      "payable": false,
      "stateMutability": "nonpayable",
      "type": "function"
    },
    {
      "constant": true,
      "inputs": [],
      "name": "getRegistrationStatus",
      "outputs": [
        {
          "name": "",
          "type": "bool"
        }
      ],
      "payable": false,
      "stateMutability": "view",
      "type": "function"
    },
    {
      "constant": false,
      "inputs": [
        {
          "name": "account",
          "type": "address"
        }
      ],
      "name": "addOrganizer",
      "outputs": [],
      "payable": false,
      "stateMutability": "nonpayable",
      "type": "function"
    },
    {
      "constant": false,
      "inputs": [
        {
          "name": "teamId",
          "type": "uint256"
        },
        {
          "name": "proposalData",
          "type": "bytes32"
        }
      ],
      "name": "updateProposalData",
      "outputs": [],
      "payable": false,
      "stateMutability": "nonpayable",
      "type": "function"
    },
    {
      "constant": true,
      "inputs": [
        {
          "name": "account",
          "type": "address"
        }
      ],
      "name": "isJudge",
      "outputs": [
        {
          "name": "",
          "type": "bool"
        }
      ],
      "payable": false,
      "stateMutability": "view",
      "type": "function"
    },
    {
      "constant": false,
      "inputs": [
        {
          "name": "teamId",
          "type": "uint256"
        }
      ],
      "name": "reproveTeam",
      "outputs": [],
      "payable": false,
      "stateMutability": "nonpayable",
      "type": "function"
    },
    {
      "constant": false,
      "inputs": [],
      "name": "closeSubmission",
      "outputs": [],
      "payable": false,
      "stateMutability": "nonpayable",
      "type": "function"
    },
    {
      "inputs": [],
      "payable": false,
      "stateMutability": "nonpayable",
      "type": "constructor"
    },
    {
      "anonymous": false,
      "inputs": [
        {
          "indexed": false,
          "name": "enabled",
          "type": "bool"
        }
      ],
      "name": "EvaluationStatusUpdated",
      "type": "event"
    },
    {
      "anonymous": false,
      "inputs": [
        {
          "indexed": true,
          "name": "id",
          "type": "uint256"
        },
        {
          "indexed": false,
          "name": "judgeAddress",
          "type": "address"
        }
      ],
      "name": "JudgeVoted",
      "type": "event"
    },
    {
      "anonymous": false,
      "inputs": [
        {
          "indexed": false,
          "name": "teamId",
          "type": "uint256"
        },
        {
          "indexed": false,
          "name": "teamAddress",
          "type": "address"
        },
        {
          "indexed": false,
          "name": "finalGrade",
          "type": "uint256"
        },
        {
          "indexed": false,
          "name": "rankPosition",
          "type": "uint8"
        }
      ],
      "name": "WinnerAnnouced",
      "type": "event"
    },
    {
      "anonymous": false,
      "inputs": [
        {
          "indexed": true,
          "name": "account",
          "type": "address"
        }
      ],
      "name": "JudgeAdded",
      "type": "event"
    },
    {
      "anonymous": false,
      "inputs": [
        {
          "indexed": true,
          "name": "account",
          "type": "address"
        }
      ],
      "name": "JudgeRemoved",
      "type": "event"
    },
    {
      "anonymous": false,
      "inputs": [
        {
          "indexed": true,
          "name": "account",
          "type": "address"
        }
      ],
      "name": "OrganizerAdded",
      "type": "event"
    },
    {
      "anonymous": false,
      "inputs": [
        {
          "indexed": true,
          "name": "account",
          "type": "address"
        }
      ],
      "name": "OrganizerRemoved",
      "type": "event"
    },
    {
      "anonymous": false,
      "inputs": [
        {
          "indexed": true,
          "name": "teamId",
          "type": "uint256"
        },
        {
          "indexed": false,
          "name": "teamName",
          "type": "bytes32"
        },
        {
          "indexed": true,
          "name": "teamAddress",
          "type": "address"
        },
        {
          "indexed": false,
          "name": "approved",
          "type": "bool"
        }
      ],
      "name": "TeamRegistered",
      "type": "event"
    },
    {
      "anonymous": false,
      "inputs": [
        {
          "indexed": false,
          "name": "enabled",
          "type": "bool"
        }
      ],
      "name": "RegistrationStatusUpdated",
      "type": "event"
    },
    {
      "anonymous": false,
      "inputs": [
        {
          "indexed": false,
          "name": "enabled",
          "type": "bool"
        }
      ],
      "name": "SubmissionStatusUpdated",
      "type": "event"
    },
    {
      "anonymous": false,
      "inputs": [
        {
          "indexed": true,
          "name": "teamId",
          "type": "uint256"
        },
        {
          "indexed": true,
          "name": "teamAddress",
          "type": "address"
        },
        {
          "indexed": false,
          "name": "proposalData",
          "type": "bytes32"
        }
      ],
      "name": "TeamProposalUpdated",
      "type": "event"
    },
    {
      "anonymous": false,
      "inputs": [
        {
          "indexed": true,
          "name": "teamId",
          "type": "uint256"
        },
        {
          "indexed": true,
          "name": "teamAddress",
          "type": "address"
        },
        {
          "indexed": false,
          "name": "approved",
          "type": "bool"
        }
      ],
      "name": "TeamStatusUpdated",
      "type": "event"
    }
  ],
  "bytecode": "0x60806040523480156200001157600080fd5b50338080806200008257604080517f08c379a000000000000000000000000000000000000000000000000000000000815260206004820152601460248201527f496e76616c6964207a65726f2061646472657373000000000000000000000000604482015290519081900360640190fd5b62000093816200009c60201b60201c565b5050506200032b565b620000b2816200013660201b6200253b1760201c565b6009805460018082019092557f6e1540171b6c0c960b71a7020d9f60077f6af931a8bbf590da0223dacf75c7af0180546001600160a01b0319166001600160a01b0384169081179091556000908152600b60209081526040909120805460ff191683179055600a546200013092909162000188811b62001de717901c565b600a5550565b620001518160046200020460201b6200267d1790919060201c565b6040516001600160a01b038216907f37e96fc6762bae414e69ea6e2490e63bc46f2a1335de0f6b91f49cf808829bcf90600090a250565b600082820183811015620001fd57604080517f08c379a000000000000000000000000000000000000000000000000000000000815260206004820152601b60248201527f536166654d6174683a206164646974696f6e206f766572666c6f770000000000604482015290519081900360640190fd5b9392505050565b620002168282620002a860201b60201c565b156200028357604080517f08c379a000000000000000000000000000000000000000000000000000000000815260206004820152601f60248201527f526f6c65733a206163636f756e7420616c72656164792068617320726f6c6500604482015290519081900360640190fd5b6001600160a01b0316600090815260209190915260409020805460ff19166001179055565b60006001600160a01b0382166200030b576040517f08c379a000000000000000000000000000000000000000000000000000000000815260040180806020018281038252602281526020018062002bf96022913960400191505060405180910390fd5b506001600160a01b03166000908152602091909152604090205460ff1690565b6128be806200033b6000396000f3fe608060405234801561001057600080fd5b50600436106101a85760003560e01c80637dc673bc116100f9578063d06e4ee711610097578063eaf2f9cd11610071578063eaf2f9cd1461053e578063ed896d6614610561578063f540548b14610587578063ffc6ff1e146105a4576101a8565b8063d06e4ee714610508578063e35fb24114610510578063e4725f0214610518576101a8565b8063a2bce8bd116100d3578063a2bce8bd146104ca578063ae237c77146104d2578063ae2ac4ae146104da578063b2a13f9214610500576101a8565b80637dc673bc1461049457806390d768e41461049c578063927cab47146104a4576101a8565b80634b30b66f11610166578063567ad86211610140578063567ad8621461041a57806358e2f50e14610422578063737a63401461042a5780637385712c14610450576101a8565b80634b30b66f146103e45780634ea701a8146103ec57806354e1db2b14610412576101a8565b80628e0f1b146101ad57806324ba9fab146101ff578063288c4a461461021e5780633e091f641461028e5780633ed2b77a1461035057806341676f15146103aa575b600080fd5b6101ca600480360360208110156101c357600080fd5b50356105ac565b604080519586526001600160a01b03909416602086015284840192909252151560608401526080830152519081900360a00190f35b61021c6004803603602081101561021557600080fd5b503561069c565b005b61021c6004803603602081101561023457600080fd5b81019060208101813564010000000081111561024f57600080fd5b82018360208201111561026157600080fd5b8035906020019184602083028401116401000000008311171561028357600080fd5b5090925090506106a8565b61021c600480360360408110156102a457600080fd5b8101906020810181356401000000008111156102bf57600080fd5b8201836020820111156102d157600080fd5b803590602001918460208302840111640100000000831117156102f357600080fd5b91939092909160208101903564010000000081111561031157600080fd5b82018360208201111561032357600080fd5b8035906020019184602083028401116401000000008311171561034557600080fd5b5090925090506106e8565b61036d6004803603602081101561036657600080fd5b5035610ab4565b6040805196875260208701959095526001600160a01b039093168585015260608501919091521515608084015260a0830152519081900360c00190f35b6103d0600480360360208110156103c057600080fd5b50356001600160a01b0316610b07565b604080519115158252519081900360200190f35b61021c610b22565b6101ca6004803603602081101561040257600080fd5b50356001600160a01b0316610b2d565b6103d0610c14565b61021c610c22565b61021c610c2b565b610432610cd2565b60408051938452602084019290925282820152519081900360600190f35b6104826004803603606081101561046657600080fd5b508035906001600160a01b036020820135169060400135610ce0565b60408051918252519081900360200190f35b61021c6110d1565b61021c61117a565b61021c600480360360208110156104ba57600080fd5b50356001600160a01b0316611672565b6103d06116c2565b61021c6116cb565b61021c600480360360208110156104f057600080fd5b50356001600160a01b0316611774565b61021c6117c4565b61021c611866565b6103d0611910565b61021c6004803603602081101561052e57600080fd5b50356001600160a01b0316611919565b61021c6004803603604081101561055457600080fd5b5080359060200135611969565b6103d06004803603602081101561057757600080fd5b50356001600160a01b0316611aed565b61021c6004803603602081101561059d57600080fd5b5035611b00565b61021c611b09565b6000806000806000856105be81611bb7565b6106075760408051600160e51b62461bcd02815260206004820152600f60248201526001608a1b6e125b9d985b1a59081d19585b481a5902604482015290519081900360640190fd5b61060f612701565b6001888154811061061c57fe5b60009182526020918290206040805160c08101825260069390930290910180548352600181015493830184905260028101546001600160a01b0316918301829052600381015460608401819052600482015460ff1615156080850181905260059092015460a0909401849052939c919b5092995091975095509350505050565b6106a581611bbe565b50565b6106e4828280806020026020016040519081016040528093929190818152602001838360200280828437600092019190915250611d1192505050565b5050565b600e5460ff166107425760408051600160e51b62461bcd02815260206004820152601460248201527f4576616c756174696f6e20697320636c6f736564000000000000000000000000604482015290519081900360640190fd5b61074b33611aed565b61078957604051600160e51b62461bcd02815260040180806020018281038252602b815260200180612780602b913960400191505060405180910390fd5b8281146107ca57604051600160e51b62461bcd02815260040180806020018281038252603381526020018061283e6033913960400191505060405180910390fd5b600254831461080d57604051600160e51b62461bcd02815260040180806020018281038252603f8152602001806127ff603f913960400191505060405180910390fd5b6000600254116108675760408051600160e51b62461bcd02815260206004820152601d60248201527f4e6f20617070726f766564207465616d7320746f206576616c75617465000000604482015290519081900360640190fd5b336000908152600d602052604090206001810154600160a81b900460ff16156108c457604051600160e51b62461bcd02815260040180806020018281038252602281526020018061275e6022913960400191505060405180910390fd5b60005b600254811015610a515760008686838181106108df57fe5b90506020020135905060008585848181106108f657fe5b9050602002013560ff16905061090b82611bb7565b6109545760408051600160e51b62461bcd02815260206004820152600f60248201526001608a1b6e125b9d985b1a59081d19585b481a5902604482015290519081900360640190fd5b61095d82611d41565b6109ab5760408051600160e51b62461bcd0281526020600482015260146024820152600160621b731519585b481a5cc81b9bdd08185c1c1c9bdd995902604482015290519081900360640190fd5b6109b481611ddb565b610a085760408051600160e51b62461bcd02815260206004820152600d60248201527f496e76616c696420677261646500000000000000000000000000000000000000604482015290519081900360640190fd5b600060018381548110610a1757fe5b90600052602060002090600602019050610a418260ff168260050154611de790919063ffffffff16565b60059091015550506001016108c7565b50600181018054600160a81b60ff021916600160a81b17908190558154604080516001600160a01b0390931683525190917fd62869bbd78965284c34750092d78b62093e2d02b730d0ce696ebdcb371bb5dc919081900360200190a25050505050565b60018181548110610ac157fe5b600091825260209091206006909102018054600182015460028301546003840154600485015460059095015493955091936001600160a01b039091169260ff9091169086565b6000610b1a60048363ffffffff611e4b16565b90505b919050565b610b2b33611eb5565b565b6000808080806001600160a01b038616610b915760408051600160e51b62461bcd02815260206004820152601460248201527f496e76616c6964207a65726f2061646472657373000000000000000000000000604482015290519081900360640190fd5b610b99612701565b505050506001600160a01b0392831660009081526020818152604091829020825160c0810184528154815260018201549281018390526002820154909616928601839052600381015460608701819052600482015460ff1615156080880181905260059092015460a090970187905291969295919450925090565b600354610100900460ff1690565b610b2b33611ef6565b600354610100900460ff1615610c835760408051600160e51b62461bcd0281526020600482015260126024820152600160711b7129bab136b4b9b9b4b7b71034b99037b832b702604482015290519081900360640190fd5b610c8c33610b07565b610cca57604051600160e51b62461bcd0281526004018080602001828103825260338152602001806127ab6033913960400191505060405180910390fd5b610b2b611f39565b600f54601554601b54909192565b60035460009060ff16610d3d5760408051600160e51b62461bcd02815260206004820152601660248201527f526567697374726174696f6e20697320636c6f73656400000000000000000000604482015290519081900360640190fd5b8360001a60f81b6001600160f81b031916610da25760408051600160e51b62461bcd02815260206004820152601960248201527f5465616d206e616d652063616e6e6f7420626520656d70747900000000000000604482015290519081900360640190fd5b6001600160a01b038316610e005760408051600160e51b62461bcd02815260206004820152601b60248201527f5465616d20616464726573732063616e6e6f74206265207a65726f0000000000604482015290519081900360640190fd5b6001600160a01b038381166000908152602081905260409020600201541615610e735760408051600160e51b62461bcd02815260206004820152601760248201527f5465616d20616c72656164792072656769737465726564000000000000000000604482015290519081900360640190fd5b600154610e7e612701565b506040805160c081018252828152602081018781526001600160a01b0387811693830193845260608301878152600160808501818152600060a08701818152835480850185559184905287517fb10e2d527612073b26eecdfd717e6a320cf44b4afac2b0732d9fcbe2b7fa0cf660069093029283015595517fb10e2d527612073b26eecdfd717e6a320cf44b4afac2b0732d9fcbe2b7fa0cf782015596517fb10e2d527612073b26eecdfd717e6a320cf44b4afac2b0732d9fcbe2b7fa0cf8880180546001600160a01b031916919095161790935590517fb10e2d527612073b26eecdfd717e6a320cf44b4afac2b0732d9fcbe2b7fa0cf986015590517fb10e2d527612073b26eecdfd717e6a320cf44b4afac2b0732d9fcbe2b7fa0cfa8501805460ff191691151591909117905590517fb10e2d527612073b26eecdfd717e6a320cf44b4afac2b0732d9fcbe2b7fa0cfb90930192909255815490919083908110610fe657fe5b600091825260208083206001600160a01b03808a1685529184905260409093206006909202909201805482556001808201548184015560028083015481850180546001600160a01b031916919096161790945560038083015490840155600480830154908401805460ff909216151560ff199092169190911790556005918201549190920155905461107d9163ffffffff611de716565b600255604080518781526001602082015281516001600160a01b0388169285927f443b25596b838f2775d21b1153b87036f08c058fd4702446f1136ab26e5f3b90929081900390910190a350949350505050565b60035460ff1661112b5760408051600160e51b62461bcd02815260206004820152601660248201527f526567697374726174696f6e20697320636c6f73656400000000000000000000604482015290519081900360640190fd5b61113433610b07565b61117257604051600160e51b62461bcd0281526004018080602001828103825260338152602001806127ab6033913960400191505060405180910390fd5b610b2b611f89565b60035460ff16156111d55760408051600160e51b62461bcd02815260206004820152601460248201527f526567697374726174696f6e206973206f70656e000000000000000000000000604482015290519081900360640190fd5b600354610100900460ff161561122d5760408051600160e51b62461bcd0281526020600482015260126024820152600160711b7129bab136b4b9b9b4b7b71034b99037b832b702604482015290519081900360640190fd5b600e5460ff16156112805760408051600160e51b62461bcd0281526020600482015260126024820152600160711b7122bb30b63ab0ba34b7b71034b99037b832b702604482015290519081900360640190fd5b61128933610b07565b6112c757604051600160e51b62461bcd0281526004018080602001828103825260338152602001806127ab6033913960400191505060405180910390fd5b60215460ff16156113225760408051600160e51b62461bcd02815260206004820152601660248201527f52616e6b20616c7265616479207075626c697368656400000000000000000000604482015290519081900360640190fd5b60006002541161137c5760408051600160e51b62461bcd02815260206004820152601360248201527f4e6f207465616d73207265676973746572656400000000000000000000000000604482015290519081900360640190fd5b611384612701565b61138c612701565b611394612701565b61139c612701565b60005b60015481101561148757600181815481106113b657fe5b60009182526020918290206040805160c08101825260069093029091018054835260018101549383019390935260028301546001600160a01b03169082015260038201546060820152600482015460ff16158015608083015260059092015460a082015295508061142e57508160a001518560a00151105b156114385761147f565b8360a001518560a00151111561145257849392915061147f565b8260a001518560a00151111561146b578492915061147f565b8160a001518560a00151111561147f578491505b60010161139f565b508251600f819055602080850151601055604080860151601180546001600160a01b03199081166001600160a01b0393841617918290556060808a01516012556080808b01516013805460ff1990811692151592909217905560a0808d015160148190558c516015558c8a01516016558c890151601780548816918a169190911790558c8501516018558c8401516019805485169115159190911790558c820151601a558b51601b558b8a0151601c558b890151601d8054909716908916179095558a840151601e558a830151601f805484169115159190911790558a01518855602180549091166001908117909155865198895293909416958701959095528584015292840192909252517f78bd43bbb342abb837e10002dd4fcda5ea371db518ce4e9aff10ab136441a99c9281900390910190a1601554601754601a54604080519384526001600160a01b0390921660208401528282015260026060830152517f78bd43bbb342abb837e10002dd4fcda5ea371db518ce4e9aff10ab136441a99c9181900360800190a1601b54601d5460208054604080519485526001600160a01b03909316918401919091528282015260036060830152517f78bd43bbb342abb837e10002dd4fcda5ea371db518ce4e9aff10ab136441a99c9181900360800190a150505050565b61167b33610b07565b6116b957604051600160e51b62461bcd0281526004018080602001828103825260338152602001806127ab6033913960400191505060405180910390fd5b6106a581611fc9565b600e5460ff1690565b600e5460ff166117255760408051600160e51b62461bcd02815260206004820152601460248201527f4576616c756174696f6e20697320636c6f736564000000000000000000000000604482015290519081900360640190fd5b61172e33610b07565b61176c57604051600160e51b62461bcd0281526004018080602001828103825260338152602001806127ab6033913960400191505060405180910390fd5b610b2b61215c565b61177d33610b07565b6117bb57604051600160e51b62461bcd0281526004018080602001828103825260338152602001806127ab6033913960400191505060405180910390fd5b6106a581611eb5565b600e5460ff16156118175760408051600160e51b62461bcd0281526020600482015260126024820152600160711b7122bb30b63ab0ba34b7b71034b99037b832b702604482015290519081900360640190fd5b61182033610b07565b61185e57604051600160e51b62461bcd0281526004018080602001828103825260338152602001806127ab6033913960400191505060405180910390fd5b610b2b61219c565b60035460ff16156118c15760408051600160e51b62461bcd02815260206004820152601460248201527f526567697374726174696f6e206973206f70656e000000000000000000000000604482015290519081900360640190fd5b6118ca33610b07565b61190857604051600160e51b62461bcd0281526004018080602001828103825260338152602001806127ab6033913960400191505060405180910390fd5b610b2b6121e6565b60035460ff1690565b61192233610b07565b61196057604051600160e51b62461bcd0281526004018080602001828103825260338152602001806127ab6033913960400191505060405180910390fd5b6106a581612230565b8161197381611bb7565b6119bc5760408051600160e51b62461bcd02815260206004820152600f60248201526001608a1b6e125b9d985b1a59081d19585b481a5902604482015290519081900360640190fd5b826119c681611d41565b611a145760408051600160e51b62461bcd0281526020600482015260146024820152600160621b731519585b481a5cc81b9bdd08185c1c1c9bdd995902604482015290519081900360640190fd5b600354610100900460ff16611a735760408051600160e51b62461bcd02815260206004820152601460248201527f5375626d697373696f6e20697320636c6f736564000000000000000000000000604482015290519081900360640190fd5b600060018581548110611a8257fe5b60009182526020918290206003600690920201908101869055600281015481546040805189815290519395506001600160a01b039092169390927fa44de9e6ce79675199796005de8516704078af25aaf78ab4be180213882560ee9281900390910190a35050505050565b6000610b1a60058363ffffffff611e4b16565b6106a5816122a7565b600354610100900460ff16611b685760408051600160e51b62461bcd02815260206004820152601460248201527f5375626d697373696f6e20697320636c6f736564000000000000000000000000604482015290519081900360640190fd5b611b7133610b07565b611baf57604051600160e51b62461bcd0281526004018080602001828103825260338152602001806127ab6033913960400191505060405180910390fd5b610b2b61238e565b6001541190565b80611bc881611bb7565b611c115760408051600160e51b62461bcd02815260206004820152600f60248201526001608a1b6e125b9d985b1a59081d19585b481a5902604482015290519081900360640190fd5b81611c1b81611d41565b15611c705760408051600160e51b62461bcd02815260206004820152601560248201527f5465616d206973206e6f7420726570726f7665642e0000000000000000000000604482015290519081900360640190fd5b600060018481548110611c7f57fe5b600091825260209091206004600690920201908101805460ff19166001908117909155600254919250611cb8919063ffffffff611de716565b6002908155810154815460048301546040805160ff90921615158252516001600160a01b03909316927fd903780bcf5bcea81714ac3450a34cb3de7b0735a59883e1eb90edd901a54ad49181900360200190a350505050565b60005b81518110156106e457611d39828281518110611d2c57fe5b60200260200101516122a7565b600101611d14565b6000611d4c82611bb7565b611d5857506000610b1d565b611d60612701565b60018381548110611d6d57fe5b60009182526020918290206040805160c08101825260069093029091018054835260018101549383019390935260028301546001600160a01b03169082015260038201546060820152600482015460ff1615156080820181905260059092015460a090910152915050919050565b600a60ff909116111590565b600082820183811015611e445760408051600160e51b62461bcd02815260206004820152601b60248201527f536166654d6174683a206164646974696f6e206f766572666c6f770000000000604482015290519081900360640190fd5b9392505050565b60006001600160a01b038216611e9557604051600160e51b62461bcd0281526004018080602001828103825260228152602001806128716022913960400191505060405180910390fd5b506001600160a01b03166000908152602091909152604090205460ff1690565b611ebe816123d9565b6001600160a01b03166000908152600d60205260409020600101805474ff000000000000000000000000000000000000000019169055565b611eff8161241c565b6001600160a01b0381166000908152600b60205260409020805460ff19169055600a54611f3390600163ffffffff61246416565b600a5550565b6003805461ff00191661010090811791829055604080519190920460ff161515815290517f48fbf5c7b70581e7e2145562de373e14a5af56d09f9b96d73545d0d35f71f0889181900360200190a1565b6003805460ff19169055604080516000815290517f78b477400a612eb4ec0a343596323cccfac06b27624264a549d8322c736d055c9181900360200190a1565b611fd2816124c4565b600c54611fdd612736565b6040518060800160405280838152602001846001600160a01b03168152602001600115158152602001600015158152509050600c81908060018154018082558091505090600182039060005260206000209060020201600090919290919091506000820151816000015560208201518160010160006101000a8154816001600160a01b0302191690836001600160a01b0316021790555060408201518160010160146101000a81548160ff02191690831515021790555060608201518160010160156101000a81548160ff02191690831515021790555050505080600d6000856001600160a01b03166001600160a01b031681526020019081526020016000206000820151816000015560208201518160010160006101000a8154816001600160a01b0302191690836001600160a01b0316021790555060408201518160010160146101000a81548160ff02191690831515021790555060608201518160010160156101000a81548160ff021916908315150217905550905050505050565b600e805460ff19169055604080516000815290517f0266365b4830894a247179cbad20f3dfe40ba70917925976027d2af68d950bed9181900360200190a1565b600e805460ff1916600117908190556040805160ff9290921615158252517f0266365b4830894a247179cbad20f3dfe40ba70917925976027d2af68d950bed9181900360200190a1565b6003805460ff1916600117908190556040805160ff9290921615158252517f78b477400a612eb4ec0a343596323cccfac06b27624264a549d8322c736d055c9181900360200190a1565b6122398161253b565b6009805460018082019092557f6e1540171b6c0c960b71a7020d9f60077f6af931a8bbf590da0223dacf75c7af0180546001600160a01b0319166001600160a01b0384169081179091556000908152600b60205260409020805460ff191682179055600a54611f3391611de7565b806122b181611bb7565b6122fa5760408051600160e51b62461bcd02815260206004820152600f60248201526001608a1b6e125b9d985b1a59081d19585b481a5902604482015290519081900360640190fd5b8161230481611d41565b6123525760408051600160e51b62461bcd0281526020600482015260146024820152600160621b731519585b481a5cc81b9bdd08185c1c1c9bdd995902604482015290519081900360640190fd5b60006001848154811061236157fe5b6000918252602090912060069091020160048101805460ff19169055600254909150611cb8906001612464565b6003805461ff001916908190556040805161010090920460ff1615158252517f48fbf5c7b70581e7e2145562de373e14a5af56d09f9b96d73545d0d35f71f0889181900360200190a1565b6123e281612583565b6001600160a01b0381166000908152600860205260409020805460ff1916905560075461241690600163ffffffff61246416565b60075550565b61242d60048263ffffffff6125cb16565b6040516001600160a01b038216907fc459bd414676a5877fcf10a0d73ecf7e1f672a339650b03e628c4046534300e390600090a250565b6000828211156124be5760408051600160e51b62461bcd02815260206004820152601e60248201527f536166654d6174683a207375627472616374696f6e206f766572666c6f770000604482015290519081900360640190fd5b50900390565b6124cd81612635565b6006805460018082019092557ff652222313e28459528d920b65115c16c04f3efc82aaedc97be59f3f377c0d3f0180546001600160a01b0319166001600160a01b0384169081179091556000908152600860205260409020805460ff19168217905560075461241691611de7565b61254c60048263ffffffff61267d16565b6040516001600160a01b038216907f37e96fc6762bae414e69ea6e2490e63bc46f2a1335de0f6b91f49cf808829bcf90600090a250565b61259460058263ffffffff6125cb16565b6040516001600160a01b038216907f32a792a099c63670df7161917c5efb2fdc734cf9f943ebddccbecef87664f2b790600090a250565b6125d58282611e4b565b61261357604051600160e51b62461bcd0281526004018080602001828103825260218152602001806127de6021913960400191505060405180910390fd5b6001600160a01b0316600090815260209190915260409020805460ff19169055565b61264660058263ffffffff61267d16565b6040516001600160a01b038216907fe7f15f9ffff540ae14fdebcd9b6d6cc1fc143933338656c99caa595e8b80903990600090a250565b6126878282611e4b565b156126dc5760408051600160e51b62461bcd02815260206004820152601f60248201527f526f6c65733a206163636f756e7420616c72656164792068617320726f6c6500604482015290519081900360640190fd5b6001600160a01b0316600090815260209190915260409020805460ff19166001179055565b6040805160c081018252600080825260208201819052918101829052606081018290526080810182905260a081019190915290565b6040805160808101825260008082526020820181905291810182905260608101919091529056fe4a7564676520616c7265616479207375626d6974746564206576616c756174696f6e4a75646765526f6c653a2063616c6c657220646f6573206e6f742068617665204a7564676520526f6c652e4f7267616e697a6572526f6c653a2063616c6c657220646f6573206e6f742068617665204f7267616e697a657220526f6c652e526f6c65733a206163636f756e7420646f6573206e6f74206861766520726f6c657465616d7349647320616e642067726164657320646f206e6f74206d617463682074686520636f756e74696e67206f6620617070726f766564207465616d734c656e677468206f66207465616d7320616e64207465616d47726164657320617272617973206d75737420626520657175616c526f6c65733a206163636f756e7420697320746865207a65726f2061646472657373a165627a7a7230582099bb14cf66a52e1e4104e5fc45c7ab287c65da50584d04e582c720be015e8c0d0029526f6c65733a206163636f756e7420697320746865207a65726f2061646472657373",
  "source": "pragma solidity ^0.5.0;\n\nimport \"../core/ContestBracketRegistry.sol\";\n\ncontract ContestBracketRegistryMock is ContestBracketRegistry {\n    constructor() public ContestBracketRegistry(msg.sender) {}\n\n}\n",
  "sourcePath": "/home/odisi/dev/projects/hackapay/contracts/mocks/ContestBracketRegistryMock.sol",
  "compiler": {
    "name": "solc",
    "version": "0.5.8+commit.23d335f2.Emscripten.clang"
  },
  "schemaVersion": "3.0.11",
  "updatedAt": "2019-07-31T21:53:16.832Z",
  "devdoc": {
    "methods": {
      "approveTeam(uint256)": {
        "details": "Should be overwritten on inherited contract to add modifier or require statements for access control.",
        "params": {
          "teamId": "{uint256} the ids of the teams to be approved"
        }
      },
      "closeEvaluation()": {
        "details": "Should be overwritten on inherited contract to add modifier or require statements for access control."
      },
      "closeRegistration()": {
        "details": "Overwritten to add modifier for access control."
      },
      "closeSubmission()": {
        "details": "Should be overwritten on inherited contract to add modifier or require statements for access control."
      },
      "getEvaluationStatus()": {
        "return": "{bool} returns {true} if enabled; otherwise, {false}."
      },
      "getRegistrationStatus()": {
        "return": "{bool} returns {true} if enabled; otherwise, {false}."
      },
      "getSubmissionStatus()": {
        "return": "{bool} returns {true} if enabled; otherwise, {false}."
      },
      "getTeam(uint256)": {
        "params": {
          "teamId": "{uint256} the team's unique identifier returned on registration"
        },
        "return": "{bytes32} team's name{address} team's address{bytes32} team's proposal data{bool} team's status: {true} for approved; {false} for reproved;{uint256} team's grade"
      },
      "getTeamByAddress(address)": {
        "params": {
          "teamAddress": "{address} the team's contract address used on registration"
        },
        "return": "{bytes32} team's name{address} team's address{bytes32} team's proposal data{bool} team's status: {true} for approved; {false} for reproved;{uint256} team's grade"
      },
      "getWinnersIds()": {
        "return": "{uint256} First place's id{uint256} Second place's id{uint256} Third place's id"
      },
      "openEvaluation()": {
        "details": "Should be overwritten on inherited contract to add modifier or require statements for access control."
      },
      "openRegistration()": {
        "details": "Overwritten to add modifier for access control."
      },
      "openSubmission()": {
        "details": "Should be overwritten on inherited contract to add modifier or require statements for access control."
      },
      "publishRank()": {
        "details": "emitts an WinnerAnnounced event for each winner (1st, 2nd, 3rd place)."
      },
      "registerTeam(bytes32,address,bytes32)": {
        "details": "Registration process must be open.",
        "params": {
          "teamName": "{bytes32} team's proposal data; could be a hash for a file  on IPFS or for a github link; not required"
        }
      },
      "reproveTeam(uint256)": {
        "details": "Should be overwritten on inherited contract to add modifier or require statements for access control.",
        "params": {
          "teamId": "{uint256} the ids of the teams to be reproved"
        }
      },
      "reproveTeams(uint256[])": {
        "details": "Should be overwritten on inherited contract to add modifier or require statements for access control.",
        "params": {
          "teamIds": "{uint256[]} an array containing the ids of the teams to be reproved"
        }
      },
      "submitEvaluation(uint256[],uint8[])": {
        "details": "The position of teamId and teamGrade must be the same in the array. For example, if teamId \"1\" is sent at {teamIds} array position \"5\" (zero-based), the grade for team \"1\" must be sent at position \"5\" in {teamGrades} array.",
        "params": {
          "teamGrades": "Array of the grades given by the judge for each team.",
          "teamIds": "Array of the ids associated with each team that is going to be evaluated."
        }
      },
      "updateProposalData(uint256,bytes32)": {
        "params": {
          "proposalData": "the updated data for the team's proposal",
          "teamId": "team's unique identifier; required"
        }
      }
    }
  },
  "userdoc": {
    "methods": {
      "approveTeam(uint256)": {
        "notice": "(re)approves a team in participating in the contest"
      },
      "closeEvaluation()": {
        "notice": "Closes the evaluation process"
      },
      "closeRegistration()": {
        "notice": "Closes the registration process"
      },
      "closeSubmission()": {
        "notice": "Closes the proposal submission process"
      },
      "getEvaluationStatus()": {
        "notice": "Gets the evaluation status"
      },
      "getRegistrationStatus()": {
        "notice": "Gets the registration status"
      },
      "getSubmissionStatus()": {
        "notice": "Gets the submission status"
      },
      "getTeam(uint256)": {
        "notice": "Returns the stored information of a team"
      },
      "getTeamByAddress(address)": {
        "notice": "Returns the stored information of a team, based on a provided address"
      },
      "getWinnersIds()": {
        "notice": "Gets the id of the winner teams."
      },
      "openEvaluation()": {
        "notice": "Opens the evaluation process"
      },
      "openRegistration()": {
        "notice": "Opens the registration process"
      },
      "openSubmission()": {
        "notice": "Opens the proposal submission process"
      },
      "publishRank()": {
        "notice": "Published the ranking results of the contest."
      },
      "registerTeam(bytes32,address,bytes32)": {
        "notice": "Registers a new team in the contest registry."
      },
      "reproveTeam(uint256)": {
        "notice": "reproves a team from participating in the contest"
      },
      "reproveTeams(uint256[])": {
        "notice": "reprove teams from participating in the contest"
      },
      "submitEvaluation(uint256[],uint8[])": {
        "notice": "Allows a judge to submit its evaluation for the teams competing in the contest. The evaluation for all teams must be submitted once."
      },
      "updateProposalData(uint256,bytes32)": {
        "notice": "Updates the proposal data for a specific team."
      }
    }
  }
}