{
  "contractName": "ContestTeamMock",
  "abi": [
    {
      "inputs": [],
      "payable": false,
      "stateMutability": "nonpayable",
      "type": "constructor"
    },
    {
      "anonymous": false,
      "inputs": [
        {
          "indexed": true,
          "internalType": "address",
          "name": "account",
          "type": "address"
        }
      ],
      "name": "AttendeeAdded",
      "type": "event"
    },
    {
      "anonymous": false,
      "inputs": [
        {
          "indexed": true,
          "internalType": "address",
          "name": "account",
          "type": "address"
        }
      ],
      "name": "AttendeeRemoved",
      "type": "event"
    },
    {
      "anonymous": false,
      "inputs": [
        {
          "indexed": true,
          "internalType": "address",
          "name": "from",
          "type": "address"
        },
        {
          "indexed": false,
          "internalType": "uint256",
          "name": "amount",
          "type": "uint256"
        },
        {
          "indexed": true,
          "internalType": "uint256",
          "name": "datetime",
          "type": "uint256"
        }
      ],
      "name": "Deposit",
      "type": "event"
    },
    {
      "anonymous": false,
      "inputs": [
        {
          "indexed": false,
          "internalType": "address",
          "name": "account",
          "type": "address"
        }
      ],
      "name": "Paused",
      "type": "event"
    },
    {
      "anonymous": false,
      "inputs": [
        {
          "indexed": true,
          "internalType": "address",
          "name": "sender",
          "type": "address"
        },
        {
          "indexed": false,
          "internalType": "uint256",
          "name": "totalPrize",
          "type": "uint256"
        },
        {
          "indexed": false,
          "internalType": "uint256",
          "name": "membersCount",
          "type": "uint256"
        },
        {
          "indexed": false,
          "internalType": "uint256",
          "name": "memberPrize",
          "type": "uint256"
        },
        {
          "indexed": true,
          "internalType": "uint256",
          "name": "datetime",
          "type": "uint256"
        }
      ],
      "name": "PrizeSplit",
      "type": "event"
    },
    {
      "anonymous": false,
      "inputs": [
        {
          "indexed": false,
          "internalType": "address",
          "name": "account",
          "type": "address"
        }
      ],
      "name": "Unpaused",
      "type": "event"
    },
    {
      "anonymous": false,
      "inputs": [
        {
          "indexed": true,
          "internalType": "address",
          "name": "to",
          "type": "address"
        },
        {
          "indexed": false,
          "internalType": "uint256",
          "name": "amount",
          "type": "uint256"
        },
        {
          "indexed": true,
          "internalType": "uint256",
          "name": "datetime",
          "type": "uint256"
        }
      ],
      "name": "Withdraw",
      "type": "event"
    },
    {
      "constant": false,
      "inputs": [],
      "name": "_unpause",
      "outputs": [],
      "payable": false,
      "stateMutability": "nonpayable",
      "type": "function"
    },
    {
      "constant": false,
      "inputs": [
        {
          "internalType": "address",
          "name": "account",
          "type": "address"
        }
      ],
      "name": "addAttendee",
      "outputs": [],
      "payable": false,
      "stateMutability": "nonpayable",
      "type": "function"
    },
    {
      "constant": true,
      "inputs": [],
      "name": "balanceOf",
      "outputs": [
        {
          "internalType": "uint256",
          "name": "",
          "type": "uint256"
        }
      ],
      "payable": false,
      "stateMutability": "view",
      "type": "function"
    },
    {
      "constant": false,
      "inputs": [],
      "name": "deposit",
      "outputs": [],
      "payable": true,
      "stateMutability": "payable",
      "type": "function"
    },
    {
      "constant": true,
      "inputs": [],
      "name": "getActiveMembers",
      "outputs": [
        {
          "internalType": "address[]",
          "name": "",
          "type": "address[]"
        }
      ],
      "payable": false,
      "stateMutability": "view",
      "type": "function"
    },
    {
      "constant": true,
      "inputs": [],
      "name": "getActiveMembersCount",
      "outputs": [
        {
          "internalType": "uint256",
          "name": "",
          "type": "uint256"
        }
      ],
      "payable": false,
      "stateMutability": "view",
      "type": "function"
    },
    {
      "constant": true,
      "inputs": [
        {
          "internalType": "address",
          "name": "account",
          "type": "address"
        }
      ],
      "name": "isAttendee",
      "outputs": [
        {
          "internalType": "bool",
          "name": "",
          "type": "bool"
        }
      ],
      "payable": false,
      "stateMutability": "view",
      "type": "function"
    },
    {
      "constant": true,
      "inputs": [],
      "name": "isPaused",
      "outputs": [
        {
          "internalType": "bool",
          "name": "",
          "type": "bool"
        }
      ],
      "payable": false,
      "stateMutability": "view",
      "type": "function"
    },
    {
      "constant": false,
      "inputs": [],
      "name": "pause",
      "outputs": [],
      "payable": false,
      "stateMutability": "nonpayable",
      "type": "function"
    },
    {
      "constant": false,
      "inputs": [],
      "name": "renounceAttendee",
      "outputs": [],
      "payable": false,
      "stateMutability": "nonpayable",
      "type": "function"
    },
    {
      "constant": false,
      "inputs": [],
      "name": "splitPrize",
      "outputs": [],
      "payable": false,
      "stateMutability": "nonpayable",
      "type": "function"
    },
    {
      "constant": false,
      "inputs": [],
      "name": "unpause",
      "outputs": [],
      "payable": false,
      "stateMutability": "nonpayable",
      "type": "function"
    },
    {
      "constant": false,
      "inputs": [
        {
          "internalType": "uint256",
          "name": "amount",
          "type": "uint256"
        }
      ],
      "name": "withdraw",
      "outputs": [],
      "payable": false,
      "stateMutability": "nonpayable",
      "type": "function"
    },
    {
      "constant": true,
      "inputs": [],
      "name": "getReservedBalance",
      "outputs": [
        {
          "internalType": "uint256",
          "name": "",
          "type": "uint256"
        }
      ],
      "payable": false,
      "stateMutability": "view",
      "type": "function"
    },
    {
      "constant": true,
      "inputs": [],
      "name": "getAvailableBalance",
      "outputs": [
        {
          "internalType": "uint256",
          "name": "",
          "type": "uint256"
        }
      ],
      "payable": false,
      "stateMutability": "view",
      "type": "function"
    },
    {
      "constant": true,
      "inputs": [],
      "name": "getBalance",
      "outputs": [
        {
          "internalType": "uint256",
          "name": "",
          "type": "uint256"
        }
      ],
      "payable": false,
      "stateMutability": "view",
      "type": "function"
    }
  ],
  "bytecode": "0x60806040523480156200001157600080fd5b503380806200008157604080517f08c379a000000000000000000000000000000000000000000000000000000000815260206004820152601460248201527f496e76616c6964207a65726f2061646472657373000000000000000000000000604482015290519081900360640190fd5b62000095816001600160e01b03620000a716565b50506001805460ff19169055620003ac565b60015460ff16156200011a57604080517f08c379a000000000000000000000000000000000000000000000000000000000815260206004820152601260248201527f436f6e7472616374206973207061757365640000000000000000000000000000604482015290519081900360640190fd5b6200013081620001b460201b62000e191760201c565b6002805460018082019092557f405787fa12a823e0f2b7631cc41b3ba8828b3321ca811111fa75cd3aa3bb5ace0180546001600160a01b0319166001600160a01b0384169081179091556000908152600460209081526040909120805460ff191683179055600354620001ae92909162000206811b62000bb317901c565b60035550565b620001cf8160006200028260201b62000f371790919060201c565b6040516001600160a01b038216907ff965229cbef17c17a2ced10d89ec5f669942d8dd77bd8a5debcaed392434504e90600090a250565b6000828201838110156200027b57604080517f08c379a000000000000000000000000000000000000000000000000000000000815260206004820152601b60248201527f536166654d6174683a206164646974696f6e206f766572666c6f770000000000604482015290519081900360640190fd5b9392505050565b6200029782826001600160e01b036200032916565b156200030457604080517f08c379a000000000000000000000000000000000000000000000000000000000815260206004820152601f60248201527f526f6c65733a206163636f756e7420616c72656164792068617320726f6c6500604482015290519081900360640190fd5b6001600160a01b0316600090815260209190915260409020805460ff19166001179055565b60006001600160a01b0382166200038c576040517f08c379a00000000000000000000000000000000000000000000000000000000081526004018080602001828103825260228152602001806200153b6022913960400191505060405180910390fd5b506001600160a01b03166000908152602091909152604090205460ff1690565b61117f80620003bc6000396000f3fe6080604052600436106100f35760003560e01c8063809dab6a1161008a578063d0e30db011610059578063d0e30db0146102bd578063d9a15549146102c5578063fb1da543146102da578063fc8234cb146102ef576100f3565b8063809dab6a146102695780638456cb591461027e5780638f7c851914610293578063b187bd26146102a8576100f3565b80633f4ba83a116100c65780633f4ba83a146101935780634876aebc146101a85780636cad25901461020d578063722713f714610254576100f3565b806307057382146100f8578063102462541461010f57806312065fe0146101425780632e1a7d4d14610169575b600080fd5b34801561010457600080fd5b5061010d610304565b005b34801561011b57600080fd5b5061010d6004803603602081101561013257600080fd5b50356001600160a01b0316610609565b34801561014e57600080fd5b50610157610659565b60408051918252519081900360200190f35b34801561017557600080fd5b5061010d6004803603602081101561018c57600080fd5b503561065e565b34801561019f57600080fd5b5061010d61076b565b3480156101b457600080fd5b506101bd6107b9565b60408051602080825283518183015283519192839290830191858101910280838360005b838110156101f95781810151838201526020016101e1565b505050509050019250505060405180910390f35b34801561021957600080fd5b506102406004803603602081101561023057600080fd5b50356001600160a01b031661088c565b604080519115158252519081900360200190f35b34801561026057600080fd5b506101576108a4565b34801561027557600080fd5b506101576108fe565b34801561028a57600080fd5b5061010d61091b565b34801561029f57600080fd5b50610157610967565b3480156102b457600080fd5b5061024061096d565b61010d610976565b3480156102d157600080fd5b506101576109ee565b3480156102e657600080fd5b5061010d6109f4565b3480156102fb57600080fd5b5061010d6109fd565b61030d3361088c565b6103485760405162461bcd60e51b81526004018080602001828103825260318152602001806110f36031913960400191505060405180910390fd5b60015460ff1615610395576040805162461bcd60e51b815260206004820152601260248201527110dbdb9d1c9858dd081a5cc81c185d5cd95960721b604482015290519081900360640190fd5b6006546000906103ad9030319063ffffffff610a8c16565b905060008111610404576040805162461bcd60e51b815260206004820152601b60248201527f436f6e74657374616e745465616d2062616c616e636520697320300000000000604482015290519081900360640190fd5b600061041b60035483610ae990919063ffffffff16565b905060008111610466576040805162461bcd60e51b815260206004820152601160248201527004d656d626572207072697a65206973203607c1b604482015290519081900360640190fd5b600061047482600354610b53565b90506000805b6002548110156105265760006002828154811061049357fe5b60009182526020808320909101546001600160a01b0316808352600490915260409091205490915060ff1615156001141561051d576001600160a01b0381166000908152600560205260409020546104f1908663ffffffff610bb316565b6001600160a01b03821660009081526005602052604090205561051a838663ffffffff610bb316565b92505b5060010161047a565b5060065461053a908563ffffffff610bb316565b60065580821461057b5760405162461bcd60e51b81526004018080602001828103825260248152602001806110416024913960400191505060405180910390fd5b6006543031146105bc5760405162461bcd60e51b815260040180806020018281038252602a815260200180611065602a913960400191505060405180910390fd5b60035460408051868152602081019290925281810185905251429133917f347ce84d9ed7334a67bdbc36e6519fbbc870a22468c5fa79fcbb5d68f5bc220d9181900360600190a350505050565b6106123361088c565b61064d5760405162461bcd60e51b81526004018080602001828103825260318152602001806110f36031913960400191505060405180910390fd5b61065681610c0d565b50565b303190565b336000908152600560205260409020548111156106b7576040805162461bcd60e51b81526020600482015260126024820152714e6f7420656e6f7567682062616c616e636560701b604482015290519081900360640190fd5b336000908152600560205260409020546106d7818363ffffffff610a8c16565b3360009081526005602052604090208190556006549091506106ff908363ffffffff610a8c16565b600655604051339083156108fc029084906000818181858888f1935050505015801561072f573d6000803e3d6000fd5b50604080518381529051429133917ff279e6a1f5e320cca91135676d9cb6e44ca8a08c0b88342bcdb1144f6511b5689181900360200190a35050565b6107743361088c565b6107af5760405162461bcd60e51b81526004018080602001828103825260318152602001806110f36031913960400191505060405180910390fd5b6107b7610cd7565b565b60025460035460609110156107cd57600080fd5b60606003546040519080825280602002602001820160405280156107fb578160200160208202803883390190505b50905060005b6002548110156108865760006002828154811061081a57fe5b60009182526020808320909101546001600160a01b0316808352600490915260409091205490915060ff1615156001141561087d578083838151811061085c57fe5b60200260200101906001600160a01b031690816001600160a01b0316815250505b50600101610801565b50905090565b600061089e818363ffffffff610cdf16565b92915050565b60006108af3361088c565b6108ea5760405162461bcd60e51b81526004018080602001828103825260318152602001806110f36031913960400191505060405180910390fd5b503360009081526005602052604090205490565b6006546000906109169030319063ffffffff610a8c16565b905090565b6109243361088c565b61095f5760405162461bcd60e51b81526004018080602001828103825260318152602001806110f36031913960400191505060405180910390fd5b6107b7610d46565b60035490565b60015460ff1690565b600034116109b55760405162461bcd60e51b81526004018080602001828103825260218152602001806110206021913960400191505060405180910390fd5b604080513481529051429133917f90890809c654f11d6e72a28fa60149770a0d11ec6c92319d6ceb2bb0a4ea1a159181900360200190a3565b60065490565b6107b733610d4e565b60015460ff16610a4d576040805162461bcd60e51b815260206004820152601660248201527510dbdb9d1c9858dd081a5cc81b9bdd081c185d5cd95960521b604482015290519081900360640190fd5b6001805460ff191690556040805133815290517f5db9ee0a495bf2e6ff9c91a7834c1ba4fdd244a5e8aa4e537bd38aeae4b073aa9181900360200190a1565b600082821115610ae3576040805162461bcd60e51b815260206004820152601e60248201527f536166654d6174683a207375627472616374696f6e206f766572666c6f770000604482015290519081900360640190fd5b50900390565b6000808211610b3f576040805162461bcd60e51b815260206004820152601a60248201527f536166654d6174683a206469766973696f6e206279207a65726f000000000000604482015290519081900360640190fd5b6000828481610b4a57fe5b04949350505050565b600082610b625750600061089e565b82820282848281610b6f57fe5b0414610bac5760405162461bcd60e51b81526004018080602001828103825260218152602001806110b06021913960400191505060405180910390fd5b9392505050565b600082820183811015610bac576040805162461bcd60e51b815260206004820152601b60248201527f536166654d6174683a206164646974696f6e206f766572666c6f770000000000604482015290519081900360640190fd5b60015460ff1615610c5a576040805162461bcd60e51b815260206004820152601260248201527110dbdb9d1c9858dd081a5cc81c185d5cd95960721b604482015290519081900360640190fd5b610c6381610e19565b6002805460018082019092557f405787fa12a823e0f2b7631cc41b3ba8828b3321ca811111fa75cd3aa3bb5ace0180546001600160a01b0319166001600160a01b0384169081179091556000908152600460205260409020805460ff191682179055600354610cd191610bb3565b60035550565b6107b76109fd565b60006001600160a01b038216610d265760405162461bcd60e51b81526004018080602001828103825260228152602001806110d16022913960400191505060405180910390fd5b506001600160a01b03166000908152602091909152604090205460ff1690565b6107b7610e61565b60015460ff1615610d9b576040805162461bcd60e51b815260206004820152601260248201527110dbdb9d1c9858dd081a5cc81c185d5cd95960721b604482015290519081900360640190fd5b600160035411610ddc5760405162461bcd60e51b81526004018080602001828103825260278152602001806111246027913960400191505060405180910390fd5b610de581610eef565b6001600160a01b0381166000908152600460205260409020805460ff19169055600354610cd190600163ffffffff610a8c16565b610e2a60008263ffffffff610f3716565b6040516001600160a01b038216907ff965229cbef17c17a2ced10d89ec5f669942d8dd77bd8a5debcaed392434504e90600090a250565b60015460ff1615610eae576040805162461bcd60e51b815260206004820152601260248201527110dbdb9d1c9858dd081a5cc81c185d5cd95960721b604482015290519081900360640190fd5b6001805460ff1916811790556040805133815290517f62e78cea01bee320cd4e420270b5ea74000d11b0c9f74754ebdbfc544b05a2589181900360200190a1565b610f0060008263ffffffff610fb816565b6040516001600160a01b038216907fac9358f7f807517a7bfea84ce37617a495e55d78f95d2efadcdfbf94817220e090600090a250565b610f418282610cdf565b15610f93576040805162461bcd60e51b815260206004820152601f60248201527f526f6c65733a206163636f756e7420616c72656164792068617320726f6c6500604482015290519081900360640190fd5b6001600160a01b0316600090815260209190915260409020805460ff19166001179055565b610fc28282610cdf565b610ffd5760405162461bcd60e51b815260040180806020018281038252602181526020018061108f6021913960400191505060405180910390fd5b6001600160a01b0316600090815260209190915260409020805460ff1916905556fe6d73672e76616c7565206d757374206265206772656174686572207468616e2030496e76616c69642073706c6974206265747765656e20616374697665206d656d6265727352657365727665642062616c616e63656420776173206e6f7420757064617465642070726f7065726c79526f6c65733a206163636f756e7420646f6573206e6f74206861766520726f6c65536166654d6174683a206d756c7469706c69636174696f6e206f766572666c6f77526f6c65733a206163636f756e7420697320746865207a65726f2061646472657373417474656e646565526f6c653a2063616c6c657220646f6573206e6f74206861766520417474656e64656520526f6c652e43616e6e6f742072656d6f7665206c617374206d656d6265722066726f6d20636f6e7472616374a265627a7a72315820cdafdcce0acf236fd8f75a5cccdf5fadd38775ce1a49fc75092222bfe380e8d664736f6c634300050c0032526f6c65733a206163636f756e7420697320746865207a65726f2061646472657373",
  "source": "pragma solidity ^0.5.0;\n\nimport \"openzeppelin-solidity/contracts/math/SafeMath.sol\";\n\nimport \"../core/ContestTeam.sol\";\n\ncontract ContestTeamMock is ContestTeam {\n    using SafeMath for uint256;\n\n    constructor() public ContestTeam(msg.sender) {}\n\n    // Helper testing functions.\n    function getReservedBalance() public view returns (uint256) {\n        return reservedBalance;\n    }\n\n    function getAvailableBalance() public view returns (uint256) {\n        return address(this).balance.sub(reservedBalance);\n    }\n\n    function getBalance() public view returns (uint256) {\n        return address(this).balance;\n    }\n}\n",
  "sourcePath": "/media/fodisi/56401C55401C3DE5/dev/Projects/hackapay/contracts/mocks/ContestTeamMock.sol",
  "compiler": {
    "name": "solc",
    "version": "0.5.12+commit.7709ece9.Emscripten.clang"
  },
  "schemaVersion": "3.0.20",
  "updatedAt": "2020-01-30T11:34:10.505Z",
  "devdoc": {
    "methods": {
      "_unpause()": {
        "details": "Internal implementation that lifts the paused state."
      },
      "balanceOf()": {
        "return": "The balance of a team member"
      },
      "getActiveMembers()": {
        "return": "An array of addresses representing the accounts of active members"
      },
      "getActiveMembersCount()": {
        "return": "{uint256} Count of active members"
      },
      "isPaused()": {
        "return": "{true} if the contract is paused; otherwise, {false}."
      },
      "pause()": {
        "details": "Implements the onlyAttendee modifier for access control."
      },
      "splitPrize()": {
        "details": "Implements the \"withdraw pattern\" by allocating balances to team  members, so they can request a withdraw once the split is done."
      },
      "unpause()": {
        "details": "Implements the onlyAttendee modifier for access control."
      },
      "withdraw(uint256)": {
        "details": "Implements the \"withdraw pattern\" allowing members to withdraw funds. The method is public, so inactive members (that renounced membership) are still able to withdraw funds in case balance > 0. "
      }
    }
  },
  "userdoc": {
    "methods": {
      "balanceOf()": {
        "notice": "Get the balance of a team member"
      },
      "deposit()": {
        "notice": "Allows the contract to receive funds."
      },
      "getActiveMembers()": {
        "notice": "Gets the active members in the team."
      },
      "getActiveMembersCount()": {
        "notice": "Gets the number of active team members."
      },
      "isPaused()": {
        "notice": "Returns if the contract is paused or not."
      },
      "pause()": {
        "notice": "Trigger the paused state."
      },
      "splitPrize()": {
        "notice": "Splits the available's contract balance between active team members."
      },
      "unpause()": {
        "notice": "Lifts the paused state."
      },
      "withdraw(uint256)": {
        "notice": "Allows a team member to withdraw its funds from the contract."
      }
    }
  }
}