{
  "contractName": "ContestTeam",
  "abi": [
    {
      "inputs": [
        {
          "internalType": "address",
          "name": "initialAttendee",
          "type": "address"
        }
      ],
      "stateMutability": "nonpayable",
      "type": "constructor"
    },
    {
      "anonymous": false,
      "inputs": [
        {
          "indexed": true,
          "internalType": "address",
          "name": "account",
          "type": "address"
        }
      ],
      "name": "AttendeeAdded",
      "type": "event"
    },
    {
      "anonymous": false,
      "inputs": [
        {
          "indexed": true,
          "internalType": "address",
          "name": "account",
          "type": "address"
        }
      ],
      "name": "AttendeeRemoved",
      "type": "event"
    },
    {
      "anonymous": false,
      "inputs": [
        {
          "indexed": true,
          "internalType": "address",
          "name": "from",
          "type": "address"
        },
        {
          "indexed": false,
          "internalType": "uint256",
          "name": "amount",
          "type": "uint256"
        },
        {
          "indexed": true,
          "internalType": "uint256",
          "name": "datetime",
          "type": "uint256"
        }
      ],
      "name": "Deposit",
      "type": "event"
    },
    {
      "anonymous": false,
      "inputs": [
        {
          "indexed": false,
          "internalType": "address",
          "name": "account",
          "type": "address"
        }
      ],
      "name": "Paused",
      "type": "event"
    },
    {
      "anonymous": false,
      "inputs": [
        {
          "indexed": true,
          "internalType": "address",
          "name": "sender",
          "type": "address"
        },
        {
          "indexed": false,
          "internalType": "uint256",
          "name": "totalPrize",
          "type": "uint256"
        },
        {
          "indexed": false,
          "internalType": "uint256",
          "name": "membersCount",
          "type": "uint256"
        },
        {
          "indexed": false,
          "internalType": "uint256",
          "name": "memberPrize",
          "type": "uint256"
        },
        {
          "indexed": true,
          "internalType": "uint256",
          "name": "datetime",
          "type": "uint256"
        }
      ],
      "name": "PrizeSplit",
      "type": "event"
    },
    {
      "anonymous": false,
      "inputs": [
        {
          "indexed": false,
          "internalType": "address",
          "name": "account",
          "type": "address"
        }
      ],
      "name": "Unpaused",
      "type": "event"
    },
    {
      "anonymous": false,
      "inputs": [
        {
          "indexed": true,
          "internalType": "address",
          "name": "to",
          "type": "address"
        },
        {
          "indexed": false,
          "internalType": "uint256",
          "name": "amount",
          "type": "uint256"
        },
        {
          "indexed": true,
          "internalType": "uint256",
          "name": "datetime",
          "type": "uint256"
        }
      ],
      "name": "Withdraw",
      "type": "event"
    },
    {
      "inputs": [],
      "name": "_unpause",
      "outputs": [],
      "stateMutability": "nonpayable",
      "type": "function"
    },
    {
      "inputs": [
        {
          "internalType": "address",
          "name": "account",
          "type": "address"
        }
      ],
      "name": "addAttendee",
      "outputs": [],
      "stateMutability": "nonpayable",
      "type": "function"
    },
    {
      "inputs": [],
      "name": "deposit",
      "outputs": [],
      "stateMutability": "payable",
      "type": "function"
    },
    {
      "inputs": [
        {
          "internalType": "address",
          "name": "account",
          "type": "address"
        }
      ],
      "name": "isAttendee",
      "outputs": [
        {
          "internalType": "bool",
          "name": "",
          "type": "bool"
        }
      ],
      "stateMutability": "view",
      "type": "function"
    },
    {
      "inputs": [],
      "name": "isPaused",
      "outputs": [
        {
          "internalType": "bool",
          "name": "",
          "type": "bool"
        }
      ],
      "stateMutability": "view",
      "type": "function"
    },
    {
      "inputs": [],
      "name": "renounceAttendee",
      "outputs": [],
      "stateMutability": "nonpayable",
      "type": "function"
    },
    {
      "inputs": [],
      "name": "splitPrize",
      "outputs": [],
      "stateMutability": "nonpayable",
      "type": "function"
    },
    {
      "inputs": [
        {
          "internalType": "uint256",
          "name": "amount",
          "type": "uint256"
        }
      ],
      "name": "withdraw",
      "outputs": [],
      "stateMutability": "nonpayable",
      "type": "function"
    },
    {
      "inputs": [],
      "name": "getActiveMembers",
      "outputs": [
        {
          "internalType": "address[]",
          "name": "",
          "type": "address[]"
        }
      ],
      "stateMutability": "view",
      "type": "function"
    },
    {
      "inputs": [],
      "name": "getActiveMembersCount",
      "outputs": [
        {
          "internalType": "uint256",
          "name": "",
          "type": "uint256"
        }
      ],
      "stateMutability": "view",
      "type": "function"
    },
    {
      "inputs": [],
      "name": "balanceOf",
      "outputs": [
        {
          "internalType": "uint256",
          "name": "",
          "type": "uint256"
        }
      ],
      "stateMutability": "view",
      "type": "function"
    },
    {
      "inputs": [],
      "name": "pause",
      "outputs": [],
      "stateMutability": "nonpayable",
      "type": "function"
    },
    {
      "inputs": [],
      "name": "unpause",
      "outputs": [],
      "stateMutability": "nonpayable",
      "type": "function"
    }
  ],
  "bytecode": "0x60806040523480156200001157600080fd5b50604051620014ee380380620014ee833981810160405260208110156200003757600080fd5b5051806001600160a01b03811662000096576040805162461bcd60e51b815260206004820152601460248201527f496e76616c6964207a65726f2061646472657373000000000000000000000000604482015290519081900360640190fd5b620000a181620000b3565b50506001805460ff191690556200033c565b60015460ff161562000101576040805162461bcd60e51b815260206004820152601260248201527110dbdb9d1c9858dd081a5cc81c185d5cd95960721b604482015290519081900360640190fd5b62000117816200019b60201b620009e51760201c565b6002805460018082019092557f405787fa12a823e0f2b7631cc41b3ba8828b3321ca811111fa75cd3aa3bb5ace0180546001600160a01b0319166001600160a01b0384169081179091556000908152600460209081526040909120805460ff19168317905560035462000195929091620001ed811b62000a2717901c565b60035550565b620001b68160006200024f60201b62000a881790919060201c565b6040516001600160a01b038216907ff965229cbef17c17a2ced10d89ec5f669942d8dd77bd8a5debcaed392434504e90600090a250565b60008282018381101562000248576040805162461bcd60e51b815260206004820152601b60248201527f536166654d6174683a206164646974696f6e206f766572666c6f770000000000604482015290519081900360640190fd5b9392505050565b6200025b8282620002d3565b15620002ae576040805162461bcd60e51b815260206004820152601f60248201527f526f6c65733a206163636f756e7420616c72656164792068617320726f6c6500604482015290519081900360640190fd5b6001600160a01b0316600090815260209190915260409020805460ff19166001179055565b60006001600160a01b0382166200031c5760405162461bcd60e51b8152600401808060200182810382526022815260200180620014cc6022913960400191505060405180910390fd5b506001600160a01b03166000908152602091909152604090205460ff1690565b611180806200034c6000396000f3fe6080604052600436106100c25760003560e01c8063722713f71161007f578063b187bd2611610059578063b187bd261461024d578063d0e30db014610262578063fb1da5431461026a578063fc8234cb1461027f576100c2565b8063722713f7146101fc5780638456cb59146102235780638f7c851914610238576100c2565b806307057382146100c757806310246254146100de5780632e1a7d4d146101115780633f4ba83a1461013b5780634876aebc146101505780636cad2590146101b5575b600080fd5b3480156100d357600080fd5b506100dc610294565b005b3480156100ea57600080fd5b506100dc6004803603602081101561010157600080fd5b50356001600160a01b0316610585565b34801561011d57600080fd5b506100dc6004803603602081101561013457600080fd5b50356105d5565b34801561014757600080fd5b506100dc6106d6565b34801561015c57600080fd5b50610165610724565b60408051602080825283518183015283519192839290830191858101910280838360005b838110156101a1578181015183820152602001610189565b505050509050019250505060405180910390f35b3480156101c157600080fd5b506101e8600480360360208110156101d857600080fd5b50356001600160a01b031661080e565b604080519115158252519081900360200190f35b34801561020857600080fd5b50610211610820565b60408051918252519081900360200190f35b34801561022f57600080fd5b506100dc61087a565b34801561024457600080fd5b506102116108c6565b34801561025957600080fd5b506101e86108cc565b6100dc6108d5565b34801561027657600080fd5b506100dc61094d565b34801561028b57600080fd5b506100dc610956565b61029d3361080e565b6102d85760405162461bcd60e51b81526004018080602001828103825260318152602001806110f36031913960400191505060405180910390fd5b60015460ff1615610325576040805162461bcd60e51b815260206004820152601260248201527110dbdb9d1c9858dd081a5cc81c185d5cd95960721b604482015290519081900360640190fd5b600061033c60065447610b0990919063ffffffff16565b905060008111610393576040805162461bcd60e51b815260206004820152601b60248201527f436f6e74657374616e745465616d2062616c616e636520697320300000000000604482015290519081900360640190fd5b60006103aa60035483610b4b90919063ffffffff16565b9050600081116103f5576040805162461bcd60e51b815260206004820152601160248201527004d656d626572207072697a65206973203607c1b604482015290519081900360640190fd5b600061040382600354610b8d565b90506000805b6002548110156104a95760006002828154811061042257fe5b60009182526020808320909101546001600160a01b0316808352600490915260409091205490915060ff161515600114156104a0576001600160a01b03811660009081526005602052604090205461047a9086610a27565b6001600160a01b03821660009081526005602052604090205561049d8386610a27565b92505b50600101610409565b506006546104b79085610a27565b6006558082146104f85760405162461bcd60e51b81526004018080602001828103825260248152602001806110416024913960400191505060405180910390fd5b60065447146105385760405162461bcd60e51b815260040180806020018281038252602a815260200180611065602a913960400191505060405180910390fd5b60035460408051868152602081019290925281810185905251429133917f347ce84d9ed7334a67bdbc36e6519fbbc870a22468c5fa79fcbb5d68f5bc220d9181900360600190a350505050565b61058e3361080e565b6105c95760405162461bcd60e51b81526004018080602001828103825260318152602001806110f36031913960400191505060405180910390fd5b6105d281610be6565b50565b3360009081526005602052604090205481111561062e576040805162461bcd60e51b81526020600482015260126024820152714e6f7420656e6f7567682062616c616e636560701b604482015290519081900360640190fd5b336000908152600560205260409020546106488183610b09565b33600090815260056020526040902081905560065490915061066a9083610b09565b600655604051339083156108fc029084906000818181858888f1935050505015801561069a573d6000803e3d6000fd5b50604080518381529051429133917ff279e6a1f5e320cca91135676d9cb6e44ca8a08c0b88342bcdb1144f6511b5689181900360200190a35050565b6106df3361080e565b61071a5760405162461bcd60e51b81526004018080602001828103825260318152602001806110f36031913960400191505060405180910390fd5b610722610cb0565b565b600254600354606091101561073857600080fd5b600060035467ffffffffffffffff8111801561075357600080fd5b5060405190808252806020026020018201604052801561077d578160200160208202803683370190505b50905060005b6002548110156108085760006002828154811061079c57fe5b60009182526020808320909101546001600160a01b0316808352600490915260409091205490915060ff161515600114156107ff57808383815181106107de57fe5b60200260200101906001600160a01b031690816001600160a01b0316815250505b50600101610783565b50905090565b600061081a8183610cb8565b92915050565b600061082b3361080e565b6108665760405162461bcd60e51b81526004018080602001828103825260318152602001806110f36031913960400191505060405180910390fd5b503360009081526005602052604090205490565b6108833361080e565b6108be5760405162461bcd60e51b81526004018080602001828103825260318152602001806110f36031913960400191505060405180910390fd5b610722610d1f565b60035490565b60015460ff1690565b600034116109145760405162461bcd60e51b81526004018080602001828103825260218152602001806110206021913960400191505060405180910390fd5b604080513481529051429133917f90890809c654f11d6e72a28fa60149770a0d11ec6c92319d6ceb2bb0a4ea1a159181900360200190a3565b61072233610d27565b60015460ff166109a6576040805162461bcd60e51b815260206004820152601660248201527510dbdb9d1c9858dd081a5cc81b9bdd081c185d5cd95960521b604482015290519081900360640190fd5b6001805460ff191690556040805133815290517f5db9ee0a495bf2e6ff9c91a7834c1ba4fdd244a5e8aa4e537bd38aeae4b073aa9181900360200190a1565b6109f0600082610a88565b6040516001600160a01b038216907ff965229cbef17c17a2ced10d89ec5f669942d8dd77bd8a5debcaed392434504e90600090a250565b600082820183811015610a81576040805162461bcd60e51b815260206004820152601b60248201527f536166654d6174683a206164646974696f6e206f766572666c6f770000000000604482015290519081900360640190fd5b9392505050565b610a928282610cb8565b15610ae4576040805162461bcd60e51b815260206004820152601f60248201527f526f6c65733a206163636f756e7420616c72656164792068617320726f6c6500604482015290519081900360640190fd5b6001600160a01b0316600090815260209190915260409020805460ff19166001179055565b6000610a8183836040518060400160405280601e81526020017f536166654d6174683a207375627472616374696f6e206f766572666c6f770000815250610dec565b6000610a8183836040518060400160405280601a81526020017f536166654d6174683a206469766973696f6e206279207a65726f000000000000815250610e83565b600082610b9c5750600061081a565b82820282848281610ba957fe5b0414610a815760405162461bcd60e51b81526004018080602001828103825260218152602001806110b06021913960400191505060405180910390fd5b60015460ff1615610c33576040805162461bcd60e51b815260206004820152601260248201527110dbdb9d1c9858dd081a5cc81c185d5cd95960721b604482015290519081900360640190fd5b610c3c816109e5565b6002805460018082019092557f405787fa12a823e0f2b7631cc41b3ba8828b3321ca811111fa75cd3aa3bb5ace0180546001600160a01b0319166001600160a01b0384169081179091556000908152600460205260409020805460ff191682179055600354610caa91610a27565b60035550565b610722610956565b60006001600160a01b038216610cff5760405162461bcd60e51b81526004018080602001828103825260228152602001806110d16022913960400191505060405180910390fd5b506001600160a01b03166000908152602091909152604090205460ff1690565b610722610ee8565b60015460ff1615610d74576040805162461bcd60e51b815260206004820152601260248201527110dbdb9d1c9858dd081a5cc81c185d5cd95960721b604482015290519081900360640190fd5b600160035411610db55760405162461bcd60e51b81526004018080602001828103825260278152602001806111246027913960400191505060405180910390fd5b610dbe81610f76565b6001600160a01b0381166000908152600460205260409020805460ff19169055600354610caa906001610b09565b60008184841115610e7b5760405162461bcd60e51b81526004018080602001828103825283818151815260200191508051906020019080838360005b83811015610e40578181015183820152602001610e28565b50505050905090810190601f168015610e6d5780820380516001836020036101000a031916815260200191505b509250505060405180910390fd5b505050900390565b60008183610ed25760405162461bcd60e51b8152602060048201818152835160248401528351909283926044909101919085019080838360008315610e40578181015183820152602001610e28565b506000838581610ede57fe5b0495945050505050565b60015460ff1615610f35576040805162461bcd60e51b815260206004820152601260248201527110dbdb9d1c9858dd081a5cc81c185d5cd95960721b604482015290519081900360640190fd5b6001805460ff1916811790556040805133815290517f62e78cea01bee320cd4e420270b5ea74000d11b0c9f74754ebdbfc544b05a2589181900360200190a1565b610f81600082610fb8565b6040516001600160a01b038216907fac9358f7f807517a7bfea84ce37617a495e55d78f95d2efadcdfbf94817220e090600090a250565b610fc28282610cb8565b610ffd5760405162461bcd60e51b815260040180806020018281038252602181526020018061108f6021913960400191505060405180910390fd5b6001600160a01b0316600090815260209190915260409020805460ff1916905556fe6d73672e76616c7565206d757374206265206772656174686572207468616e2030496e76616c69642073706c6974206265747765656e20616374697665206d656d6265727352657365727665642062616c616e63656420776173206e6f7420757064617465642070726f7065726c79526f6c65733a206163636f756e7420646f6573206e6f74206861766520726f6c65536166654d6174683a206d756c7469706c69636174696f6e206f766572666c6f77526f6c65733a206163636f756e7420697320746865207a65726f2061646472657373417474656e646565526f6c653a2063616c6c657220646f6573206e6f74206861766520417474656e64656520526f6c652e43616e6e6f742072656d6f7665206c617374206d656d6265722066726f6d20636f6e7472616374a26469706673582212206073f82e9979af49a2f747705c89b950815c4a887b1a4dd838708e7f0f08b60d64736f6c63430007060033526f6c65733a206163636f756e7420697320746865207a65726f2061646472657373",
  "immutableReferences": {},
  "source": "// SPDX-License-Identifier: UNLICENSED\n\npragma solidity >=0.7.0 <0.8.0;\n\nimport \"@openzeppelin/contracts/math/SafeMath.sol\";\nimport \"../roles/AttendeeRole.sol\";\nimport \"../payment/Payable.sol\";\nimport \"../lifecycle/Pausable.sol\";\n\n/**\n * @notice Represents a Contest Team, allowing the team to receive prizes, and members to split and withdraw their prizes.\n * @dev This contract follows the \"withdraw pattern\". This means that payments are not automatically forwarded to the\n * accounts but kept in this contract, and the actual transfer is triggered as a separate step by calling the {withdraw}\n * function.\n * Future improvements:\n * TODO: implement multisig to close the contract for new members.\n * TODO: implement multisig to destroy the contract.\n * TODO: implement multisig to remove members.\n * TODO: implement multisig to transfer contract's funds to another address. See TODO on {splitPrize}.\n */\ncontract ContestTeam is Payable, AttendeeRole, Pausable {\n    using SafeMath for uint256;\n\n    address[] internal teamMembers; // List of members\n    uint256 internal activeTeamMembersCount; // Helper for {splitPrize} and {getActiveMembers}.\n    mapping(address => bool) internal activeTeamMembers; // Controls active members\n    mapping(address => uint256) internal balances; // Controls member's balances.\n    uint256 internal reservedBalance; // Controls reserved balance, that was already split.\n\n    /// @notice emitted when a member withdraws from the contract.\n    event Withdraw(address indexed to, uint256 amount, uint256 indexed datetime);\n    /// @notice emitted when the contract's balance (prize) is split between active members.\n    event PrizeSplit(\n        address indexed sender,\n        uint256 totalPrize,\n        uint256 membersCount,\n        uint256 memberPrize,\n        uint256 indexed datetime\n    );\n\n    ///@dev This class needs to be inherited - internal visibility\n    /// @param initialAttendee Represents the attendee who owns the contest, initially.\n    constructor(address initialAttendee) Payable() AttendeeRole(initialAttendee) Pausable() {}\n\n    /**\n     * @notice Splits the available's contract balance between active team members.\n     * @dev Implements the \"withdraw pattern\" by allocating balances to team \n     * members, so they can request a withdraw once the split is done.\n     */\n    function splitPrize() external onlyAttendee whenNotPaused {\n        // Cannot split amounts that were split in the past and are still pending from withdraw.\n        uint256 availableBalance = address(this).balance.sub(reservedBalance);\n        require(availableBalance > 0, \"ContestantTeam balance is 0\");\n\n        uint256 prize = availableBalance.div(activeTeamMembersCount);\n        require(prize > 0, \"Member prize is 0\");\n\n        uint256 expectedDistribution = SafeMath.mul(prize, activeTeamMembersCount);\n        uint256 distributedPrize;\n\n        for (uint256 index = 0; index < teamMembers.length; index++) {\n            address member = teamMembers[index];\n            // Credits active member's balance.\n            if (activeTeamMembers[member] == true) {\n                balances[member] = balances[member].add(prize);\n                distributedPrize = distributedPrize.add(prize);\n            }\n        }\n\n        // Makes sure new split is reserved and accounted in future splits\n        reservedBalance = reservedBalance.add(availableBalance);\n        // Makes sure no invalid distribution was done between members. If so, it reverts.\n        // TODO: In case there's a bug in the above logic, contract's funds could be stuck\n        // in the contract. See future improvements related to multisignature implementation to mitigate\n        // this issue in case a bug is found (tests do not show bugs, but untested scenarioes may rise).\n        require(distributedPrize == expectedDistribution, \"Invalid split between active members\");\n        require(address(this).balance == reservedBalance, \"Reserved balanced was not updated properly\");\n        emit PrizeSplit(msg.sender, availableBalance, activeTeamMembersCount, prize, block.timestamp);\n    }\n\n    /**\n     * @notice Allows a team member to withdraw its funds from the contract.\n     * @dev Implements the \"withdraw pattern\" allowing members to withdraw funds.\n     * The method is public, so inactive members (that renounced membership)\n     * are still able to withdraw funds in case balance > 0. \n     */\n    function withdraw(uint256 amount) external {\n        require(balances[msg.sender] >= amount, \"Not enough balance\");\n        uint256 currentBalance = balances[msg.sender];\n        currentBalance = currentBalance.sub(amount);\n        balances[msg.sender] = currentBalance;\n        // Updates contract's reserved balance, so future splits will be correctly calculated.\n        reservedBalance = reservedBalance.sub(amount);\n        msg.sender.transfer(amount);\n        emit Withdraw(msg.sender, amount, block.timestamp);\n    }\n\n    /// @notice Gets the active members in the team.\n    /// @return An array of addresses representing the accounts of active members\n    function getActiveMembers() public view returns (address[] memory) {\n        require(activeTeamMembersCount <= teamMembers.length);\n        address[] memory activeMembers = new address[](activeTeamMembersCount);\n        // {teamMembers} can have INACTIVE members, so need to loop through to return only active members.\n        for (uint256 index = 0; index < teamMembers.length; index++) {\n            address member = teamMembers[index];\n            if (activeTeamMembers[member] == true) {\n                activeMembers[index] = member;\n            }\n        }\n        return activeMembers;\n    }\n\n    /// @notice Gets the number of active team members.\n    /// @return {uint256} Count of active members\n    function getActiveMembersCount() external view returns (uint256) {\n        return activeTeamMembersCount;\n    }\n\n    /// @notice Get the balance of a team member\n    /// @return The balance of a team member\n    function balanceOf() public view onlyAttendee returns (uint256) {\n        return balances[msg.sender];\n    }\n\n    /**\n        @notice Trigger the paused state.\n        @dev Implements the onlyAttendee modifier for access control.\n     */\n    function pause() public override onlyAttendee {\n        super.pause();\n    }\n\n    /**\n        @notice Lifts the paused state.\n        @dev Implements the onlyAttendee modifier for access control.\n     */\n    function unpause() public override onlyAttendee {\n        super.unpause();\n    }\n\n    /// @dev Overrides {AttendeeRole} internal method, to properly update internal storage related to team members.\n    function _addAttendee(address account) internal override whenNotPaused {\n        super._addAttendee(account);\n        teamMembers.push(account);\n        activeTeamMembers[account] = true;\n        activeTeamMembersCount = activeTeamMembersCount.add(1);\n    }\n\n    /// @dev Overrides {AttendeeRole} internal method, to properly update internal storage related to team members.\n    function _removeAttendee(address account) internal override whenNotPaused {\n        // Makes sure the contract have at least of member/owner.\n        require(activeTeamMembersCount > 1, \"Cannot remove last member from contract\");\n        super._removeAttendee(account);\n        activeTeamMembers[account] = false;\n        activeTeamMembersCount = activeTeamMembersCount.sub(1);\n    }\n}\n",
  "sourcePath": "/media/fodisi/56401C55401C3DE5/dev/Projects/hackapay/contracts/core/ContestTeam.sol",
  "compiler": {
    "name": "solc",
    "version": "0.7.6+commit.7338295f.Emscripten.clang"
  },
  "schemaVersion": "3.3.2",
  "updatedAt": "2021-01-22T04:14:17.021Z",
  "devdoc": {
    "details": "This contract follows the \"withdraw pattern\". This means that payments are not automatically forwarded to the accounts but kept in this contract, and the actual transfer is triggered as a separate step by calling the {withdraw} function. Future improvements: TODO: implement multisig to close the contract for new members. TODO: implement multisig to destroy the contract. TODO: implement multisig to remove members. TODO: implement multisig to transfer contract's funds to another address. See TODO on {splitPrize}.",
    "kind": "dev",
    "methods": {
      "_unpause()": {
        "details": "Internal implementation that lifts the paused state."
      },
      "balanceOf()": {
        "returns": {
          "_0": "The balance of a team member"
        }
      },
      "constructor": {
        "details": "This class needs to be inherited - internal visibility",
        "params": {
          "initialAttendee": "Represents the attendee who owns the contest, initially."
        }
      },
      "getActiveMembers()": {
        "returns": {
          "_0": "An array of addresses representing the accounts of active members"
        }
      },
      "getActiveMembersCount()": {
        "returns": {
          "_0": "{uint256} Count of active members"
        }
      },
      "isPaused()": {
        "returns": {
          "_0": "{true} if the contract is paused; otherwise, {false}."
        }
      },
      "pause()": {
        "details": "Implements the onlyAttendee modifier for access control."
      },
      "splitPrize()": {
        "details": "Implements the \"withdraw pattern\" by allocating balances to team  members, so they can request a withdraw once the split is done."
      },
      "unpause()": {
        "details": "Implements the onlyAttendee modifier for access control."
      },
      "withdraw(uint256)": {
        "details": "Implements the \"withdraw pattern\" allowing members to withdraw funds. The method is public, so inactive members (that renounced membership) are still able to withdraw funds in case balance > 0. "
      }
    },
    "version": 1
  },
  "userdoc": {
    "events": {
      "Deposit(address,uint256,uint256)": {
        "notice": "Event emitted when the contract receives a deposit."
      },
      "PrizeSplit(address,uint256,uint256,uint256,uint256)": {
        "notice": "emitted when the contract's balance (prize) is split between active members."
      },
      "Withdraw(address,uint256,uint256)": {
        "notice": "emitted when a member withdraws from the contract."
      }
    },
    "kind": "user",
    "methods": {
      "balanceOf()": {
        "notice": "Get the balance of a team member"
      },
      "deposit()": {
        "notice": "Allows the contract to receive funds."
      },
      "getActiveMembers()": {
        "notice": "Gets the active members in the team."
      },
      "getActiveMembersCount()": {
        "notice": "Gets the number of active team members."
      },
      "isPaused()": {
        "notice": "Returns if the contract is paused or not."
      },
      "pause()": {
        "notice": "Trigger the paused state."
      },
      "splitPrize()": {
        "notice": "Splits the available's contract balance between active team members."
      },
      "unpause()": {
        "notice": "Lifts the paused state."
      },
      "withdraw(uint256)": {
        "notice": "Allows a team member to withdraw its funds from the contract."
      }
    },
    "notice": "Represents a Contest Team, allowing the team to receive prizes, and members to split and withdraw their prizes.",
    "version": 1
  }
}