{
  "contractName": "ContestMock",
  "abi": [
    {
      "constant": true,
      "inputs": [],
      "name": "name",
      "outputs": [
        {
          "name": "",
          "type": "bytes32"
        }
      ],
      "payable": false,
      "stateMutability": "view",
      "type": "function"
    },
    {
      "constant": true,
      "inputs": [
        {
          "name": "account",
          "type": "address"
        }
      ],
      "name": "isOrganizer",
      "outputs": [
        {
          "name": "",
          "type": "bool"
        }
      ],
      "payable": false,
      "stateMutability": "view",
      "type": "function"
    },
    {
      "constant": false,
      "inputs": [],
      "name": "renounceJudge",
      "outputs": [],
      "payable": false,
      "stateMutability": "nonpayable",
      "type": "function"
    },
    {
      "constant": false,
      "inputs": [],
      "name": "renounceOrganizer",
      "outputs": [],
      "payable": false,
      "stateMutability": "nonpayable",
      "type": "function"
    },
    {
      "constant": true,
      "inputs": [],
      "name": "description",
      "outputs": [
        {
          "name": "",
          "type": "bytes32"
        }
      ],
      "payable": false,
      "stateMutability": "view",
      "type": "function"
    },
    {
      "constant": false,
      "inputs": [
        {
          "name": "account",
          "type": "address"
        }
      ],
      "name": "addJudge",
      "outputs": [],
      "payable": false,
      "stateMutability": "nonpayable",
      "type": "function"
    },
    {
      "constant": false,
      "inputs": [
        {
          "name": "account",
          "type": "address"
        }
      ],
      "name": "removeJudge",
      "outputs": [],
      "payable": false,
      "stateMutability": "nonpayable",
      "type": "function"
    },
    {
      "constant": true,
      "inputs": [],
      "name": "id",
      "outputs": [
        {
          "name": "",
          "type": "uint256"
        }
      ],
      "payable": false,
      "stateMutability": "view",
      "type": "function"
    },
    {
      "constant": false,
      "inputs": [
        {
          "name": "account",
          "type": "address"
        }
      ],
      "name": "addOrganizer",
      "outputs": [],
      "payable": false,
      "stateMutability": "nonpayable",
      "type": "function"
    },
    {
      "constant": true,
      "inputs": [
        {
          "name": "account",
          "type": "address"
        }
      ],
      "name": "isJudge",
      "outputs": [
        {
          "name": "",
          "type": "bool"
        }
      ],
      "payable": false,
      "stateMutability": "view",
      "type": "function"
    },
    {
      "inputs": [
        {
          "name": "_id",
          "type": "uint256"
        },
        {
          "name": "_name",
          "type": "bytes32"
        },
        {
          "name": "_description",
          "type": "bytes32"
        }
      ],
      "payable": false,
      "stateMutability": "nonpayable",
      "type": "constructor"
    },
    {
      "anonymous": false,
      "inputs": [
        {
          "indexed": true,
          "name": "account",
          "type": "address"
        }
      ],
      "name": "JudgeAdded",
      "type": "event"
    },
    {
      "anonymous": false,
      "inputs": [
        {
          "indexed": true,
          "name": "account",
          "type": "address"
        }
      ],
      "name": "JudgeRemoved",
      "type": "event"
    },
    {
      "anonymous": false,
      "inputs": [
        {
          "indexed": true,
          "name": "account",
          "type": "address"
        }
      ],
      "name": "OrganizerAdded",
      "type": "event"
    },
    {
      "anonymous": false,
      "inputs": [
        {
          "indexed": true,
          "name": "account",
          "type": "address"
        }
      ],
      "name": "OrganizerRemoved",
      "type": "event"
    },
    {
      "constant": true,
      "inputs": [],
      "name": "getActiveOrganizersCount",
      "outputs": [
        {
          "name": "",
          "type": "uint256"
        }
      ],
      "payable": false,
      "stateMutability": "view",
      "type": "function"
    },
    {
      "constant": true,
      "inputs": [],
      "name": "getActiveJudgesCount",
      "outputs": [
        {
          "name": "",
          "type": "uint256"
        }
      ],
      "payable": false,
      "stateMutability": "view",
      "type": "function"
    }
  ],
  "bytecode": "0x60806040523480156200001157600080fd5b506040516060806200120d833981018060405260608110156200003357600080fd5b810190808051906020019092919080519060200190929190805190602001909291905050508282826200006c336200013b60201b60201c565b600060f81b826000602081106200007f57fe5b1a60f81b7effffffffffffffffffffffffffffffffffffffffffffffffffffffffffffff191614156200011a576040517f08c379a00000000000000000000000000000000000000000000000000000000081526004018080602001828103825260148152602001807f6e616d652063616e6e6f7420626520656d70747900000000000000000000000081525060200191505060405180910390fd5b826008819055508160098190555080600a81905550505050505050620004e3565b62000151816200023560201b62000a641760201c565b60058190806001815401808255809150509060018203906000526020600020016000909192909190916101000a81548173ffffffffffffffffffffffffffffffffffffffff021916908373ffffffffffffffffffffffffffffffffffffffff160217905550506001600760008373ffffffffffffffffffffffffffffffffffffffff1673ffffffffffffffffffffffffffffffffffffffff16815260200190815260200160002060006101000a81548160ff0219169083151502179055506200022c60016006546200029660201b620009dc1790919060201c565b60068190555050565b620002508160006200031f60201b62000b7b1790919060201c565b8073ffffffffffffffffffffffffffffffffffffffff167f37e96fc6762bae414e69ea6e2490e63bc46f2a1335de0f6b91f49cf808829bcf60405160405180910390a250565b60008082840190508381101562000315576040517f08c379a000000000000000000000000000000000000000000000000000000000815260040180806020018281038252601b8152602001807f536166654d6174683a206164646974696f6e206f766572666c6f77000000000081525060200191505060405180910390fd5b8091505092915050565b6200033182826200040360201b60201c565b15620003a5576040517f08c379a000000000000000000000000000000000000000000000000000000000815260040180806020018281038252601f8152602001807f526f6c65733a206163636f756e7420616c72656164792068617320726f6c650081525060200191505060405180910390fd5b60018260000160008373ffffffffffffffffffffffffffffffffffffffff1673ffffffffffffffffffffffffffffffffffffffff16815260200190815260200160002060006101000a81548160ff0219169083151502179055505050565b60008073ffffffffffffffffffffffffffffffffffffffff168273ffffffffffffffffffffffffffffffffffffffff1614156200048c576040517f08c379a0000000000000000000000000000000000000000000000000000000008152600401808060200182810382526022815260200180620011eb6022913960400191505060405180910390fd5b8260000160008373ffffffffffffffffffffffffffffffffffffffff1673ffffffffffffffffffffffffffffffffffffffff16815260200190815260200160002060009054906101000a900460ff16905092915050565b610cf880620004f36000396000f3fe608060405234801561001057600080fd5b50600436106100b45760003560e01c8063927cab4711610071578063927cab4714610183578063ae2ac4ae146101c7578063af640d0f1461020b578063ce46e79d14610229578063e4725f0214610247578063ed896d661461028b576100b4565b806306fdde03146100b957806341676f15146100d75780634b30b66f14610133578063567ad8621461013d5780637284e41614610147578063820429ba14610165575b600080fd5b6100c16102e7565b6040518082815260200191505060405180910390f35b610119600480360360208110156100ed57600080fd5b81019080803573ffffffffffffffffffffffffffffffffffffffff1690602001909291905050506102ed565b604051808215151515815260200191505060405180910390f35b61013b61030a565b005b610145610315565b005b61014f610320565b6040518082815260200191505060405180910390f35b61016d610326565b6040518082815260200191505060405180910390f35b6101c56004803603602081101561019957600080fd5b81019080803573ffffffffffffffffffffffffffffffffffffffff169060200190929190505050610330565b005b610209600480360360208110156101dd57600080fd5b81019080803573ffffffffffffffffffffffffffffffffffffffff16906020019092919050505061039a565b005b610213610404565b6040518082815260200191505060405180910390f35b61023161040a565b6040518082815260200191505060405180910390f35b6102896004803603602081101561025d57600080fd5b81019080803573ffffffffffffffffffffffffffffffffffffffff169060200190929190505050610414565b005b6102cd600480360360208110156102a157600080fd5b81019080803573ffffffffffffffffffffffffffffffffffffffff16906020019092919050505061047e565b604051808215151515815260200191505060405180910390f35b60095481565b600061030382600061049b90919063ffffffff16565b9050919050565b61031333610579565b565b61031e336105f9565b565b600a5481565b6000600354905090565b610339336102ed565b61038e576040517f08c379a0000000000000000000000000000000000000000000000000000000008152600401808060200182810382526033815260200180610c576033913960400191505060405180910390fd5b61039781610679565b50565b6103a3336102ed565b6103f8576040517f08c379a0000000000000000000000000000000000000000000000000000000008152600401808060200182810382526033815260200180610c576033913960400191505060405180910390fd5b61040181610579565b50565b60085481565b6000600654905090565b61041d336102ed565b610472576040517f08c379a0000000000000000000000000000000000000000000000000000000008152600401808060200182810382526033815260200180610c576033913960400191505060405180910390fd5b61047b8161075f565b50565b600061049482600161049b90919063ffffffff16565b9050919050565b60008073ffffffffffffffffffffffffffffffffffffffff168273ffffffffffffffffffffffffffffffffffffffff161415610522576040517f08c379a0000000000000000000000000000000000000000000000000000000008152600401808060200182810382526022815260200180610cab6022913960400191505060405180910390fd5b8260000160008373ffffffffffffffffffffffffffffffffffffffff1673ffffffffffffffffffffffffffffffffffffffff16815260200190815260200160002060009054906101000a900460ff16905092915050565b61058281610845565b6000600460008373ffffffffffffffffffffffffffffffffffffffff1673ffffffffffffffffffffffffffffffffffffffff16815260200190815260200160002060006101000a81548160ff0219169083151502179055506105f0600160035461089f90919063ffffffff16565b60038190555050565b61060281610928565b6000600760008373ffffffffffffffffffffffffffffffffffffffff1673ffffffffffffffffffffffffffffffffffffffff16815260200190815260200160002060006101000a81548160ff021916908315150217905550610670600160065461089f90919063ffffffff16565b60068190555050565b61068281610982565b60028190806001815401808255809150509060018203906000526020600020016000909192909190916101000a81548173ffffffffffffffffffffffffffffffffffffffff021916908373ffffffffffffffffffffffffffffffffffffffff160217905550506001600460008373ffffffffffffffffffffffffffffffffffffffff1673ffffffffffffffffffffffffffffffffffffffff16815260200190815260200160002060006101000a81548160ff02191690831515021790555061075660016003546109dc90919063ffffffff16565b60038190555050565b61076881610a64565b60058190806001815401808255809150509060018203906000526020600020016000909192909190916101000a81548173ffffffffffffffffffffffffffffffffffffffff021916908373ffffffffffffffffffffffffffffffffffffffff160217905550506001600760008373ffffffffffffffffffffffffffffffffffffffff1673ffffffffffffffffffffffffffffffffffffffff16815260200190815260200160002060006101000a81548160ff02191690831515021790555061083c60016006546109dc90919063ffffffff16565b60068190555050565b610859816001610abe90919063ffffffff16565b8073ffffffffffffffffffffffffffffffffffffffff167f32a792a099c63670df7161917c5efb2fdc734cf9f943ebddccbecef87664f2b760405160405180910390a250565b600082821115610917576040517f08c379a000000000000000000000000000000000000000000000000000000000815260040180806020018281038252601e8152602001807f536166654d6174683a207375627472616374696f6e206f766572666c6f77000081525060200191505060405180910390fd5b600082840390508091505092915050565b61093c816000610abe90919063ffffffff16565b8073ffffffffffffffffffffffffffffffffffffffff167fc459bd414676a5877fcf10a0d73ecf7e1f672a339650b03e628c4046534300e360405160405180910390a250565b610996816001610b7b90919063ffffffff16565b8073ffffffffffffffffffffffffffffffffffffffff167fe7f15f9ffff540ae14fdebcd9b6d6cc1fc143933338656c99caa595e8b80903960405160405180910390a250565b600080828401905083811015610a5a576040517f08c379a000000000000000000000000000000000000000000000000000000000815260040180806020018281038252601b8152602001807f536166654d6174683a206164646974696f6e206f766572666c6f77000000000081525060200191505060405180910390fd5b8091505092915050565b610a78816000610b7b90919063ffffffff16565b8073ffffffffffffffffffffffffffffffffffffffff167f37e96fc6762bae414e69ea6e2490e63bc46f2a1335de0f6b91f49cf808829bcf60405160405180910390a250565b610ac8828261049b565b610b1d576040517f08c379a0000000000000000000000000000000000000000000000000000000008152600401808060200182810382526021815260200180610c8a6021913960400191505060405180910390fd5b60008260000160008373ffffffffffffffffffffffffffffffffffffffff1673ffffffffffffffffffffffffffffffffffffffff16815260200190815260200160002060006101000a81548160ff0219169083151502179055505050565b610b85828261049b565b15610bf8576040517f08c379a000000000000000000000000000000000000000000000000000000000815260040180806020018281038252601f8152602001807f526f6c65733a206163636f756e7420616c72656164792068617320726f6c650081525060200191505060405180910390fd5b60018260000160008373ffffffffffffffffffffffffffffffffffffffff1673ffffffffffffffffffffffffffffffffffffffff16815260200190815260200160002060006101000a81548160ff021916908315150217905550505056fe4f7267616e697a6572526f6c653a2063616c6c657220646f6573206e6f742068617665204f7267616e697a657220526f6c652e526f6c65733a206163636f756e7420646f6573206e6f74206861766520726f6c65526f6c65733a206163636f756e7420697320746865207a65726f2061646472657373a165627a7a72305820835805552f0470d4b3cf0829de4b6c67eacb516e64eb5aa0e73f8c79689bac960029526f6c65733a206163636f756e7420697320746865207a65726f2061646472657373",
  "source": "pragma solidity ^0.5.0;\n\nimport \"../core/Contest.sol\";\n\ncontract ContestMock is Contest {\n\n    constructor(uint256 _id, bytes32 _name, bytes32 _description) public Contest(_id, _name, _description) {\n    }\n    function getActiveOrganizersCount() public view returns (uint256) {\n        return activeOrganizersCount;\n    }\n\n    function getActiveJudgesCount() public view returns (uint256) {\n        return activeJudgesCount;\n    }\n}",
  "sourcePath": "/home/odisi/dev/projects/hackapay/contracts/mocks/ContestMock.sol",
  "compiler": {
    "name": "solc",
    "version": "0.5.8+commit.23d335f2.Emscripten.clang"
  },
  "schemaVersion": "3.0.11",
  "updatedAt": "2019-07-22T01:31:38.439Z",
  "devdoc": {
    "methods": {}
  },
  "userdoc": {
    "methods": {}
  }
}