{
  "contractName": "ContestBracketRegistryMock",
  "abi": [
    {
      "constant": true,
      "inputs": [
        {
          "name": "teamId",
          "type": "uint256"
        }
      ],
      "name": "getTeam",
      "outputs": [
        {
          "name": "",
          "type": "bytes32"
        },
        {
          "name": "",
          "type": "address"
        },
        {
          "name": "",
          "type": "bytes32"
        },
        {
          "name": "",
          "type": "bool"
        },
        {
          "name": "",
          "type": "uint256"
        }
      ],
      "payable": false,
      "stateMutability": "view",
      "type": "function"
    },
    {
      "constant": false,
      "inputs": [
        {
          "name": "teamId",
          "type": "uint256"
        }
      ],
      "name": "approveTeam",
      "outputs": [],
      "payable": false,
      "stateMutability": "nonpayable",
      "type": "function"
    },
    {
      "constant": false,
      "inputs": [
        {
          "name": "teamIds",
          "type": "uint256[]"
        }
      ],
      "name": "reproveTeams",
      "outputs": [],
      "payable": false,
      "stateMutability": "nonpayable",
      "type": "function"
    },
    {
      "constant": false,
      "inputs": [
        {
          "name": "teamIds",
          "type": "uint256[]"
        },
        {
          "name": "teamGrades",
          "type": "uint8[]"
        }
      ],
      "name": "submitEvaluation",
      "outputs": [],
      "payable": false,
      "stateMutability": "nonpayable",
      "type": "function"
    },
    {
      "constant": true,
      "inputs": [
        {
          "name": "",
          "type": "uint256"
        }
      ],
      "name": "teams",
      "outputs": [
        {
          "name": "id",
          "type": "uint256"
        },
        {
          "name": "name",
          "type": "bytes32"
        },
        {
          "name": "teamAddress",
          "type": "address"
        },
        {
          "name": "proposalData",
          "type": "bytes32"
        },
        {
          "name": "approved",
          "type": "bool"
        },
        {
          "name": "grade",
          "type": "uint256"
        }
      ],
      "payable": false,
      "stateMutability": "view",
      "type": "function"
    },
    {
      "constant": true,
      "inputs": [
        {
          "name": "account",
          "type": "address"
        }
      ],
      "name": "isOrganizer",
      "outputs": [
        {
          "name": "",
          "type": "bool"
        }
      ],
      "payable": false,
      "stateMutability": "view",
      "type": "function"
    },
    {
      "constant": false,
      "inputs": [],
      "name": "renounceJudge",
      "outputs": [],
      "payable": false,
      "stateMutability": "nonpayable",
      "type": "function"
    },
    {
      "constant": true,
      "inputs": [
        {
          "name": "teamAddress",
          "type": "address"
        }
      ],
      "name": "getTeamByAddress",
      "outputs": [
        {
          "name": "",
          "type": "bytes32"
        },
        {
          "name": "",
          "type": "address"
        },
        {
          "name": "",
          "type": "bytes32"
        },
        {
          "name": "",
          "type": "bool"
        },
        {
          "name": "",
          "type": "uint256"
        }
      ],
      "payable": false,
      "stateMutability": "view",
      "type": "function"
    },
    {
      "constant": true,
      "inputs": [],
      "name": "getSubmissionStatus",
      "outputs": [
        {
          "name": "",
          "type": "bool"
        }
      ],
      "payable": false,
      "stateMutability": "view",
      "type": "function"
    },
    {
      "constant": false,
      "inputs": [],
      "name": "renounceOrganizer",
      "outputs": [],
      "payable": false,
      "stateMutability": "nonpayable",
      "type": "function"
    },
    {
      "constant": false,
      "inputs": [],
      "name": "openSubmission",
      "outputs": [],
      "payable": false,
      "stateMutability": "nonpayable",
      "type": "function"
    },
    {
      "constant": true,
      "inputs": [],
      "name": "getWinnersIds",
      "outputs": [
        {
          "name": "",
          "type": "uint256"
        },
        {
          "name": "",
          "type": "uint256"
        },
        {
          "name": "",
          "type": "uint256"
        }
      ],
      "payable": false,
      "stateMutability": "view",
      "type": "function"
    },
    {
      "constant": false,
      "inputs": [
        {
          "name": "teamName",
          "type": "bytes32"
        },
        {
          "name": "teamAddress",
          "type": "address"
        },
        {
          "name": "proposalData",
          "type": "bytes32"
        }
      ],
      "name": "registerTeam",
      "outputs": [
        {
          "name": "",
          "type": "uint256"
        }
      ],
      "payable": false,
      "stateMutability": "nonpayable",
      "type": "function"
    },
    {
      "constant": false,
      "inputs": [],
      "name": "closeRegistration",
      "outputs": [],
      "payable": false,
      "stateMutability": "nonpayable",
      "type": "function"
    },
    {
      "constant": false,
      "inputs": [],
      "name": "publishRank",
      "outputs": [],
      "payable": false,
      "stateMutability": "nonpayable",
      "type": "function"
    },
    {
      "constant": false,
      "inputs": [
        {
          "name": "account",
          "type": "address"
        }
      ],
      "name": "addJudge",
      "outputs": [],
      "payable": false,
      "stateMutability": "nonpayable",
      "type": "function"
    },
    {
      "constant": true,
      "inputs": [],
      "name": "getEvaluationStatus",
      "outputs": [
        {
          "name": "",
          "type": "bool"
        }
      ],
      "payable": false,
      "stateMutability": "view",
      "type": "function"
    },
    {
      "constant": false,
      "inputs": [],
      "name": "closeEvaluation",
      "outputs": [],
      "payable": false,
      "stateMutability": "nonpayable",
      "type": "function"
    },
    {
      "constant": false,
      "inputs": [
        {
          "name": "account",
          "type": "address"
        }
      ],
      "name": "removeJudge",
      "outputs": [],
      "payable": false,
      "stateMutability": "nonpayable",
      "type": "function"
    },
    {
      "constant": false,
      "inputs": [],
      "name": "openEvaluation",
      "outputs": [],
      "payable": false,
      "stateMutability": "nonpayable",
      "type": "function"
    },
    {
      "constant": false,
      "inputs": [],
      "name": "openRegistration",
      "outputs": [],
      "payable": false,
      "stateMutability": "nonpayable",
      "type": "function"
    },
    {
      "constant": true,
      "inputs": [],
      "name": "getRegistrationStatus",
      "outputs": [
        {
          "name": "",
          "type": "bool"
        }
      ],
      "payable": false,
      "stateMutability": "view",
      "type": "function"
    },
    {
      "constant": false,
      "inputs": [
        {
          "name": "account",
          "type": "address"
        }
      ],
      "name": "addOrganizer",
      "outputs": [],
      "payable": false,
      "stateMutability": "nonpayable",
      "type": "function"
    },
    {
      "constant": false,
      "inputs": [
        {
          "name": "teamId",
          "type": "uint256"
        },
        {
          "name": "proposalData",
          "type": "bytes32"
        }
      ],
      "name": "updateProposalData",
      "outputs": [],
      "payable": false,
      "stateMutability": "nonpayable",
      "type": "function"
    },
    {
      "constant": true,
      "inputs": [
        {
          "name": "account",
          "type": "address"
        }
      ],
      "name": "isJudge",
      "outputs": [
        {
          "name": "",
          "type": "bool"
        }
      ],
      "payable": false,
      "stateMutability": "view",
      "type": "function"
    },
    {
      "constant": false,
      "inputs": [
        {
          "name": "teamId",
          "type": "uint256"
        }
      ],
      "name": "reproveTeam",
      "outputs": [],
      "payable": false,
      "stateMutability": "nonpayable",
      "type": "function"
    },
    {
      "constant": false,
      "inputs": [],
      "name": "closeSubmission",
      "outputs": [],
      "payable": false,
      "stateMutability": "nonpayable",
      "type": "function"
    },
    {
      "inputs": [],
      "payable": false,
      "stateMutability": "nonpayable",
      "type": "constructor"
    },
    {
      "anonymous": false,
      "inputs": [
        {
          "indexed": false,
          "name": "enabled",
          "type": "bool"
        }
      ],
      "name": "EvaluationStatusUpdated",
      "type": "event"
    },
    {
      "anonymous": false,
      "inputs": [
        {
          "indexed": true,
          "name": "id",
          "type": "uint256"
        },
        {
          "indexed": false,
          "name": "judgeAddress",
          "type": "address"
        }
      ],
      "name": "JudgeVoted",
      "type": "event"
    },
    {
      "anonymous": false,
      "inputs": [
        {
          "indexed": false,
          "name": "teamId",
          "type": "uint256"
        },
        {
          "indexed": false,
          "name": "teamAddress",
          "type": "address"
        },
        {
          "indexed": false,
          "name": "finalGrade",
          "type": "uint256"
        },
        {
          "indexed": false,
          "name": "rankPosition",
          "type": "uint8"
        }
      ],
      "name": "WinnerAnnouced",
      "type": "event"
    },
    {
      "anonymous": false,
      "inputs": [
        {
          "indexed": true,
          "name": "account",
          "type": "address"
        }
      ],
      "name": "JudgeAdded",
      "type": "event"
    },
    {
      "anonymous": false,
      "inputs": [
        {
          "indexed": true,
          "name": "account",
          "type": "address"
        }
      ],
      "name": "JudgeRemoved",
      "type": "event"
    },
    {
      "anonymous": false,
      "inputs": [
        {
          "indexed": true,
          "name": "account",
          "type": "address"
        }
      ],
      "name": "OrganizerAdded",
      "type": "event"
    },
    {
      "anonymous": false,
      "inputs": [
        {
          "indexed": true,
          "name": "account",
          "type": "address"
        }
      ],
      "name": "OrganizerRemoved",
      "type": "event"
    },
    {
      "anonymous": false,
      "inputs": [
        {
          "indexed": true,
          "name": "teamId",
          "type": "uint256"
        },
        {
          "indexed": false,
          "name": "teamName",
          "type": "bytes32"
        },
        {
          "indexed": true,
          "name": "teamAddress",
          "type": "address"
        },
        {
          "indexed": false,
          "name": "approved",
          "type": "bool"
        }
      ],
      "name": "TeamRegistered",
      "type": "event"
    },
    {
      "anonymous": false,
      "inputs": [
        {
          "indexed": false,
          "name": "enabled",
          "type": "bool"
        }
      ],
      "name": "RegistrationStatusUpdated",
      "type": "event"
    },
    {
      "anonymous": false,
      "inputs": [
        {
          "indexed": false,
          "name": "enabled",
          "type": "bool"
        }
      ],
      "name": "SubmissionStatusUpdated",
      "type": "event"
    },
    {
      "anonymous": false,
      "inputs": [
        {
          "indexed": true,
          "name": "teamId",
          "type": "uint256"
        },
        {
          "indexed": true,
          "name": "teamAddress",
          "type": "address"
        },
        {
          "indexed": false,
          "name": "proposalData",
          "type": "bytes32"
        }
      ],
      "name": "TeamProposalUpdated",
      "type": "event"
    },
    {
      "anonymous": false,
      "inputs": [
        {
          "indexed": true,
          "name": "teamId",
          "type": "uint256"
        },
        {
          "indexed": true,
          "name": "teamAddress",
          "type": "address"
        },
        {
          "indexed": false,
          "name": "approved",
          "type": "bool"
        }
      ],
      "name": "TeamStatusUpdated",
      "type": "event"
    },
    {
      "constant": true,
      "inputs": [],
      "name": "getActiveJudgeCount",
      "outputs": [
        {
          "name": "",
          "type": "uint256"
        }
      ],
      "payable": false,
      "stateMutability": "view",
      "type": "function"
    }
  ],
  "bytecode": "0x60806040523480156200001157600080fd5b50338080806200008257604080517f08c379a000000000000000000000000000000000000000000000000000000000815260206004820152601460248201527f496e76616c6964207a65726f2061646472657373000000000000000000000000604482015290519081900360640190fd5b62000093816200009c60201b60201c565b5050506200032b565b620000b2816200013660201b620025641760201c565b6009805460018082019092557f6e1540171b6c0c960b71a7020d9f60077f6af931a8bbf590da0223dacf75c7af0180546001600160a01b0319166001600160a01b0384169081179091556000908152600b60209081526040909120805460ff191683179055600a546200013092909162000188811b62001e1017901c565b600a5550565b620001518160046200020460201b620026a61790919060201c565b6040516001600160a01b038216907f37e96fc6762bae414e69ea6e2490e63bc46f2a1335de0f6b91f49cf808829bcf90600090a250565b600082820183811015620001fd57604080517f08c379a000000000000000000000000000000000000000000000000000000000815260206004820152601b60248201527f536166654d6174683a206164646974696f6e206f766572666c6f770000000000604482015290519081900360640190fd5b9392505050565b620002168282620002a860201b60201c565b156200028357604080517f08c379a000000000000000000000000000000000000000000000000000000000815260206004820152601f60248201527f526f6c65733a206163636f756e7420616c72656164792068617320726f6c6500604482015290519081900360640190fd5b6001600160a01b0316600090815260209190915260409020805460ff19166001179055565b60006001600160a01b0382166200030b576040517f08c379a000000000000000000000000000000000000000000000000000000000815260040180806020018281038252602281526020018062002c226022913960400191505060405180910390fd5b506001600160a01b03166000908152602091909152604090205460ff1690565b6128e7806200033b6000396000f3fe608060405234801561001057600080fd5b50600436106101c35760003560e01c80637dc673bc116100f9578063d06e4ee711610097578063eaf2f9cd11610071578063eaf2f9cd14610561578063ed896d6614610584578063f540548b146105aa578063ffc6ff1e146105c7576101c3565b8063d06e4ee71461052b578063e35fb24114610533578063e4725f021461053b576101c3565b8063a2bce8bd116100d3578063a2bce8bd146104ed578063ae237c77146104f5578063ae2ac4ae146104fd578063b2a13f9214610523576101c3565b80637dc673bc146104b757806390d768e4146104bf578063927cab47146104c7576101c3565b80634ea701a81161016657806358e2f50e1161014057806358e2f50e1461043d578063737a6340146104455780637385712c1461046b5780637a8ea4f1146104af576101c3565b80634ea701a81461040757806354e1db2b1461042d578063567ad86214610435576101c3565b80633e091f64116101a25780633e091f64146102a95780633ed2b77a1461036b57806341676f15146103c55780634b30b66f146103ff576101c3565b80628e0f1b146101c857806324ba9fab1461021a578063288c4a4614610239575b600080fd5b6101e5600480360360208110156101de57600080fd5b50356105cf565b604080519586526001600160a01b03909416602086015284840192909252151560608401526080830152519081900360a00190f35b6102376004803603602081101561023057600080fd5b50356106bf565b005b6102376004803603602081101561024f57600080fd5b81019060208101813564010000000081111561026a57600080fd5b82018360208201111561027c57600080fd5b8035906020019184602083028401116401000000008311171561029e57600080fd5b5090925090506106cb565b610237600480360360408110156102bf57600080fd5b8101906020810181356401000000008111156102da57600080fd5b8201836020820111156102ec57600080fd5b8035906020019184602083028401116401000000008311171561030e57600080fd5b91939092909160208101903564010000000081111561032c57600080fd5b82018360208201111561033e57600080fd5b8035906020019184602083028401116401000000008311171561036057600080fd5b50909250905061070b565b6103886004803603602081101561038157600080fd5b5035610ad7565b6040805196875260208701959095526001600160a01b039093168585015260608501919091521515608084015260a0830152519081900360c00190f35b6103eb600480360360208110156103db57600080fd5b50356001600160a01b0316610b2a565b604080519115158252519081900360200190f35b610237610b45565b6101e56004803603602081101561041d57600080fd5b50356001600160a01b0316610b50565b6103eb610c37565b610237610c45565b610237610c4e565b61044d610cf5565b60408051938452602084019290925282820152519081900360600190f35b61049d6004803603606081101561048157600080fd5b508035906001600160a01b036020820135169060400135610d03565b60408051918252519081900360200190f35b61049d6110f4565b6102376110fa565b6102376111a3565b610237600480360360208110156104dd57600080fd5b50356001600160a01b031661169b565b6103eb6116eb565b6102376116f4565b6102376004803603602081101561051357600080fd5b50356001600160a01b031661179d565b6102376117ed565b61023761188f565b6103eb611939565b6102376004803603602081101561055157600080fd5b50356001600160a01b0316611942565b6102376004803603604081101561057757600080fd5b5080359060200135611992565b6103eb6004803603602081101561059a57600080fd5b50356001600160a01b0316611b16565b610237600480360360208110156105c057600080fd5b5035611b29565b610237611b32565b6000806000806000856105e181611be0565b61062a5760408051600160e51b62461bcd02815260206004820152600f60248201526001608a1b6e125b9d985b1a59081d19585b481a5902604482015290519081900360640190fd5b61063261272a565b6001888154811061063f57fe5b60009182526020918290206040805160c08101825260069390930290910180548352600181015493830184905260028101546001600160a01b0316918301829052600381015460608401819052600482015460ff1615156080850181905260059092015460a0909401849052939c919b5092995091975095509350505050565b6106c881611be7565b50565b610707828280806020026020016040519081016040528093929190818152602001838360200280828437600092019190915250611d3a92505050565b5050565b600e5460ff166107655760408051600160e51b62461bcd02815260206004820152601460248201527f4576616c756174696f6e20697320636c6f736564000000000000000000000000604482015290519081900360640190fd5b61076e33611b16565b6107ac57604051600160e51b62461bcd02815260040180806020018281038252602b8152602001806127a9602b913960400191505060405180910390fd5b8281146107ed57604051600160e51b62461bcd0281526004018080602001828103825260338152602001806128676033913960400191505060405180910390fd5b600254831461083057604051600160e51b62461bcd02815260040180806020018281038252603f815260200180612828603f913960400191505060405180910390fd5b60006002541161088a5760408051600160e51b62461bcd02815260206004820152601d60248201527f4e6f20617070726f766564207465616d7320746f206576616c75617465000000604482015290519081900360640190fd5b336000908152600d602052604090206001810154600160a81b900460ff16156108e757604051600160e51b62461bcd0281526004018080602001828103825260228152602001806127876022913960400191505060405180910390fd5b60005b600254811015610a7457600086868381811061090257fe5b905060200201359050600085858481811061091957fe5b9050602002013560ff16905061092e82611be0565b6109775760408051600160e51b62461bcd02815260206004820152600f60248201526001608a1b6e125b9d985b1a59081d19585b481a5902604482015290519081900360640190fd5b61098082611d6a565b6109ce5760408051600160e51b62461bcd0281526020600482015260146024820152600160621b731519585b481a5cc81b9bdd08185c1c1c9bdd995902604482015290519081900360640190fd5b6109d781611e04565b610a2b5760408051600160e51b62461bcd02815260206004820152600d60248201527f496e76616c696420677261646500000000000000000000000000000000000000604482015290519081900360640190fd5b600060018381548110610a3a57fe5b90600052602060002090600602019050610a648260ff168260050154611e1090919063ffffffff16565b60059091015550506001016108ea565b50600181018054600160a81b60ff021916600160a81b17908190558154604080516001600160a01b0390931683525190917fd62869bbd78965284c34750092d78b62093e2d02b730d0ce696ebdcb371bb5dc919081900360200190a25050505050565b60018181548110610ae457fe5b600091825260209091206006909102018054600182015460028301546003840154600485015460059095015493955091936001600160a01b039091169260ff9091169086565b6000610b3d60048363ffffffff611e7416565b90505b919050565b610b4e33611ede565b565b6000808080806001600160a01b038616610bb45760408051600160e51b62461bcd02815260206004820152601460248201527f496e76616c6964207a65726f2061646472657373000000000000000000000000604482015290519081900360640190fd5b610bbc61272a565b505050506001600160a01b0392831660009081526020818152604091829020825160c0810184528154815260018201549281018390526002820154909616928601839052600381015460608701819052600482015460ff1615156080880181905260059092015460a090970187905291969295919450925090565b600354610100900460ff1690565b610b4e33611f1f565b600354610100900460ff1615610ca65760408051600160e51b62461bcd0281526020600482015260126024820152600160711b7129bab136b4b9b9b4b7b71034b99037b832b702604482015290519081900360640190fd5b610caf33610b2a565b610ced57604051600160e51b62461bcd0281526004018080602001828103825260338152602001806127d46033913960400191505060405180910390fd5b610b4e611f62565b600f54601554601b54909192565b60035460009060ff16610d605760408051600160e51b62461bcd02815260206004820152601660248201527f526567697374726174696f6e20697320636c6f73656400000000000000000000604482015290519081900360640190fd5b8360001a60f81b6001600160f81b031916610dc55760408051600160e51b62461bcd02815260206004820152601960248201527f5465616d206e616d652063616e6e6f7420626520656d70747900000000000000604482015290519081900360640190fd5b6001600160a01b038316610e235760408051600160e51b62461bcd02815260206004820152601b60248201527f5465616d20616464726573732063616e6e6f74206265207a65726f0000000000604482015290519081900360640190fd5b6001600160a01b038381166000908152602081905260409020600201541615610e965760408051600160e51b62461bcd02815260206004820152601760248201527f5465616d20616c72656164792072656769737465726564000000000000000000604482015290519081900360640190fd5b600154610ea161272a565b506040805160c081018252828152602081018781526001600160a01b0387811693830193845260608301878152600160808501818152600060a08701818152835480850185559184905287517fb10e2d527612073b26eecdfd717e6a320cf44b4afac2b0732d9fcbe2b7fa0cf660069093029283015595517fb10e2d527612073b26eecdfd717e6a320cf44b4afac2b0732d9fcbe2b7fa0cf782015596517fb10e2d527612073b26eecdfd717e6a320cf44b4afac2b0732d9fcbe2b7fa0cf8880180546001600160a01b031916919095161790935590517fb10e2d527612073b26eecdfd717e6a320cf44b4afac2b0732d9fcbe2b7fa0cf986015590517fb10e2d527612073b26eecdfd717e6a320cf44b4afac2b0732d9fcbe2b7fa0cfa8501805460ff191691151591909117905590517fb10e2d527612073b26eecdfd717e6a320cf44b4afac2b0732d9fcbe2b7fa0cfb9093019290925581549091908390811061100957fe5b600091825260208083206001600160a01b03808a1685529184905260409093206006909202909201805482556001808201548184015560028083015481850180546001600160a01b031916919096161790945560038083015490840155600480830154908401805460ff909216151560ff19909216919091179055600591820154919092015590546110a09163ffffffff611e1016565b600255604080518781526001602082015281516001600160a01b0388169285927f443b25596b838f2775d21b1153b87036f08c058fd4702446f1136ab26e5f3b90929081900390910190a350949350505050565b60075490565b60035460ff166111545760408051600160e51b62461bcd02815260206004820152601660248201527f526567697374726174696f6e20697320636c6f73656400000000000000000000604482015290519081900360640190fd5b61115d33610b2a565b61119b57604051600160e51b62461bcd0281526004018080602001828103825260338152602001806127d46033913960400191505060405180910390fd5b610b4e611fb2565b60035460ff16156111fe5760408051600160e51b62461bcd02815260206004820152601460248201527f526567697374726174696f6e206973206f70656e000000000000000000000000604482015290519081900360640190fd5b600354610100900460ff16156112565760408051600160e51b62461bcd0281526020600482015260126024820152600160711b7129bab136b4b9b9b4b7b71034b99037b832b702604482015290519081900360640190fd5b600e5460ff16156112a95760408051600160e51b62461bcd0281526020600482015260126024820152600160711b7122bb30b63ab0ba34b7b71034b99037b832b702604482015290519081900360640190fd5b6112b233610b2a565b6112f057604051600160e51b62461bcd0281526004018080602001828103825260338152602001806127d46033913960400191505060405180910390fd5b60215460ff161561134b5760408051600160e51b62461bcd02815260206004820152601660248201527f52616e6b20616c7265616479207075626c697368656400000000000000000000604482015290519081900360640190fd5b6000600254116113a55760408051600160e51b62461bcd02815260206004820152601360248201527f4e6f207465616d73207265676973746572656400000000000000000000000000604482015290519081900360640190fd5b6113ad61272a565b6113b561272a565b6113bd61272a565b6113c561272a565b60005b6001548110156114b057600181815481106113df57fe5b60009182526020918290206040805160c08101825260069093029091018054835260018101549383019390935260028301546001600160a01b03169082015260038201546060820152600482015460ff16158015608083015260059092015460a082015295508061145757508160a001518560a00151105b15611461576114a8565b8360a001518560a00151111561147b5784939291506114a8565b8260a001518560a00151111561149457849291506114a8565b8160a001518560a0015111156114a8578491505b6001016113c8565b508251600f819055602080850151601055604080860151601180546001600160a01b03199081166001600160a01b0393841617918290556060808a01516012556080808b01516013805460ff1990811692151592909217905560a0808d015160148190558c516015558c8a01516016558c890151601780548816918a169190911790558c8501516018558c8401516019805485169115159190911790558c820151601a558b51601b558b8a0151601c558b890151601d8054909716908916179095558a840151601e558a830151601f805484169115159190911790558a01518855602180549091166001908117909155865198895293909416958701959095528584015292840192909252517f78bd43bbb342abb837e10002dd4fcda5ea371db518ce4e9aff10ab136441a99c9281900390910190a1601554601754601a54604080519384526001600160a01b0390921660208401528282015260026060830152517f78bd43bbb342abb837e10002dd4fcda5ea371db518ce4e9aff10ab136441a99c9181900360800190a1601b54601d5460208054604080519485526001600160a01b03909316918401919091528282015260036060830152517f78bd43bbb342abb837e10002dd4fcda5ea371db518ce4e9aff10ab136441a99c9181900360800190a150505050565b6116a433610b2a565b6116e257604051600160e51b62461bcd0281526004018080602001828103825260338152602001806127d46033913960400191505060405180910390fd5b6106c881611ff2565b600e5460ff1690565b600e5460ff1661174e5760408051600160e51b62461bcd02815260206004820152601460248201527f4576616c756174696f6e20697320636c6f736564000000000000000000000000604482015290519081900360640190fd5b61175733610b2a565b61179557604051600160e51b62461bcd0281526004018080602001828103825260338152602001806127d46033913960400191505060405180910390fd5b610b4e612185565b6117a633610b2a565b6117e457604051600160e51b62461bcd0281526004018080602001828103825260338152602001806127d46033913960400191505060405180910390fd5b6106c881611ede565b600e5460ff16156118405760408051600160e51b62461bcd0281526020600482015260126024820152600160711b7122bb30b63ab0ba34b7b71034b99037b832b702604482015290519081900360640190fd5b61184933610b2a565b61188757604051600160e51b62461bcd0281526004018080602001828103825260338152602001806127d46033913960400191505060405180910390fd5b610b4e6121c5565b60035460ff16156118ea5760408051600160e51b62461bcd02815260206004820152601460248201527f526567697374726174696f6e206973206f70656e000000000000000000000000604482015290519081900360640190fd5b6118f333610b2a565b61193157604051600160e51b62461bcd0281526004018080602001828103825260338152602001806127d46033913960400191505060405180910390fd5b610b4e61220f565b60035460ff1690565b61194b33610b2a565b61198957604051600160e51b62461bcd0281526004018080602001828103825260338152602001806127d46033913960400191505060405180910390fd5b6106c881612259565b8161199c81611be0565b6119e55760408051600160e51b62461bcd02815260206004820152600f60248201526001608a1b6e125b9d985b1a59081d19585b481a5902604482015290519081900360640190fd5b826119ef81611d6a565b611a3d5760408051600160e51b62461bcd0281526020600482015260146024820152600160621b731519585b481a5cc81b9bdd08185c1c1c9bdd995902604482015290519081900360640190fd5b600354610100900460ff16611a9c5760408051600160e51b62461bcd02815260206004820152601460248201527f5375626d697373696f6e20697320636c6f736564000000000000000000000000604482015290519081900360640190fd5b600060018581548110611aab57fe5b60009182526020918290206003600690920201908101869055600281015481546040805189815290519395506001600160a01b039092169390927fa44de9e6ce79675199796005de8516704078af25aaf78ab4be180213882560ee9281900390910190a35050505050565b6000610b3d60058363ffffffff611e7416565b6106c8816122d0565b600354610100900460ff16611b915760408051600160e51b62461bcd02815260206004820152601460248201527f5375626d697373696f6e20697320636c6f736564000000000000000000000000604482015290519081900360640190fd5b611b9a33610b2a565b611bd857604051600160e51b62461bcd0281526004018080602001828103825260338152602001806127d46033913960400191505060405180910390fd5b610b4e6123b7565b6001541190565b80611bf181611be0565b611c3a5760408051600160e51b62461bcd02815260206004820152600f60248201526001608a1b6e125b9d985b1a59081d19585b481a5902604482015290519081900360640190fd5b81611c4481611d6a565b15611c995760408051600160e51b62461bcd02815260206004820152601560248201527f5465616d206973206e6f7420726570726f7665642e0000000000000000000000604482015290519081900360640190fd5b600060018481548110611ca857fe5b600091825260209091206004600690920201908101805460ff19166001908117909155600254919250611ce1919063ffffffff611e1016565b6002908155810154815460048301546040805160ff90921615158252516001600160a01b03909316927fd903780bcf5bcea81714ac3450a34cb3de7b0735a59883e1eb90edd901a54ad49181900360200190a350505050565b60005b815181101561070757611d62828281518110611d5557fe5b60200260200101516122d0565b600101611d3d565b6000611d7582611be0565b611d8157506000610b40565b611d8961272a565b60018381548110611d9657fe5b60009182526020918290206040805160c08101825260069093029091018054835260018101549383019390935260028301546001600160a01b03169082015260038201546060820152600482015460ff1615156080820181905260059092015460a090910152915050919050565b600a60ff909116111590565b600082820183811015611e6d5760408051600160e51b62461bcd02815260206004820152601b60248201527f536166654d6174683a206164646974696f6e206f766572666c6f770000000000604482015290519081900360640190fd5b9392505050565b60006001600160a01b038216611ebe57604051600160e51b62461bcd02815260040180806020018281038252602281526020018061289a6022913960400191505060405180910390fd5b506001600160a01b03166000908152602091909152604090205460ff1690565b611ee781612402565b6001600160a01b03166000908152600d60205260409020600101805474ff000000000000000000000000000000000000000019169055565b611f2881612445565b6001600160a01b0381166000908152600b60205260409020805460ff19169055600a54611f5c90600163ffffffff61248d16565b600a5550565b6003805461ff00191661010090811791829055604080519190920460ff161515815290517f48fbf5c7b70581e7e2145562de373e14a5af56d09f9b96d73545d0d35f71f0889181900360200190a1565b6003805460ff19169055604080516000815290517f78b477400a612eb4ec0a343596323cccfac06b27624264a549d8322c736d055c9181900360200190a1565b611ffb816124ed565b600c5461200661275f565b6040518060800160405280838152602001846001600160a01b03168152602001600115158152602001600015158152509050600c81908060018154018082558091505090600182039060005260206000209060020201600090919290919091506000820151816000015560208201518160010160006101000a8154816001600160a01b0302191690836001600160a01b0316021790555060408201518160010160146101000a81548160ff02191690831515021790555060608201518160010160156101000a81548160ff02191690831515021790555050505080600d6000856001600160a01b03166001600160a01b031681526020019081526020016000206000820151816000015560208201518160010160006101000a8154816001600160a01b0302191690836001600160a01b0316021790555060408201518160010160146101000a81548160ff02191690831515021790555060608201518160010160156101000a81548160ff021916908315150217905550905050505050565b600e805460ff19169055604080516000815290517f0266365b4830894a247179cbad20f3dfe40ba70917925976027d2af68d950bed9181900360200190a1565b600e805460ff1916600117908190556040805160ff9290921615158252517f0266365b4830894a247179cbad20f3dfe40ba70917925976027d2af68d950bed9181900360200190a1565b6003805460ff1916600117908190556040805160ff9290921615158252517f78b477400a612eb4ec0a343596323cccfac06b27624264a549d8322c736d055c9181900360200190a1565b61226281612564565b6009805460018082019092557f6e1540171b6c0c960b71a7020d9f60077f6af931a8bbf590da0223dacf75c7af0180546001600160a01b0319166001600160a01b0384169081179091556000908152600b60205260409020805460ff191682179055600a54611f5c91611e10565b806122da81611be0565b6123235760408051600160e51b62461bcd02815260206004820152600f60248201526001608a1b6e125b9d985b1a59081d19585b481a5902604482015290519081900360640190fd5b8161232d81611d6a565b61237b5760408051600160e51b62461bcd0281526020600482015260146024820152600160621b731519585b481a5cc81b9bdd08185c1c1c9bdd995902604482015290519081900360640190fd5b60006001848154811061238a57fe5b6000918252602090912060069091020160048101805460ff19169055600254909150611ce190600161248d565b6003805461ff001916908190556040805161010090920460ff1615158252517f48fbf5c7b70581e7e2145562de373e14a5af56d09f9b96d73545d0d35f71f0889181900360200190a1565b61240b816125ac565b6001600160a01b0381166000908152600860205260409020805460ff1916905560075461243f90600163ffffffff61248d16565b60075550565b61245660048263ffffffff6125f416565b6040516001600160a01b038216907fc459bd414676a5877fcf10a0d73ecf7e1f672a339650b03e628c4046534300e390600090a250565b6000828211156124e75760408051600160e51b62461bcd02815260206004820152601e60248201527f536166654d6174683a207375627472616374696f6e206f766572666c6f770000604482015290519081900360640190fd5b50900390565b6124f68161265e565b6006805460018082019092557ff652222313e28459528d920b65115c16c04f3efc82aaedc97be59f3f377c0d3f0180546001600160a01b0319166001600160a01b0384169081179091556000908152600860205260409020805460ff19168217905560075461243f91611e10565b61257560048263ffffffff6126a616565b6040516001600160a01b038216907f37e96fc6762bae414e69ea6e2490e63bc46f2a1335de0f6b91f49cf808829bcf90600090a250565b6125bd60058263ffffffff6125f416565b6040516001600160a01b038216907f32a792a099c63670df7161917c5efb2fdc734cf9f943ebddccbecef87664f2b790600090a250565b6125fe8282611e74565b61263c57604051600160e51b62461bcd0281526004018080602001828103825260218152602001806128076021913960400191505060405180910390fd5b6001600160a01b0316600090815260209190915260409020805460ff19169055565b61266f60058263ffffffff6126a616565b6040516001600160a01b038216907fe7f15f9ffff540ae14fdebcd9b6d6cc1fc143933338656c99caa595e8b80903990600090a250565b6126b08282611e74565b156127055760408051600160e51b62461bcd02815260206004820152601f60248201527f526f6c65733a206163636f756e7420616c72656164792068617320726f6c6500604482015290519081900360640190fd5b6001600160a01b0316600090815260209190915260409020805460ff19166001179055565b6040805160c081018252600080825260208201819052918101829052606081018290526080810182905260a081019190915290565b6040805160808101825260008082526020820181905291810182905260608101919091529056fe4a7564676520616c7265616479207375626d6974746564206576616c756174696f6e4a75646765526f6c653a2063616c6c657220646f6573206e6f742068617665204a7564676520526f6c652e4f7267616e697a6572526f6c653a2063616c6c657220646f6573206e6f742068617665204f7267616e697a657220526f6c652e526f6c65733a206163636f756e7420646f6573206e6f74206861766520726f6c657465616d7349647320616e642067726164657320646f206e6f74206d617463682074686520636f756e74696e67206f6620617070726f766564207465616d734c656e677468206f66207465616d7320616e64207465616d47726164657320617272617973206d75737420626520657175616c526f6c65733a206163636f756e7420697320746865207a65726f2061646472657373a165627a7a723058204a10621d84985b448a7740044d69ebb9ff9e8f932499d2527398d78805df52080029526f6c65733a206163636f756e7420697320746865207a65726f2061646472657373",
  "source": "pragma solidity ^0.5.0;\n\nimport \"../core/ContestBracketRegistry.sol\";\n\ncontract ContestBracketRegistryMock is ContestBracketRegistry {\n    constructor() public ContestBracketRegistry(msg.sender) {}\n\n    function getActiveJudgeCount() external view returns (uint256) {\n        return activeJudgesCount;\n    }\n\n}\n",
  "sourcePath": "/home/odisi/dev/projects/hackapay/contracts/mocks/ContestBracketRegistryMock.sol",
  "compiler": {
    "name": "solc",
    "version": "0.5.8+commit.23d335f2.Emscripten.clang"
  },
  "schemaVersion": "3.0.11",
  "updatedAt": "2019-07-31T17:11:29.866Z",
  "devdoc": {
    "methods": {
      "approveTeam(uint256)": {
        "details": "Should be overwritten on inherited contract to add modifier or require statements for access control.",
        "params": {
          "teamId": "{uint256} the ids of the teams to be approved"
        }
      },
      "closeEvaluation()": {
        "details": "Should be overwritten on inherited contract to add modifier or require statements for access control."
      },
      "closeRegistration()": {
        "details": "Overwritten to add modifier for access control."
      },
      "closeSubmission()": {
        "details": "Should be overwritten on inherited contract to add modifier or require statements for access control."
      },
      "getEvaluationStatus()": {
        "return": "{bool} returns {true} if enabled; otherwise, {false}."
      },
      "getRegistrationStatus()": {
        "return": "{bool} returns {true} if enabled; otherwise, {false}."
      },
      "getSubmissionStatus()": {
        "return": "{bool} returns {true} if enabled; otherwise, {false}."
      },
      "getTeam(uint256)": {
        "params": {
          "teamId": "{uint256} the team's unique identifier returned on registration"
        },
        "return": "{bytes32} team's name{address} team's address{bytes32} team's proposal data{bool} team's status: {true} for approved; {false} for reproved;{uint256} team's grade"
      },
      "getTeamByAddress(address)": {
        "params": {
          "teamAddress": "{address} the team's contract address used on registration"
        },
        "return": "{bytes32} team's name{address} team's address{bytes32} team's proposal data{bool} team's status: {true} for approved; {false} for reproved;{uint256} team's grade"
      },
      "getWinnersIds()": {
        "return": "{uint256} First place's id{uint256} Second place's id{uint256} Third place's id"
      },
      "openEvaluation()": {
        "details": "Should be overwritten on inherited contract to add modifier or require statements for access control."
      },
      "openRegistration()": {
        "details": "Overwritten to add modifier for access control."
      },
      "openSubmission()": {
        "details": "Should be overwritten on inherited contract to add modifier or require statements for access control."
      },
      "publishRank()": {
        "details": "emitts an WinnerAnnounced event for each winner (1st, 2nd, 3rd place)."
      },
      "registerTeam(bytes32,address,bytes32)": {
        "details": "Registration process must be open.",
        "params": {
          "teamName": "{bytes32} team's proposal data; could be a hash for a file  on IPFS or for a github link; not required"
        }
      },
      "reproveTeam(uint256)": {
        "details": "Should be overwritten on inherited contract to add modifier or require statements for access control.",
        "params": {
          "teamId": "{uint256} the ids of the teams to be reproved"
        }
      },
      "reproveTeams(uint256[])": {
        "details": "Should be overwritten on inherited contract to add modifier or require statements for access control.",
        "params": {
          "teamIds": "{uint256[]} an array containing the ids of the teams to be reproved"
        }
      },
      "submitEvaluation(uint256[],uint8[])": {
        "details": "The position of teamId and teamGrade must be the same in the array. For example, if teamId \"1\" is sent at {teamIds} array position \"5\" (zero-based), the grade for team \"1\" must be sent at position \"5\" in {teamGrades} array.",
        "params": {
          "teamGrades": "Array of the grades given by the judge for each team.",
          "teamIds": "Array of the ids associated with each team that is going to be evaluated."
        }
      },
      "updateProposalData(uint256,bytes32)": {
        "params": {
          "proposalData": "the updated data for the team's proposal",
          "teamId": "team's unique identifier; required"
        }
      }
    }
  },
  "userdoc": {
    "methods": {
      "approveTeam(uint256)": {
        "notice": "(re)approves a team in participating in the contest"
      },
      "closeEvaluation()": {
        "notice": "Closes the evaluation process"
      },
      "closeRegistration()": {
        "notice": "Closes the registration process"
      },
      "closeSubmission()": {
        "notice": "Closes the proposal submission process"
      },
      "getEvaluationStatus()": {
        "notice": "Gets the evaluation status"
      },
      "getRegistrationStatus()": {
        "notice": "Gets the registration status"
      },
      "getSubmissionStatus()": {
        "notice": "Gets the submission status"
      },
      "getTeam(uint256)": {
        "notice": "Returns the stored information of a team"
      },
      "getTeamByAddress(address)": {
        "notice": "Returns the stored information of a team, based on a provided address"
      },
      "getWinnersIds()": {
        "notice": "Gets the id of the winner teams."
      },
      "openEvaluation()": {
        "notice": "Opens the evaluation process"
      },
      "openRegistration()": {
        "notice": "Opens the registration process"
      },
      "openSubmission()": {
        "notice": "Opens the proposal submission process"
      },
      "publishRank()": {
        "notice": "Published the ranking results of the contest."
      },
      "registerTeam(bytes32,address,bytes32)": {
        "notice": "Registers a new team in the contest registry."
      },
      "reproveTeam(uint256)": {
        "notice": "reproves a team from participating in the contest"
      },
      "reproveTeams(uint256[])": {
        "notice": "reprove teams from participating in the contest"
      },
      "submitEvaluation(uint256[],uint8[])": {
        "notice": "Allows a judge to submit its evaluation for the teams competing in the contest. The evaluation for all teams must be submitted once."
      },
      "updateProposalData(uint256,bytes32)": {
        "notice": "Updates the proposal data for a specific team."
      }
    }
  }
}