{
  "contractName": "EternalStorage",
  "abi": [
    {
      "constant": true,
      "inputs": [
        {
          "name": "_key",
          "type": "bytes32"
        }
      ],
      "name": "getArrayAddress",
      "outputs": [
        {
          "name": "",
          "type": "address[]"
        }
      ],
      "payable": false,
      "stateMutability": "view",
      "type": "function"
    },
    {
      "constant": true,
      "inputs": [
        {
          "name": "_key",
          "type": "bytes32"
        }
      ],
      "name": "getArrayBytes32",
      "outputs": [
        {
          "name": "",
          "type": "bytes32[]"
        }
      ],
      "payable": false,
      "stateMutability": "view",
      "type": "function"
    },
    {
      "constant": true,
      "inputs": [
        {
          "name": "_key",
          "type": "bytes32"
        }
      ],
      "name": "getArrayUint",
      "outputs": [
        {
          "name": "",
          "type": "uint256[]"
        }
      ],
      "payable": false,
      "stateMutability": "view",
      "type": "function"
    },
    {
      "constant": true,
      "inputs": [
        {
          "name": "_variable",
          "type": "bytes32"
        }
      ],
      "name": "getUintValue",
      "outputs": [
        {
          "name": "",
          "type": "uint256"
        }
      ],
      "payable": false,
      "stateMutability": "view",
      "type": "function"
    },
    {
      "constant": true,
      "inputs": [
        {
          "name": "_variable",
          "type": "bytes32"
        }
      ],
      "name": "getBoolValue",
      "outputs": [
        {
          "name": "",
          "type": "bool"
        }
      ],
      "payable": false,
      "stateMutability": "view",
      "type": "function"
    },
    {
      "constant": true,
      "inputs": [
        {
          "name": "_variable",
          "type": "bytes32"
        }
      ],
      "name": "getStringValue",
      "outputs": [
        {
          "name": "",
          "type": "string"
        }
      ],
      "payable": false,
      "stateMutability": "view",
      "type": "function"
    },
    {
      "constant": true,
      "inputs": [
        {
          "name": "_variable",
          "type": "bytes32"
        }
      ],
      "name": "getAddressValue",
      "outputs": [
        {
          "name": "",
          "type": "address"
        }
      ],
      "payable": false,
      "stateMutability": "view",
      "type": "function"
    },
    {
      "constant": true,
      "inputs": [
        {
          "name": "_variable",
          "type": "bytes32"
        }
      ],
      "name": "getBytes32Value",
      "outputs": [
        {
          "name": "",
          "type": "bytes32"
        }
      ],
      "payable": false,
      "stateMutability": "view",
      "type": "function"
    },
    {
      "constant": true,
      "inputs": [
        {
          "name": "_variable",
          "type": "bytes32"
        }
      ],
      "name": "getBytesValue",
      "outputs": [
        {
          "name": "",
          "type": "bytes"
        }
      ],
      "payable": false,
      "stateMutability": "view",
      "type": "function"
    }
  ],
  "bytecode": "0x608060405234801561001057600080fd5b50610854806100206000396000f3fe608060405234801561001057600080fd5b50600436106100935760003560e01c80638ffa9690116100665780638ffa969014610272578063a209a29c146102b8578063a8f0d3a71461035f578063e82617fb146103e2578063f6fcbee11461042457610093565b8063025ec81a1461009857806344bfa56e146100da5780634c77e5ba146101815780636f3b8ce2146101ef575b600080fd5b6100c4600480360360208110156100ae57600080fd5b81019080803590602001909291905050506104a7565b6040518082815260200191505060405180910390f35b610106600480360360208110156100f057600080fd5b81019080803590602001909291905050506104c4565b6040518080602001828103825283818151815260200191508051906020019080838360005b8381101561014657808201518184015260208101905061012b565b50505050905090810190601f1680156101735780820380516001836020036101000a031916815260200191505b509250505060405180910390f35b6101ad6004803603602081101561019757600080fd5b8101908080359060200190929190505050610579565b604051808273ffffffffffffffffffffffffffffffffffffffff1673ffffffffffffffffffffffffffffffffffffffff16815260200191505060405180910390f35b61021b6004803603602081101561020557600080fd5b81019080803590602001909291905050506105b6565b6040518080602001828103825283818151815260200191508051906020019060200280838360005b8381101561025e578082015181840152602081019050610243565b505050509050019250505060405180910390f35b61029e6004803603602081101561028857600080fd5b8101908080359060200190929190505050610657565b604051808215151515815260200191505060405180910390f35b6102e4600480360360208110156102ce57600080fd5b8101908080359060200190929190505050610681565b6040518080602001828103825283818151815260200191508051906020019080838360005b83811015610324578082015181840152602081019050610309565b50505050905090810190601f1680156103515780820380516001836020036101000a031916815260200191505b509250505060405180910390f35b61038b6004803603602081101561037557600080fd5b8101908080359060200190929190505050610736565b6040518080602001828103825283818151815260200191508051906020019060200280838360005b838110156103ce5780820151818401526020810190506103b3565b505050509050019250505060405180910390f35b61040e600480360360208110156103f857600080fd5b81019080803590602001909291905050506107a1565b6040518082815260200191505060405180910390f35b6104506004803603602081101561043a57600080fd5b81019080803590602001909291905050506107bd565b6040518080602001828103825283818151815260200191508051906020019060200280838360005b83811015610493578082015181840152602081019050610478565b505050509050019250505060405180910390f35b600060066000838152602001908152602001600020549050919050565b6060600360008381526020019081526020016000208054600181600116156101000203166002900480601f01602080910402602001604051908101604052809291908181526020018280546001816001161561010002031660029004801561056d5780601f106105425761010080835404028352916020019161056d565b820191906000526020600020905b81548152906001019060200180831161055057829003601f168201915b50505050509050919050565b60006002600083815260200190815260200160002060009054906101000a900473ffffffffffffffffffffffffffffffffffffffff169050919050565b60606009600083815260200190815260200160002080548060200260200160405190810160405280929190818152602001828054801561064b57602002820191906000526020600020905b8160009054906101000a900473ffffffffffffffffffffffffffffffffffffffff1673ffffffffffffffffffffffffffffffffffffffff1681526020019060010190808311610601575b50505050509050919050565b60006004600083815260200190815260200160002060009054906101000a900460ff169050919050565b6060600160008381526020019081526020016000208054600181600116156101000203166002900480601f01602080910402602001604051908101604052809291908181526020018280546001816001161561010002031660029004801561072a5780601f106106ff5761010080835404028352916020019161072a565b820191906000526020600020905b81548152906001019060200180831161070d57829003601f168201915b50505050509050919050565b60606007600083815260200190815260200160002080548060200260200160405190810160405280929190818152602001828054801561079557602002820191906000526020600020905b815481526020019060010190808311610781575b50505050509050919050565b6000806000838152602001908152602001600020549050919050565b60606008600083815260200190815260200160002080548060200260200160405190810160405280929190818152602001828054801561081c57602002820191906000526020600020905b815481526020019060010190808311610808575b5050505050905091905056fea165627a7a72305820e21e6ccec762d1941ed9964e51484bf520e3fdc3223b11e2f05ba5e853a93f150029",
  "source": "// MIT License\n\n// Copyright (c) 2018 Polymath\n\n// Permission is hereby granted, free of charge, to any person obtaining a copy\n// of this software and associated documentation files (the \"Software\"), to deal\n// in the Software without restriction, including without limitation the rights\n// to use, copy, modify, merge, publish, distribute, sublicense, and/or sell\n// copies of the Software, and to permit persons to whom the Software is\n// furnished to do so, subject to the following conditions:\n\n// The above copyright notice and this permission notice shall be included in all\n// copies or substantial portions of the Software.\n\n// THE SOFTWARE IS PROVIDED \"AS IS\", WITHOUT WARRANTY OF ANY KIND, EXPRESS OR\n// IMPLIED, INCLUDING BUT NOT LIMITED TO THE WARRANTIES OF MERCHANTABILITY,\n// FITNESS FOR A PARTICULAR PURPOSE AND NONINFRINGEMENT. IN NO EVENT SHALL THE\n// AUTHORS OR COPYRIGHT HOLDERS BE LIABLE FOR ANY CLAIM, DAMAGES OR OTHER\n// LIABILITY, WHETHER IN AN ACTION OF CONTRACT, TORT OR OTHERWISE, ARISING FROM,\n// OUT OF OR IN CONNECTION WITH THE SOFTWARE OR THE USE OR OTHER DEALINGS IN THE\n// SOFTWARE.\n\n// Source: https://github.com/PolymathNetwork/polymath-core/blob/master/contracts/storage/EternalStorage.sol\n\npragma solidity ^0.5.0;\n\n/**\n * @notice Stores and retrieves state data. It allows other contracts to implement better\n * upgradability by separating the contract's logic from its state. If a bug is found, the\n * EternalStorage owner can update its logic without the need to migrate its data, which might\n * be really expensive.\n * @dev This contract was copied from PolymathNetwork github repo, and updated to Solidity v. ^0.5.0.\n */\ncontract EternalStorage {\n    /// @notice Internal mappings used to store all kinds on data into the contract\n    mapping(bytes32 => uint256) internal uintStorage;\n    mapping(bytes32 => string) internal stringStorage;\n    mapping(bytes32 => address) internal addressStorage;\n    mapping(bytes32 => bytes) internal bytesStorage;\n    mapping(bytes32 => bool) internal boolStorage;\n    mapping(bytes32 => int256) internal intStorage;\n    mapping(bytes32 => bytes32) internal bytes32Storage;\n\n    /// @notice Internal mappings used to store arrays of different data types\n    mapping(bytes32 => bytes32[]) internal bytes32ArrayStorage;\n    mapping(bytes32 => uint256[]) internal uintArrayStorage;\n    mapping(bytes32 => address[]) internal addressArrayStorage;\n    mapping(bytes32 => string[]) internal stringArrayStorage;\n\n    //////////////////\n    //// set functions\n    //////////////////\n    /// @notice Set the key values using the Overloaded `set` functions\n    /// Ex- string version = \"0.0.1\"; replace to\n    /// set(keccak256(abi.encodePacked(\"version\"), \"0.0.1\");\n    /// same for the other variables as well some more example listed below\n    /// ex1 - address securityTokenAddress = 0x123; replace to\n    /// set(keccak256(abi.encodePacked(\"securityTokenAddress\"), 0x123);\n    /// ex2 - bytes32 tokenDetails = \"I am ST20\"; replace to\n    /// set(keccak256(abi.encodePacked(\"tokenDetails\"), \"I am ST20\");\n    /// ex3 - mapping(string => address) ownedToken;\n    /// set(keccak256(abi.encodePacked(\"ownedToken\", \"Chris\")), 0x123);\n    /// ex4 - mapping(string => uint) tokenIndex;\n    /// tokenIndex[\"TOKEN\"] = 1; replace to set(keccak256(abi.encodePacked(\"tokenIndex\", \"TOKEN\"), 1);\n    /// ex5 - mapping(string => SymbolDetails) registeredSymbols; where SymbolDetails is the structure having different type of values as\n    /// {uint256 date, string name, address owner} etc.\n    /// registeredSymbols[\"TOKEN\"].name = \"MyFristToken\"; replace to set(keccak256(abi.encodePacked(\"registeredSymbols_name\", \"TOKEN\"), \"MyFirstToken\");\n    /// More generalized- set(keccak256(abi.encodePacked(\"registeredSymbols_<struct variable>\", \"keyname\"), \"value\");\n\n    function set(bytes32 _key, uint256 _value) internal {\n        uintStorage[_key] = _value;\n    }\n\n    function set(bytes32 _key, address _value) internal {\n        addressStorage[_key] = _value;\n    }\n\n    function set(bytes32 _key, bool _value) internal {\n        boolStorage[_key] = _value;\n    }\n\n    function set(bytes32 _key, bytes32 _value) internal {\n        bytes32Storage[_key] = _value;\n    }\n\n    function set(bytes32 _key, string memory _value) internal {\n        stringStorage[_key] = _value;\n    }\n\n    ////////////////////////////\n    // deleteArray functions\n    ////////////////////////////\n    /// @notice Function used to delete the array element.\n    /// Ex1- mapping(address => bytes32[]) tokensOwnedByOwner;\n    /// For deleting the item from array developers needs to create a funtion for that similarly\n    /// in this case we have the helper function deleteArrayBytes32() which will do it for us\n    /// deleteArrayBytes32(keccak256(abi.encodePacked(\"tokensOwnedByOwner\", 0x1), 3); -- it will delete the index 3\n\n    //Deletes from mapping (bytes32 => array[]) at index _index\n    function deleteArrayAddress(bytes32 _key, uint256 _index) internal {\n        address[] storage array = addressArrayStorage[_key];\n        require(_index < array.length, \"Index should less than length of the array\");\n        array[_index] = array[array.length - 1];\n        array.length = array.length - 1;\n    }\n\n    //Deletes from mapping (bytes32 => bytes32[]) at index _index\n    function deleteArrayBytes32(bytes32 _key, uint256 _index) internal {\n        bytes32[] storage array = bytes32ArrayStorage[_key];\n        require(_index < array.length, \"Index should less than length of the array\");\n        array[_index] = array[array.length - 1];\n        array.length = array.length - 1;\n    }\n\n    //Deletes from mapping (bytes32 => uint[]) at index _index\n    function deleteArrayUint(bytes32 _key, uint256 _index) internal {\n        uint256[] storage array = uintArrayStorage[_key];\n        require(_index < array.length, \"Index should less than length of the array\");\n        array[_index] = array[array.length - 1];\n        array.length = array.length - 1;\n    }\n\n    //Deletes from mapping (bytes32 => string[]) at index _index\n    function deleteArrayString(bytes32 _key, uint256 _index) internal {\n        string[] storage array = stringArrayStorage[_key];\n        require(_index < array.length, \"Index should less than length of the array\");\n        array[_index] = array[array.length - 1];\n        array.length = array.length - 1;\n    }\n\n    ////////////////////////////\n    //// pushArray functions\n    ///////////////////////////\n    /// @notice Below are the helper functions to facilitate storing arrays of different data types.\n    /// Ex1- mapping(address => bytes32[]) tokensOwnedByTicker;\n    /// tokensOwnedByTicker[owner] = tokensOwnedByTicker[owner].push(\"xyz\"); replace with\n    /// pushArray(keccak256(abi.encodePacked(\"tokensOwnedByTicker\", owner), \"xyz\");\n\n    /// @notice use to store the values for the array\n    /// @param _key bytes32 type\n    /// @param _value [uint256, string, bytes32, address] any of the data type in array\n    function pushArray(bytes32 _key, address _value) internal {\n        addressArrayStorage[_key].push(_value);\n    }\n\n    function pushArray(bytes32 _key, bytes32 _value) internal {\n        bytes32ArrayStorage[_key].push(_value);\n    }\n\n    function pushArray(bytes32 _key, string memory _value) internal {\n        stringArrayStorage[_key].push(_value);\n    }\n\n    function pushArray(bytes32 _key, uint256 _value) internal {\n        uintArrayStorage[_key].push(_value);\n    }\n\n    /////////////////////////\n    //// Set Array functions\n    ////////////////////////\n    /// @notice used to intialize the array\n    /// Ex1- mapping (address => address[]) public reputation;\n    /// reputation[0x1] = new address[](0); It can be replaced as\n    /// setArray(hash('reputation', 0x1), new address[](0));\n\n    function setArray(bytes32 _key, address[] memory _value) internal {\n        addressArrayStorage[_key] = _value;\n    }\n\n    function setArray(bytes32 _key, uint256[] memory _value) internal {\n        uintArrayStorage[_key] = _value;\n    }\n\n    function setArray(bytes32 _key, bytes32[] memory _value) internal {\n        bytes32ArrayStorage[_key] = _value;\n    }\n\n    function setArray(bytes32 _key, string[] memory _value) internal {\n        stringArrayStorage[_key] = _value;\n    }\n\n    /////////////////////////\n    /// getArray functions\n    /////////////////////////\n    /// @notice Get functions to get the array of the required data type\n    /// Ex1- mapping(address => bytes32[]) tokensOwnedByOwner;\n    /// getArrayBytes32(keccak256(abi.encodePacked(\"tokensOwnedByOwner\", 0x1)); It return the bytes32 array\n    /// Ex2- uint256 _len =  tokensOwnedByOwner[0x1].length; replace with\n    /// getArrayBytes32(keccak256(abi.encodePacked(\"tokensOwnedByOwner\", 0x1)).length;\n\n    function getArrayAddress(bytes32 _key) public view returns (address[] memory) {\n        return addressArrayStorage[_key];\n    }\n\n    function getArrayBytes32(bytes32 _key) public view returns (bytes32[] memory) {\n        return bytes32ArrayStorage[_key];\n    }\n\n    function getArrayUint(bytes32 _key) public view returns (uint256[] memory) {\n        return uintArrayStorage[_key];\n    }\n\n    ///////////////////////////////////\n    /// setArrayIndexValue() functions\n    ///////////////////////////////////\n    /// @notice set the value of particular index of the address array\n    /// Ex1- mapping(bytes32 => address[]) moduleList;\n    /// general way is -- moduleList[moduleType][index] = temp;\n    /// It can be re-write as -- setArrayIndexValue(keccak256(abi.encodePacked('moduleList', moduleType)), index, temp);\n\n    function setArrayIndexValue(bytes32 _key, uint256 _index, address _value) internal {\n        addressArrayStorage[_key][_index] = _value;\n    }\n\n    function setArrayIndexValue(bytes32 _key, uint256 _index, uint256 _value) internal {\n        uintArrayStorage[_key][_index] = _value;\n    }\n\n    function setArrayIndexValue(bytes32 _key, uint256 _index, bytes32 _value) internal {\n        bytes32ArrayStorage[_key][_index] = _value;\n    }\n\n    function setArrayIndexValue(bytes32 _key, uint256 _index, string memory _value) internal {\n        stringArrayStorage[_key][_index] = _value;\n    }\n\n    /// Public getters functions\n    ////////////////////\n    /// @notice Get function use to get the value of the singleton state variables\n    /// Ex1- string public version = \"0.0.1\";\n    /// string _version = getString(keccak256(abi.encodePacked(\"version\"));\n    /// Ex2 - assert(temp1 == temp2); replace to\n    /// assert(getUint(keccak256(abi.encodePacked(temp1)) == getUint(keccak256(abi.encodePacked(temp2));\n    /// Ex3 - mapping(string => SymbolDetails) registeredSymbols; where SymbolDetails is the structure having different type of values as\n    /// {uint256 date, string name, address owner} etc.\n    /// string _name = getString(keccak256(abi.encodePacked(\"registeredSymbols_name\", \"TOKEN\"));\n\n    function getUintValue(bytes32 _variable) public view returns (uint256) {\n        return uintStorage[_variable];\n    }\n\n    function getBoolValue(bytes32 _variable) public view returns (bool) {\n        return boolStorage[_variable];\n    }\n\n    function getStringValue(bytes32 _variable) public view returns (string memory) {\n        return stringStorage[_variable];\n    }\n\n    function getAddressValue(bytes32 _variable) public view returns (address) {\n        return addressStorage[_variable];\n    }\n\n    function getBytes32Value(bytes32 _variable) public view returns (bytes32) {\n        return bytes32Storage[_variable];\n    }\n\n    function getBytesValue(bytes32 _variable) public view returns (bytes memory) {\n        return bytesStorage[_variable];\n    }\n\n}\n",
  "sourcePath": "/home/odisi/dev/projects/hackapay/contracts/storage/EternalStorage.sol",
  "compiler": {
    "name": "solc",
    "version": "0.5.8+commit.23d335f2.Emscripten.clang"
  },
  "schemaVersion": "3.0.11",
  "updatedAt": "2019-07-29T15:59:47.410Z",
  "devdoc": {
    "details": "This contract was copied from PolymathNetwork github repo, and updated to Solidity v. ^0.5.0.",
    "methods": {}
  },
  "userdoc": {
    "methods": {
      "getArrayAddress(bytes32)": {
        "notice": "////////////////////// getArray functions //////////////////////Get functions to get the array of the required data type Ex1- mapping(address => bytes32[]) tokensOwnedByOwner; getArrayBytes32(keccak256(abi.encodePacked(\"tokensOwnedByOwner\", 0x1)); It return the bytes32 array Ex2- uint256 _len =  tokensOwnedByOwner[0x1].length; replace with getArrayBytes32(keccak256(abi.encodePacked(\"tokensOwnedByOwner\", 0x1)).length;"
      },
      "getUintValue(bytes32)": {
        "notice": "Public getters functions /////////////////Get function use to get the value of the singleton state variables Ex1- string public version = \"0.0.1\"; string _version = getString(keccak256(abi.encodePacked(\"version\")); Ex2 - assert(temp1 == temp2); replace to assert(getUint(keccak256(abi.encodePacked(temp1)) == getUint(keccak256(abi.encodePacked(temp2)); Ex3 - mapping(string => SymbolDetails) registeredSymbols; where SymbolDetails is the structure having different type of values as {uint256 date, string name, address owner} etc. string _name = getString(keccak256(abi.encodePacked(\"registeredSymbols_name\", \"TOKEN\"));"
      }
    },
    "notice": "Stores and retrieves state data. It allows other contracts to implement better upgradability by separating the contract's logic from its state. If a bug is found, the EternalStorage owner can update its logic without the need to migrate its data, which might be really expensive."
  }
}