{
  "contractName": "Hackathon",
  "abi": [
    {
      "constant": true,
      "inputs": [],
      "name": "name",
      "outputs": [
        {
          "name": "",
          "type": "bytes32"
        }
      ],
      "payable": false,
      "stateMutability": "view",
      "type": "function"
    },
    {
      "constant": true,
      "inputs": [
        {
          "name": "account",
          "type": "address"
        }
      ],
      "name": "isOrganizer",
      "outputs": [
        {
          "name": "",
          "type": "bool"
        }
      ],
      "payable": false,
      "stateMutability": "view",
      "type": "function"
    },
    {
      "constant": false,
      "inputs": [],
      "name": "renounceOrganizer",
      "outputs": [],
      "payable": false,
      "stateMutability": "nonpayable",
      "type": "function"
    },
    {
      "constant": true,
      "inputs": [],
      "name": "description",
      "outputs": [
        {
          "name": "",
          "type": "bytes32"
        }
      ],
      "payable": false,
      "stateMutability": "view",
      "type": "function"
    },
    {
      "constant": true,
      "inputs": [],
      "name": "id",
      "outputs": [
        {
          "name": "",
          "type": "uint256"
        }
      ],
      "payable": false,
      "stateMutability": "view",
      "type": "function"
    },
    {
      "constant": false,
      "inputs": [
        {
          "name": "account",
          "type": "address"
        }
      ],
      "name": "addOrganizer",
      "outputs": [],
      "payable": false,
      "stateMutability": "nonpayable",
      "type": "function"
    },
    {
      "inputs": [
        {
          "name": "_id",
          "type": "uint256"
        },
        {
          "name": "_name",
          "type": "bytes32"
        },
        {
          "name": "_description",
          "type": "bytes32"
        }
      ],
      "payable": false,
      "stateMutability": "nonpayable",
      "type": "constructor"
    },
    {
      "anonymous": false,
      "inputs": [
        {
          "indexed": true,
          "name": "account",
          "type": "address"
        }
      ],
      "name": "OrganizerAdded",
      "type": "event"
    },
    {
      "anonymous": false,
      "inputs": [
        {
          "indexed": true,
          "name": "account",
          "type": "address"
        }
      ],
      "name": "OrganizerRemoved",
      "type": "event"
    }
  ],
  "bytecode": "0x608060405234801561001057600080fd5b506040516060806109238339810180604052606081101561003057600080fd5b81019080805190602001909291908051906020019092919080519060200190929190505050610064336100fa60201b60201c565b600060025414156100dd576040517f08c379a000000000000000000000000000000000000000000000000000000000815260040180806020018281038252600c8152602001807f496e76616c6964206e616d65000000000000000000000000000000000000000081525060200191505060405180910390fd5b826001819055508160028190555080600381905550505050610317565b61011281600061015860201b61045e1790919060201c565b8073ffffffffffffffffffffffffffffffffffffffff167f37e96fc6762bae414e69ea6e2490e63bc46f2a1335de0f6b91f49cf808829bcf60405160405180910390a250565b610168828261023960201b60201c565b156101db576040517f08c379a000000000000000000000000000000000000000000000000000000000815260040180806020018281038252601f8152602001807f526f6c65733a206163636f756e7420616c72656164792068617320726f6c650081525060200191505060405180910390fd5b60018260000160008373ffffffffffffffffffffffffffffffffffffffff1673ffffffffffffffffffffffffffffffffffffffff16815260200190815260200160002060006101000a81548160ff0219169083151502179055505050565b60008073ffffffffffffffffffffffffffffffffffffffff168273ffffffffffffffffffffffffffffffffffffffff1614156102c0576040517f08c379a00000000000000000000000000000000000000000000000000000000081526004018080602001828103825260228152602001806109016022913960400191505060405180910390fd5b8260000160008373ffffffffffffffffffffffffffffffffffffffff1673ffffffffffffffffffffffffffffffffffffffff16815260200190815260200160002060009054906101000a900460ff16905092915050565b6105db806103266000396000f3fe608060405234801561001057600080fd5b50600436106100625760003560e01c806306fdde031461006757806341676f1514610085578063567ad862146100e15780637284e416146100eb578063af640d0f14610109578063e4725f0214610127575b600080fd5b61006f61016b565b6040518082815260200191505060405180910390f35b6100c76004803603602081101561009b57600080fd5b81019080803573ffffffffffffffffffffffffffffffffffffffff169060200190929190505050610171565b604051808215151515815260200191505060405180910390f35b6100e961018e565b005b6100f3610199565b6040518082815260200191505060405180910390f35b61011161019f565b6040518082815260200191505060405180910390f35b6101696004803603602081101561013d57600080fd5b81019080803573ffffffffffffffffffffffffffffffffffffffff1690602001909291905050506101a5565b005b60025481565b600061018782600061020f90919063ffffffff16565b9050919050565b610197336102ed565b565b60035481565b60015481565b6101ae33610171565b610203576040517f08c379a000000000000000000000000000000000000000000000000000000000815260040180806020018281038252603381526020018061053a6033913960400191505060405180910390fd5b61020c81610347565b50565b60008073ffffffffffffffffffffffffffffffffffffffff168273ffffffffffffffffffffffffffffffffffffffff161415610296576040517f08c379a000000000000000000000000000000000000000000000000000000000815260040180806020018281038252602281526020018061058e6022913960400191505060405180910390fd5b8260000160008373ffffffffffffffffffffffffffffffffffffffff1673ffffffffffffffffffffffffffffffffffffffff16815260200190815260200160002060009054906101000a900460ff16905092915050565b6103018160006103a190919063ffffffff16565b8073ffffffffffffffffffffffffffffffffffffffff167fc459bd414676a5877fcf10a0d73ecf7e1f672a339650b03e628c4046534300e360405160405180910390a250565b61035b81600061045e90919063ffffffff16565b8073ffffffffffffffffffffffffffffffffffffffff167f37e96fc6762bae414e69ea6e2490e63bc46f2a1335de0f6b91f49cf808829bcf60405160405180910390a250565b6103ab828261020f565b610400576040517f08c379a000000000000000000000000000000000000000000000000000000000815260040180806020018281038252602181526020018061056d6021913960400191505060405180910390fd5b60008260000160008373ffffffffffffffffffffffffffffffffffffffff1673ffffffffffffffffffffffffffffffffffffffff16815260200190815260200160002060006101000a81548160ff0219169083151502179055505050565b610468828261020f565b156104db576040517f08c379a000000000000000000000000000000000000000000000000000000000815260040180806020018281038252601f8152602001807f526f6c65733a206163636f756e7420616c72656164792068617320726f6c650081525060200191505060405180910390fd5b60018260000160008373ffffffffffffffffffffffffffffffffffffffff1673ffffffffffffffffffffffffffffffffffffffff16815260200190815260200160002060006101000a81548160ff021916908315150217905550505056fe4f7267616e697a6572526f6c653a2063616c6c657220646f6573206e6f742068617665204f7267616e697a657220526f6c652e526f6c65733a206163636f756e7420646f6573206e6f74206861766520726f6c65526f6c65733a206163636f756e7420697320746865207a65726f2061646472657373a165627a7a72305820b2f96ca4dc78247c0e99a8de84ee1a5f7f636bfe9903051dd6db462f1ea7a62c0029526f6c65733a206163636f756e7420697320746865207a65726f2061646472657373",
  "source": "pragma solidity ^0.5.0;\n\nimport \"../roles/OrganizerRole.sol\";\n\ncontract Hackathon is OrganizerRole {\n    uint256 public id;\n    bytes32 public name;\n    bytes32 public description;\n\n    constructor(uint256 _id, bytes32 _name, bytes32 _description) public {\n        require(name != \"\", \"Invalid name\");\n        id = _id;\n        name = _name;\n        description = _description;\n    }\n\n    // TODO: Add judges\n\n}\n",
  "sourcePath": "/home/odisi/dev/projects/hackapay/contracts/core/Hackathon.sol",
  "compiler": {
    "name": "solc",
    "version": "0.5.8+commit.23d335f2.Emscripten.clang"
  },
  "schemaVersion": "3.0.11",
  "updatedAt": "2019-07-21T06:26:29.425Z",
  "devdoc": {
    "methods": {}
  },
  "userdoc": {
    "methods": {}
  }
}