{
  "contractName": "HackathonFactory",
  "abi": [
    {
      "anonymous": false,
      "inputs": [
        {
          "indexed": false,
          "internalType": "uint256",
          "name": "id",
          "type": "uint256"
        },
        {
          "indexed": false,
          "internalType": "bytes32",
          "name": "name",
          "type": "bytes32"
        },
        {
          "indexed": false,
          "internalType": "bytes32",
          "name": "description",
          "type": "bytes32"
        },
        {
          "indexed": false,
          "internalType": "address",
          "name": "contractAddress",
          "type": "address"
        },
        {
          "indexed": false,
          "internalType": "address",
          "name": "creator",
          "type": "address"
        }
      ],
      "name": "NewHackathonContract",
      "type": "event"
    },
    {
      "inputs": [
        {
          "internalType": "bytes32",
          "name": "name",
          "type": "bytes32"
        },
        {
          "internalType": "bytes32",
          "name": "description",
          "type": "bytes32"
        }
      ],
      "name": "createHackathonContract",
      "outputs": [
        {
          "internalType": "address",
          "name": "",
          "type": "address"
        }
      ],
      "stateMutability": "payable",
      "type": "function"
    },
    {
      "inputs": [],
      "name": "getDeployedHackathonContracts",
      "outputs": [
        {
          "internalType": "address[]",
          "name": "",
          "type": "address[]"
        }
      ],
      "stateMutability": "view",
      "type": "function"
    },
    {
      "inputs": [
        {
          "internalType": "uint256",
          "name": "id",
          "type": "uint256"
        }
      ],
      "name": "getHackathonContractById",
      "outputs": [
        {
          "internalType": "address",
          "name": "",
          "type": "address"
        }
      ],
      "stateMutability": "view",
      "type": "function"
    },
    {
      "inputs": [
        {
          "internalType": "bytes32",
          "name": "name",
          "type": "bytes32"
        }
      ],
      "name": "getHackathonContractByName",
      "outputs": [
        {
          "internalType": "address",
          "name": "",
          "type": "address"
        }
      ],
      "stateMutability": "view",
      "type": "function"
    }
  ],
  "bytecode": "0x608060405234801561001057600080fd5b506139c0806100206000396000f3fe60806040526004361061003f5760003560e01c80632208d92a1461004457806334ab94841461008a578063a3ea17e6146100b4578063bc00a209146100d7575b600080fd5b34801561005057600080fd5b5061006e6004803603602081101561006757600080fd5b503561013c565b604080516001600160a01b039092168252519081900360200190f35b34801561009657600080fd5b5061006e600480360360208110156100ad57600080fd5b5035610173565b61006e600480360360408110156100ca57600080fd5b50803590602001356101f4565b3480156100e357600080fd5b506100ec6103db565b60408051602080825283518183015283519192839290830191858101910280838360005b83811015610128578181015183820152602001610110565b505050509050019250505060405180910390f35b60008054821061014b57600080fd5b6000828154811061015857fe5b6000918252602090912001546001600160a01b031692915050565b60008180821a60f81b6001600160f81b0319166101d7576040805162461bcd60e51b815260206004820152601e60248201527f4861636b6174686f6e206e616d652063616e6e6f7420626520656d7074790000604482015290519081900360640190fd5b50506000908152600160205260409020546001600160a01b031690565b60008280821a60f81b6001600160f81b031916610258576040805162461bcd60e51b815260206004820152601e60248201527f4861636b6174686f6e206e616d652063616e6e6f7420626520656d7074790000604482015290519081900360640190fd5b60008481526001602052604090205484906001600160a01b0316156102c4576040805162461bcd60e51b815260206004820152601d60248201527f4861636b6174686f6e206e616d6520616c726561647920696e20757365000000604482015290519081900360640190fd5b6000808054905090506000818787336040516102df9061043d565b93845260208401929092526040808401919091526001600160a01b0390911660608301525190819003608001906000f080158015610321573d6000803e3d6000fd5b5060008054600181810183557f290decd9548b62a8d60345a988386fc84ba6bc95484008f6362f93160ef3e56390910180546001600160a01b0385166001600160a01b031991821681179092558b8452602092835260409384902080549091168217905582518681529182018b90528183018a9052606082015233608082015290519192507f6456da3468764771670b34d5c07edeb48ba5e503c11b72833a8f90a1fda1e52b919081900360a00190a19695505050505050565b6060600080548060200260200160405190810160405280929190818152602001828054801561043357602002820191906000526020600020905b81546001600160a01b03168152600190910190602001808311610415575b5050505050905090565b6135408061044b8339019056fe60806040523480156200001157600080fd5b506040516200354038038062003540833981810160405260808110156200003757600080fd5b50805160208201516040830151606090930151919290918080806001600160a01b038116620000ad576040805162461bcd60e51b815260206004820152601460248201527f496e76616c6964207a65726f2061646472657373000000000000000000000000604482015290519081900360640190fd5b620000b88162000144565b50849150600090501a60f81b7fff000000000000000000000000000000000000000000000000000000000000001662000127576040805162461bcd60e51b815260206004820152600c60248201526b496e76616c6964206e616d6560a01b604482015290519081900360640190fd5b50602292909255602355602455602b805460ff191690556200037f565b6200015a81620001de60201b620023241760201c565b6009805460018082019092557f6e1540171b6c0c960b71a7020d9f60077f6af931a8bbf590da0223dacf75c7af0180546001600160a01b0319166001600160a01b0384169081179091556000908152600b60209081526040909120805460ff191683179055600a54620001d892909162000230811b6200236617901c565b600a5550565b620001f98160046200029260201b620023c71790919060201c565b6040516001600160a01b038216907f37e96fc6762bae414e69ea6e2490e63bc46f2a1335de0f6b91f49cf808829bcf90600090a250565b6000828201838110156200028b576040805162461bcd60e51b815260206004820152601b60248201527f536166654d6174683a206164646974696f6e206f766572666c6f770000000000604482015290519081900360640190fd5b9392505050565b6200029e828262000316565b15620002f1576040805162461bcd60e51b815260206004820152601f60248201527f526f6c65733a206163636f756e7420616c72656164792068617320726f6c6500604482015290519081900360640190fd5b6001600160a01b0316600090815260209190915260409020805460ff19166001179055565b60006001600160a01b0382166200035f5760405162461bcd60e51b81526004018080602001828103825260228152602001806200351e6022913960400191505060405180910390fd5b506001600160a01b03166000908152602091909152604090205460ff1690565b61318f806200038f6000396000f3fe6080604052600436106101ed5760003560e01c80637dc673bc1161010d578063d06e4ee7116100a0578063eaf2f9cd1161006f578063eaf2f9cd14610728578063ed896d6614610758578063f540548b1461078b578063f59ec3f9146107b5578063ffc6ff1e146107eb576101ed565b8063d06e4ee7146106c3578063d0e30db0146106d8578063e35fb241146106e0578063e4725f02146106f5576101ed565b8063ae237c77116100dc578063ae237c7714610651578063ae2ac4ae14610666578063af640d0f14610699578063b2a13f92146106ae576101ed565b80637dc673bc146105df57806390d768e4146105f4578063927cab4714610609578063a2bce8bd1461063c576101ed565b80634b30b66f1161018557806358e2f50e1161015457806358e2f50e146105435780637284e41614610558578063737a63401461056d5780637385712c146105a0576101ed565b80634b30b66f146104d15780634ea701a8146104e657806354e1db2b14610519578063567ad8621461052e576101ed565b8063288c4a46116101c1578063288c4a46146102d75780633e091f64146103545780633ed2b77a1461042357806341676f151461048a576101ed565b80628e0f1b146101f257806306fdde031461025157806311dc45c91461027857806324ba9fab146102ad575b600080fd5b3480156101fe57600080fd5b5061021c6004803603602081101561021557600080fd5b5035610800565b604080519586526001600160a01b03909416602086015284840192909252151560608401526080830152519081900360a00190f35b34801561025d57600080fd5b506102666108e4565b60408051918252519081900360200190f35b34801561028457600080fd5b506102ab6004803603602081101561029b57600080fd5b50356001600160a01b03166108ea565b005b3480156102b957600080fd5b506102ab600480360360208110156102d057600080fd5b5035610cf8565b3480156102e357600080fd5b506102ab600480360360208110156102fa57600080fd5b81019060208101813564010000000081111561031557600080fd5b82018360208201111561032757600080fd5b8035906020019184602083028401116401000000008311171561034957600080fd5b509092509050610d04565b34801561036057600080fd5b506102ab6004803603604081101561037757600080fd5b81019060208101813564010000000081111561039257600080fd5b8201836020820111156103a457600080fd5b803590602001918460208302840111640100000000831117156103c657600080fd5b9193909290916020810190356401000000008111156103e457600080fd5b8201836020820111156103f657600080fd5b8035906020019184602083028401116401000000008311171561041857600080fd5b509092509050610d44565b34801561042f57600080fd5b5061044d6004803603602081101561044657600080fd5b50356110d3565b6040805196875260208701959095526001600160a01b039093168585015260608501919091521515608084015260a0830152519081900360c00190f35b34801561049657600080fd5b506104bd600480360360208110156104ad57600080fd5b50356001600160a01b0316611129565b604080519115158252519081900360200190f35b3480156104dd57600080fd5b506102ab61113e565b3480156104f257600080fd5b5061021c6004803603602081101561050957600080fd5b50356001600160a01b0316611149565b34801561052557600080fd5b506104bd61121a565b34801561053a57600080fd5b506102ab611228565b34801561054f57600080fd5b506102ab611231565b34801561056457600080fd5b506102666112cf565b34801561057957600080fd5b506105826112d5565b60408051938452602084019290925282820152519081900360600190f35b3480156105ac57600080fd5b50610266600480360360608110156105c357600080fd5b508035906001600160a01b0360208201351690604001356112e3565b3480156105eb57600080fd5b506102ab6116b0565b34801561060057600080fd5b506102ab61174c565b34801561061557600080fd5b506102ab6004803603602081101561062c57600080fd5b50356001600160a01b0316611c12565b34801561064857600080fd5b506104bd611c5f565b34801561065d57600080fd5b506102ab611c68565b34801561067257600080fd5b506102ab6004803603602081101561068957600080fd5b50356001600160a01b0316611d02565b3480156106a557600080fd5b50610266611d4f565b3480156106ba57600080fd5b506102ab611d55565b3480156106cf57600080fd5b506102ab611dee565b6102ab611e89565b3480156106ec57600080fd5b506104bd611f01565b34801561070157600080fd5b506102ab6004803603602081101561071857600080fd5b50356001600160a01b0316611f0a565b34801561073457600080fd5b506102ab6004803603604081101561074b57600080fd5b5080359060200135611f57565b34801561076457600080fd5b506104bd6004803603602081101561077b57600080fd5b50356001600160a01b03166120c3565b34801561079757600080fd5b506102ab600480360360208110156107ae57600080fd5b50356120d0565b3480156107c157600080fd5b506102ab600480360360608110156107d857600080fd5b50803590602081013590604001356120d9565b3480156107f757600080fd5b506102ab612285565b60008060008060008561081281612448565b610855576040805162461bcd60e51b815260206004820152600f60248201526e125b9d985b1a59081d19585b481a59608a1b604482015290519081900360640190fd5b60006001888154811061086457fe5b60009182526020918290206040805160c08101825260069390930290910180548352600181015493830184905260028101546001600160a01b0316918301829052600381015460608401819052600482015460ff1615156080850181905260059092015460a0909401849052939c919b5092995091975095509350505050565b60235481565b60215460ff1661093a576040805162461bcd60e51b815260206004820152601660248201527514985b9ac81b9bdd081c1d589b1a5cda1959081e595d60521b604482015290519081900360640190fd5b602b5460ff16610991576040805162461bcd60e51b815260206004820152601860248201527f5072697a6573206e6f7420616c6c6f6361746564207965740000000000000000604482015290519081900360640190fd5b806001600160a01b0381166109e4576040805162461bcd60e51b8152602060048201526014602482015273496e76616c6964207a65726f206164647265737360601b604482015290519081900360640190fd5b6001600160a01b038116301415610a2c5760405162461bcd60e51b8152600401808060200182810382526032815260200180612fba6032913960400191505060405180910390fd5b81610a368161244f565b610a87576040805162461bcd60e51b815260206004820152601f60248201527f4163636f756e742061646472657373206973206e6f7420612077696e6e657200604482015290519081900360640190fd5b601154600090819081906001600160a01b0387811691161415610b115750506011546025546026546001600160a01b0390921692509060019060ff1615610aff5760405162461bcd60e51b815260040180806020018281038252602281526020018061302f6022913960400191505060405180910390fd5b6026805460ff19166001179055610c4e565b6017546001600160a01b0387811691161415610b945750506017546027546028546001600160a01b0390921692509060029060ff1615610b825760405162461bcd60e51b81526004018080602001828103825260238152602001806131376023913960400191505060405180910390fd5b6028805460ff19166001179055610c4e565b601d546001600160a01b0387811691161415610c17575050601d54602954602a546001600160a01b0390921692509060039060ff1615610c055760405162461bcd60e51b81526004018080602001828103825260228152602001806130906022913960400191505060405180910390fd5b602a805460ff19166001179055610c4e565b60405162461bcd60e51b8152600401808060200182810382526043815260200180612fec6043913960600191505060405180910390fd5b6040805183815260ff831660208201524281830152905133916001600160a01b038616917f24cc64e111181860a0e50314e2717d8d86bc21fb600e5681040e47cd5eab7f079181900360600190a3826001600160a01b031663d0e30db0836040518263ffffffff1660e01b81526004016000604051808303818588803b158015610cd757600080fd5b505af1158015610ceb573d6000803e3d6000fd5b5050505050505050505050565b610d0181612496565b50565b610d408282808060200260200160405190810160405280939291908181526020018383602002808284376000920191909152506125d292505050565b5050565b600e5460ff16610d92576040805162461bcd60e51b8152602060048201526014602482015273115d985b1d585d1a5bdb881a5cc818db1bdcd95960621b604482015290519081900360640190fd5b610d9b336120c3565b610dd65760405162461bcd60e51b815260040180806020018281038252602b815260200180612f3b602b913960400191505060405180910390fd5b828114610e145760405162461bcd60e51b81526004018080602001828103825260338152602001806130b26033913960400191505060405180910390fd5b6002548314610e545760405162461bcd60e51b815260040180806020018281038252603f815260200180613051603f913960400191505060405180910390fd5b600060025411610eab576040805162461bcd60e51b815260206004820152601d60248201527f4e6f20617070726f766564207465616d7320746f206576616c75617465000000604482015290519081900360640190fd5b336000908152600d602052604090206001810154600160a81b900460ff1615610f055760405162461bcd60e51b8152600401808060200182810382526022815260200180612f196022913960400191505060405180910390fd5b60005b600254811015611073576000868683818110610f2057fe5b9050602002013590506000858584818110610f3757fe5b9050602002013560ff169050610f4c82612448565b610f8f576040805162461bcd60e51b815260206004820152600f60248201526e125b9d985b1a59081d19585b481a59608a1b604482015290519081900360640190fd5b610f9882612602565b610fe0576040805162461bcd60e51b81526020600482015260146024820152731519585b481a5cc81b9bdd08185c1c1c9bdd995960621b604482015290519081900360640190fd5b610fe981612696565b61102a576040805162461bcd60e51b815260206004820152600d60248201526c496e76616c696420677261646560981b604482015290519081900360640190fd5b60006001838154811061103957fe5b906000526020600020906006020190506110638260ff16826005015461236690919063ffffffff16565b6005909101555050600101610f08565b5060018101805460ff60a81b1916600160a81b17908190558154604080516001600160a01b0390931683525190917fd62869bbd78965284c34750092d78b62093e2d02b730d0ce696ebdcb371bb5dc919081900360200190a25050505050565b600181815481106110e357600080fd5b600091825260209091206006909102018054600182015460028301546003840154600485015460059095015493955091936001600160a01b039091169260ff9091169086565b60006111366004836126a2565b90505b919050565b61114733612709565b565b6000808080806001600160a01b0386166111a1576040805162461bcd60e51b8152602060048201526014602482015273496e76616c6964207a65726f206164647265737360601b604482015290519081900360640190fd5b505050506001600160a01b0391821660009081526020818152604091829020825160c0810184528154815260018201549281018390526002820154909516928501839052600381015460608601819052600482015460ff1615156080870181905260059092015460a09096018690529195929491935091565b600354610100900460ff1690565b61114733612739565b600354610100900460ff1615611283576040805162461bcd60e51b815260206004820152601260248201527129bab136b4b9b9b4b7b71034b99037b832b760711b604482015290519081900360640190fd5b61128c33611129565b6112c75760405162461bcd60e51b8152600401808060200182810382526033815260200180612f666033913960400191505060405180910390fd5b611147612776565b60245481565b600f54601554601b54909192565b60035460009060ff16611336576040805162461bcd60e51b8152602060048201526016602482015275149959da5cdd1c985d1a5bdb881a5cc818db1bdcd95960521b604482015290519081900360640190fd5b8360001a60f81b6001600160f81b031916611398576040805162461bcd60e51b815260206004820152601960248201527f5465616d206e616d652063616e6e6f7420626520656d70747900000000000000604482015290519081900360640190fd5b6001600160a01b0383166113f3576040805162461bcd60e51b815260206004820152601b60248201527f5465616d20616464726573732063616e6e6f74206265207a65726f0000000000604482015290519081900360640190fd5b6001600160a01b038381166000908152602081905260409020600201541615611463576040805162461bcd60e51b815260206004820152601760248201527f5465616d20616c72656164792072656769737465726564000000000000000000604482015290519081900360640190fd5b600180546040805160c081018252828152602081018881526001600160a01b038881169383019384526060830188815260808401878152600060a08601818152888a018a559089905285517fb10e2d527612073b26eecdfd717e6a320cf44b4afac2b0732d9fcbe2b7fa0cf660068a029081019190915594517fb10e2d527612073b26eecdfd717e6a320cf44b4afac2b0732d9fcbe2b7fa0cf786015595517fb10e2d527612073b26eecdfd717e6a320cf44b4afac2b0732d9fcbe2b7fa0cf8850180546001600160a01b0319169190941617909255517fb10e2d527612073b26eecdfd717e6a320cf44b4afac2b0732d9fcbe2b7fa0cf9830155517fb10e2d527612073b26eecdfd717e6a320cf44b4afac2b0732d9fcbe2b7fa0cfa8201805460ff191691151591909117905591517fb10e2d527612073b26eecdfd717e6a320cf44b4afac2b0732d9fcbe2b7fa0cfb90920191909155825491929091839081106115cb57fe5b600091825260208083206001600160a01b03808a1685529184905260409093206006909202909201805482556001808201548184015560028083015481850180546001600160a01b031916919096161790945560038083015490840155600480830154908401805460ff909216151560ff199092169190911790556005918201549190920155905461165c91612366565b600255604080518781526001602082015281516001600160a01b0388169285927f443b25596b838f2775d21b1153b87036f08c058fd4702446f1136ab26e5f3b90929081900390910190a350949350505050565b60035460ff16611700576040805162461bcd60e51b8152602060048201526016602482015275149959da5cdd1c985d1a5bdb881a5cc818db1bdcd95960521b604482015290519081900360640190fd5b61170933611129565b6117445760405162461bcd60e51b8152600401808060200182810382526033815260200180612f666033913960400191505060405180910390fd5b6111476127c6565b60035460ff161561179b576040805162461bcd60e51b81526020600482015260146024820152732932b3b4b9ba3930ba34b7b71034b99037b832b760611b604482015290519081900360640190fd5b600354610100900460ff16156117ed576040805162461bcd60e51b815260206004820152601260248201527129bab136b4b9b9b4b7b71034b99037b832b760711b604482015290519081900360640190fd5b600e5460ff161561183a576040805162461bcd60e51b815260206004820152601260248201527122bb30b63ab0ba34b7b71034b99037b832b760711b604482015290519081900360640190fd5b61184333611129565b61187e5760405162461bcd60e51b8152600401808060200182810382526033815260200180612f666033913960400191505060405180910390fd5b60215460ff16156118cf576040805162461bcd60e51b815260206004820152601660248201527514985b9ac8185b1c9958591e481c1d589b1a5cda195960521b604482015290519081900360640190fd5b60006002541161191c576040805162461bcd60e51b8152602060048201526013602482015272139bc81d19585b5cc81c9959da5cdd195c9959606a1b604482015290519081900360640190fd5b611924612ec2565b61192c612ec2565b611934612ec2565b61193c612ec2565b60005b600154811015611a27576001818154811061195657fe5b60009182526020918290206040805160c08101825260069093029091018054835260018101549383019390935260028301546001600160a01b03169082015260038201546060820152600482015460ff16158015608083015260059092015460a08201529550806119ce57508160a001518560a00151105b156119d857611a1f565b8360a001518560a0015111156119f2578493929150611a1f565b8260a001518560a001511115611a0b5784929150611a1f565b8160a001518560a001511115611a1f578491505b60010161193f565b508251600f819055602080850151601055604080860151601180546001600160a01b03199081166001600160a01b0393841617918290556060808a01516012556080808b01516013805460ff1990811692151592909217905560a0808d015160148190558c516015558c8a01516016558c890151601780548816918a169190911790558c8501516018558c8401516019805485169115159190911790558c820151601a558b51601b558b8a0151601c558b890151601d8054909716908916179095558a840151601e558a830151601f805484169115159190911790558a01518855602180549091166001908117909155865198895293909416958701959095528584015292840192909252517f78bd43bbb342abb837e10002dd4fcda5ea371db518ce4e9aff10ab136441a99c9281900390910190a1601554601754601a54604080519384526001600160a01b0390921660208401528282015260026060830152517f78bd43bbb342abb837e10002dd4fcda5ea371db518ce4e9aff10ab136441a99c9181900360800190a1601b54601d5460208054604080519485526001600160a01b03909316918401919091528282015260036060830152517f78bd43bbb342abb837e10002dd4fcda5ea371db518ce4e9aff10ab136441a99c9181900360800190a150505050565b611c1b33611129565b611c565760405162461bcd60e51b8152600401808060200182810382526033815260200180612f666033913960400191505060405180910390fd5b610d0181612806565b600e5460ff1690565b600e5460ff16611cb6576040805162461bcd60e51b8152602060048201526014602482015273115d985b1d585d1a5bdb881a5cc818db1bdcd95960621b604482015290519081900360640190fd5b611cbf33611129565b611cfa5760405162461bcd60e51b8152600401808060200182810382526033815260200180612f666033913960400191505060405180910390fd5b611147612997565b611d0b33611129565b611d465760405162461bcd60e51b8152600401808060200182810382526033815260200180612f666033913960400191505060405180910390fd5b610d0181612709565b60225481565b600e5460ff1615611da2576040805162461bcd60e51b815260206004820152601260248201527122bb30b63ab0ba34b7b71034b99037b832b760711b604482015290519081900360640190fd5b611dab33611129565b611de65760405162461bcd60e51b8152600401808060200182810382526033815260200180612f666033913960400191505060405180910390fd5b6111476129d7565b60035460ff1615611e3d576040805162461bcd60e51b81526020600482015260146024820152732932b3b4b9ba3930ba34b7b71034b99037b832b760611b604482015290519081900360640190fd5b611e4633611129565b611e815760405162461bcd60e51b8152600401808060200182810382526033815260200180612f666033913960400191505060405180910390fd5b611147612a21565b60003411611ec85760405162461bcd60e51b8152600401808060200182810382526021815260200180612ef86021913960400191505060405180910390fd5b604080513481529051429133917f90890809c654f11d6e72a28fa60149770a0d11ec6c92319d6ceb2bb0a4ea1a159181900360200190a3565b60035460ff1690565b611f1333611129565b611f4e5760405162461bcd60e51b8152600401808060200182810382526033815260200180612f666033913960400191505060405180910390fd5b610d0181612a6b565b81611f6181612448565b611fa4576040805162461bcd60e51b815260206004820152600f60248201526e125b9d985b1a59081d19585b481a59608a1b604482015290519081900360640190fd5b82611fae81612602565b611ff6576040805162461bcd60e51b81526020600482015260146024820152731519585b481a5cc81b9bdd08185c1c1c9bdd995960621b604482015290519081900360640190fd5b600354610100900460ff16612049576040805162461bcd60e51b815260206004820152601460248201527314dd589b5a5cdcda5bdb881a5cc818db1bdcd95960621b604482015290519081900360640190fd5b60006001858154811061205857fe5b60009182526020918290206003600690920201908101869055600281015481546040805189815290519395506001600160a01b039092169390927fa44de9e6ce79675199796005de8516704078af25aaf78ab4be180213882560ee9281900390910190a35050505050565b60006111366005836126a2565b610d0181612ae2565b6120e233611129565b61211d5760405162461bcd60e51b8152600401808060200182810382526033815260200180612f666033913960400191505060405180910390fd5b602b5460ff1615612175576040805162461bcd60e51b815260206004820152601860248201527f5072697a657320616c726561647920616c6c6f63617465640000000000000000604482015290519081900360640190fd5b600061218b826121858686612366565b90612366565b9050478111156121cc5760405162461bcd60e51b81526004018080602001828103825260308152602001806131076030913960400191505060405180910390fd5b6040805180820182528581526000602091820181905260258790556026805460ff1990811690915583518085018552878152830182905260278790556028805482169055835180850185528681528301919091526029859055602a805482169055602b805490911660011790558151868152908101859052808201849052426060820152905133917f60e7ffaf15f306ac55b9117669d2fd27994d49f2ccf8490fc874df9ebb5706aa919081900360800190a250505050565b600354610100900460ff166122d8576040805162461bcd60e51b815260206004820152601460248201527314dd589b5a5cdcda5bdb881a5cc818db1bdcd95960621b604482015290519081900360640190fd5b6122e133611129565b61231c5760405162461bcd60e51b8152600401808060200182810382526033815260200180612f666033913960400191505060405180910390fd5b611147612bbd565b61232f6004826123c7565b6040516001600160a01b038216907f37e96fc6762bae414e69ea6e2490e63bc46f2a1335de0f6b91f49cf808829bcf90600090a250565b6000828201838110156123c0576040805162461bcd60e51b815260206004820152601b60248201527f536166654d6174683a206164646974696f6e206f766572666c6f770000000000604482015290519081900360640190fd5b9392505050565b6123d182826126a2565b15612423576040805162461bcd60e51b815260206004820152601f60248201527f526f6c65733a206163636f756e7420616c72656164792068617320726f6c6500604482015290519081900360640190fd5b6001600160a01b0316600090815260209190915260409020805460ff19166001179055565b6001541190565b6011546000906001600160a01b038381169116148061247b57506017546001600160a01b038381169116145b80611136575050601d546001600160a01b0390811691161490565b806124a081612448565b6124e3576040805162461bcd60e51b815260206004820152600f60248201526e125b9d985b1a59081d19585b481a59608a1b604482015290519081900360640190fd5b816124ed81612602565b15612537576040805162461bcd60e51b81526020600482015260156024820152742a32b0b69034b9903737ba103932b83937bb32b21760591b604482015290519081900360640190fd5b60006001848154811061254657fe5b600091825260209091206004600690920201908101805460ff191660019081179091556002549192506125799190612366565b6002908155810154815460048301546040805160ff90921615158252516001600160a01b03909316927fd903780bcf5bcea81714ac3450a34cb3de7b0735a59883e1eb90edd901a54ad49181900360200190a350505050565b60005b8151811015610d40576125fa8282815181106125ed57fe5b6020026020010151612ae2565b6001016125d5565b600061260d82612448565b61261957506000611139565b60006001838154811061262857fe5b60009182526020918290206040805160c08101825260069093029091018054835260018101549383019390935260028301546001600160a01b03169082015260038201546060820152600482015460ff1615156080820181905260059092015460a090910152915050919050565b600a60ff909116111590565b60006001600160a01b0382166126e95760405162461bcd60e51b81526004018080602001828103825260228152602001806130e56022913960400191505060405180910390fd5b506001600160a01b03166000908152602091909152604090205460ff1690565b61271281612c08565b6001600160a01b03166000908152600d60205260409020600101805460ff60a01b19169055565b61274281612c45565b6001600160a01b0381166000908152600b60205260409020805460ff19169055600a54612770906001612c87565b600a5550565b6003805461ff00191661010090811791829055604080519190920460ff161515815290517f48fbf5c7b70581e7e2145562de373e14a5af56d09f9b96d73545d0d35f71f0889181900360200190a1565b6003805460ff19169055604080516000815290517f78b477400a612eb4ec0a343596323cccfac06b27624264a549d8322c736d055c9181900360200190a1565b61280f81612cc9565b6000600c80549050905060006040518060800160405280838152602001846001600160a01b03168152602001600115158152602001600015158152509050600c8190806001815401808255809150506001900390600052602060002090600202016000909190919091506000820151816000015560208201518160010160006101000a8154816001600160a01b0302191690836001600160a01b0316021790555060408201518160010160146101000a81548160ff02191690831515021790555060608201518160010160156101000a81548160ff021916908315150217905550505080600d6000856001600160a01b03166001600160a01b031681526020019081526020016000206000820151816000015560208201518160010160006101000a8154816001600160a01b0302191690836001600160a01b0316021790555060408201518160010160146101000a81548160ff02191690831515021790555060608201518160010160156101000a81548160ff021916908315150217905550905050505050565b600e805460ff19169055604080516000815290517f0266365b4830894a247179cbad20f3dfe40ba70917925976027d2af68d950bed9181900360200190a1565b600e805460ff1916600117908190556040805160ff9290921615158252517f0266365b4830894a247179cbad20f3dfe40ba70917925976027d2af68d950bed9181900360200190a1565b6003805460ff1916600117908190556040805160ff9290921615158252517f78b477400a612eb4ec0a343596323cccfac06b27624264a549d8322c736d055c9181900360200190a1565b612a7481612324565b6009805460018082019092557f6e1540171b6c0c960b71a7020d9f60077f6af931a8bbf590da0223dacf75c7af0180546001600160a01b0319166001600160a01b0384169081179091556000908152600b60205260409020805460ff191682179055600a5461277091612366565b80612aec81612448565b612b2f576040805162461bcd60e51b815260206004820152600f60248201526e125b9d985b1a59081d19585b481a59608a1b604482015290519081900360640190fd5b81612b3981612602565b612b81576040805162461bcd60e51b81526020600482015260146024820152731519585b481a5cc81b9bdd08185c1c1c9bdd995960621b604482015290519081900360640190fd5b600060018481548110612b9057fe5b6000918252602090912060069091020160048101805460ff19169055600254909150612579906001612c87565b6003805461ff001916908190556040805161010090920460ff1615158252517f48fbf5c7b70581e7e2145562de373e14a5af56d09f9b96d73545d0d35f71f0889181900360200190a1565b612c1181612d40565b6001600160a01b0381166000908152600860205260409020805460ff19169055600754612c3f906001612c87565b60075550565b612c50600482612d82565b6040516001600160a01b038216907fc459bd414676a5877fcf10a0d73ecf7e1f672a339650b03e628c4046534300e390600090a250565b60006123c083836040518060400160405280601e81526020017f536166654d6174683a207375627472616374696f6e206f766572666c6f770000815250612de9565b612cd281612e80565b6006805460018082019092557ff652222313e28459528d920b65115c16c04f3efc82aaedc97be59f3f377c0d3f0180546001600160a01b0319166001600160a01b0384169081179091556000908152600860205260409020805460ff191682179055600754612c3f91612366565b612d4b600582612d82565b6040516001600160a01b038216907f32a792a099c63670df7161917c5efb2fdc734cf9f943ebddccbecef87664f2b790600090a250565b612d8c82826126a2565b612dc75760405162461bcd60e51b8152600401808060200182810382526021815260200180612f996021913960400191505060405180910390fd5b6001600160a01b0316600090815260209190915260409020805460ff19169055565b60008184841115612e785760405162461bcd60e51b81526004018080602001828103825283818151815260200191508051906020019080838360005b83811015612e3d578181015183820152602001612e25565b50505050905090810190601f168015612e6a5780820380516001836020036101000a031916815260200191505b509250505060405180910390fd5b505050900390565b612e8b6005826123c7565b6040516001600160a01b038216907fe7f15f9ffff540ae14fdebcd9b6d6cc1fc143933338656c99caa595e8b80903990600090a250565b6040805160c081018252600080825260208201819052918101829052606081018290526080810182905260a08101919091529056fe6d73672e76616c7565206d757374206265206772656174686572207468616e20304a7564676520616c7265616479207375626d6974746564206576616c756174696f6e4a75646765526f6c653a2063616c6c657220646f6573206e6f742068617665204a7564676520526f6c652e4f7267616e697a6572526f6c653a2063616c6c657220646f6573206e6f742068617665204f7267616e697a657220526f6c652e526f6c65733a206163636f756e7420646f6573206e6f74206861766520726f6c65416464726573732063616e6e6f7420626520657175616c20746f20636f6e7472616374202874686973292061646472657373496e76616c696420616464726573732e204164647265737320636865636b206661696c65642e2053686f756c64206e6f74207265616368207468697320706f696e742e5072697a6520616c7265616479207061696420666f7220666972737420706c6163657465616d7349647320616e642067726164657320646f206e6f74206d617463682074686520636f756e74696e67206f6620617070726f766564207465616d735072697a6520616c7265616479207061696420666f7220746869726420706c6163654c656e677468206f66207465616d7320616e64207465616d47726164657320617272617973206d75737420626520657175616c526f6c65733a206163636f756e7420697320746865207a65726f20616464726573734e6f7420656e6f7567682066756e647320617661696c61626c6520696e206861636b6174686f6e20636f6e74726163745072697a6520616c7265616479207061696420666f72207365636f6e6420706c616365a2646970667358221220e32bda6b0d1a14af7f7e5458be4fececb72320d5bc94fe828921668964ece24964736f6c63430007060033526f6c65733a206163636f756e7420697320746865207a65726f2061646472657373a264697066735822122050eaa38f36ec7bbcc0266f4d782eb2b6528053e08e0dadd403b33509fef8ba2064736f6c63430007060033",
  "immutableReferences": {},
  "source": "// SPDX-License-Identifier: UNLICENSED\n\npragma solidity >=0.7.0 <0.8.0;\n\nimport \"@openzeppelin/contracts/math/SafeMath.sol\";\n\nimport \"../core/Hackathon.sol\";\n\n/**\n    @notice A factory to deploy new Hackathon contracts, and provide functionality to retrieve the deployed contracts' addresses.\n    @dev TODO: use struct to keep record of hackathon names, and allow implementing upgradability.\n */\ncontract HackathonFactory {\n    using SafeMath for uint256;\n\n    address[] private deployedHackathons;\n    mapping(bytes32 => address) private hackathonsByName;\n\n    /// @dev emitted when a new Hackathon contract is deployed.\n    event NewHackathonContract(uint256 id, bytes32 name, bytes32 description, address contractAddress, address creator);\n    // event TeamContractDeployed(uint256 id, bytes32 name, address contractAddress, address creator);\n\n    /// @dev Modifier to check if hackathon name is not empty.\n    modifier notEmptyName(bytes32 name) {\n        require(name[0] != 0, \"Hackathon name cannot be empty\");\n        _;\n    }\n\n    /// @dev Modifier to check if hackathon name is unique.\n    modifier uniqueHackathonName(bytes32 name) {\n        require(hackathonsByName[name] == address(0), \"Hackathon name already in use\");\n        _;\n    }\n\n    /**\n    @notice Creates and deploys a new Hackathon contract.\n    @param name Unique hackathon's name.\n    @param description A short description for the Hackathon.\n    @return The new contract's address.\n    */\n    function createHackathonContract(bytes32 name, bytes32 description)\n        public\n        payable\n        notEmptyName(name)\n        uniqueHackathonName(name)\n        returns (address)\n    {\n        // TODO: insert check if the sent ether is enough to cover the car asset ...\n        uint256 id = deployedHackathons.length;\n        address newHackathon = address(new Hackathon(id, name, description, msg.sender));\n        deployedHackathons.push(newHackathon);\n        hackathonsByName[name] = newHackathon;\n        emit NewHackathonContract(id, name, description, newHackathon, msg.sender);\n        return newHackathon;\n    }\n\n    /**\n        @notice Get a list with the addresses of the deployed contracts.\n        @return List of deployed contract's addresses \n    */\n    function getDeployedHackathonContracts() public view returns (address[] memory) {\n        return deployedHackathons;\n    }\n\n    /**\n        @notice Get a contract address with the internal id.\n        @return An address representing a deployed contract\n    */\n    function getHackathonContractById(uint256 id) public view returns (address) {\n        require(id < deployedHackathons.length);\n        return deployedHackathons[id];\n    }\n\n    /**\n        @notice Get a contract address with the internal name.\n        @return An address representing a deployed contract\n    */\n    function getHackathonContractByName(bytes32 name) public view notEmptyName(name) returns (address) {\n        return hackathonsByName[name];\n    }\n}\n",
  "sourcePath": "/media/fodisi/56401C55401C3DE5/dev/Projects/hackapay/contracts/factory/HackathonFactory.sol",
  "compiler": {
    "name": "solc",
    "version": "0.7.6+commit.7338295f.Emscripten.clang"
  },
  "schemaVersion": "3.3.2",
  "updatedAt": "2021-01-22T04:14:17.074Z",
  "devdoc": {
    "details": "TODO: use struct to keep record of hackathon names, and allow implementing upgradability.",
    "events": {
      "NewHackathonContract(uint256,bytes32,bytes32,address,address)": {
        "details": "emitted when a new Hackathon contract is deployed."
      }
    },
    "kind": "dev",
    "methods": {
      "createHackathonContract(bytes32,bytes32)": {
        "params": {
          "description": "A short description for the Hackathon.",
          "name": "Unique hackathon's name."
        },
        "returns": {
          "_0": "The new contract's address."
        }
      },
      "getDeployedHackathonContracts()": {
        "returns": {
          "_0": "List of deployed contract's addresses "
        }
      },
      "getHackathonContractById(uint256)": {
        "returns": {
          "_0": "An address representing a deployed contract"
        }
      },
      "getHackathonContractByName(bytes32)": {
        "returns": {
          "_0": "An address representing a deployed contract"
        }
      }
    },
    "version": 1
  },
  "userdoc": {
    "kind": "user",
    "methods": {
      "createHackathonContract(bytes32,bytes32)": {
        "notice": "Creates and deploys a new Hackathon contract."
      },
      "getDeployedHackathonContracts()": {
        "notice": "Get a list with the addresses of the deployed contracts."
      },
      "getHackathonContractById(uint256)": {
        "notice": "Get a contract address with the internal id."
      },
      "getHackathonContractByName(bytes32)": {
        "notice": "Get a contract address with the internal name."
      }
    },
    "notice": "A factory to deploy new Hackathon contracts, and provide functionality to retrieve the deployed contracts' addresses.",
    "version": 1
  }
}