{
  "contractName": "HackathonMock",
  "abi": [
    {
      "inputs": [
        {
          "internalType": "uint256",
          "name": "_id",
          "type": "uint256"
        },
        {
          "internalType": "bytes32",
          "name": "_name",
          "type": "bytes32"
        },
        {
          "internalType": "bytes32",
          "name": "_description",
          "type": "bytes32"
        }
      ],
      "stateMutability": "nonpayable",
      "type": "constructor"
    },
    {
      "anonymous": false,
      "inputs": [
        {
          "indexed": true,
          "internalType": "address",
          "name": "from",
          "type": "address"
        },
        {
          "indexed": false,
          "internalType": "uint256",
          "name": "amount",
          "type": "uint256"
        },
        {
          "indexed": true,
          "internalType": "uint256",
          "name": "datetime",
          "type": "uint256"
        }
      ],
      "name": "Deposit",
      "type": "event"
    },
    {
      "anonymous": false,
      "inputs": [
        {
          "indexed": false,
          "internalType": "bool",
          "name": "enabled",
          "type": "bool"
        }
      ],
      "name": "EvaluationStatusUpdated",
      "type": "event"
    },
    {
      "anonymous": false,
      "inputs": [
        {
          "indexed": true,
          "internalType": "address",
          "name": "account",
          "type": "address"
        }
      ],
      "name": "JudgeAdded",
      "type": "event"
    },
    {
      "anonymous": false,
      "inputs": [
        {
          "indexed": true,
          "internalType": "address",
          "name": "account",
          "type": "address"
        }
      ],
      "name": "JudgeRemoved",
      "type": "event"
    },
    {
      "anonymous": false,
      "inputs": [
        {
          "indexed": true,
          "internalType": "uint256",
          "name": "id",
          "type": "uint256"
        },
        {
          "indexed": false,
          "internalType": "address",
          "name": "judgeAddress",
          "type": "address"
        }
      ],
      "name": "JudgeVoted",
      "type": "event"
    },
    {
      "anonymous": false,
      "inputs": [
        {
          "indexed": true,
          "internalType": "address",
          "name": "account",
          "type": "address"
        }
      ],
      "name": "OrganizerAdded",
      "type": "event"
    },
    {
      "anonymous": false,
      "inputs": [
        {
          "indexed": true,
          "internalType": "address",
          "name": "account",
          "type": "address"
        }
      ],
      "name": "OrganizerRemoved",
      "type": "event"
    },
    {
      "anonymous": false,
      "inputs": [
        {
          "indexed": false,
          "internalType": "uint256",
          "name": "firstPlacePrize",
          "type": "uint256"
        },
        {
          "indexed": false,
          "internalType": "uint256",
          "name": "secondPlacePrize",
          "type": "uint256"
        },
        {
          "indexed": false,
          "internalType": "uint256",
          "name": "thirdPlacePrize",
          "type": "uint256"
        },
        {
          "indexed": true,
          "internalType": "address",
          "name": "organizer",
          "type": "address"
        },
        {
          "indexed": false,
          "internalType": "uint256",
          "name": "datetime",
          "type": "uint256"
        }
      ],
      "name": "PrizeAllocation",
      "type": "event"
    },
    {
      "anonymous": false,
      "inputs": [
        {
          "indexed": false,
          "internalType": "bool",
          "name": "enabled",
          "type": "bool"
        }
      ],
      "name": "RegistrationStatusUpdated",
      "type": "event"
    },
    {
      "anonymous": false,
      "inputs": [
        {
          "indexed": false,
          "internalType": "bool",
          "name": "enabled",
          "type": "bool"
        }
      ],
      "name": "SubmissionStatusUpdated",
      "type": "event"
    },
    {
      "anonymous": false,
      "inputs": [
        {
          "indexed": true,
          "internalType": "uint256",
          "name": "teamId",
          "type": "uint256"
        },
        {
          "indexed": true,
          "internalType": "address",
          "name": "teamAddress",
          "type": "address"
        },
        {
          "indexed": false,
          "internalType": "bytes32",
          "name": "proposalData",
          "type": "bytes32"
        }
      ],
      "name": "TeamProposalUpdated",
      "type": "event"
    },
    {
      "anonymous": false,
      "inputs": [
        {
          "indexed": true,
          "internalType": "uint256",
          "name": "teamId",
          "type": "uint256"
        },
        {
          "indexed": false,
          "internalType": "bytes32",
          "name": "teamName",
          "type": "bytes32"
        },
        {
          "indexed": true,
          "internalType": "address",
          "name": "teamAddress",
          "type": "address"
        },
        {
          "indexed": false,
          "internalType": "bool",
          "name": "approved",
          "type": "bool"
        }
      ],
      "name": "TeamRegistered",
      "type": "event"
    },
    {
      "anonymous": false,
      "inputs": [
        {
          "indexed": true,
          "internalType": "uint256",
          "name": "teamId",
          "type": "uint256"
        },
        {
          "indexed": true,
          "internalType": "address",
          "name": "teamAddress",
          "type": "address"
        },
        {
          "indexed": false,
          "internalType": "bool",
          "name": "approved",
          "type": "bool"
        }
      ],
      "name": "TeamStatusUpdated",
      "type": "event"
    },
    {
      "anonymous": false,
      "inputs": [
        {
          "indexed": false,
          "internalType": "uint256",
          "name": "teamId",
          "type": "uint256"
        },
        {
          "indexed": false,
          "internalType": "address",
          "name": "teamAddress",
          "type": "address"
        },
        {
          "indexed": false,
          "internalType": "uint256",
          "name": "finalGrade",
          "type": "uint256"
        },
        {
          "indexed": false,
          "internalType": "uint8",
          "name": "rankPosition",
          "type": "uint8"
        }
      ],
      "name": "WinnerAnnouced",
      "type": "event"
    },
    {
      "anonymous": false,
      "inputs": [
        {
          "indexed": true,
          "internalType": "address",
          "name": "to",
          "type": "address"
        },
        {
          "indexed": false,
          "internalType": "uint256",
          "name": "amount",
          "type": "uint256"
        },
        {
          "indexed": false,
          "internalType": "uint8",
          "name": "rankPosition",
          "type": "uint8"
        },
        {
          "indexed": true,
          "internalType": "address",
          "name": "requester",
          "type": "address"
        },
        {
          "indexed": false,
          "internalType": "uint256",
          "name": "datetime",
          "type": "uint256"
        }
      ],
      "name": "Withdraw",
      "type": "event"
    },
    {
      "inputs": [
        {
          "internalType": "address",
          "name": "account",
          "type": "address"
        }
      ],
      "name": "addJudge",
      "outputs": [],
      "stateMutability": "nonpayable",
      "type": "function"
    },
    {
      "inputs": [
        {
          "internalType": "address",
          "name": "account",
          "type": "address"
        }
      ],
      "name": "addOrganizer",
      "outputs": [],
      "stateMutability": "nonpayable",
      "type": "function"
    },
    {
      "inputs": [
        {
          "internalType": "uint256",
          "name": "firstPrize",
          "type": "uint256"
        },
        {
          "internalType": "uint256",
          "name": "secondPrize",
          "type": "uint256"
        },
        {
          "internalType": "uint256",
          "name": "thirdPrize",
          "type": "uint256"
        }
      ],
      "name": "allocatePrize",
      "outputs": [],
      "stateMutability": "nonpayable",
      "type": "function"
    },
    {
      "inputs": [
        {
          "internalType": "uint256",
          "name": "teamId",
          "type": "uint256"
        }
      ],
      "name": "approveTeam",
      "outputs": [],
      "stateMutability": "nonpayable",
      "type": "function"
    },
    {
      "inputs": [],
      "name": "closeEvaluation",
      "outputs": [],
      "stateMutability": "nonpayable",
      "type": "function"
    },
    {
      "inputs": [],
      "name": "closeRegistration",
      "outputs": [],
      "stateMutability": "nonpayable",
      "type": "function"
    },
    {
      "inputs": [],
      "name": "closeSubmission",
      "outputs": [],
      "stateMutability": "nonpayable",
      "type": "function"
    },
    {
      "inputs": [],
      "name": "deposit",
      "outputs": [],
      "stateMutability": "payable",
      "type": "function"
    },
    {
      "inputs": [],
      "name": "description",
      "outputs": [
        {
          "internalType": "bytes32",
          "name": "",
          "type": "bytes32"
        }
      ],
      "stateMutability": "view",
      "type": "function"
    },
    {
      "inputs": [],
      "name": "getEvaluationStatus",
      "outputs": [
        {
          "internalType": "bool",
          "name": "",
          "type": "bool"
        }
      ],
      "stateMutability": "view",
      "type": "function"
    },
    {
      "inputs": [],
      "name": "getRegistrationStatus",
      "outputs": [
        {
          "internalType": "bool",
          "name": "",
          "type": "bool"
        }
      ],
      "stateMutability": "view",
      "type": "function"
    },
    {
      "inputs": [],
      "name": "getSubmissionStatus",
      "outputs": [
        {
          "internalType": "bool",
          "name": "",
          "type": "bool"
        }
      ],
      "stateMutability": "view",
      "type": "function"
    },
    {
      "inputs": [
        {
          "internalType": "uint256",
          "name": "teamId",
          "type": "uint256"
        }
      ],
      "name": "getTeam",
      "outputs": [
        {
          "internalType": "bytes32",
          "name": "",
          "type": "bytes32"
        },
        {
          "internalType": "address",
          "name": "",
          "type": "address"
        },
        {
          "internalType": "bytes32",
          "name": "",
          "type": "bytes32"
        },
        {
          "internalType": "bool",
          "name": "",
          "type": "bool"
        },
        {
          "internalType": "uint256",
          "name": "",
          "type": "uint256"
        }
      ],
      "stateMutability": "view",
      "type": "function"
    },
    {
      "inputs": [
        {
          "internalType": "address",
          "name": "teamAddress",
          "type": "address"
        }
      ],
      "name": "getTeamByAddress",
      "outputs": [
        {
          "internalType": "bytes32",
          "name": "",
          "type": "bytes32"
        },
        {
          "internalType": "address",
          "name": "",
          "type": "address"
        },
        {
          "internalType": "bytes32",
          "name": "",
          "type": "bytes32"
        },
        {
          "internalType": "bool",
          "name": "",
          "type": "bool"
        },
        {
          "internalType": "uint256",
          "name": "",
          "type": "uint256"
        }
      ],
      "stateMutability": "view",
      "type": "function"
    },
    {
      "inputs": [],
      "name": "getWinnersIds",
      "outputs": [
        {
          "internalType": "uint256",
          "name": "",
          "type": "uint256"
        },
        {
          "internalType": "uint256",
          "name": "",
          "type": "uint256"
        },
        {
          "internalType": "uint256",
          "name": "",
          "type": "uint256"
        }
      ],
      "stateMutability": "view",
      "type": "function"
    },
    {
      "inputs": [],
      "name": "id",
      "outputs": [
        {
          "internalType": "uint256",
          "name": "",
          "type": "uint256"
        }
      ],
      "stateMutability": "view",
      "type": "function"
    },
    {
      "inputs": [
        {
          "internalType": "address",
          "name": "account",
          "type": "address"
        }
      ],
      "name": "isJudge",
      "outputs": [
        {
          "internalType": "bool",
          "name": "",
          "type": "bool"
        }
      ],
      "stateMutability": "view",
      "type": "function"
    },
    {
      "inputs": [
        {
          "internalType": "address",
          "name": "account",
          "type": "address"
        }
      ],
      "name": "isOrganizer",
      "outputs": [
        {
          "internalType": "bool",
          "name": "",
          "type": "bool"
        }
      ],
      "stateMutability": "view",
      "type": "function"
    },
    {
      "inputs": [],
      "name": "name",
      "outputs": [
        {
          "internalType": "bytes32",
          "name": "",
          "type": "bytes32"
        }
      ],
      "stateMutability": "view",
      "type": "function"
    },
    {
      "inputs": [],
      "name": "openEvaluation",
      "outputs": [],
      "stateMutability": "nonpayable",
      "type": "function"
    },
    {
      "inputs": [],
      "name": "openRegistration",
      "outputs": [],
      "stateMutability": "nonpayable",
      "type": "function"
    },
    {
      "inputs": [],
      "name": "openSubmission",
      "outputs": [],
      "stateMutability": "nonpayable",
      "type": "function"
    },
    {
      "inputs": [],
      "name": "publishRank",
      "outputs": [],
      "stateMutability": "nonpayable",
      "type": "function"
    },
    {
      "inputs": [
        {
          "internalType": "bytes32",
          "name": "teamName",
          "type": "bytes32"
        },
        {
          "internalType": "address",
          "name": "teamAddress",
          "type": "address"
        },
        {
          "internalType": "bytes32",
          "name": "proposalData",
          "type": "bytes32"
        }
      ],
      "name": "registerTeam",
      "outputs": [
        {
          "internalType": "uint256",
          "name": "",
          "type": "uint256"
        }
      ],
      "stateMutability": "nonpayable",
      "type": "function"
    },
    {
      "inputs": [
        {
          "internalType": "address",
          "name": "account",
          "type": "address"
        }
      ],
      "name": "removeJudge",
      "outputs": [],
      "stateMutability": "nonpayable",
      "type": "function"
    },
    {
      "inputs": [],
      "name": "renounceJudge",
      "outputs": [],
      "stateMutability": "nonpayable",
      "type": "function"
    },
    {
      "inputs": [],
      "name": "renounceOrganizer",
      "outputs": [],
      "stateMutability": "nonpayable",
      "type": "function"
    },
    {
      "inputs": [
        {
          "internalType": "uint256",
          "name": "teamId",
          "type": "uint256"
        }
      ],
      "name": "reproveTeam",
      "outputs": [],
      "stateMutability": "nonpayable",
      "type": "function"
    },
    {
      "inputs": [
        {
          "internalType": "uint256[]",
          "name": "teamIds",
          "type": "uint256[]"
        }
      ],
      "name": "reproveTeams",
      "outputs": [],
      "stateMutability": "nonpayable",
      "type": "function"
    },
    {
      "inputs": [
        {
          "internalType": "uint256[]",
          "name": "teamIds",
          "type": "uint256[]"
        },
        {
          "internalType": "uint8[]",
          "name": "teamGrades",
          "type": "uint8[]"
        }
      ],
      "name": "submitEvaluation",
      "outputs": [],
      "stateMutability": "nonpayable",
      "type": "function"
    },
    {
      "inputs": [
        {
          "internalType": "uint256",
          "name": "",
          "type": "uint256"
        }
      ],
      "name": "teams",
      "outputs": [
        {
          "internalType": "uint256",
          "name": "id",
          "type": "uint256"
        },
        {
          "internalType": "bytes32",
          "name": "name",
          "type": "bytes32"
        },
        {
          "internalType": "address",
          "name": "teamAddress",
          "type": "address"
        },
        {
          "internalType": "bytes32",
          "name": "proposalData",
          "type": "bytes32"
        },
        {
          "internalType": "bool",
          "name": "approved",
          "type": "bool"
        },
        {
          "internalType": "uint256",
          "name": "grade",
          "type": "uint256"
        }
      ],
      "stateMutability": "view",
      "type": "function"
    },
    {
      "inputs": [
        {
          "internalType": "uint256",
          "name": "teamId",
          "type": "uint256"
        },
        {
          "internalType": "bytes32",
          "name": "proposalData",
          "type": "bytes32"
        }
      ],
      "name": "updateProposalData",
      "outputs": [],
      "stateMutability": "nonpayable",
      "type": "function"
    },
    {
      "inputs": [
        {
          "internalType": "address",
          "name": "winnerAddress",
          "type": "address"
        }
      ],
      "name": "withdrawPrize",
      "outputs": [],
      "stateMutability": "nonpayable",
      "type": "function"
    },
    {
      "inputs": [],
      "name": "dummyAllocatePrizesMock",
      "outputs": [],
      "stateMutability": "nonpayable",
      "type": "function"
    },
    {
      "inputs": [],
      "name": "dummyPublishRankMock",
      "outputs": [],
      "stateMutability": "nonpayable",
      "type": "function"
    },
    {
      "inputs": [],
      "name": "getPrizeAllocationStatus",
      "outputs": [
        {
          "internalType": "bool",
          "name": "",
          "type": "bool"
        }
      ],
      "stateMutability": "view",
      "type": "function"
    }
  ],
  "bytecode": "0x60806040523480156200001157600080fd5b506040516200364738038062003647833981810160405260608110156200003757600080fd5b50805160208201516040909201519091908282823380808080620000a2576040805162461bcd60e51b815260206004820152601460248201527f496e76616c6964207a65726f2061646472657373000000000000000000000000604482015290519081900360640190fd5b620000ad816200013c565b50849150600090501a60f81b7fff00000000000000000000000000000000000000000000000000000000000000166200011c576040805162461bcd60e51b815260206004820152600c60248201526b496e76616c6964206e616d6560a01b604482015290519081900360640190fd5b506022929092556023556024555050602b805460ff191690555062000377565b6200015281620001d660201b620024331760201c565b6009805460018082019092557f6e1540171b6c0c960b71a7020d9f60077f6af931a8bbf590da0223dacf75c7af0180546001600160a01b0319166001600160a01b0384169081179091556000908152600b60209081526040909120805460ff191683179055600a54620001d092909162000228811b6200247517901c565b600a5550565b620001f18160046200028a60201b620024d61790919060201c565b6040516001600160a01b038216907f37e96fc6762bae414e69ea6e2490e63bc46f2a1335de0f6b91f49cf808829bcf90600090a250565b60008282018381101562000283576040805162461bcd60e51b815260206004820152601b60248201527f536166654d6174683a206164646974696f6e206f766572666c6f770000000000604482015290519081900360640190fd5b9392505050565b6200029682826200030e565b15620002e9576040805162461bcd60e51b815260206004820152601f60248201527f526f6c65733a206163636f756e7420616c72656164792068617320726f6c6500604482015290519081900360640190fd5b6001600160a01b0316600090815260209190915260409020805460ff19166001179055565b60006001600160a01b038216620003575760405162461bcd60e51b8152600401808060200182810382526022815260200180620036256022913960400191505060405180910390fd5b506001600160a01b03166000908152602091909152604090205460ff1690565b61329e80620003876000396000f3fe60806040526004361061020e5760003560e01c806390d768e411610118578063d0e30db0116100a0578063ed896d661161006f578063ed896d66146107a3578063f540548b146107d6578063f59ec3f914610800578063ff91865114610836578063ffc6ff1e1461084b5761020e565b8063d0e30db014610723578063e35fb2411461072b578063e4725f0214610740578063eaf2f9cd146107735761020e565b8063ae237c77116100e7578063ae237c771461069c578063ae2ac4ae146106b1578063af640d0f146106e4578063b2a13f92146106f9578063d06e4ee71461070e5761020e565b806390d768e41461062a578063927cab471461063f578063a2bce8bd14610672578063a72418a4146106875761020e565b80634b30b66f1161019b57806358e2f50e1161016a57806358e2f50e146105795780637284e4161461058e578063737a6340146105a35780637385712c146105d65780637dc673bc146106155761020e565b80634b30b66f146105075780634ea701a81461051c57806354e1db2b1461054f578063567ad862146105645761020e565b8063288c4a46116101e2578063288c4a46146102f85780633e091f64146103755780633ed2b77a14610444578063400feb02146104ab57806341676f15146104c05761020e565b80628e0f1b1461021357806306fdde031461027257806311dc45c91461029957806324ba9fab146102ce575b600080fd5b34801561021f57600080fd5b5061023d6004803603602081101561023657600080fd5b5035610860565b604080519586526001600160a01b03909416602086015284840192909252151560608401526080830152519081900360a00190f35b34801561027e57600080fd5b50610287610944565b60408051918252519081900360200190f35b3480156102a557600080fd5b506102cc600480360360208110156102bc57600080fd5b50356001600160a01b031661094a565b005b3480156102da57600080fd5b506102cc600480360360208110156102f157600080fd5b5035610d58565b34801561030457600080fd5b506102cc6004803603602081101561031b57600080fd5b81019060208101813564010000000081111561033657600080fd5b82018360208201111561034857600080fd5b8035906020019184602083028401116401000000008311171561036a57600080fd5b509092509050610d64565b34801561038157600080fd5b506102cc6004803603604081101561039857600080fd5b8101906020810181356401000000008111156103b357600080fd5b8201836020820111156103c557600080fd5b803590602001918460208302840111640100000000831117156103e757600080fd5b91939092909160208101903564010000000081111561040557600080fd5b82018360208201111561041757600080fd5b8035906020019184602083028401116401000000008311171561043957600080fd5b509092509050610da4565b34801561045057600080fd5b5061046e6004803603602081101561046757600080fd5b5035611133565b6040805196875260208701959095526001600160a01b039093168585015260608501919091521515608084015260a0830152519081900360c00190f35b3480156104b757600080fd5b506102cc611189565b3480156104cc57600080fd5b506104f3600480360360208110156104e357600080fd5b50356001600160a01b03166111dc565b604080519115158252519081900360200190f35b34801561051357600080fd5b506102cc6111f1565b34801561052857600080fd5b5061023d6004803603602081101561053f57600080fd5b50356001600160a01b03166111fc565b34801561055b57600080fd5b506104f36112cd565b34801561057057600080fd5b506102cc6112db565b34801561058557600080fd5b506102cc6112e4565b34801561059a57600080fd5b50610287611382565b3480156105af57600080fd5b506105b8611388565b60408051938452602084019290925282820152519081900360600190f35b3480156105e257600080fd5b50610287600480360360608110156105f957600080fd5b508035906001600160a01b036020820135169060400135611396565b34801561062157600080fd5b506102cc611763565b34801561063657600080fd5b506102cc6117ff565b34801561064b57600080fd5b506102cc6004803603602081101561066257600080fd5b50356001600160a01b0316611cc5565b34801561067e57600080fd5b506104f3611d12565b34801561069357600080fd5b506102cc611d1b565b3480156106a857600080fd5b506102cc611d6e565b3480156106bd57600080fd5b506102cc600480360360208110156106d457600080fd5b50356001600160a01b0316611e08565b3480156106f057600080fd5b50610287611e55565b34801561070557600080fd5b506102cc611e5b565b34801561071a57600080fd5b506102cc611ef4565b6102cc611f8f565b34801561073757600080fd5b506104f3612007565b34801561074c57600080fd5b506102cc6004803603602081101561076357600080fd5b50356001600160a01b0316612010565b34801561077f57600080fd5b506102cc6004803603604081101561079657600080fd5b508035906020013561205d565b3480156107af57600080fd5b506104f3600480360360208110156107c657600080fd5b50356001600160a01b03166121c9565b3480156107e257600080fd5b506102cc600480360360208110156107f957600080fd5b50356121d6565b34801561080c57600080fd5b506102cc6004803603606081101561082357600080fd5b50803590602081013590604001356121df565b34801561084257600080fd5b506104f361238b565b34801561085757600080fd5b506102cc612394565b60008060008060008561087281612557565b6108b5576040805162461bcd60e51b815260206004820152600f60248201526e125b9d985b1a59081d19585b481a59608a1b604482015290519081900360640190fd5b6000600188815481106108c457fe5b60009182526020918290206040805160c08101825260069390930290910180548352600181015493830184905260028101546001600160a01b0316918301829052600381015460608401819052600482015460ff1615156080850181905260059092015460a0909401849052939c919b5092995091975095509350505050565b60235481565b60215460ff1661099a576040805162461bcd60e51b815260206004820152601660248201527514985b9ac81b9bdd081c1d589b1a5cda1959081e595d60521b604482015290519081900360640190fd5b602b5460ff166109f1576040805162461bcd60e51b815260206004820152601860248201527f5072697a6573206e6f7420616c6c6f6361746564207965740000000000000000604482015290519081900360640190fd5b806001600160a01b038116610a44576040805162461bcd60e51b8152602060048201526014602482015273496e76616c6964207a65726f206164647265737360601b604482015290519081900360640190fd5b6001600160a01b038116301415610a8c5760405162461bcd60e51b81526004018080602001828103825260328152602001806130c96032913960400191505060405180910390fd5b81610a968161255e565b610ae7576040805162461bcd60e51b815260206004820152601f60248201527f4163636f756e742061646472657373206973206e6f7420612077696e6e657200604482015290519081900360640190fd5b601154600090819081906001600160a01b0387811691161415610b715750506011546025546026546001600160a01b0390921692509060019060ff1615610b5f5760405162461bcd60e51b815260040180806020018281038252602281526020018061313e6022913960400191505060405180910390fd5b6026805460ff19166001179055610cae565b6017546001600160a01b0387811691161415610bf45750506017546027546028546001600160a01b0390921692509060029060ff1615610be25760405162461bcd60e51b81526004018080602001828103825260238152602001806132466023913960400191505060405180910390fd5b6028805460ff19166001179055610cae565b601d546001600160a01b0387811691161415610c77575050601d54602954602a546001600160a01b0390921692509060039060ff1615610c655760405162461bcd60e51b815260040180806020018281038252602281526020018061319f6022913960400191505060405180910390fd5b602a805460ff19166001179055610cae565b60405162461bcd60e51b81526004018080602001828103825260438152602001806130fb6043913960600191505060405180910390fd5b6040805183815260ff831660208201524281830152905133916001600160a01b038616917f24cc64e111181860a0e50314e2717d8d86bc21fb600e5681040e47cd5eab7f079181900360600190a3826001600160a01b031663d0e30db0836040518263ffffffff1660e01b81526004016000604051808303818588803b158015610d3757600080fd5b505af1158015610d4b573d6000803e3d6000fd5b5050505050505050505050565b610d61816125a5565b50565b610da08282808060200260200160405190810160405280939291908181526020018383602002808284376000920191909152506126e192505050565b5050565b600e5460ff16610df2576040805162461bcd60e51b8152602060048201526014602482015273115d985b1d585d1a5bdb881a5cc818db1bdcd95960621b604482015290519081900360640190fd5b610dfb336121c9565b610e365760405162461bcd60e51b815260040180806020018281038252602b81526020018061304a602b913960400191505060405180910390fd5b828114610e745760405162461bcd60e51b81526004018080602001828103825260338152602001806131c16033913960400191505060405180910390fd5b6002548314610eb45760405162461bcd60e51b815260040180806020018281038252603f815260200180613160603f913960400191505060405180910390fd5b600060025411610f0b576040805162461bcd60e51b815260206004820152601d60248201527f4e6f20617070726f766564207465616d7320746f206576616c75617465000000604482015290519081900360640190fd5b336000908152600d602052604090206001810154600160a81b900460ff1615610f655760405162461bcd60e51b81526004018080602001828103825260228152602001806130286022913960400191505060405180910390fd5b60005b6002548110156110d3576000868683818110610f8057fe5b9050602002013590506000858584818110610f9757fe5b9050602002013560ff169050610fac82612557565b610fef576040805162461bcd60e51b815260206004820152600f60248201526e125b9d985b1a59081d19585b481a59608a1b604482015290519081900360640190fd5b610ff882612711565b611040576040805162461bcd60e51b81526020600482015260146024820152731519585b481a5cc81b9bdd08185c1c1c9bdd995960621b604482015290519081900360640190fd5b611049816127a5565b61108a576040805162461bcd60e51b815260206004820152600d60248201526c496e76616c696420677261646560981b604482015290519081900360640190fd5b60006001838154811061109957fe5b906000526020600020906006020190506110c38260ff16826005015461247590919063ffffffff16565b6005909101555050600101610f68565b5060018101805460ff60a81b1916600160a81b17908190558154604080516001600160a01b0390931683525190917fd62869bbd78965284c34750092d78b62093e2d02b730d0ce696ebdcb371bb5dc919081900360200190a25050505050565b6001818154811061114357600080fd5b600091825260209091206006909102018054600182015460028301546003840154600485015460059095015493955091936001600160a01b039091169260ff9091169086565b611192336111dc565b6111cd5760405162461bcd60e51b81526004018080602001828103825260338152602001806130756033913960400191505060405180910390fd5b6021805460ff19166001179055565b60006111e96004836127b1565b90505b919050565b6111fa33612818565b565b6000808080806001600160a01b038616611254576040805162461bcd60e51b8152602060048201526014602482015273496e76616c6964207a65726f206164647265737360601b604482015290519081900360640190fd5b505050506001600160a01b0391821660009081526020818152604091829020825160c0810184528154815260018201549281018390526002820154909516928501839052600381015460608601819052600482015460ff1615156080870181905260059092015460a09096018690529195929491935091565b600354610100900460ff1690565b6111fa33612848565b600354610100900460ff1615611336576040805162461bcd60e51b815260206004820152601260248201527129bab136b4b9b9b4b7b71034b99037b832b760711b604482015290519081900360640190fd5b61133f336111dc565b61137a5760405162461bcd60e51b81526004018080602001828103825260338152602001806130756033913960400191505060405180910390fd5b6111fa612885565b60245481565b600f54601554601b54909192565b60035460009060ff166113e9576040805162461bcd60e51b8152602060048201526016602482015275149959da5cdd1c985d1a5bdb881a5cc818db1bdcd95960521b604482015290519081900360640190fd5b8360001a60f81b6001600160f81b03191661144b576040805162461bcd60e51b815260206004820152601960248201527f5465616d206e616d652063616e6e6f7420626520656d70747900000000000000604482015290519081900360640190fd5b6001600160a01b0383166114a6576040805162461bcd60e51b815260206004820152601b60248201527f5465616d20616464726573732063616e6e6f74206265207a65726f0000000000604482015290519081900360640190fd5b6001600160a01b038381166000908152602081905260409020600201541615611516576040805162461bcd60e51b815260206004820152601760248201527f5465616d20616c72656164792072656769737465726564000000000000000000604482015290519081900360640190fd5b600180546040805160c081018252828152602081018881526001600160a01b038881169383019384526060830188815260808401878152600060a08601818152888a018a559089905285517fb10e2d527612073b26eecdfd717e6a320cf44b4afac2b0732d9fcbe2b7fa0cf660068a029081019190915594517fb10e2d527612073b26eecdfd717e6a320cf44b4afac2b0732d9fcbe2b7fa0cf786015595517fb10e2d527612073b26eecdfd717e6a320cf44b4afac2b0732d9fcbe2b7fa0cf8850180546001600160a01b0319169190941617909255517fb10e2d527612073b26eecdfd717e6a320cf44b4afac2b0732d9fcbe2b7fa0cf9830155517fb10e2d527612073b26eecdfd717e6a320cf44b4afac2b0732d9fcbe2b7fa0cfa8201805460ff191691151591909117905591517fb10e2d527612073b26eecdfd717e6a320cf44b4afac2b0732d9fcbe2b7fa0cfb909201919091558254919290918390811061167e57fe5b600091825260208083206001600160a01b03808a1685529184905260409093206006909202909201805482556001808201548184015560028083015481850180546001600160a01b031916919096161790945560038083015490840155600480830154908401805460ff909216151560ff199092169190911790556005918201549190920155905461170f91612475565b600255604080518781526001602082015281516001600160a01b0388169285927f443b25596b838f2775d21b1153b87036f08c058fd4702446f1136ab26e5f3b90929081900390910190a350949350505050565b60035460ff166117b3576040805162461bcd60e51b8152602060048201526016602482015275149959da5cdd1c985d1a5bdb881a5cc818db1bdcd95960521b604482015290519081900360640190fd5b6117bc336111dc565b6117f75760405162461bcd60e51b81526004018080602001828103825260338152602001806130756033913960400191505060405180910390fd5b6111fa6128d5565b60035460ff161561184e576040805162461bcd60e51b81526020600482015260146024820152732932b3b4b9ba3930ba34b7b71034b99037b832b760611b604482015290519081900360640190fd5b600354610100900460ff16156118a0576040805162461bcd60e51b815260206004820152601260248201527129bab136b4b9b9b4b7b71034b99037b832b760711b604482015290519081900360640190fd5b600e5460ff16156118ed576040805162461bcd60e51b815260206004820152601260248201527122bb30b63ab0ba34b7b71034b99037b832b760711b604482015290519081900360640190fd5b6118f6336111dc565b6119315760405162461bcd60e51b81526004018080602001828103825260338152602001806130756033913960400191505060405180910390fd5b60215460ff1615611982576040805162461bcd60e51b815260206004820152601660248201527514985b9ac8185b1c9958591e481c1d589b1a5cda195960521b604482015290519081900360640190fd5b6000600254116119cf576040805162461bcd60e51b8152602060048201526013602482015272139bc81d19585b5cc81c9959da5cdd195c9959606a1b604482015290519081900360640190fd5b6119d7612fd1565b6119df612fd1565b6119e7612fd1565b6119ef612fd1565b60005b600154811015611ada5760018181548110611a0957fe5b60009182526020918290206040805160c08101825260069093029091018054835260018101549383019390935260028301546001600160a01b03169082015260038201546060820152600482015460ff16158015608083015260059092015460a0820152955080611a8157508160a001518560a00151105b15611a8b57611ad2565b8360a001518560a001511115611aa5578493929150611ad2565b8260a001518560a001511115611abe5784929150611ad2565b8160a001518560a001511115611ad2578491505b6001016119f2565b508251600f819055602080850151601055604080860151601180546001600160a01b03199081166001600160a01b0393841617918290556060808a01516012556080808b01516013805460ff1990811692151592909217905560a0808d015160148190558c516015558c8a01516016558c890151601780548816918a169190911790558c8501516018558c8401516019805485169115159190911790558c820151601a558b51601b558b8a0151601c558b890151601d8054909716908916179095558a840151601e558a830151601f805484169115159190911790558a01518855602180549091166001908117909155865198895293909416958701959095528584015292840192909252517f78bd43bbb342abb837e10002dd4fcda5ea371db518ce4e9aff10ab136441a99c9281900390910190a1601554601754601a54604080519384526001600160a01b0390921660208401528282015260026060830152517f78bd43bbb342abb837e10002dd4fcda5ea371db518ce4e9aff10ab136441a99c9181900360800190a1601b54601d5460208054604080519485526001600160a01b03909316918401919091528282015260036060830152517f78bd43bbb342abb837e10002dd4fcda5ea371db518ce4e9aff10ab136441a99c9181900360800190a150505050565b611cce336111dc565b611d095760405162461bcd60e51b81526004018080602001828103825260338152602001806130756033913960400191505060405180910390fd5b610d6181612915565b600e5460ff1690565b611d24336111dc565b611d5f5760405162461bcd60e51b81526004018080602001828103825260338152602001806130756033913960400191505060405180910390fd5b602b805460ff19166001179055565b600e5460ff16611dbc576040805162461bcd60e51b8152602060048201526014602482015273115d985b1d585d1a5bdb881a5cc818db1bdcd95960621b604482015290519081900360640190fd5b611dc5336111dc565b611e005760405162461bcd60e51b81526004018080602001828103825260338152602001806130756033913960400191505060405180910390fd5b6111fa612aa6565b611e11336111dc565b611e4c5760405162461bcd60e51b81526004018080602001828103825260338152602001806130756033913960400191505060405180910390fd5b610d6181612818565b60225481565b600e5460ff1615611ea8576040805162461bcd60e51b815260206004820152601260248201527122bb30b63ab0ba34b7b71034b99037b832b760711b604482015290519081900360640190fd5b611eb1336111dc565b611eec5760405162461bcd60e51b81526004018080602001828103825260338152602001806130756033913960400191505060405180910390fd5b6111fa612ae6565b60035460ff1615611f43576040805162461bcd60e51b81526020600482015260146024820152732932b3b4b9ba3930ba34b7b71034b99037b832b760611b604482015290519081900360640190fd5b611f4c336111dc565b611f875760405162461bcd60e51b81526004018080602001828103825260338152602001806130756033913960400191505060405180910390fd5b6111fa612b30565b60003411611fce5760405162461bcd60e51b81526004018080602001828103825260218152602001806130076021913960400191505060405180910390fd5b604080513481529051429133917f90890809c654f11d6e72a28fa60149770a0d11ec6c92319d6ceb2bb0a4ea1a159181900360200190a3565b60035460ff1690565b612019336111dc565b6120545760405162461bcd60e51b81526004018080602001828103825260338152602001806130756033913960400191505060405180910390fd5b610d6181612b7a565b8161206781612557565b6120aa576040805162461bcd60e51b815260206004820152600f60248201526e125b9d985b1a59081d19585b481a59608a1b604482015290519081900360640190fd5b826120b481612711565b6120fc576040805162461bcd60e51b81526020600482015260146024820152731519585b481a5cc81b9bdd08185c1c1c9bdd995960621b604482015290519081900360640190fd5b600354610100900460ff1661214f576040805162461bcd60e51b815260206004820152601460248201527314dd589b5a5cdcda5bdb881a5cc818db1bdcd95960621b604482015290519081900360640190fd5b60006001858154811061215e57fe5b60009182526020918290206003600690920201908101869055600281015481546040805189815290519395506001600160a01b039092169390927fa44de9e6ce79675199796005de8516704078af25aaf78ab4be180213882560ee9281900390910190a35050505050565b60006111e96005836127b1565b610d6181612bf1565b6121e8336111dc565b6122235760405162461bcd60e51b81526004018080602001828103825260338152602001806130756033913960400191505060405180910390fd5b602b5460ff161561227b576040805162461bcd60e51b815260206004820152601860248201527f5072697a657320616c726561647920616c6c6f63617465640000000000000000604482015290519081900360640190fd5b60006122918261228b8686612475565b90612475565b9050478111156122d25760405162461bcd60e51b81526004018080602001828103825260308152602001806132166030913960400191505060405180910390fd5b6040805180820182528581526000602091820181905260258790556026805460ff1990811690915583518085018552878152830182905260278790556028805482169055835180850185528681528301919091526029859055602a805482169055602b805490911660011790558151868152908101859052808201849052426060820152905133917f60e7ffaf15f306ac55b9117669d2fd27994d49f2ccf8490fc874df9ebb5706aa919081900360800190a250505050565b602b5460ff1690565b600354610100900460ff166123e7576040805162461bcd60e51b815260206004820152601460248201527314dd589b5a5cdcda5bdb881a5cc818db1bdcd95960621b604482015290519081900360640190fd5b6123f0336111dc565b61242b5760405162461bcd60e51b81526004018080602001828103825260338152602001806130756033913960400191505060405180910390fd5b6111fa612ccc565b61243e6004826124d6565b6040516001600160a01b038216907f37e96fc6762bae414e69ea6e2490e63bc46f2a1335de0f6b91f49cf808829bcf90600090a250565b6000828201838110156124cf576040805162461bcd60e51b815260206004820152601b60248201527f536166654d6174683a206164646974696f6e206f766572666c6f770000000000604482015290519081900360640190fd5b9392505050565b6124e082826127b1565b15612532576040805162461bcd60e51b815260206004820152601f60248201527f526f6c65733a206163636f756e7420616c72656164792068617320726f6c6500604482015290519081900360640190fd5b6001600160a01b0316600090815260209190915260409020805460ff19166001179055565b6001541190565b6011546000906001600160a01b038381169116148061258a57506017546001600160a01b038381169116145b806111e9575050601d546001600160a01b0390811691161490565b806125af81612557565b6125f2576040805162461bcd60e51b815260206004820152600f60248201526e125b9d985b1a59081d19585b481a59608a1b604482015290519081900360640190fd5b816125fc81612711565b15612646576040805162461bcd60e51b81526020600482015260156024820152742a32b0b69034b9903737ba103932b83937bb32b21760591b604482015290519081900360640190fd5b60006001848154811061265557fe5b600091825260209091206004600690920201908101805460ff191660019081179091556002549192506126889190612475565b6002908155810154815460048301546040805160ff90921615158252516001600160a01b03909316927fd903780bcf5bcea81714ac3450a34cb3de7b0735a59883e1eb90edd901a54ad49181900360200190a350505050565b60005b8151811015610da0576127098282815181106126fc57fe5b6020026020010151612bf1565b6001016126e4565b600061271c82612557565b612728575060006111ec565b60006001838154811061273757fe5b60009182526020918290206040805160c08101825260069093029091018054835260018101549383019390935260028301546001600160a01b03169082015260038201546060820152600482015460ff1615156080820181905260059092015460a090910152915050919050565b600a60ff909116111590565b60006001600160a01b0382166127f85760405162461bcd60e51b81526004018080602001828103825260228152602001806131f46022913960400191505060405180910390fd5b506001600160a01b03166000908152602091909152604090205460ff1690565b61282181612d17565b6001600160a01b03166000908152600d60205260409020600101805460ff60a01b19169055565b61285181612d54565b6001600160a01b0381166000908152600b60205260409020805460ff19169055600a5461287f906001612d96565b600a5550565b6003805461ff00191661010090811791829055604080519190920460ff161515815290517f48fbf5c7b70581e7e2145562de373e14a5af56d09f9b96d73545d0d35f71f0889181900360200190a1565b6003805460ff19169055604080516000815290517f78b477400a612eb4ec0a343596323cccfac06b27624264a549d8322c736d055c9181900360200190a1565b61291e81612dd8565b6000600c80549050905060006040518060800160405280838152602001846001600160a01b03168152602001600115158152602001600015158152509050600c8190806001815401808255809150506001900390600052602060002090600202016000909190919091506000820151816000015560208201518160010160006101000a8154816001600160a01b0302191690836001600160a01b0316021790555060408201518160010160146101000a81548160ff02191690831515021790555060608201518160010160156101000a81548160ff021916908315150217905550505080600d6000856001600160a01b03166001600160a01b031681526020019081526020016000206000820151816000015560208201518160010160006101000a8154816001600160a01b0302191690836001600160a01b0316021790555060408201518160010160146101000a81548160ff02191690831515021790555060608201518160010160156101000a81548160ff021916908315150217905550905050505050565b600e805460ff19169055604080516000815290517f0266365b4830894a247179cbad20f3dfe40ba70917925976027d2af68d950bed9181900360200190a1565b600e805460ff1916600117908190556040805160ff9290921615158252517f0266365b4830894a247179cbad20f3dfe40ba70917925976027d2af68d950bed9181900360200190a1565b6003805460ff1916600117908190556040805160ff9290921615158252517f78b477400a612eb4ec0a343596323cccfac06b27624264a549d8322c736d055c9181900360200190a1565b612b8381612433565b6009805460018082019092557f6e1540171b6c0c960b71a7020d9f60077f6af931a8bbf590da0223dacf75c7af0180546001600160a01b0319166001600160a01b0384169081179091556000908152600b60205260409020805460ff191682179055600a5461287f91612475565b80612bfb81612557565b612c3e576040805162461bcd60e51b815260206004820152600f60248201526e125b9d985b1a59081d19585b481a59608a1b604482015290519081900360640190fd5b81612c4881612711565b612c90576040805162461bcd60e51b81526020600482015260146024820152731519585b481a5cc81b9bdd08185c1c1c9bdd995960621b604482015290519081900360640190fd5b600060018481548110612c9f57fe5b6000918252602090912060069091020160048101805460ff19169055600254909150612688906001612d96565b6003805461ff001916908190556040805161010090920460ff1615158252517f48fbf5c7b70581e7e2145562de373e14a5af56d09f9b96d73545d0d35f71f0889181900360200190a1565b612d2081612e4f565b6001600160a01b0381166000908152600860205260409020805460ff19169055600754612d4e906001612d96565b60075550565b612d5f600482612e91565b6040516001600160a01b038216907fc459bd414676a5877fcf10a0d73ecf7e1f672a339650b03e628c4046534300e390600090a250565b60006124cf83836040518060400160405280601e81526020017f536166654d6174683a207375627472616374696f6e206f766572666c6f770000815250612ef8565b612de181612f8f565b6006805460018082019092557ff652222313e28459528d920b65115c16c04f3efc82aaedc97be59f3f377c0d3f0180546001600160a01b0319166001600160a01b0384169081179091556000908152600860205260409020805460ff191682179055600754612d4e91612475565b612e5a600582612e91565b6040516001600160a01b038216907f32a792a099c63670df7161917c5efb2fdc734cf9f943ebddccbecef87664f2b790600090a250565b612e9b82826127b1565b612ed65760405162461bcd60e51b81526004018080602001828103825260218152602001806130a86021913960400191505060405180910390fd5b6001600160a01b0316600090815260209190915260409020805460ff19169055565b60008184841115612f875760405162461bcd60e51b81526004018080602001828103825283818151815260200191508051906020019080838360005b83811015612f4c578181015183820152602001612f34565b50505050905090810190601f168015612f795780820380516001836020036101000a031916815260200191505b509250505060405180910390fd5b505050900390565b612f9a6005826124d6565b6040516001600160a01b038216907fe7f15f9ffff540ae14fdebcd9b6d6cc1fc143933338656c99caa595e8b80903990600090a250565b6040805160c081018252600080825260208201819052918101829052606081018290526080810182905260a08101919091529056fe6d73672e76616c7565206d757374206265206772656174686572207468616e20304a7564676520616c7265616479207375626d6974746564206576616c756174696f6e4a75646765526f6c653a2063616c6c657220646f6573206e6f742068617665204a7564676520526f6c652e4f7267616e697a6572526f6c653a2063616c6c657220646f6573206e6f742068617665204f7267616e697a657220526f6c652e526f6c65733a206163636f756e7420646f6573206e6f74206861766520726f6c65416464726573732063616e6e6f7420626520657175616c20746f20636f6e7472616374202874686973292061646472657373496e76616c696420616464726573732e204164647265737320636865636b206661696c65642e2053686f756c64206e6f74207265616368207468697320706f696e742e5072697a6520616c7265616479207061696420666f7220666972737420706c6163657465616d7349647320616e642067726164657320646f206e6f74206d617463682074686520636f756e74696e67206f6620617070726f766564207465616d735072697a6520616c7265616479207061696420666f7220746869726420706c6163654c656e677468206f66207465616d7320616e64207465616d47726164657320617272617973206d75737420626520657175616c526f6c65733a206163636f756e7420697320746865207a65726f20616464726573734e6f7420656e6f7567682066756e647320617661696c61626c6520696e206861636b6174686f6e20636f6e74726163745072697a6520616c7265616479207061696420666f72207365636f6e6420706c616365a2646970667358221220a049ae4a09d43d928ff132f23a91940e132f8a13443304498aee4e78aad892f164736f6c63430007060033526f6c65733a206163636f756e7420697320746865207a65726f2061646472657373",
  "immutableReferences": {},
  "source": "// SPDX-License-Identifier: UNLICENSED\n\npragma solidity >=0.7.0 <0.8.0;\n\nimport \"../core/Hackathon.sol\";\n\ncontract HackathonMock is Hackathon {\n    constructor(uint256 _id, bytes32 _name, bytes32 _description)\n        Hackathon(_id, _name, _description, msg.sender)\n    {\n        //\n    }\n\n    function dummyAllocatePrizesMock() external onlyOrganizer {\n        prizesAllocated = true;\n    }\n\n    function dummyPublishRankMock() external onlyOrganizer {\n        rankPublished = true;\n    }\n\n    function getPrizeAllocationStatus() external view returns (bool) {\n        return prizesAllocated;\n    }\n}\n",
  "sourcePath": "/media/fodisi/56401C55401C3DE5/dev/Projects/hackapay/contracts/mocks/HackathonMock.sol",
  "compiler": {
    "name": "solc",
    "version": "0.7.6+commit.7338295f.Emscripten.clang"
  },
  "schemaVersion": "3.3.2",
  "updatedAt": "2021-01-22T04:14:17.099Z",
  "devdoc": {
    "kind": "dev",
    "methods": {
      "allocatePrize(uint256,uint256,uint256)": {
        "details": "It does not associate the prize with a specific account, since prizes cound be associated any moment by the organizers, as long as prizes were not allocated before. The contract needs to have enought balance to allocate funds to winners."
      },
      "approveTeam(uint256)": {
        "details": "Should be overwritten on inherited contract to add modifier or require statements for access control.",
        "params": {
          "teamId": "{uint256} the ids of the teams to be approved"
        }
      },
      "closeEvaluation()": {
        "details": "Should be overwritten on inherited contract to add modifier or require statements for access control."
      },
      "closeRegistration()": {
        "details": "Overwritten to add modifier for access control."
      },
      "closeSubmission()": {
        "details": "Should be overwritten on inherited contract to add modifier or require statements for access control."
      },
      "getEvaluationStatus()": {
        "returns": {
          "_0": "{bool} returns {true} if enabled; otherwise, {false}."
        }
      },
      "getRegistrationStatus()": {
        "returns": {
          "_0": "{bool} returns {true} if enabled; otherwise, {false}."
        }
      },
      "getSubmissionStatus()": {
        "returns": {
          "_0": "{bool} returns {true} if enabled; otherwise, {false}."
        }
      },
      "getTeam(uint256)": {
        "params": {
          "teamId": "{uint256} the team's unique identifier returned on registration"
        },
        "returns": {
          "_0": "{bytes32} team's name",
          "_1": "{address} team's address",
          "_2": "{bytes32} team's proposal data",
          "_3": "{bool} team's status: {true} for approved; {false} for reproved;",
          "_4": "{uint256} team's grade"
        }
      },
      "getTeamByAddress(address)": {
        "params": {
          "teamAddress": "{address} the team's contract address used on registration"
        },
        "returns": {
          "_0": "{bytes32} team's name",
          "_1": "{address} team's address",
          "_2": "{bytes32} team's proposal data",
          "_3": "{bool} team's status: {true} for approved; {false} for reproved;",
          "_4": "{uint256} team's grade"
        }
      },
      "getWinnersIds()": {
        "returns": {
          "_0": "{uint256} First place's id",
          "_1": "{uint256} Second place's id",
          "_2": "{uint256} Third place's id"
        }
      },
      "openEvaluation()": {
        "details": "Should be overwritten on inherited contract to add modifier or require statements for access control."
      },
      "openRegistration()": {
        "details": "Overwritten to add modifier for access control."
      },
      "openSubmission()": {
        "details": "Should be overwritten on inherited contract to add modifier or require statements for access control."
      },
      "publishRank()": {
        "details": "emitts an WinnerAnnounced event for each winner (1st, 2nd, 3rd place)."
      },
      "registerTeam(bytes32,address,bytes32)": {
        "details": "Registration process must be open.",
        "params": {
          "teamName": "{bytes32} team's proposal data; could be a hash for a file  on IPFS or for a github link; not required"
        }
      },
      "reproveTeam(uint256)": {
        "details": "Should be overwritten on inherited contract to add modifier or require statements for access control.",
        "params": {
          "teamId": "{uint256} the ids of the teams to be reproved"
        }
      },
      "reproveTeams(uint256[])": {
        "details": "Should be overwritten on inherited contract to add modifier or require statements for access control.",
        "params": {
          "teamIds": "{uint256[]} an array containing the ids of the teams to be reproved"
        }
      },
      "submitEvaluation(uint256[],uint8[])": {
        "details": "The position of teamId and teamGrade must be the same in the array. For example, if teamId \"1\" is sent at {teamIds} array position \"5\" (zero-based), the grade for team \"1\" must be sent at position \"5\" in {teamGrades} array.",
        "params": {
          "teamGrades": "Array of the grades given by the judge for each team.",
          "teamIds": "Array of the ids associated with each team that is going to be evaluated."
        }
      },
      "updateProposalData(uint256,bytes32)": {
        "params": {
          "proposalData": "the updated data for the team's proposal",
          "teamId": "team's unique identifier; required"
        }
      },
      "withdrawPrize(address)": {
        "details": "Winners must implement IPayable to receive funds."
      }
    },
    "version": 1
  },
  "userdoc": {
    "events": {
      "Deposit(address,uint256,uint256)": {
        "notice": "Event emitted when the contract receives a deposit."
      }
    },
    "kind": "user",
    "methods": {
      "addJudge(address)": {
        "notice": "@dev Needs to be implemented by a inherited contract."
      },
      "allocatePrize(uint256,uint256,uint256)": {
        "notice": "Allows the organizer to allocate funds that's going to be distributed to winners."
      },
      "approveTeam(uint256)": {
        "notice": "(re)approves a team in participating in the contest"
      },
      "closeEvaluation()": {
        "notice": "Closes the evaluation process"
      },
      "closeRegistration()": {
        "notice": "Closes the registration process"
      },
      "closeSubmission()": {
        "notice": "Closes the proposal submission process"
      },
      "deposit()": {
        "notice": "Allows the contract to receive funds."
      },
      "getEvaluationStatus()": {
        "notice": "Gets the evaluation status"
      },
      "getRegistrationStatus()": {
        "notice": "Gets the registration status"
      },
      "getSubmissionStatus()": {
        "notice": "Gets the submission status"
      },
      "getTeam(uint256)": {
        "notice": "Returns the stored information of a team"
      },
      "getTeamByAddress(address)": {
        "notice": "Returns the stored information of a team, based on a provided address"
      },
      "getWinnersIds()": {
        "notice": "Gets the id of the winner teams."
      },
      "openEvaluation()": {
        "notice": "Opens the evaluation process"
      },
      "openRegistration()": {
        "notice": "Opens the registration process"
      },
      "openSubmission()": {
        "notice": "Opens the proposal submission process"
      },
      "publishRank()": {
        "notice": "Published the ranking results of the contest."
      },
      "registerTeam(bytes32,address,bytes32)": {
        "notice": "Registers a new team in the contest registry."
      },
      "reproveTeam(uint256)": {
        "notice": "reproves a team from participating in the contest"
      },
      "reproveTeams(uint256[])": {
        "notice": "reprove teams from participating in the contest"
      },
      "submitEvaluation(uint256[],uint8[])": {
        "notice": "Allows a judge to submit its evaluation for the teams competing in the contest. The evaluation for all teams must be submitted once."
      },
      "updateProposalData(uint256,bytes32)": {
        "notice": "Updates the proposal data for a specific team."
      },
      "withdrawPrize(address)": {
        "notice": "Allows withdrawing prizes to winners."
      }
    },
    "version": 1
  }
}