{
  "contractName": "HackathonFactory",
  "abi": [
    {
      "anonymous": false,
      "inputs": [
        {
          "indexed": false,
          "internalType": "uint256",
          "name": "id",
          "type": "uint256"
        },
        {
          "indexed": false,
          "internalType": "bytes32",
          "name": "name",
          "type": "bytes32"
        },
        {
          "indexed": false,
          "internalType": "bytes32",
          "name": "description",
          "type": "bytes32"
        },
        {
          "indexed": false,
          "internalType": "address",
          "name": "contractAddress",
          "type": "address"
        },
        {
          "indexed": false,
          "internalType": "address",
          "name": "creator",
          "type": "address"
        }
      ],
      "name": "NewHackathonContract",
      "type": "event"
    },
    {
      "constant": false,
      "inputs": [
        {
          "internalType": "bytes32",
          "name": "name",
          "type": "bytes32"
        },
        {
          "internalType": "bytes32",
          "name": "description",
          "type": "bytes32"
        }
      ],
      "name": "createHackathonContract",
      "outputs": [
        {
          "internalType": "address",
          "name": "",
          "type": "address"
        }
      ],
      "payable": true,
      "stateMutability": "payable",
      "type": "function"
    },
    {
      "constant": true,
      "inputs": [],
      "name": "getDeployedHackathonContracts",
      "outputs": [
        {
          "internalType": "address[]",
          "name": "",
          "type": "address[]"
        }
      ],
      "payable": false,
      "stateMutability": "view",
      "type": "function"
    },
    {
      "constant": true,
      "inputs": [
        {
          "internalType": "uint256",
          "name": "id",
          "type": "uint256"
        }
      ],
      "name": "getHackathonContractById",
      "outputs": [
        {
          "internalType": "address",
          "name": "",
          "type": "address"
        }
      ],
      "payable": false,
      "stateMutability": "view",
      "type": "function"
    },
    {
      "constant": true,
      "inputs": [
        {
          "internalType": "bytes32",
          "name": "name",
          "type": "bytes32"
        }
      ],
      "name": "getHackathonContractByName",
      "outputs": [
        {
          "internalType": "address",
          "name": "",
          "type": "address"
        }
      ],
      "payable": false,
      "stateMutability": "view",
      "type": "function"
    }
  ],
  "bytecode": "0x608060405234801561001057600080fd5b50613a5f806100206000396000f3fe60806040526004361061003f5760003560e01c80632208d92a1461004457806334ab94841461008a578063a3ea17e6146100b4578063bc00a209146100d7575b600080fd5b34801561005057600080fd5b5061006e6004803603602081101561006757600080fd5b503561013c565b604080516001600160a01b039092168252519081900360200190f35b34801561009657600080fd5b5061006e600480360360208110156100ad57600080fd5b5035610173565b61006e600480360360408110156100ca57600080fd5b50803590602001356101f4565b3480156100e357600080fd5b506100ec6103db565b60408051602080825283518183015283519192839290830191858101910280838360005b83811015610128578181015183820152602001610110565b505050509050019250505060405180910390f35b60008054821061014b57600080fd5b6000828154811061015857fe5b6000918252602090912001546001600160a01b031692915050565b60008180821a60f81b6001600160f81b0319166101d7576040805162461bcd60e51b815260206004820152601e60248201527f4861636b6174686f6e206e616d652063616e6e6f7420626520656d7074790000604482015290519081900360640190fd5b50506000908152600160205260409020546001600160a01b031690565b60008280821a60f81b6001600160f81b031916610258576040805162461bcd60e51b815260206004820152601e60248201527f4861636b6174686f6e206e616d652063616e6e6f7420626520656d7074790000604482015290519081900360640190fd5b60008481526001602052604090205484906001600160a01b0316156102c4576040805162461bcd60e51b815260206004820152601d60248201527f4861636b6174686f6e206e616d6520616c726561647920696e20757365000000604482015290519081900360640190fd5b6000808054905090506000818787336040516102df9061043d565b93845260208401929092526040808401919091526001600160a01b0390911660608301525190819003608001906000f080158015610321573d6000803e3d6000fd5b5060008054600181810183557f290decd9548b62a8d60345a988386fc84ba6bc95484008f6362f93160ef3e56390910180546001600160a01b0385166001600160a01b031991821681179092558b8452602092835260409384902080549091168217905582518681529182018b90528183018a9052606082015233608082015290519192507f6456da3468764771670b34d5c07edeb48ba5e503c11b72833a8f90a1fda1e52b919081900360a00190a19695505050505050565b6060600080548060200260200160405190810160405280929190818152602001828054801561043357602002820191906000526020600020905b81546001600160a01b03168152600190910190602001808311610415575b5050505050905090565b6135e08061044b8339019056fe60806040523480156200001157600080fd5b50604051620035e0380380620035e0833981810160405260808110156200003757600080fd5b50805160208201516040830151606090930151919290918080806001600160a01b038116620000ad576040805162461bcd60e51b815260206004820152601460248201527f496e76616c6964207a65726f2061646472657373000000000000000000000000604482015290519081900360640190fd5b620000c1816001600160e01b036200014d16565b50849150600090501a60f81b7fff000000000000000000000000000000000000000000000000000000000000001662000130576040805162461bcd60e51b815260206004820152600c60248201526b496e76616c6964206e616d6560a01b604482015290519081900360640190fd5b50602292909255602355602455602b805460ff1916905562000391565b6200016381620001e760201b62002cd31760201c565b6009805460018082019092557f6e1540171b6c0c960b71a7020d9f60077f6af931a8bbf590da0223dacf75c7af0180546001600160a01b0319166001600160a01b0384169081179091556000908152600b60209081526040909120805460ff191683179055600a54620001e192909162000239811b620025c017901c565b600a5550565b620002028160046200029b60201b62002ea91790919060201c565b6040516001600160a01b038216907f37e96fc6762bae414e69ea6e2490e63bc46f2a1335de0f6b91f49cf808829bcf90600090a250565b60008282018381101562000294576040805162461bcd60e51b815260206004820152601b60248201527f536166654d6174683a206164646974696f6e206f766572666c6f770000000000604482015290519081900360640190fd5b9392505050565b620002b082826001600160e01b036200032816565b1562000303576040805162461bcd60e51b815260206004820152601f60248201527f526f6c65733a206163636f756e7420616c72656164792068617320726f6c6500604482015290519081900360640190fd5b6001600160a01b0316600090815260209190915260409020805460ff19166001179055565b60006001600160a01b038216620003715760405162461bcd60e51b8152600401808060200182810382526022815260200180620035be6022913960400191505060405180910390fd5b506001600160a01b03166000908152602091909152604090205460ff1690565b61321d80620003a16000396000f3fe6080604052600436106101ed5760003560e01c80637dc673bc1161010d578063d06e4ee7116100a0578063eaf2f9cd1161006f578063eaf2f9cd14610728578063ed896d6614610758578063f540548b1461078b578063f59ec3f9146107b5578063ffc6ff1e146107eb576101ed565b8063d06e4ee7146106c3578063d0e30db0146106d8578063e35fb241146106e0578063e4725f02146106f5576101ed565b8063ae237c77116100dc578063ae237c7714610651578063ae2ac4ae14610666578063af640d0f14610699578063b2a13f92146106ae576101ed565b80637dc673bc146105df57806390d768e4146105f4578063927cab4714610609578063a2bce8bd1461063c576101ed565b80634b30b66f1161018557806358e2f50e1161015457806358e2f50e146105435780637284e41614610558578063737a63401461056d5780637385712c146105a0576101ed565b80634b30b66f146104d15780634ea701a8146104e657806354e1db2b14610519578063567ad8621461052e576101ed565b8063288c4a46116101c1578063288c4a46146102d75780633e091f64146103545780633ed2b77a1461042357806341676f151461048a576101ed565b80628e0f1b146101f257806306fdde031461025157806311dc45c91461027857806324ba9fab146102ad575b600080fd5b3480156101fe57600080fd5b5061021c6004803603602081101561021557600080fd5b5035610800565b604080519586526001600160a01b03909416602086015284840192909252151560608401526080830152519081900360a00190f35b34801561025d57600080fd5b506102666108ea565b60408051918252519081900360200190f35b34801561028457600080fd5b506102ab6004803603602081101561029b57600080fd5b50356001600160a01b03166108f0565b005b3480156102b957600080fd5b506102ab600480360360208110156102d057600080fd5b5035610cfe565b3480156102e357600080fd5b506102ab600480360360208110156102fa57600080fd5b81019060208101813564010000000081111561031557600080fd5b82018360208201111561032757600080fd5b8035906020019184602083028401116401000000008311171561034957600080fd5b509092509050610d0a565b34801561036057600080fd5b506102ab6004803603604081101561037757600080fd5b81019060208101813564010000000081111561039257600080fd5b8201836020820111156103a457600080fd5b803590602001918460208302840111640100000000831117156103c657600080fd5b9193909290916020810190356401000000008111156103e457600080fd5b8201836020820111156103f657600080fd5b8035906020019184602083028401116401000000008311171561041857600080fd5b509092509050610d4a565b34801561042f57600080fd5b5061044d6004803603602081101561044657600080fd5b50356110d9565b6040805196875260208701959095526001600160a01b039093168585015260608501919091521515608084015260a0830152519081900360c00190f35b34801561049657600080fd5b506104bd600480360360208110156104ad57600080fd5b50356001600160a01b031661112c565b604080519115158252519081900360200190f35b3480156104dd57600080fd5b506102ab611147565b3480156104f257600080fd5b5061021c6004803603602081101561050957600080fd5b50356001600160a01b0316611152565b34801561052557600080fd5b506104bd61122d565b34801561053a57600080fd5b506102ab61123b565b34801561054f57600080fd5b506102ab611244565b34801561056457600080fd5b506102666112e2565b34801561057957600080fd5b506105826112e8565b60408051938452602084019290925282820152519081900360600190f35b3480156105ac57600080fd5b50610266600480360360608110156105c357600080fd5b508035906001600160a01b0360208201351690604001356112f6565b3480156105eb57600080fd5b506102ab6116d4565b34801561060057600080fd5b506102ab611770565b34801561061557600080fd5b506102ab6004803603602081101561062c57600080fd5b50356001600160a01b0316611c36565b34801561064857600080fd5b506104bd611c83565b34801561065d57600080fd5b506102ab611c8c565b34801561067257600080fd5b506102ab6004803603602081101561068957600080fd5b50356001600160a01b0316611d26565b3480156106a557600080fd5b50610266611d73565b3480156106ba57600080fd5b506102ab611d79565b3480156106cf57600080fd5b506102ab611e12565b6102ab611ead565b3480156106ec57600080fd5b506104bd611f25565b34801561070157600080fd5b506102ab6004803603602081101561071857600080fd5b50356001600160a01b0316611f2e565b34801561073457600080fd5b506102ab6004803603604081101561074b57600080fd5b5080359060200135611f7b565b34801561076457600080fd5b506104bd6004803603602081101561077b57600080fd5b50356001600160a01b03166120e7565b34801561079757600080fd5b506102ab600480360360208110156107ae57600080fd5b50356120fa565b3480156107c157600080fd5b506102ab600480360360608110156107d857600080fd5b5080359060208101359060400135612103565b3480156107f757600080fd5b506102ab6122bb565b6000806000806000856108128161235a565b610855576040805162461bcd60e51b815260206004820152600f60248201526e125b9d985b1a59081d19585b481a59608a1b604482015290519081900360640190fd5b61085d612f2a565b6001888154811061086a57fe5b60009182526020918290206040805160c08101825260069390930290910180548352600181015493830184905260028101546001600160a01b0316918301829052600381015460608401819052600482015460ff1615156080850181905260059092015460a0909401849052939c919b5092995091975095509350505050565b60235481565b60215460ff16610940576040805162461bcd60e51b815260206004820152601660248201527514985b9ac81b9bdd081c1d589b1a5cda1959081e595d60521b604482015290519081900360640190fd5b602b5460ff16610997576040805162461bcd60e51b815260206004820152601860248201527f5072697a6573206e6f7420616c6c6f6361746564207965740000000000000000604482015290519081900360640190fd5b806001600160a01b0381166109ea576040805162461bcd60e51b8152602060048201526014602482015273496e76616c6964207a65726f206164647265737360601b604482015290519081900360640190fd5b6001600160a01b038116301415610a325760405162461bcd60e51b81526004018080602001828103825260328152602001806130496032913960400191505060405180910390fd5b81610a3c81612361565b610a8d576040805162461bcd60e51b815260206004820152601f60248201527f4163636f756e742061646472657373206973206e6f7420612077696e6e657200604482015290519081900360640190fd5b601154600090819081906001600160a01b0387811691161415610b175750506011546025546026546001600160a01b0390921692509060019060ff1615610b055760405162461bcd60e51b81526004018080602001828103825260228152602001806130be6022913960400191505060405180910390fd5b6026805460ff19166001179055610c54565b6017546001600160a01b0387811691161415610b9a5750506017546027546028546001600160a01b0390921692509060029060ff1615610b885760405162461bcd60e51b81526004018080602001828103825260238152602001806131c66023913960400191505060405180910390fd5b6028805460ff19166001179055610c54565b601d546001600160a01b0387811691161415610c1d575050601d54602954602a546001600160a01b0390921692509060039060ff1615610c0b5760405162461bcd60e51b815260040180806020018281038252602281526020018061311f6022913960400191505060405180910390fd5b602a805460ff19166001179055610c54565b60405162461bcd60e51b815260040180806020018281038252604381526020018061307b6043913960600191505060405180910390fd5b6040805183815260ff831660208201524281830152905133916001600160a01b038616917f24cc64e111181860a0e50314e2717d8d86bc21fb600e5681040e47cd5eab7f079181900360600190a3826001600160a01b031663d0e30db0836040518263ffffffff1660e01b81526004016000604051808303818588803b158015610cdd57600080fd5b505af1158015610cf1573d6000803e3d6000fd5b5050505050505050505050565b610d07816123a8565b50565b610d468282808060200260200160405190810160405280939291908181526020018383602002808284376000920191909152506124ea92505050565b5050565b600e5460ff16610d98576040805162461bcd60e51b8152602060048201526014602482015273115d985b1d585d1a5bdb881a5cc818db1bdcd95960621b604482015290519081900360640190fd5b610da1336120e7565b610ddc5760405162461bcd60e51b815260040180806020018281038252602b815260200180612fca602b913960400191505060405180910390fd5b828114610e1a5760405162461bcd60e51b81526004018080602001828103825260338152602001806131416033913960400191505060405180910390fd5b6002548314610e5a5760405162461bcd60e51b815260040180806020018281038252603f8152602001806130e0603f913960400191505060405180910390fd5b600060025411610eb1576040805162461bcd60e51b815260206004820152601d60248201527f4e6f20617070726f766564207465616d7320746f206576616c75617465000000604482015290519081900360640190fd5b336000908152600d602052604090206001810154600160a81b900460ff1615610f0b5760405162461bcd60e51b8152600401808060200182810382526022815260200180612fa86022913960400191505060405180910390fd5b60005b600254811015611079576000868683818110610f2657fe5b9050602002013590506000858584818110610f3d57fe5b9050602002013560ff169050610f528261235a565b610f95576040805162461bcd60e51b815260206004820152600f60248201526e125b9d985b1a59081d19585b481a59608a1b604482015290519081900360640190fd5b610f9e8261251a565b610fe6576040805162461bcd60e51b81526020600482015260146024820152731519585b481a5cc81b9bdd08185c1c1c9bdd995960621b604482015290519081900360640190fd5b610fef816125b4565b611030576040805162461bcd60e51b815260206004820152600d60248201526c496e76616c696420677261646560981b604482015290519081900360640190fd5b60006001838154811061103f57fe5b906000526020600020906006020190506110698260ff1682600501546125c090919063ffffffff16565b6005909101555050600101610f0e565b5060018101805460ff60a81b1916600160a81b17908190558154604080516001600160a01b0390931683525190917fd62869bbd78965284c34750092d78b62093e2d02b730d0ce696ebdcb371bb5dc919081900360200190a25050505050565b600181815481106110e657fe5b600091825260209091206006909102018054600182015460028301546003840154600485015460059095015493955091936001600160a01b039091169260ff9091169086565b600061113f60048363ffffffff61262116565b90505b919050565b61115033612688565b565b6000808080806001600160a01b0386166111aa576040805162461bcd60e51b8152602060048201526014602482015273496e76616c6964207a65726f206164647265737360601b604482015290519081900360640190fd5b6111b2612f2a565b505050506001600160a01b0392831660009081526020818152604091829020825160c0810184528154815260018201549281018390526002820154909616928601839052600381015460608701819052600482015460ff1615156080880181905260059092015460a090970187905291969295919450925090565b600354610100900460ff1690565b611150336126b8565b600354610100900460ff1615611296576040805162461bcd60e51b815260206004820152601260248201527129bab136b4b9b9b4b7b71034b99037b832b760711b604482015290519081900360640190fd5b61129f3361112c565b6112da5760405162461bcd60e51b8152600401808060200182810382526033815260200180612ff56033913960400191505060405180910390fd5b6111506126fb565b60245481565b600f54601554601b54909192565b60035460009060ff16611349576040805162461bcd60e51b8152602060048201526016602482015275149959da5cdd1c985d1a5bdb881a5cc818db1bdcd95960521b604482015290519081900360640190fd5b8360001a60f81b6001600160f81b0319166113ab576040805162461bcd60e51b815260206004820152601960248201527f5465616d206e616d652063616e6e6f7420626520656d70747900000000000000604482015290519081900360640190fd5b6001600160a01b038316611406576040805162461bcd60e51b815260206004820152601b60248201527f5465616d20616464726573732063616e6e6f74206265207a65726f0000000000604482015290519081900360640190fd5b6001600160a01b038381166000908152602081905260409020600201541615611476576040805162461bcd60e51b815260206004820152601760248201527f5465616d20616c72656164792072656769737465726564000000000000000000604482015290519081900360640190fd5b600154611481612f2a565b506040805160c081018252828152602081018781526001600160a01b0387811693830193845260608301878152600160808501818152600060a08701818152835480850185559184905287517fb10e2d527612073b26eecdfd717e6a320cf44b4afac2b0732d9fcbe2b7fa0cf660069093029283015595517fb10e2d527612073b26eecdfd717e6a320cf44b4afac2b0732d9fcbe2b7fa0cf782015596517fb10e2d527612073b26eecdfd717e6a320cf44b4afac2b0732d9fcbe2b7fa0cf8880180546001600160a01b031916919095161790935590517fb10e2d527612073b26eecdfd717e6a320cf44b4afac2b0732d9fcbe2b7fa0cf986015590517fb10e2d527612073b26eecdfd717e6a320cf44b4afac2b0732d9fcbe2b7fa0cfa8501805460ff191691151591909117905590517fb10e2d527612073b26eecdfd717e6a320cf44b4afac2b0732d9fcbe2b7fa0cfb909301929092558154909190839081106115e957fe5b600091825260208083206001600160a01b03808a1685529184905260409093206006909202909201805482556001808201548184015560028083015481850180546001600160a01b031916919096161790945560038083015490840155600480830154908401805460ff909216151560ff19909216919091179055600591820154919092015590546116809163ffffffff6125c016565b600255604080518781526001602082015281516001600160a01b0388169285927f443b25596b838f2775d21b1153b87036f08c058fd4702446f1136ab26e5f3b90929081900390910190a350949350505050565b60035460ff16611724576040805162461bcd60e51b8152602060048201526016602482015275149959da5cdd1c985d1a5bdb881a5cc818db1bdcd95960521b604482015290519081900360640190fd5b61172d3361112c565b6117685760405162461bcd60e51b8152600401808060200182810382526033815260200180612ff56033913960400191505060405180910390fd5b61115061274b565b60035460ff16156117bf576040805162461bcd60e51b81526020600482015260146024820152732932b3b4b9ba3930ba34b7b71034b99037b832b760611b604482015290519081900360640190fd5b600354610100900460ff1615611811576040805162461bcd60e51b815260206004820152601260248201527129bab136b4b9b9b4b7b71034b99037b832b760711b604482015290519081900360640190fd5b600e5460ff161561185e576040805162461bcd60e51b815260206004820152601260248201527122bb30b63ab0ba34b7b71034b99037b832b760711b604482015290519081900360640190fd5b6118673361112c565b6118a25760405162461bcd60e51b8152600401808060200182810382526033815260200180612ff56033913960400191505060405180910390fd5b60215460ff16156118f3576040805162461bcd60e51b815260206004820152601660248201527514985b9ac8185b1c9958591e481c1d589b1a5cda195960521b604482015290519081900360640190fd5b600060025411611940576040805162461bcd60e51b8152602060048201526013602482015272139bc81d19585b5cc81c9959da5cdd195c9959606a1b604482015290519081900360640190fd5b611948612f2a565b611950612f2a565b611958612f2a565b611960612f2a565b60005b600154811015611a4b576001818154811061197a57fe5b60009182526020918290206040805160c08101825260069093029091018054835260018101549383019390935260028301546001600160a01b03169082015260038201546060820152600482015460ff16158015608083015260059092015460a08201529550806119f257508160a001518560a00151105b156119fc57611a43565b8360a001518560a001511115611a16578493929150611a43565b8260a001518560a001511115611a2f5784929150611a43565b8160a001518560a001511115611a43578491505b600101611963565b508251600f819055602080850151601055604080860151601180546001600160a01b03199081166001600160a01b0393841617918290556060808a01516012556080808b01516013805460ff1990811692151592909217905560a0808d015160148190558c516015558c8a01516016558c890151601780548816918a169190911790558c8501516018558c8401516019805485169115159190911790558c820151601a558b51601b558b8a0151601c558b890151601d8054909716908916179095558a840151601e558a830151601f805484169115159190911790558a01518855602180549091166001908117909155865198895293909416958701959095528584015292840192909252517f78bd43bbb342abb837e10002dd4fcda5ea371db518ce4e9aff10ab136441a99c9281900390910190a1601554601754601a54604080519384526001600160a01b0390921660208401528282015260026060830152517f78bd43bbb342abb837e10002dd4fcda5ea371db518ce4e9aff10ab136441a99c9181900360800190a1601b54601d5460208054604080519485526001600160a01b03909316918401919091528282015260036060830152517f78bd43bbb342abb837e10002dd4fcda5ea371db518ce4e9aff10ab136441a99c9181900360800190a150505050565b611c3f3361112c565b611c7a5760405162461bcd60e51b8152600401808060200182810382526033815260200180612ff56033913960400191505060405180910390fd5b610d078161278b565b600e5460ff1690565b600e5460ff16611cda576040805162461bcd60e51b8152602060048201526014602482015273115d985b1d585d1a5bdb881a5cc818db1bdcd95960621b604482015290519081900360640190fd5b611ce33361112c565b611d1e5760405162461bcd60e51b8152600401808060200182810382526033815260200180612ff56033913960400191505060405180910390fd5b61115061291e565b611d2f3361112c565b611d6a5760405162461bcd60e51b8152600401808060200182810382526033815260200180612ff56033913960400191505060405180910390fd5b610d0781612688565b60225481565b600e5460ff1615611dc6576040805162461bcd60e51b815260206004820152601260248201527122bb30b63ab0ba34b7b71034b99037b832b760711b604482015290519081900360640190fd5b611dcf3361112c565b611e0a5760405162461bcd60e51b8152600401808060200182810382526033815260200180612ff56033913960400191505060405180910390fd5b61115061295e565b60035460ff1615611e61576040805162461bcd60e51b81526020600482015260146024820152732932b3b4b9ba3930ba34b7b71034b99037b832b760611b604482015290519081900360640190fd5b611e6a3361112c565b611ea55760405162461bcd60e51b8152600401808060200182810382526033815260200180612ff56033913960400191505060405180910390fd5b6111506129a8565b60003411611eec5760405162461bcd60e51b8152600401808060200182810382526021815260200180612f876021913960400191505060405180910390fd5b604080513481529051429133917f90890809c654f11d6e72a28fa60149770a0d11ec6c92319d6ceb2bb0a4ea1a159181900360200190a3565b60035460ff1690565b611f373361112c565b611f725760405162461bcd60e51b8152600401808060200182810382526033815260200180612ff56033913960400191505060405180910390fd5b610d07816129f2565b81611f858161235a565b611fc8576040805162461bcd60e51b815260206004820152600f60248201526e125b9d985b1a59081d19585b481a59608a1b604482015290519081900360640190fd5b82611fd28161251a565b61201a576040805162461bcd60e51b81526020600482015260146024820152731519585b481a5cc81b9bdd08185c1c1c9bdd995960621b604482015290519081900360640190fd5b600354610100900460ff1661206d576040805162461bcd60e51b815260206004820152601460248201527314dd589b5a5cdcda5bdb881a5cc818db1bdcd95960621b604482015290519081900360640190fd5b60006001858154811061207c57fe5b60009182526020918290206003600690920201908101869055600281015481546040805189815290519395506001600160a01b039092169390927fa44de9e6ce79675199796005de8516704078af25aaf78ab4be180213882560ee9281900390910190a35050505050565b600061113f60058363ffffffff61262116565b610d0781612a69565b61210c3361112c565b6121475760405162461bcd60e51b8152600401808060200182810382526033815260200180612ff56033913960400191505060405180910390fd5b602b5460ff161561219f576040805162461bcd60e51b815260206004820152601860248201527f5072697a657320616c726561647920616c6c6f63617465640000000000000000604482015290519081900360640190fd5b60006121c1826121b5868663ffffffff6125c016565b9063ffffffff6125c016565b9050478111156122025760405162461bcd60e51b81526004018080602001828103825260308152602001806131966030913960400191505060405180910390fd5b6040805180820182528581526000602091820181905260258790556026805460ff1990811690915583518085018552878152830182905260278790556028805482169055835180850185528681528301919091526029859055602a805482169055602b805490911660011790558151868152908101859052808201849052426060820152905133917f60e7ffaf15f306ac55b9117669d2fd27994d49f2ccf8490fc874df9ebb5706aa919081900360800190a250505050565b600354610100900460ff1661230e576040805162461bcd60e51b815260206004820152601460248201527314dd589b5a5cdcda5bdb881a5cc818db1bdcd95960621b604482015290519081900360640190fd5b6123173361112c565b6123525760405162461bcd60e51b8152600401808060200182810382526033815260200180612ff56033913960400191505060405180910390fd5b611150612b44565b6001541190565b6011546000906001600160a01b038381169116148061238d57506017546001600160a01b038381169116145b8061113f575050601d546001600160a01b0390811691161490565b806123b28161235a565b6123f5576040805162461bcd60e51b815260206004820152600f60248201526e125b9d985b1a59081d19585b481a59608a1b604482015290519081900360640190fd5b816123ff8161251a565b15612449576040805162461bcd60e51b81526020600482015260156024820152742a32b0b69034b9903737ba103932b83937bb32b21760591b604482015290519081900360640190fd5b60006001848154811061245857fe5b600091825260209091206004600690920201908101805460ff19166001908117909155600254919250612491919063ffffffff6125c016565b6002908155810154815460048301546040805160ff90921615158252516001600160a01b03909316927fd903780bcf5bcea81714ac3450a34cb3de7b0735a59883e1eb90edd901a54ad49181900360200190a350505050565b60005b8151811015610d465761251282828151811061250557fe5b6020026020010151612a69565b6001016124ed565b60006125258261235a565b61253157506000611142565b612539612f2a565b6001838154811061254657fe5b60009182526020918290206040805160c08101825260069093029091018054835260018101549383019390935260028301546001600160a01b03169082015260038201546060820152600482015460ff1615156080820181905260059092015460a090910152915050919050565b600a60ff909116111590565b60008282018381101561261a576040805162461bcd60e51b815260206004820152601b60248201527f536166654d6174683a206164646974696f6e206f766572666c6f770000000000604482015290519081900360640190fd5b9392505050565b60006001600160a01b0382166126685760405162461bcd60e51b81526004018080602001828103825260228152602001806131746022913960400191505060405180910390fd5b506001600160a01b03166000908152602091909152604090205460ff1690565b61269181612b8f565b6001600160a01b03166000908152600d60205260409020600101805460ff60a01b19169055565b6126c181612bd2565b6001600160a01b0381166000908152600b60205260409020805460ff19169055600a546126f590600163ffffffff612c1a16565b600a5550565b6003805461ff00191661010090811791829055604080519190920460ff161515815290517f48fbf5c7b70581e7e2145562de373e14a5af56d09f9b96d73545d0d35f71f0889181900360200190a1565b6003805460ff19169055604080516000815290517f78b477400a612eb4ec0a343596323cccfac06b27624264a549d8322c736d055c9181900360200190a1565b61279481612c5c565b600c5461279f612f5f565b6040518060800160405280838152602001846001600160a01b03168152602001600115158152602001600015158152509050600c81908060018154018082558091505090600182039060005260206000209060020201600090919290919091506000820151816000015560208201518160010160006101000a8154816001600160a01b0302191690836001600160a01b0316021790555060408201518160010160146101000a81548160ff02191690831515021790555060608201518160010160156101000a81548160ff02191690831515021790555050505080600d6000856001600160a01b03166001600160a01b031681526020019081526020016000206000820151816000015560208201518160010160006101000a8154816001600160a01b0302191690836001600160a01b0316021790555060408201518160010160146101000a81548160ff02191690831515021790555060608201518160010160156101000a81548160ff021916908315150217905550905050505050565b600e805460ff19169055604080516000815290517f0266365b4830894a247179cbad20f3dfe40ba70917925976027d2af68d950bed9181900360200190a1565b600e805460ff1916600117908190556040805160ff9290921615158252517f0266365b4830894a247179cbad20f3dfe40ba70917925976027d2af68d950bed9181900360200190a1565b6003805460ff1916600117908190556040805160ff9290921615158252517f78b477400a612eb4ec0a343596323cccfac06b27624264a549d8322c736d055c9181900360200190a1565b6129fb81612cd3565b6009805460018082019092557f6e1540171b6c0c960b71a7020d9f60077f6af931a8bbf590da0223dacf75c7af0180546001600160a01b0319166001600160a01b0384169081179091556000908152600b60205260409020805460ff191682179055600a546126f5916125c0565b80612a738161235a565b612ab6576040805162461bcd60e51b815260206004820152600f60248201526e125b9d985b1a59081d19585b481a59608a1b604482015290519081900360640190fd5b81612ac08161251a565b612b08576040805162461bcd60e51b81526020600482015260146024820152731519585b481a5cc81b9bdd08185c1c1c9bdd995960621b604482015290519081900360640190fd5b600060018481548110612b1757fe5b6000918252602090912060069091020160048101805460ff19169055600254909150612491906001612c1a565b6003805461ff001916908190556040805161010090920460ff1615158252517f48fbf5c7b70581e7e2145562de373e14a5af56d09f9b96d73545d0d35f71f0889181900360200190a1565b612b9881612d1b565b6001600160a01b0381166000908152600860205260409020805460ff19169055600754612bcc90600163ffffffff612c1a16565b60075550565b612be360048263ffffffff612d6316565b6040516001600160a01b038216907fc459bd414676a5877fcf10a0d73ecf7e1f672a339650b03e628c4046534300e390600090a250565b600061261a83836040518060400160405280601e81526020017f536166654d6174683a207375627472616374696f6e206f766572666c6f770000815250612dca565b612c6581612e61565b6006805460018082019092557ff652222313e28459528d920b65115c16c04f3efc82aaedc97be59f3f377c0d3f0180546001600160a01b0319166001600160a01b0384169081179091556000908152600860205260409020805460ff191682179055600754612bcc916125c0565b612ce460048263ffffffff612ea916565b6040516001600160a01b038216907f37e96fc6762bae414e69ea6e2490e63bc46f2a1335de0f6b91f49cf808829bcf90600090a250565b612d2c60058263ffffffff612d6316565b6040516001600160a01b038216907f32a792a099c63670df7161917c5efb2fdc734cf9f943ebddccbecef87664f2b790600090a250565b612d6d8282612621565b612da85760405162461bcd60e51b81526004018080602001828103825260218152602001806130286021913960400191505060405180910390fd5b6001600160a01b0316600090815260209190915260409020805460ff19169055565b60008184841115612e595760405162461bcd60e51b81526004018080602001828103825283818151815260200191508051906020019080838360005b83811015612e1e578181015183820152602001612e06565b50505050905090810190601f168015612e4b5780820380516001836020036101000a031916815260200191505b509250505060405180910390fd5b505050900390565b612e7260058263ffffffff612ea916565b6040516001600160a01b038216907fe7f15f9ffff540ae14fdebcd9b6d6cc1fc143933338656c99caa595e8b80903990600090a250565b612eb38282612621565b15612f05576040805162461bcd60e51b815260206004820152601f60248201527f526f6c65733a206163636f756e7420616c72656164792068617320726f6c6500604482015290519081900360640190fd5b6001600160a01b0316600090815260209190915260409020805460ff19166001179055565b6040805160c081018252600080825260208201819052918101829052606081018290526080810182905260a081019190915290565b6040805160808101825260008082526020820181905291810182905260608101919091529056fe6d73672e76616c7565206d757374206265206772656174686572207468616e20304a7564676520616c7265616479207375626d6974746564206576616c756174696f6e4a75646765526f6c653a2063616c6c657220646f6573206e6f742068617665204a7564676520526f6c652e4f7267616e697a6572526f6c653a2063616c6c657220646f6573206e6f742068617665204f7267616e697a657220526f6c652e526f6c65733a206163636f756e7420646f6573206e6f74206861766520726f6c65416464726573732063616e6e6f7420626520657175616c20746f20636f6e7472616374202874686973292061646472657373496e76616c696420616464726573732e204164647265737320636865636b206661696c65642e2053686f756c64206e6f74207265616368207468697320706f696e742e5072697a6520616c7265616479207061696420666f7220666972737420706c6163657465616d7349647320616e642067726164657320646f206e6f74206d617463682074686520636f756e74696e67206f6620617070726f766564207465616d735072697a6520616c7265616479207061696420666f7220746869726420706c6163654c656e677468206f66207465616d7320616e64207465616d47726164657320617272617973206d75737420626520657175616c526f6c65733a206163636f756e7420697320746865207a65726f20616464726573734e6f7420656e6f7567682066756e647320617661696c61626c6520696e206861636b6174686f6e20636f6e74726163745072697a6520616c7265616479207061696420666f72207365636f6e6420706c616365a265627a7a72315820388d637105bf3531d536e3da81cb485427b82313259c6a4a69999cc16ad4a4f164736f6c63430005100032526f6c65733a206163636f756e7420697320746865207a65726f2061646472657373a265627a7a72315820bbc6ee3b1d98553e1cf51a4e7975777b3fb19f90615798fc261ea814806e40ef64736f6c63430005100032",
  "source": "pragma solidity 0.5.16;\n\nimport \"@openzeppelin/contracts/math/SafeMath.sol\";\n\nimport \"../core/Hackathon.sol\";\n\n/**\n    @notice A factory to deploy new Hackathon contracts, and provide functionality to retrieve the deployed contracts' addresses.\n    @dev TODO: use struct to keep record of hackathon names, and allow implementing upgradability.\n */\ncontract HackathonFactory {\n    using SafeMath for uint256;\n\n    address[] private deployedHackathons;\n    mapping(bytes32 => address) private hackathonsByName;\n\n    /// @dev emitted when a new Hackathon contract is deployed.\n    event NewHackathonContract(uint256 id, bytes32 name, bytes32 description, address contractAddress, address creator);\n    // event TeamContractDeployed(uint256 id, bytes32 name, address contractAddress, address creator);\n\n    /// @dev Modifier to check if hackathon name is not empty.\n    modifier notEmptyName(bytes32 name) {\n        require(name[0] != 0, \"Hackathon name cannot be empty\");\n        _;\n    }\n\n    /// @dev Modifier to check if hackathon name is unique.\n    modifier uniqueHackathonName(bytes32 name) {\n        require(hackathonsByName[name] == address(0), \"Hackathon name already in use\");\n        _;\n    }\n\n    /**\n    @notice Creates and deploys a new Hackathon contract.\n    @param name Unique hackathon's name.\n    @param description A short description for the Hackathon.\n    @return The new contract's address.\n    */\n    function createHackathonContract(bytes32 name, bytes32 description)\n        public\n        payable\n        notEmptyName(name)\n        uniqueHackathonName(name)\n        returns (address)\n    {\n        // TODO: insert check if the sent ether is enough to cover the car asset ...\n        uint256 id = deployedHackathons.length;\n        address newHackathon = address(new Hackathon(id, name, description, msg.sender));\n        deployedHackathons.push(newHackathon);\n        hackathonsByName[name] = newHackathon;\n        emit NewHackathonContract(id, name, description, newHackathon, msg.sender);\n        return newHackathon;\n    }\n\n    /**\n        @notice Get a list with the addresses of the deployed contracts.\n        @return List of deployed contract's addresses \n    */\n    function getDeployedHackathonContracts() public view returns (address[] memory) {\n        return deployedHackathons;\n    }\n\n    /**\n        @notice Get a contract address with the internal id.\n        @return An address representing a deployed contract\n    */\n    function getHackathonContractById(uint256 id) public view returns (address) {\n        require(id < deployedHackathons.length);\n        return deployedHackathons[id];\n    }\n\n    /**\n        @notice Get a contract address with the internal name.\n        @return An address representing a deployed contract\n    */\n    function getHackathonContractByName(bytes32 name) public view notEmptyName(name) returns (address) {\n        return hackathonsByName[name];\n    }\n}\n",
  "sourcePath": "/media/fodisi/56401C55401C3DE5/dev/Projects/hackapay/contracts/factory/HackathonFactory.sol",
  "compiler": {
    "name": "solc",
    "version": "0.5.16+commit.9c3226ce.Emscripten.clang"
  },
  "schemaVersion": "3.0.23",
  "updatedAt": "2020-03-09T03:32:23.154Z",
  "networkType": "ethereum",
  "devdoc": {
    "details": "TODO: use struct to keep record of hackathon names, and allow implementing upgradability.",
    "methods": {
      "createHackathonContract(bytes32,bytes32)": {
        "params": {
          "description": "A short description for the Hackathon.",
          "name": "Unique hackathon's name."
        },
        "return": "The new contract's address."
      },
      "getDeployedHackathonContracts()": {
        "return": "List of deployed contract's addresses "
      },
      "getHackathonContractById(uint256)": {
        "return": "An address representing a deployed contract"
      },
      "getHackathonContractByName(bytes32)": {
        "return": "An address representing a deployed contract"
      }
    }
  },
  "userdoc": {
    "methods": {
      "createHackathonContract(bytes32,bytes32)": {
        "notice": "Creates and deploys a new Hackathon contract."
      },
      "getDeployedHackathonContracts()": {
        "notice": "Get a list with the addresses of the deployed contracts."
      },
      "getHackathonContractById(uint256)": {
        "notice": "Get a contract address with the internal id."
      },
      "getHackathonContractByName(bytes32)": {
        "notice": "Get a contract address with the internal name."
      }
    },
    "notice": "A factory to deploy new Hackathon contracts, and provide functionality to retrieve the deployed contracts' addresses."
  }
}