{
  "contractName": "Hackathon",
  "abi": [
    {
      "inputs": [
        {
          "internalType": "uint256",
          "name": "_id",
          "type": "uint256"
        },
        {
          "internalType": "bytes32",
          "name": "_name",
          "type": "bytes32"
        },
        {
          "internalType": "bytes32",
          "name": "_description",
          "type": "bytes32"
        },
        {
          "internalType": "address",
          "name": "initialOrganizer",
          "type": "address"
        }
      ],
      "payable": false,
      "stateMutability": "nonpayable",
      "type": "constructor"
    },
    {
      "anonymous": false,
      "inputs": [
        {
          "indexed": true,
          "internalType": "address",
          "name": "from",
          "type": "address"
        },
        {
          "indexed": false,
          "internalType": "uint256",
          "name": "amount",
          "type": "uint256"
        },
        {
          "indexed": true,
          "internalType": "uint256",
          "name": "datetime",
          "type": "uint256"
        }
      ],
      "name": "Deposit",
      "type": "event"
    },
    {
      "anonymous": false,
      "inputs": [
        {
          "indexed": false,
          "internalType": "bool",
          "name": "enabled",
          "type": "bool"
        }
      ],
      "name": "EvaluationStatusUpdated",
      "type": "event"
    },
    {
      "anonymous": false,
      "inputs": [
        {
          "indexed": true,
          "internalType": "address",
          "name": "account",
          "type": "address"
        }
      ],
      "name": "JudgeAdded",
      "type": "event"
    },
    {
      "anonymous": false,
      "inputs": [
        {
          "indexed": true,
          "internalType": "address",
          "name": "account",
          "type": "address"
        }
      ],
      "name": "JudgeRemoved",
      "type": "event"
    },
    {
      "anonymous": false,
      "inputs": [
        {
          "indexed": true,
          "internalType": "uint256",
          "name": "id",
          "type": "uint256"
        },
        {
          "indexed": false,
          "internalType": "address",
          "name": "judgeAddress",
          "type": "address"
        }
      ],
      "name": "JudgeVoted",
      "type": "event"
    },
    {
      "anonymous": false,
      "inputs": [
        {
          "indexed": true,
          "internalType": "address",
          "name": "account",
          "type": "address"
        }
      ],
      "name": "OrganizerAdded",
      "type": "event"
    },
    {
      "anonymous": false,
      "inputs": [
        {
          "indexed": true,
          "internalType": "address",
          "name": "account",
          "type": "address"
        }
      ],
      "name": "OrganizerRemoved",
      "type": "event"
    },
    {
      "anonymous": false,
      "inputs": [
        {
          "indexed": false,
          "internalType": "uint256",
          "name": "firstPlacePrize",
          "type": "uint256"
        },
        {
          "indexed": false,
          "internalType": "uint256",
          "name": "secondPlacePrize",
          "type": "uint256"
        },
        {
          "indexed": false,
          "internalType": "uint256",
          "name": "thirdPlacePrize",
          "type": "uint256"
        },
        {
          "indexed": true,
          "internalType": "address",
          "name": "organizer",
          "type": "address"
        },
        {
          "indexed": false,
          "internalType": "uint256",
          "name": "datetime",
          "type": "uint256"
        }
      ],
      "name": "PrizeAllocation",
      "type": "event"
    },
    {
      "anonymous": false,
      "inputs": [
        {
          "indexed": false,
          "internalType": "bool",
          "name": "enabled",
          "type": "bool"
        }
      ],
      "name": "RegistrationStatusUpdated",
      "type": "event"
    },
    {
      "anonymous": false,
      "inputs": [
        {
          "indexed": false,
          "internalType": "bool",
          "name": "enabled",
          "type": "bool"
        }
      ],
      "name": "SubmissionStatusUpdated",
      "type": "event"
    },
    {
      "anonymous": false,
      "inputs": [
        {
          "indexed": true,
          "internalType": "uint256",
          "name": "teamId",
          "type": "uint256"
        },
        {
          "indexed": true,
          "internalType": "address",
          "name": "teamAddress",
          "type": "address"
        },
        {
          "indexed": false,
          "internalType": "bytes32",
          "name": "proposalData",
          "type": "bytes32"
        }
      ],
      "name": "TeamProposalUpdated",
      "type": "event"
    },
    {
      "anonymous": false,
      "inputs": [
        {
          "indexed": true,
          "internalType": "uint256",
          "name": "teamId",
          "type": "uint256"
        },
        {
          "indexed": false,
          "internalType": "bytes32",
          "name": "teamName",
          "type": "bytes32"
        },
        {
          "indexed": true,
          "internalType": "address",
          "name": "teamAddress",
          "type": "address"
        },
        {
          "indexed": false,
          "internalType": "bool",
          "name": "approved",
          "type": "bool"
        }
      ],
      "name": "TeamRegistered",
      "type": "event"
    },
    {
      "anonymous": false,
      "inputs": [
        {
          "indexed": true,
          "internalType": "uint256",
          "name": "teamId",
          "type": "uint256"
        },
        {
          "indexed": true,
          "internalType": "address",
          "name": "teamAddress",
          "type": "address"
        },
        {
          "indexed": false,
          "internalType": "bool",
          "name": "approved",
          "type": "bool"
        }
      ],
      "name": "TeamStatusUpdated",
      "type": "event"
    },
    {
      "anonymous": false,
      "inputs": [
        {
          "indexed": false,
          "internalType": "uint256",
          "name": "teamId",
          "type": "uint256"
        },
        {
          "indexed": false,
          "internalType": "address",
          "name": "teamAddress",
          "type": "address"
        },
        {
          "indexed": false,
          "internalType": "uint256",
          "name": "finalGrade",
          "type": "uint256"
        },
        {
          "indexed": false,
          "internalType": "uint8",
          "name": "rankPosition",
          "type": "uint8"
        }
      ],
      "name": "WinnerAnnouced",
      "type": "event"
    },
    {
      "anonymous": false,
      "inputs": [
        {
          "indexed": true,
          "internalType": "address",
          "name": "to",
          "type": "address"
        },
        {
          "indexed": false,
          "internalType": "uint256",
          "name": "amount",
          "type": "uint256"
        },
        {
          "indexed": false,
          "internalType": "uint8",
          "name": "rankPosition",
          "type": "uint8"
        },
        {
          "indexed": true,
          "internalType": "address",
          "name": "requester",
          "type": "address"
        },
        {
          "indexed": false,
          "internalType": "uint256",
          "name": "datetime",
          "type": "uint256"
        }
      ],
      "name": "Withdraw",
      "type": "event"
    },
    {
      "constant": false,
      "inputs": [
        {
          "internalType": "address",
          "name": "account",
          "type": "address"
        }
      ],
      "name": "addJudge",
      "outputs": [],
      "payable": false,
      "stateMutability": "nonpayable",
      "type": "function"
    },
    {
      "constant": false,
      "inputs": [
        {
          "internalType": "address",
          "name": "account",
          "type": "address"
        }
      ],
      "name": "addOrganizer",
      "outputs": [],
      "payable": false,
      "stateMutability": "nonpayable",
      "type": "function"
    },
    {
      "constant": false,
      "inputs": [
        {
          "internalType": "uint256",
          "name": "teamId",
          "type": "uint256"
        }
      ],
      "name": "approveTeam",
      "outputs": [],
      "payable": false,
      "stateMutability": "nonpayable",
      "type": "function"
    },
    {
      "constant": false,
      "inputs": [],
      "name": "closeEvaluation",
      "outputs": [],
      "payable": false,
      "stateMutability": "nonpayable",
      "type": "function"
    },
    {
      "constant": false,
      "inputs": [],
      "name": "closeRegistration",
      "outputs": [],
      "payable": false,
      "stateMutability": "nonpayable",
      "type": "function"
    },
    {
      "constant": false,
      "inputs": [],
      "name": "closeSubmission",
      "outputs": [],
      "payable": false,
      "stateMutability": "nonpayable",
      "type": "function"
    },
    {
      "constant": false,
      "inputs": [],
      "name": "deposit",
      "outputs": [],
      "payable": true,
      "stateMutability": "payable",
      "type": "function"
    },
    {
      "constant": true,
      "inputs": [],
      "name": "description",
      "outputs": [
        {
          "internalType": "bytes32",
          "name": "",
          "type": "bytes32"
        }
      ],
      "payable": false,
      "stateMutability": "view",
      "type": "function"
    },
    {
      "constant": true,
      "inputs": [],
      "name": "getEvaluationStatus",
      "outputs": [
        {
          "internalType": "bool",
          "name": "",
          "type": "bool"
        }
      ],
      "payable": false,
      "stateMutability": "view",
      "type": "function"
    },
    {
      "constant": true,
      "inputs": [],
      "name": "getRegistrationStatus",
      "outputs": [
        {
          "internalType": "bool",
          "name": "",
          "type": "bool"
        }
      ],
      "payable": false,
      "stateMutability": "view",
      "type": "function"
    },
    {
      "constant": true,
      "inputs": [],
      "name": "getSubmissionStatus",
      "outputs": [
        {
          "internalType": "bool",
          "name": "",
          "type": "bool"
        }
      ],
      "payable": false,
      "stateMutability": "view",
      "type": "function"
    },
    {
      "constant": true,
      "inputs": [
        {
          "internalType": "uint256",
          "name": "teamId",
          "type": "uint256"
        }
      ],
      "name": "getTeam",
      "outputs": [
        {
          "internalType": "bytes32",
          "name": "",
          "type": "bytes32"
        },
        {
          "internalType": "address",
          "name": "",
          "type": "address"
        },
        {
          "internalType": "bytes32",
          "name": "",
          "type": "bytes32"
        },
        {
          "internalType": "bool",
          "name": "",
          "type": "bool"
        },
        {
          "internalType": "uint256",
          "name": "",
          "type": "uint256"
        }
      ],
      "payable": false,
      "stateMutability": "view",
      "type": "function"
    },
    {
      "constant": true,
      "inputs": [
        {
          "internalType": "address",
          "name": "teamAddress",
          "type": "address"
        }
      ],
      "name": "getTeamByAddress",
      "outputs": [
        {
          "internalType": "bytes32",
          "name": "",
          "type": "bytes32"
        },
        {
          "internalType": "address",
          "name": "",
          "type": "address"
        },
        {
          "internalType": "bytes32",
          "name": "",
          "type": "bytes32"
        },
        {
          "internalType": "bool",
          "name": "",
          "type": "bool"
        },
        {
          "internalType": "uint256",
          "name": "",
          "type": "uint256"
        }
      ],
      "payable": false,
      "stateMutability": "view",
      "type": "function"
    },
    {
      "constant": true,
      "inputs": [],
      "name": "getWinnersIds",
      "outputs": [
        {
          "internalType": "uint256",
          "name": "",
          "type": "uint256"
        },
        {
          "internalType": "uint256",
          "name": "",
          "type": "uint256"
        },
        {
          "internalType": "uint256",
          "name": "",
          "type": "uint256"
        }
      ],
      "payable": false,
      "stateMutability": "view",
      "type": "function"
    },
    {
      "constant": true,
      "inputs": [],
      "name": "id",
      "outputs": [
        {
          "internalType": "uint256",
          "name": "",
          "type": "uint256"
        }
      ],
      "payable": false,
      "stateMutability": "view",
      "type": "function"
    },
    {
      "constant": true,
      "inputs": [
        {
          "internalType": "address",
          "name": "account",
          "type": "address"
        }
      ],
      "name": "isJudge",
      "outputs": [
        {
          "internalType": "bool",
          "name": "",
          "type": "bool"
        }
      ],
      "payable": false,
      "stateMutability": "view",
      "type": "function"
    },
    {
      "constant": true,
      "inputs": [
        {
          "internalType": "address",
          "name": "account",
          "type": "address"
        }
      ],
      "name": "isOrganizer",
      "outputs": [
        {
          "internalType": "bool",
          "name": "",
          "type": "bool"
        }
      ],
      "payable": false,
      "stateMutability": "view",
      "type": "function"
    },
    {
      "constant": true,
      "inputs": [],
      "name": "name",
      "outputs": [
        {
          "internalType": "bytes32",
          "name": "",
          "type": "bytes32"
        }
      ],
      "payable": false,
      "stateMutability": "view",
      "type": "function"
    },
    {
      "constant": false,
      "inputs": [],
      "name": "openEvaluation",
      "outputs": [],
      "payable": false,
      "stateMutability": "nonpayable",
      "type": "function"
    },
    {
      "constant": false,
      "inputs": [],
      "name": "openRegistration",
      "outputs": [],
      "payable": false,
      "stateMutability": "nonpayable",
      "type": "function"
    },
    {
      "constant": false,
      "inputs": [],
      "name": "openSubmission",
      "outputs": [],
      "payable": false,
      "stateMutability": "nonpayable",
      "type": "function"
    },
    {
      "constant": false,
      "inputs": [],
      "name": "publishRank",
      "outputs": [],
      "payable": false,
      "stateMutability": "nonpayable",
      "type": "function"
    },
    {
      "constant": false,
      "inputs": [
        {
          "internalType": "bytes32",
          "name": "teamName",
          "type": "bytes32"
        },
        {
          "internalType": "address",
          "name": "teamAddress",
          "type": "address"
        },
        {
          "internalType": "bytes32",
          "name": "proposalData",
          "type": "bytes32"
        }
      ],
      "name": "registerTeam",
      "outputs": [
        {
          "internalType": "uint256",
          "name": "",
          "type": "uint256"
        }
      ],
      "payable": false,
      "stateMutability": "nonpayable",
      "type": "function"
    },
    {
      "constant": false,
      "inputs": [
        {
          "internalType": "address",
          "name": "account",
          "type": "address"
        }
      ],
      "name": "removeJudge",
      "outputs": [],
      "payable": false,
      "stateMutability": "nonpayable",
      "type": "function"
    },
    {
      "constant": false,
      "inputs": [],
      "name": "renounceJudge",
      "outputs": [],
      "payable": false,
      "stateMutability": "nonpayable",
      "type": "function"
    },
    {
      "constant": false,
      "inputs": [],
      "name": "renounceOrganizer",
      "outputs": [],
      "payable": false,
      "stateMutability": "nonpayable",
      "type": "function"
    },
    {
      "constant": false,
      "inputs": [
        {
          "internalType": "uint256",
          "name": "teamId",
          "type": "uint256"
        }
      ],
      "name": "reproveTeam",
      "outputs": [],
      "payable": false,
      "stateMutability": "nonpayable",
      "type": "function"
    },
    {
      "constant": false,
      "inputs": [
        {
          "internalType": "uint256[]",
          "name": "teamIds",
          "type": "uint256[]"
        }
      ],
      "name": "reproveTeams",
      "outputs": [],
      "payable": false,
      "stateMutability": "nonpayable",
      "type": "function"
    },
    {
      "constant": false,
      "inputs": [
        {
          "internalType": "uint256[]",
          "name": "teamIds",
          "type": "uint256[]"
        },
        {
          "internalType": "uint8[]",
          "name": "teamGrades",
          "type": "uint8[]"
        }
      ],
      "name": "submitEvaluation",
      "outputs": [],
      "payable": false,
      "stateMutability": "nonpayable",
      "type": "function"
    },
    {
      "constant": true,
      "inputs": [
        {
          "internalType": "uint256",
          "name": "",
          "type": "uint256"
        }
      ],
      "name": "teams",
      "outputs": [
        {
          "internalType": "uint256",
          "name": "id",
          "type": "uint256"
        },
        {
          "internalType": "bytes32",
          "name": "name",
          "type": "bytes32"
        },
        {
          "internalType": "address",
          "name": "teamAddress",
          "type": "address"
        },
        {
          "internalType": "bytes32",
          "name": "proposalData",
          "type": "bytes32"
        },
        {
          "internalType": "bool",
          "name": "approved",
          "type": "bool"
        },
        {
          "internalType": "uint256",
          "name": "grade",
          "type": "uint256"
        }
      ],
      "payable": false,
      "stateMutability": "view",
      "type": "function"
    },
    {
      "constant": false,
      "inputs": [
        {
          "internalType": "uint256",
          "name": "teamId",
          "type": "uint256"
        },
        {
          "internalType": "bytes32",
          "name": "proposalData",
          "type": "bytes32"
        }
      ],
      "name": "updateProposalData",
      "outputs": [],
      "payable": false,
      "stateMutability": "nonpayable",
      "type": "function"
    },
    {
      "constant": false,
      "inputs": [
        {
          "internalType": "uint256",
          "name": "firstPrize",
          "type": "uint256"
        },
        {
          "internalType": "uint256",
          "name": "secondPrize",
          "type": "uint256"
        },
        {
          "internalType": "uint256",
          "name": "thirdPrize",
          "type": "uint256"
        }
      ],
      "name": "allocatePrize",
      "outputs": [],
      "payable": false,
      "stateMutability": "nonpayable",
      "type": "function"
    },
    {
      "constant": false,
      "inputs": [
        {
          "internalType": "address",
          "name": "winnerAddress",
          "type": "address"
        }
      ],
      "name": "withdrawPrize",
      "outputs": [],
      "payable": false,
      "stateMutability": "nonpayable",
      "type": "function"
    }
  ],
  "bytecode": "0x60806040523480156200001157600080fd5b50604051620035f8380380620035f8833981810160405260808110156200003757600080fd5b50805160208201516040830151606090930151919290918080806001600160a01b038116620000c757604080517f08c379a000000000000000000000000000000000000000000000000000000000815260206004820152601460248201527f496e76616c6964207a65726f2061646472657373000000000000000000000000604482015290519081900360640190fd5b620000db816001600160e01b036200019216565b50849150600090501a60f81b7fff00000000000000000000000000000000000000000000000000000000000000166200017557604080517f08c379a000000000000000000000000000000000000000000000000000000000815260206004820152600c60248201527f496e76616c6964206e616d650000000000000000000000000000000000000000604482015290519081900360640190fd5b50602292909255602355602455602b805460ff1916905562000424565b620001a8816200022c60201b62002cef1760201c565b6009805460018082019092557f6e1540171b6c0c960b71a7020d9f60077f6af931a8bbf590da0223dacf75c7af0180546001600160a01b0319166001600160a01b0384169081179091556000908152600b60209081526040909120805460ff191683179055600a54620002269290916200027e811b620025c117901c565b600a5550565b62000247816004620002fa60201b62002e2e1790919060201c565b6040516001600160a01b038216907f37e96fc6762bae414e69ea6e2490e63bc46f2a1335de0f6b91f49cf808829bcf90600090a250565b600082820183811015620002f357604080517f08c379a000000000000000000000000000000000000000000000000000000000815260206004820152601b60248201527f536166654d6174683a206164646974696f6e206f766572666c6f770000000000604482015290519081900360640190fd5b9392505050565b6200030f82826001600160e01b03620003a116565b156200037c57604080517f08c379a000000000000000000000000000000000000000000000000000000000815260206004820152601f60248201527f526f6c65733a206163636f756e7420616c72656164792068617320726f6c6500604482015290519081900360640190fd5b6001600160a01b0316600090815260209190915260409020805460ff19166001179055565b60006001600160a01b03821662000404576040517f08c379a0000000000000000000000000000000000000000000000000000000008152600401808060200182810382526022815260200180620035d66022913960400191505060405180910390fd5b506001600160a01b03166000908152602091909152604090205460ff1690565b6131a280620004346000396000f3fe6080604052600436106101ed5760003560e01c80637dc673bc1161010d578063d06e4ee7116100a0578063eaf2f9cd1161006f578063eaf2f9cd14610728578063ed896d6614610758578063f540548b1461078b578063f59ec3f9146107b5578063ffc6ff1e146107eb576101ed565b8063d06e4ee7146106c3578063d0e30db0146106d8578063e35fb241146106e0578063e4725f02146106f5576101ed565b8063ae237c77116100dc578063ae237c7714610651578063ae2ac4ae14610666578063af640d0f14610699578063b2a13f92146106ae576101ed565b80637dc673bc146105df57806390d768e4146105f4578063927cab4714610609578063a2bce8bd1461063c576101ed565b80634b30b66f1161018557806358e2f50e1161015457806358e2f50e146105435780637284e41614610558578063737a63401461056d5780637385712c146105a0576101ed565b80634b30b66f146104d15780634ea701a8146104e657806354e1db2b14610519578063567ad8621461052e576101ed565b8063288c4a46116101c1578063288c4a46146102d75780633e091f64146103545780633ed2b77a1461042357806341676f151461048a576101ed565b80628e0f1b146101f257806306fdde031461025157806311dc45c91461027857806324ba9fab146102ad575b600080fd5b3480156101fe57600080fd5b5061021c6004803603602081101561021557600080fd5b5035610800565b604080519586526001600160a01b03909416602086015284840192909252151560608401526080830152519081900360a00190f35b34801561025d57600080fd5b506102666108ea565b60408051918252519081900360200190f35b34801561028457600080fd5b506102ab6004803603602081101561029b57600080fd5b50356001600160a01b03166108f0565b005b3480156102b957600080fd5b506102ab600480360360208110156102d057600080fd5b5035610cfe565b3480156102e357600080fd5b506102ab600480360360208110156102fa57600080fd5b81019060208101813564010000000081111561031557600080fd5b82018360208201111561032757600080fd5b8035906020019184602083028401116401000000008311171561034957600080fd5b509092509050610d0a565b34801561036057600080fd5b506102ab6004803603604081101561037757600080fd5b81019060208101813564010000000081111561039257600080fd5b8201836020820111156103a457600080fd5b803590602001918460208302840111640100000000831117156103c657600080fd5b9193909290916020810190356401000000008111156103e457600080fd5b8201836020820111156103f657600080fd5b8035906020019184602083028401116401000000008311171561041857600080fd5b509092509050610d4a565b34801561042f57600080fd5b5061044d6004803603602081101561044657600080fd5b50356110d9565b6040805196875260208701959095526001600160a01b039093168585015260608501919091521515608084015260a0830152519081900360c00190f35b34801561049657600080fd5b506104bd600480360360208110156104ad57600080fd5b50356001600160a01b031661112c565b604080519115158252519081900360200190f35b3480156104dd57600080fd5b506102ab611147565b3480156104f257600080fd5b5061021c6004803603602081101561050957600080fd5b50356001600160a01b0316611152565b34801561052557600080fd5b506104bd61122d565b34801561053a57600080fd5b506102ab61123b565b34801561054f57600080fd5b506102ab611244565b34801561056457600080fd5b506102666112e2565b34801561057957600080fd5b506105826112e8565b60408051938452602084019290925282820152519081900360600190f35b3480156105ac57600080fd5b50610266600480360360608110156105c357600080fd5b508035906001600160a01b0360208201351690604001356112f6565b3480156105eb57600080fd5b506102ab6116d4565b34801561060057600080fd5b506102ab611770565b34801561061557600080fd5b506102ab6004803603602081101561062c57600080fd5b50356001600160a01b0316611c36565b34801561064857600080fd5b506104bd611c83565b34801561065d57600080fd5b506102ab611c8c565b34801561067257600080fd5b506102ab6004803603602081101561068957600080fd5b50356001600160a01b0316611d26565b3480156106a557600080fd5b50610266611d73565b3480156106ba57600080fd5b506102ab611d79565b3480156106cf57600080fd5b506102ab611e12565b6102ab611ead565b3480156106ec57600080fd5b506104bd611f25565b34801561070157600080fd5b506102ab6004803603602081101561071857600080fd5b50356001600160a01b0316611f2e565b34801561073457600080fd5b506102ab6004803603604081101561074b57600080fd5b5080359060200135611f7b565b34801561076457600080fd5b506104bd6004803603602081101561077b57600080fd5b50356001600160a01b03166120e7565b34801561079757600080fd5b506102ab600480360360208110156107ae57600080fd5b50356120fa565b3480156107c157600080fd5b506102ab600480360360608110156107d857600080fd5b5080359060208101359060400135612103565b3480156107f757600080fd5b506102ab6122bc565b6000806000806000856108128161235b565b610855576040805162461bcd60e51b815260206004820152600f60248201526e125b9d985b1a59081d19585b481a59608a1b604482015290519081900360640190fd5b61085d612eaf565b6001888154811061086a57fe5b60009182526020918290206040805160c08101825260069390930290910180548352600181015493830184905260028101546001600160a01b0316918301829052600381015460608401819052600482015460ff1615156080850181905260059092015460a0909401849052939c919b5092995091975095509350505050565b60235481565b60215460ff16610940576040805162461bcd60e51b815260206004820152601660248201527514985b9ac81b9bdd081c1d589b1a5cda1959081e595d60521b604482015290519081900360640190fd5b602b5460ff16610997576040805162461bcd60e51b815260206004820152601860248201527f5072697a6573206e6f7420616c6c6f6361746564207965740000000000000000604482015290519081900360640190fd5b806001600160a01b0381166109ea576040805162461bcd60e51b8152602060048201526014602482015273496e76616c6964207a65726f206164647265737360601b604482015290519081900360640190fd5b6001600160a01b038116301415610a325760405162461bcd60e51b8152600401808060200182810382526032815260200180612fce6032913960400191505060405180910390fd5b81610a3c81612362565b610a8d576040805162461bcd60e51b815260206004820152601f60248201527f4163636f756e742061646472657373206973206e6f7420612077696e6e657200604482015290519081900360640190fd5b601154600090819081906001600160a01b0387811691161415610b175750506011546025546026546001600160a01b0390921692509060019060ff1615610b055760405162461bcd60e51b81526004018080602001828103825260228152602001806130436022913960400191505060405180910390fd5b6026805460ff19166001179055610c54565b6017546001600160a01b0387811691161415610b9a5750506017546027546028546001600160a01b0390921692509060029060ff1615610b885760405162461bcd60e51b815260040180806020018281038252602381526020018061314b6023913960400191505060405180910390fd5b6028805460ff19166001179055610c54565b601d546001600160a01b0387811691161415610c1d575050601d54602954602a546001600160a01b0390921692509060039060ff1615610c0b5760405162461bcd60e51b81526004018080602001828103825260228152602001806130a46022913960400191505060405180910390fd5b602a805460ff19166001179055610c54565b60405162461bcd60e51b81526004018080602001828103825260438152602001806130006043913960600191505060405180910390fd5b6040805183815260ff831660208201524281830152905133916001600160a01b038616917f24cc64e111181860a0e50314e2717d8d86bc21fb600e5681040e47cd5eab7f079181900360600190a3826001600160a01b031663d0e30db0836040518263ffffffff1660e01b81526004016000604051808303818588803b158015610cdd57600080fd5b505af1158015610cf1573d6000803e3d6000fd5b5050505050505050505050565b610d07816123a9565b50565b610d468282808060200260200160405190810160405280939291908181526020018383602002808284376000920191909152506124eb92505050565b5050565b600e5460ff16610d98576040805162461bcd60e51b8152602060048201526014602482015273115d985b1d585d1a5bdb881a5cc818db1bdcd95960621b604482015290519081900360640190fd5b610da1336120e7565b610ddc5760405162461bcd60e51b815260040180806020018281038252602b815260200180612f4f602b913960400191505060405180910390fd5b828114610e1a5760405162461bcd60e51b81526004018080602001828103825260338152602001806130c66033913960400191505060405180910390fd5b6002548314610e5a5760405162461bcd60e51b815260040180806020018281038252603f815260200180613065603f913960400191505060405180910390fd5b600060025411610eb1576040805162461bcd60e51b815260206004820152601d60248201527f4e6f20617070726f766564207465616d7320746f206576616c75617465000000604482015290519081900360640190fd5b336000908152600d602052604090206001810154600160a81b900460ff1615610f0b5760405162461bcd60e51b8152600401808060200182810382526022815260200180612f2d6022913960400191505060405180910390fd5b60005b600254811015611079576000868683818110610f2657fe5b9050602002013590506000858584818110610f3d57fe5b9050602002013560ff169050610f528261235b565b610f95576040805162461bcd60e51b815260206004820152600f60248201526e125b9d985b1a59081d19585b481a59608a1b604482015290519081900360640190fd5b610f9e8261251b565b610fe6576040805162461bcd60e51b81526020600482015260146024820152731519585b481a5cc81b9bdd08185c1c1c9bdd995960621b604482015290519081900360640190fd5b610fef816125b5565b611030576040805162461bcd60e51b815260206004820152600d60248201526c496e76616c696420677261646560981b604482015290519081900360640190fd5b60006001838154811061103f57fe5b906000526020600020906006020190506110698260ff1682600501546125c190919063ffffffff16565b6005909101555050600101610f0e565b5060018101805460ff60a81b1916600160a81b17908190558154604080516001600160a01b0390931683525190917fd62869bbd78965284c34750092d78b62093e2d02b730d0ce696ebdcb371bb5dc919081900360200190a25050505050565b600181815481106110e657fe5b600091825260209091206006909102018054600182015460028301546003840154600485015460059095015493955091936001600160a01b039091169260ff9091169086565b600061113f60048363ffffffff61262216565b90505b919050565b61115033612689565b565b6000808080806001600160a01b0386166111aa576040805162461bcd60e51b8152602060048201526014602482015273496e76616c6964207a65726f206164647265737360601b604482015290519081900360640190fd5b6111b2612eaf565b505050506001600160a01b0392831660009081526020818152604091829020825160c0810184528154815260018201549281018390526002820154909616928601839052600381015460608701819052600482015460ff1615156080880181905260059092015460a090970187905291969295919450925090565b600354610100900460ff1690565b611150336126b9565b600354610100900460ff1615611296576040805162461bcd60e51b815260206004820152601260248201527129bab136b4b9b9b4b7b71034b99037b832b760711b604482015290519081900360640190fd5b61129f3361112c565b6112da5760405162461bcd60e51b8152600401808060200182810382526033815260200180612f7a6033913960400191505060405180910390fd5b6111506126fc565b60245481565b600f54601554601b54909192565b60035460009060ff16611349576040805162461bcd60e51b8152602060048201526016602482015275149959da5cdd1c985d1a5bdb881a5cc818db1bdcd95960521b604482015290519081900360640190fd5b8360001a60f81b6001600160f81b0319166113ab576040805162461bcd60e51b815260206004820152601960248201527f5465616d206e616d652063616e6e6f7420626520656d70747900000000000000604482015290519081900360640190fd5b6001600160a01b038316611406576040805162461bcd60e51b815260206004820152601b60248201527f5465616d20616464726573732063616e6e6f74206265207a65726f0000000000604482015290519081900360640190fd5b6001600160a01b038381166000908152602081905260409020600201541615611476576040805162461bcd60e51b815260206004820152601760248201527f5465616d20616c72656164792072656769737465726564000000000000000000604482015290519081900360640190fd5b600154611481612eaf565b506040805160c081018252828152602081018781526001600160a01b0387811693830193845260608301878152600160808501818152600060a08701818152835480850185559184905287517fb10e2d527612073b26eecdfd717e6a320cf44b4afac2b0732d9fcbe2b7fa0cf660069093029283015595517fb10e2d527612073b26eecdfd717e6a320cf44b4afac2b0732d9fcbe2b7fa0cf782015596517fb10e2d527612073b26eecdfd717e6a320cf44b4afac2b0732d9fcbe2b7fa0cf8880180546001600160a01b031916919095161790935590517fb10e2d527612073b26eecdfd717e6a320cf44b4afac2b0732d9fcbe2b7fa0cf986015590517fb10e2d527612073b26eecdfd717e6a320cf44b4afac2b0732d9fcbe2b7fa0cfa8501805460ff191691151591909117905590517fb10e2d527612073b26eecdfd717e6a320cf44b4afac2b0732d9fcbe2b7fa0cfb909301929092558154909190839081106115e957fe5b600091825260208083206001600160a01b03808a1685529184905260409093206006909202909201805482556001808201548184015560028083015481850180546001600160a01b031916919096161790945560038083015490840155600480830154908401805460ff909216151560ff19909216919091179055600591820154919092015590546116809163ffffffff6125c116565b600255604080518781526001602082015281516001600160a01b0388169285927f443b25596b838f2775d21b1153b87036f08c058fd4702446f1136ab26e5f3b90929081900390910190a350949350505050565b60035460ff16611724576040805162461bcd60e51b8152602060048201526016602482015275149959da5cdd1c985d1a5bdb881a5cc818db1bdcd95960521b604482015290519081900360640190fd5b61172d3361112c565b6117685760405162461bcd60e51b8152600401808060200182810382526033815260200180612f7a6033913960400191505060405180910390fd5b61115061274c565b60035460ff16156117bf576040805162461bcd60e51b81526020600482015260146024820152732932b3b4b9ba3930ba34b7b71034b99037b832b760611b604482015290519081900360640190fd5b600354610100900460ff1615611811576040805162461bcd60e51b815260206004820152601260248201527129bab136b4b9b9b4b7b71034b99037b832b760711b604482015290519081900360640190fd5b600e5460ff161561185e576040805162461bcd60e51b815260206004820152601260248201527122bb30b63ab0ba34b7b71034b99037b832b760711b604482015290519081900360640190fd5b6118673361112c565b6118a25760405162461bcd60e51b8152600401808060200182810382526033815260200180612f7a6033913960400191505060405180910390fd5b60215460ff16156118f3576040805162461bcd60e51b815260206004820152601660248201527514985b9ac8185b1c9958591e481c1d589b1a5cda195960521b604482015290519081900360640190fd5b600060025411611940576040805162461bcd60e51b8152602060048201526013602482015272139bc81d19585b5cc81c9959da5cdd195c9959606a1b604482015290519081900360640190fd5b611948612eaf565b611950612eaf565b611958612eaf565b611960612eaf565b60005b600154811015611a4b576001818154811061197a57fe5b60009182526020918290206040805160c08101825260069093029091018054835260018101549383019390935260028301546001600160a01b03169082015260038201546060820152600482015460ff16158015608083015260059092015460a08201529550806119f257508160a001518560a00151105b156119fc57611a43565b8360a001518560a001511115611a16578493929150611a43565b8260a001518560a001511115611a2f5784929150611a43565b8160a001518560a001511115611a43578491505b600101611963565b508251600f819055602080850151601055604080860151601180546001600160a01b03199081166001600160a01b0393841617918290556060808a01516012556080808b01516013805460ff1990811692151592909217905560a0808d015160148190558c516015558c8a01516016558c890151601780548816918a169190911790558c8501516018558c8401516019805485169115159190911790558c820151601a558b51601b558b8a0151601c558b890151601d8054909716908916179095558a840151601e558a830151601f805484169115159190911790558a01518855602180549091166001908117909155865198895293909416958701959095528584015292840192909252517f78bd43bbb342abb837e10002dd4fcda5ea371db518ce4e9aff10ab136441a99c9281900390910190a1601554601754601a54604080519384526001600160a01b0390921660208401528282015260026060830152517f78bd43bbb342abb837e10002dd4fcda5ea371db518ce4e9aff10ab136441a99c9181900360800190a1601b54601d5460208054604080519485526001600160a01b03909316918401919091528282015260036060830152517f78bd43bbb342abb837e10002dd4fcda5ea371db518ce4e9aff10ab136441a99c9181900360800190a150505050565b611c3f3361112c565b611c7a5760405162461bcd60e51b8152600401808060200182810382526033815260200180612f7a6033913960400191505060405180910390fd5b610d078161278c565b600e5460ff1690565b600e5460ff16611cda576040805162461bcd60e51b8152602060048201526014602482015273115d985b1d585d1a5bdb881a5cc818db1bdcd95960621b604482015290519081900360640190fd5b611ce33361112c565b611d1e5760405162461bcd60e51b8152600401808060200182810382526033815260200180612f7a6033913960400191505060405180910390fd5b61115061291f565b611d2f3361112c565b611d6a5760405162461bcd60e51b8152600401808060200182810382526033815260200180612f7a6033913960400191505060405180910390fd5b610d0781612689565b60225481565b600e5460ff1615611dc6576040805162461bcd60e51b815260206004820152601260248201527122bb30b63ab0ba34b7b71034b99037b832b760711b604482015290519081900360640190fd5b611dcf3361112c565b611e0a5760405162461bcd60e51b8152600401808060200182810382526033815260200180612f7a6033913960400191505060405180910390fd5b61115061295f565b60035460ff1615611e61576040805162461bcd60e51b81526020600482015260146024820152732932b3b4b9ba3930ba34b7b71034b99037b832b760611b604482015290519081900360640190fd5b611e6a3361112c565b611ea55760405162461bcd60e51b8152600401808060200182810382526033815260200180612f7a6033913960400191505060405180910390fd5b6111506129a9565b60003411611eec5760405162461bcd60e51b8152600401808060200182810382526021815260200180612f0c6021913960400191505060405180910390fd5b604080513481529051429133917f90890809c654f11d6e72a28fa60149770a0d11ec6c92319d6ceb2bb0a4ea1a159181900360200190a3565b60035460ff1690565b611f373361112c565b611f725760405162461bcd60e51b8152600401808060200182810382526033815260200180612f7a6033913960400191505060405180910390fd5b610d07816129f3565b81611f858161235b565b611fc8576040805162461bcd60e51b815260206004820152600f60248201526e125b9d985b1a59081d19585b481a59608a1b604482015290519081900360640190fd5b82611fd28161251b565b61201a576040805162461bcd60e51b81526020600482015260146024820152731519585b481a5cc81b9bdd08185c1c1c9bdd995960621b604482015290519081900360640190fd5b600354610100900460ff1661206d576040805162461bcd60e51b815260206004820152601460248201527314dd589b5a5cdcda5bdb881a5cc818db1bdcd95960621b604482015290519081900360640190fd5b60006001858154811061207c57fe5b60009182526020918290206003600690920201908101869055600281015481546040805189815290519395506001600160a01b039092169390927fa44de9e6ce79675199796005de8516704078af25aaf78ab4be180213882560ee9281900390910190a35050505050565b600061113f60058363ffffffff61262216565b610d0781612a6a565b61210c3361112c565b6121475760405162461bcd60e51b8152600401808060200182810382526033815260200180612f7a6033913960400191505060405180910390fd5b602b5460ff161561219f576040805162461bcd60e51b815260206004820152601860248201527f5072697a657320616c726561647920616c6c6f63617465640000000000000000604482015290519081900360640190fd5b60006121c1826121b5868663ffffffff6125c116565b9063ffffffff6125c116565b905030318111156122035760405162461bcd60e51b815260040180806020018281038252603081526020018061311b6030913960400191505060405180910390fd5b6040805180820182528581526000602091820181905260258790556026805460ff1990811690915583518085018552878152830182905260278790556028805482169055835180850185528681528301919091526029859055602a805482169055602b805490911660011790558151868152908101859052808201849052426060820152905133917f60e7ffaf15f306ac55b9117669d2fd27994d49f2ccf8490fc874df9ebb5706aa919081900360800190a250505050565b600354610100900460ff1661230f576040805162461bcd60e51b815260206004820152601460248201527314dd589b5a5cdcda5bdb881a5cc818db1bdcd95960621b604482015290519081900360640190fd5b6123183361112c565b6123535760405162461bcd60e51b8152600401808060200182810382526033815260200180612f7a6033913960400191505060405180910390fd5b611150612b45565b6001541190565b6011546000906001600160a01b038381169116148061238e57506017546001600160a01b038381169116145b8061113f575050601d546001600160a01b0390811691161490565b806123b38161235b565b6123f6576040805162461bcd60e51b815260206004820152600f60248201526e125b9d985b1a59081d19585b481a59608a1b604482015290519081900360640190fd5b816124008161251b565b1561244a576040805162461bcd60e51b81526020600482015260156024820152742a32b0b69034b9903737ba103932b83937bb32b21760591b604482015290519081900360640190fd5b60006001848154811061245957fe5b600091825260209091206004600690920201908101805460ff19166001908117909155600254919250612492919063ffffffff6125c116565b6002908155810154815460048301546040805160ff90921615158252516001600160a01b03909316927fd903780bcf5bcea81714ac3450a34cb3de7b0735a59883e1eb90edd901a54ad49181900360200190a350505050565b60005b8151811015610d465761251382828151811061250657fe5b6020026020010151612a6a565b6001016124ee565b60006125268261235b565b61253257506000611142565b61253a612eaf565b6001838154811061254757fe5b60009182526020918290206040805160c08101825260069093029091018054835260018101549383019390935260028301546001600160a01b03169082015260038201546060820152600482015460ff1615156080820181905260059092015460a090910152915050919050565b600a60ff909116111590565b60008282018381101561261b576040805162461bcd60e51b815260206004820152601b60248201527f536166654d6174683a206164646974696f6e206f766572666c6f770000000000604482015290519081900360640190fd5b9392505050565b60006001600160a01b0382166126695760405162461bcd60e51b81526004018080602001828103825260228152602001806130f96022913960400191505060405180910390fd5b506001600160a01b03166000908152602091909152604090205460ff1690565b61269281612b90565b6001600160a01b03166000908152600d60205260409020600101805460ff60a01b19169055565b6126c281612bd3565b6001600160a01b0381166000908152600b60205260409020805460ff19169055600a546126f690600163ffffffff612c1b16565b600a5550565b6003805461ff00191661010090811791829055604080519190920460ff161515815290517f48fbf5c7b70581e7e2145562de373e14a5af56d09f9b96d73545d0d35f71f0889181900360200190a1565b6003805460ff19169055604080516000815290517f78b477400a612eb4ec0a343596323cccfac06b27624264a549d8322c736d055c9181900360200190a1565b61279581612c78565b600c546127a0612ee4565b6040518060800160405280838152602001846001600160a01b03168152602001600115158152602001600015158152509050600c81908060018154018082558091505090600182039060005260206000209060020201600090919290919091506000820151816000015560208201518160010160006101000a8154816001600160a01b0302191690836001600160a01b0316021790555060408201518160010160146101000a81548160ff02191690831515021790555060608201518160010160156101000a81548160ff02191690831515021790555050505080600d6000856001600160a01b03166001600160a01b031681526020019081526020016000206000820151816000015560208201518160010160006101000a8154816001600160a01b0302191690836001600160a01b0316021790555060408201518160010160146101000a81548160ff02191690831515021790555060608201518160010160156101000a81548160ff021916908315150217905550905050505050565b600e805460ff19169055604080516000815290517f0266365b4830894a247179cbad20f3dfe40ba70917925976027d2af68d950bed9181900360200190a1565b600e805460ff1916600117908190556040805160ff9290921615158252517f0266365b4830894a247179cbad20f3dfe40ba70917925976027d2af68d950bed9181900360200190a1565b6003805460ff1916600117908190556040805160ff9290921615158252517f78b477400a612eb4ec0a343596323cccfac06b27624264a549d8322c736d055c9181900360200190a1565b6129fc81612cef565b6009805460018082019092557f6e1540171b6c0c960b71a7020d9f60077f6af931a8bbf590da0223dacf75c7af0180546001600160a01b0319166001600160a01b0384169081179091556000908152600b60205260409020805460ff191682179055600a546126f6916125c1565b80612a748161235b565b612ab7576040805162461bcd60e51b815260206004820152600f60248201526e125b9d985b1a59081d19585b481a59608a1b604482015290519081900360640190fd5b81612ac18161251b565b612b09576040805162461bcd60e51b81526020600482015260146024820152731519585b481a5cc81b9bdd08185c1c1c9bdd995960621b604482015290519081900360640190fd5b600060018481548110612b1857fe5b6000918252602090912060069091020160048101805460ff19169055600254909150612492906001612c1b565b6003805461ff001916908190556040805161010090920460ff1615158252517f48fbf5c7b70581e7e2145562de373e14a5af56d09f9b96d73545d0d35f71f0889181900360200190a1565b612b9981612d37565b6001600160a01b0381166000908152600860205260409020805460ff19169055600754612bcd90600163ffffffff612c1b16565b60075550565b612be460048263ffffffff612d7f16565b6040516001600160a01b038216907fc459bd414676a5877fcf10a0d73ecf7e1f672a339650b03e628c4046534300e390600090a250565b600082821115612c72576040805162461bcd60e51b815260206004820152601e60248201527f536166654d6174683a207375627472616374696f6e206f766572666c6f770000604482015290519081900360640190fd5b50900390565b612c8181612de6565b6006805460018082019092557ff652222313e28459528d920b65115c16c04f3efc82aaedc97be59f3f377c0d3f0180546001600160a01b0319166001600160a01b0384169081179091556000908152600860205260409020805460ff191682179055600754612bcd916125c1565b612d0060048263ffffffff612e2e16565b6040516001600160a01b038216907f37e96fc6762bae414e69ea6e2490e63bc46f2a1335de0f6b91f49cf808829bcf90600090a250565b612d4860058263ffffffff612d7f16565b6040516001600160a01b038216907f32a792a099c63670df7161917c5efb2fdc734cf9f943ebddccbecef87664f2b790600090a250565b612d898282612622565b612dc45760405162461bcd60e51b8152600401808060200182810382526021815260200180612fad6021913960400191505060405180910390fd5b6001600160a01b0316600090815260209190915260409020805460ff19169055565b612df760058263ffffffff612e2e16565b6040516001600160a01b038216907fe7f15f9ffff540ae14fdebcd9b6d6cc1fc143933338656c99caa595e8b80903990600090a250565b612e388282612622565b15612e8a576040805162461bcd60e51b815260206004820152601f60248201527f526f6c65733a206163636f756e7420616c72656164792068617320726f6c6500604482015290519081900360640190fd5b6001600160a01b0316600090815260209190915260409020805460ff19166001179055565b6040805160c081018252600080825260208201819052918101829052606081018290526080810182905260a081019190915290565b6040805160808101825260008082526020820181905291810182905260608101919091529056fe6d73672e76616c7565206d757374206265206772656174686572207468616e20304a7564676520616c7265616479207375626d6974746564206576616c756174696f6e4a75646765526f6c653a2063616c6c657220646f6573206e6f742068617665204a7564676520526f6c652e4f7267616e697a6572526f6c653a2063616c6c657220646f6573206e6f742068617665204f7267616e697a657220526f6c652e526f6c65733a206163636f756e7420646f6573206e6f74206861766520726f6c65416464726573732063616e6e6f7420626520657175616c20746f20636f6e7472616374202874686973292061646472657373496e76616c696420616464726573732e204164647265737320636865636b206661696c65642e2053686f756c64206e6f74207265616368207468697320706f696e742e5072697a6520616c7265616479207061696420666f7220666972737420706c6163657465616d7349647320616e642067726164657320646f206e6f74206d617463682074686520636f756e74696e67206f6620617070726f766564207465616d735072697a6520616c7265616479207061696420666f7220746869726420706c6163654c656e677468206f66207465616d7320616e64207465616d47726164657320617272617973206d75737420626520657175616c526f6c65733a206163636f756e7420697320746865207a65726f20616464726573734e6f7420656e6f7567682066756e647320617661696c61626c6520696e206861636b6174686f6e20636f6e74726163745072697a6520616c7265616479207061696420666f72207365636f6e6420706c616365a265627a7a72315820d3fc6eadc7d287f863a2ee4ffbede7533e2750d1d91626897beab69d7a1893ef64736f6c634300050c0032526f6c65733a206163636f756e7420697320746865207a65726f2061646472657373",
  "source": "pragma solidity ^0.5.0;\n\nimport \"openzeppelin-solidity/contracts/math/SafeMath.sol\";\n\nimport \"./ContestBracketRegistry.sol\";\nimport \"../payment/Payable.sol\";\n\n/**\n    @notice Represents a hackathon contest, where organizers can control the\n    stages/phases of the contest (such as registration, submission, evaluation and results)\n    as well as pay prizes to the winners.\n    @dev For the payment functionality, the \"withdraw pattern\" is being implemented for this contract.\n    The ledger allocation is done is the method {allocatePrize} and the withdraw is implemented on {withdrawPrize}.\n */\ncontract Hackathon is Payable, ContestBracketRegistry {\n    using SafeMath for uint256;\n\n    /// @dev Represents a prize to be paid to a winner.\n    struct Prize {\n        uint256 amount;\n        bool paid;\n    }\n\n    uint256 public id;\n    bytes32 public name;\n    bytes32 public description;\n    Prize internal firstPlacePrize;\n    Prize internal secondPlacePrize;\n    Prize internal thirdPlacePrize;\n    bool internal prizesAllocated;\n\n    /// @dev emitted when the prize allocation is performed. This may be used to alert winners that their prizes are available to withdraw.\n    event PrizeAllocation(\n        uint256 firstPlacePrize,\n        uint256 secondPlacePrize,\n        uint256 thirdPlacePrize,\n        address indexed organizer,\n        uint256 datetime\n    );\n\n    /// @dev emitted when a prize is withdraw by a winner team.\n    event Withdraw(address indexed to, uint256 amount, uint8 rankPosition, address indexed requester, uint256 datetime);\n\n    modifier whenPrizeNotAllocated() {\n        require(!prizesAllocated, \"Prizes already allocated\");\n        _;\n    }\n\n    modifier whenPrizeAllocated() {\n        require(prizesAllocated, \"Prizes not allocated yet\");\n        _;\n    }\n\n    modifier onlyWinnerAddress(address winnerAddress) {\n        require(isWinnerAddress(winnerAddress), \"Account address is not a winner\");\n        _;\n    }\n\n    modifier onlyValidAddress(address account) {\n        require(account != address(0), \"Invalid zero address\");\n        require(account != address(this), \"Address cannot be equal to contract (this) address\");\n        _;\n    }\n\n    /**\n        @notice Creates a new Hackathon contract with a specific _id, _name, desciption,\n        and a specific organizer.\n        @param _id {uint256} Hackathon's unique indentifier\n        @param _name {bytes32} Hackathon's name. Required.\n        @param _description {bytes32} Hackathon's description. Optional.\n     */\n    constructor(uint256 _id, bytes32 _name, bytes32 _description, address initialOrganizer)\n        public\n        ContestBracketRegistry(initialOrganizer)\n    {\n        require(_name[0] != 0, \"Invalid name\");\n        id = _id;\n        name = _name;\n        description = _description;\n        prizesAllocated = false;\n    }\n\n    /**\n        @notice Allows the organizer to allocate funds that's going to be distributed to winners.\n        @dev It does not associate the prize with a specific account, since prizes cound be associated any moment\n        by the organizers, as long as prizes were not allocated before.\n        The contract needs to have enought balance to allocate funds to winners.\n     */\n    function allocatePrize(uint256 firstPrize, uint256 secondPrize, uint256 thirdPrize)\n        external\n        onlyOrganizer\n        whenPrizeNotAllocated\n    {\n        uint256 totalPrizes = firstPrize.add(secondPrize).add(thirdPrize);\n        require(totalPrizes <= address(this).balance, \"Not enough funds available in hackathon contract\");\n        firstPlacePrize = Prize(firstPrize, false);\n        secondPlacePrize = Prize(secondPrize, false);\n        thirdPlacePrize = Prize(thirdPrize, false);\n        prizesAllocated = true;\n        emit PrizeAllocation(firstPrize, secondPrize, thirdPrize, msg.sender, now);\n    }\n\n    /**\n        @notice Allows withdrawing prizes to winners.\n        @dev Winners must implement IPayable to receive funds.\n     */\n    function withdrawPrize(address winnerAddress)\n        external\n        whenRankPublished\n        whenPrizeAllocated\n        onlyValidAddress(winnerAddress)\n        onlyWinnerAddress(winnerAddress)\n    {\n        address teamAddress;\n        uint256 amount;\n        uint8 rankPosition;\n\n        if (winnerAddress == firstPlace.teamAddress) {\n            teamAddress = firstPlace.teamAddress;\n            amount = firstPlacePrize.amount;\n            rankPosition = 1;\n            require(!firstPlacePrize.paid, \"Prize already paid for first place\");\n            firstPlacePrize.paid = true;\n        } else if (winnerAddress == secondPlace.teamAddress) {\n            teamAddress = secondPlace.teamAddress;\n            amount = secondPlacePrize.amount;\n            rankPosition = 2;\n            require(!secondPlacePrize.paid, \"Prize already paid for second place\");\n            secondPlacePrize.paid = true;\n        } else if (winnerAddress == thirdPlace.teamAddress) {\n            teamAddress = thirdPlace.teamAddress;\n            amount = thirdPlacePrize.amount;\n            rankPosition = 3;\n            require(!thirdPlacePrize.paid, \"Prize already paid for third place\");\n            thirdPlacePrize.paid = true;\n        } else {\n            revert(\"Invalid address. Address check failed. Should not reach this point.\");\n        }\n\n        emit Withdraw(teamAddress, amount, rankPosition, msg.sender, now);\n        // Pays winner using team addres.\n        IPayable(teamAddress).deposit.value(amount)();\n    }\n\n    /**\n        Checks if the specifier address is one of the winners\n    */\n\n    function isWinnerAddress(address winnerAddress) private view returns (bool) {\n        return (\n            winnerAddress == firstPlace.teamAddress ||\n                winnerAddress == secondPlace.teamAddress ||\n                winnerAddress == thirdPlace.teamAddress\n        );\n    }\n}\n",
  "sourcePath": "/media/fodisi/56401C55401C3DE5/dev/Projects/hackapay/contracts/core/Hackathon.sol",
  "compiler": {
    "name": "solc",
    "version": "0.5.12+commit.7709ece9.Emscripten.clang"
  },
  "schemaVersion": "3.0.20",
  "updatedAt": "2020-01-30T11:34:10.472Z",
  "devdoc": {
    "details": "For the payment functionality, the \"withdraw pattern\" is being implemented for this contract. The ledger allocation is done is the method {allocatePrize} and the withdraw is implemented on {withdrawPrize}.",
    "methods": {
      "allocatePrize(uint256,uint256,uint256)": {
        "details": "It does not associate the prize with a specific account, since prizes cound be associated any moment by the organizers, as long as prizes were not allocated before. The contract needs to have enought balance to allocate funds to winners."
      },
      "approveTeam(uint256)": {
        "details": "Should be overwritten on inherited contract to add modifier or require statements for access control.",
        "params": {
          "teamId": "{uint256} the ids of the teams to be approved"
        }
      },
      "closeEvaluation()": {
        "details": "Should be overwritten on inherited contract to add modifier or require statements for access control."
      },
      "closeRegistration()": {
        "details": "Overwritten to add modifier for access control."
      },
      "closeSubmission()": {
        "details": "Should be overwritten on inherited contract to add modifier or require statements for access control."
      },
      "constructor": {
        "params": {
          "_description": "{bytes32} Hackathon's description. Optional.",
          "_id": "{uint256} Hackathon's unique indentifier",
          "_name": "{bytes32} Hackathon's name. Required."
        }
      },
      "getEvaluationStatus()": {
        "return": "{bool} returns {true} if enabled; otherwise, {false}."
      },
      "getRegistrationStatus()": {
        "return": "{bool} returns {true} if enabled; otherwise, {false}."
      },
      "getSubmissionStatus()": {
        "return": "{bool} returns {true} if enabled; otherwise, {false}."
      },
      "getTeam(uint256)": {
        "params": {
          "teamId": "{uint256} the team's unique identifier returned on registration"
        },
        "return": "{bytes32} team's name{address} team's address{bytes32} team's proposal data{bool} team's status: {true} for approved; {false} for reproved;{uint256} team's grade"
      },
      "getTeamByAddress(address)": {
        "params": {
          "teamAddress": "{address} the team's contract address used on registration"
        },
        "return": "{bytes32} team's name{address} team's address{bytes32} team's proposal data{bool} team's status: {true} for approved; {false} for reproved;{uint256} team's grade"
      },
      "getWinnersIds()": {
        "return": "{uint256} First place's id{uint256} Second place's id{uint256} Third place's id"
      },
      "openEvaluation()": {
        "details": "Should be overwritten on inherited contract to add modifier or require statements for access control."
      },
      "openRegistration()": {
        "details": "Overwritten to add modifier for access control."
      },
      "openSubmission()": {
        "details": "Should be overwritten on inherited contract to add modifier or require statements for access control."
      },
      "publishRank()": {
        "details": "emitts an WinnerAnnounced event for each winner (1st, 2nd, 3rd place)."
      },
      "registerTeam(bytes32,address,bytes32)": {
        "details": "Registration process must be open.",
        "params": {
          "teamName": "{bytes32} team's proposal data; could be a hash for a file  on IPFS or for a github link; not required"
        }
      },
      "reproveTeam(uint256)": {
        "details": "Should be overwritten on inherited contract to add modifier or require statements for access control.",
        "params": {
          "teamId": "{uint256} the ids of the teams to be reproved"
        }
      },
      "reproveTeams(uint256[])": {
        "details": "Should be overwritten on inherited contract to add modifier or require statements for access control.",
        "params": {
          "teamIds": "{uint256[]} an array containing the ids of the teams to be reproved"
        }
      },
      "submitEvaluation(uint256[],uint8[])": {
        "details": "The position of teamId and teamGrade must be the same in the array. For example, if teamId \"1\" is sent at {teamIds} array position \"5\" (zero-based), the grade for team \"1\" must be sent at position \"5\" in {teamGrades} array.",
        "params": {
          "teamGrades": "Array of the grades given by the judge for each team.",
          "teamIds": "Array of the ids associated with each team that is going to be evaluated."
        }
      },
      "updateProposalData(uint256,bytes32)": {
        "params": {
          "proposalData": "the updated data for the team's proposal",
          "teamId": "team's unique identifier; required"
        }
      },
      "withdrawPrize(address)": {
        "details": "Winners must implement IPayable to receive funds."
      }
    }
  },
  "userdoc": {
    "methods": {
      "allocatePrize(uint256,uint256,uint256)": {
        "notice": "Allows the organizer to allocate funds that's going to be distributed to winners."
      },
      "approveTeam(uint256)": {
        "notice": "(re)approves a team in participating in the contest"
      },
      "closeEvaluation()": {
        "notice": "Closes the evaluation process"
      },
      "closeRegistration()": {
        "notice": "Closes the registration process"
      },
      "closeSubmission()": {
        "notice": "Closes the proposal submission process"
      },
      "constructor": "Creates a new Hackathon contract with a specific _id, _name, desciption, and a specific organizer.",
      "deposit()": {
        "notice": "Allows the contract to receive funds."
      },
      "getEvaluationStatus()": {
        "notice": "Gets the evaluation status"
      },
      "getRegistrationStatus()": {
        "notice": "Gets the registration status"
      },
      "getSubmissionStatus()": {
        "notice": "Gets the submission status"
      },
      "getTeam(uint256)": {
        "notice": "Returns the stored information of a team"
      },
      "getTeamByAddress(address)": {
        "notice": "Returns the stored information of a team, based on a provided address"
      },
      "getWinnersIds()": {
        "notice": "Gets the id of the winner teams."
      },
      "openEvaluation()": {
        "notice": "Opens the evaluation process"
      },
      "openRegistration()": {
        "notice": "Opens the registration process"
      },
      "openSubmission()": {
        "notice": "Opens the proposal submission process"
      },
      "publishRank()": {
        "notice": "Published the ranking results of the contest."
      },
      "registerTeam(bytes32,address,bytes32)": {
        "notice": "Registers a new team in the contest registry."
      },
      "reproveTeam(uint256)": {
        "notice": "reproves a team from participating in the contest"
      },
      "reproveTeams(uint256[])": {
        "notice": "reprove teams from participating in the contest"
      },
      "submitEvaluation(uint256[],uint8[])": {
        "notice": "Allows a judge to submit its evaluation for the teams competing in the contest. The evaluation for all teams must be submitted once."
      },
      "updateProposalData(uint256,bytes32)": {
        "notice": "Updates the proposal data for a specific team."
      },
      "withdrawPrize(address)": {
        "notice": "Allows withdrawing prizes to winners."
      }
    },
    "notice": "Represents a hackathon contest, where organizers can control the stages/phases of the contest (such as registration, submission, evaluation and results) as well as pay prizes to the winners."
  }
}