{
  "contractName": "Hackathon",
  "abi": [
    {
      "constant": true,
      "inputs": [
        {
          "name": "teamId",
          "type": "uint256"
        }
      ],
      "name": "getTeam",
      "outputs": [
        {
          "name": "",
          "type": "bytes32"
        },
        {
          "name": "",
          "type": "address"
        },
        {
          "name": "",
          "type": "bytes32"
        },
        {
          "name": "",
          "type": "bool"
        },
        {
          "name": "",
          "type": "uint256"
        }
      ],
      "payable": false,
      "stateMutability": "view",
      "type": "function"
    },
    {
      "constant": true,
      "inputs": [],
      "name": "name",
      "outputs": [
        {
          "name": "",
          "type": "bytes32"
        }
      ],
      "payable": false,
      "stateMutability": "view",
      "type": "function"
    },
    {
      "constant": false,
      "inputs": [
        {
          "name": "teamId",
          "type": "uint256"
        }
      ],
      "name": "approveTeam",
      "outputs": [],
      "payable": false,
      "stateMutability": "nonpayable",
      "type": "function"
    },
    {
      "constant": false,
      "inputs": [
        {
          "name": "teamIds",
          "type": "uint256[]"
        }
      ],
      "name": "reproveTeams",
      "outputs": [],
      "payable": false,
      "stateMutability": "nonpayable",
      "type": "function"
    },
    {
      "constant": false,
      "inputs": [
        {
          "name": "teamIds",
          "type": "uint256[]"
        },
        {
          "name": "teamGrades",
          "type": "uint8[]"
        }
      ],
      "name": "submitEvaluation",
      "outputs": [],
      "payable": false,
      "stateMutability": "nonpayable",
      "type": "function"
    },
    {
      "constant": true,
      "inputs": [
        {
          "name": "",
          "type": "uint256"
        }
      ],
      "name": "teams",
      "outputs": [
        {
          "name": "id",
          "type": "uint256"
        },
        {
          "name": "name",
          "type": "bytes32"
        },
        {
          "name": "teamAddress",
          "type": "address"
        },
        {
          "name": "proposalData",
          "type": "bytes32"
        },
        {
          "name": "approved",
          "type": "bool"
        },
        {
          "name": "grade",
          "type": "uint256"
        }
      ],
      "payable": false,
      "stateMutability": "view",
      "type": "function"
    },
    {
      "constant": true,
      "inputs": [
        {
          "name": "account",
          "type": "address"
        }
      ],
      "name": "isOrganizer",
      "outputs": [
        {
          "name": "",
          "type": "bool"
        }
      ],
      "payable": false,
      "stateMutability": "view",
      "type": "function"
    },
    {
      "constant": false,
      "inputs": [],
      "name": "renounceJudge",
      "outputs": [],
      "payable": false,
      "stateMutability": "nonpayable",
      "type": "function"
    },
    {
      "constant": true,
      "inputs": [
        {
          "name": "teamAddress",
          "type": "address"
        }
      ],
      "name": "getTeamByAddress",
      "outputs": [
        {
          "name": "",
          "type": "bytes32"
        },
        {
          "name": "",
          "type": "address"
        },
        {
          "name": "",
          "type": "bytes32"
        },
        {
          "name": "",
          "type": "bool"
        },
        {
          "name": "",
          "type": "uint256"
        }
      ],
      "payable": false,
      "stateMutability": "view",
      "type": "function"
    },
    {
      "constant": true,
      "inputs": [],
      "name": "getSubmissionStatus",
      "outputs": [
        {
          "name": "",
          "type": "bool"
        }
      ],
      "payable": false,
      "stateMutability": "view",
      "type": "function"
    },
    {
      "constant": false,
      "inputs": [],
      "name": "renounceOrganizer",
      "outputs": [],
      "payable": false,
      "stateMutability": "nonpayable",
      "type": "function"
    },
    {
      "constant": false,
      "inputs": [],
      "name": "openSubmission",
      "outputs": [],
      "payable": false,
      "stateMutability": "nonpayable",
      "type": "function"
    },
    {
      "constant": true,
      "inputs": [],
      "name": "description",
      "outputs": [
        {
          "name": "",
          "type": "bytes32"
        }
      ],
      "payable": false,
      "stateMutability": "view",
      "type": "function"
    },
    {
      "constant": true,
      "inputs": [],
      "name": "getWinnersIds",
      "outputs": [
        {
          "name": "",
          "type": "uint256"
        },
        {
          "name": "",
          "type": "uint256"
        },
        {
          "name": "",
          "type": "uint256"
        }
      ],
      "payable": false,
      "stateMutability": "view",
      "type": "function"
    },
    {
      "constant": false,
      "inputs": [
        {
          "name": "teamName",
          "type": "bytes32"
        },
        {
          "name": "teamAddress",
          "type": "address"
        },
        {
          "name": "proposalData",
          "type": "bytes32"
        }
      ],
      "name": "registerTeam",
      "outputs": [
        {
          "name": "",
          "type": "uint256"
        }
      ],
      "payable": false,
      "stateMutability": "nonpayable",
      "type": "function"
    },
    {
      "constant": false,
      "inputs": [],
      "name": "closeRegistration",
      "outputs": [],
      "payable": false,
      "stateMutability": "nonpayable",
      "type": "function"
    },
    {
      "constant": false,
      "inputs": [],
      "name": "publishRank",
      "outputs": [],
      "payable": false,
      "stateMutability": "nonpayable",
      "type": "function"
    },
    {
      "constant": false,
      "inputs": [
        {
          "name": "account",
          "type": "address"
        }
      ],
      "name": "addJudge",
      "outputs": [],
      "payable": false,
      "stateMutability": "nonpayable",
      "type": "function"
    },
    {
      "constant": true,
      "inputs": [],
      "name": "getEvaluationStatus",
      "outputs": [
        {
          "name": "",
          "type": "bool"
        }
      ],
      "payable": false,
      "stateMutability": "view",
      "type": "function"
    },
    {
      "constant": false,
      "inputs": [],
      "name": "closeEvaluation",
      "outputs": [],
      "payable": false,
      "stateMutability": "nonpayable",
      "type": "function"
    },
    {
      "constant": false,
      "inputs": [
        {
          "name": "account",
          "type": "address"
        }
      ],
      "name": "removeJudge",
      "outputs": [],
      "payable": false,
      "stateMutability": "nonpayable",
      "type": "function"
    },
    {
      "constant": true,
      "inputs": [],
      "name": "id",
      "outputs": [
        {
          "name": "",
          "type": "uint256"
        }
      ],
      "payable": false,
      "stateMutability": "view",
      "type": "function"
    },
    {
      "constant": false,
      "inputs": [],
      "name": "openEvaluation",
      "outputs": [],
      "payable": false,
      "stateMutability": "nonpayable",
      "type": "function"
    },
    {
      "constant": false,
      "inputs": [],
      "name": "openRegistration",
      "outputs": [],
      "payable": false,
      "stateMutability": "nonpayable",
      "type": "function"
    },
    {
      "constant": false,
      "inputs": [],
      "name": "deposit",
      "outputs": [],
      "payable": true,
      "stateMutability": "payable",
      "type": "function"
    },
    {
      "constant": true,
      "inputs": [],
      "name": "getRegistrationStatus",
      "outputs": [
        {
          "name": "",
          "type": "bool"
        }
      ],
      "payable": false,
      "stateMutability": "view",
      "type": "function"
    },
    {
      "constant": false,
      "inputs": [
        {
          "name": "account",
          "type": "address"
        }
      ],
      "name": "addOrganizer",
      "outputs": [],
      "payable": false,
      "stateMutability": "nonpayable",
      "type": "function"
    },
    {
      "constant": false,
      "inputs": [
        {
          "name": "teamId",
          "type": "uint256"
        },
        {
          "name": "proposalData",
          "type": "bytes32"
        }
      ],
      "name": "updateProposalData",
      "outputs": [],
      "payable": false,
      "stateMutability": "nonpayable",
      "type": "function"
    },
    {
      "constant": true,
      "inputs": [
        {
          "name": "account",
          "type": "address"
        }
      ],
      "name": "isJudge",
      "outputs": [
        {
          "name": "",
          "type": "bool"
        }
      ],
      "payable": false,
      "stateMutability": "view",
      "type": "function"
    },
    {
      "constant": false,
      "inputs": [
        {
          "name": "teamId",
          "type": "uint256"
        }
      ],
      "name": "reproveTeam",
      "outputs": [],
      "payable": false,
      "stateMutability": "nonpayable",
      "type": "function"
    },
    {
      "constant": false,
      "inputs": [],
      "name": "closeSubmission",
      "outputs": [],
      "payable": false,
      "stateMutability": "nonpayable",
      "type": "function"
    },
    {
      "inputs": [
        {
          "name": "_id",
          "type": "uint256"
        },
        {
          "name": "_name",
          "type": "bytes32"
        },
        {
          "name": "_description",
          "type": "bytes32"
        },
        {
          "name": "initialOrganizer",
          "type": "address"
        }
      ],
      "payable": false,
      "stateMutability": "nonpayable",
      "type": "constructor"
    },
    {
      "anonymous": false,
      "inputs": [
        {
          "indexed": false,
          "name": "firstPlacePrize",
          "type": "uint256"
        },
        {
          "indexed": false,
          "name": "secondPlacePrize",
          "type": "uint256"
        },
        {
          "indexed": false,
          "name": "thirdPlacePrize",
          "type": "uint256"
        },
        {
          "indexed": true,
          "name": "organizer",
          "type": "address"
        },
        {
          "indexed": false,
          "name": "datetime",
          "type": "uint256"
        }
      ],
      "name": "PrizeAllocation",
      "type": "event"
    },
    {
      "anonymous": false,
      "inputs": [
        {
          "indexed": true,
          "name": "to",
          "type": "address"
        },
        {
          "indexed": false,
          "name": "amount",
          "type": "uint256"
        },
        {
          "indexed": false,
          "name": "rankPosition",
          "type": "uint8"
        },
        {
          "indexed": true,
          "name": "requester",
          "type": "address"
        },
        {
          "indexed": false,
          "name": "datetime",
          "type": "uint256"
        }
      ],
      "name": "Withdraw",
      "type": "event"
    },
    {
      "anonymous": false,
      "inputs": [
        {
          "indexed": false,
          "name": "enabled",
          "type": "bool"
        }
      ],
      "name": "EvaluationStatusUpdated",
      "type": "event"
    },
    {
      "anonymous": false,
      "inputs": [
        {
          "indexed": true,
          "name": "id",
          "type": "uint256"
        },
        {
          "indexed": false,
          "name": "judgeAddress",
          "type": "address"
        }
      ],
      "name": "JudgeVoted",
      "type": "event"
    },
    {
      "anonymous": false,
      "inputs": [
        {
          "indexed": false,
          "name": "teamId",
          "type": "uint256"
        },
        {
          "indexed": false,
          "name": "teamAddress",
          "type": "address"
        },
        {
          "indexed": false,
          "name": "finalGrade",
          "type": "uint256"
        },
        {
          "indexed": false,
          "name": "rankPosition",
          "type": "uint8"
        }
      ],
      "name": "WinnerAnnouced",
      "type": "event"
    },
    {
      "anonymous": false,
      "inputs": [
        {
          "indexed": true,
          "name": "account",
          "type": "address"
        }
      ],
      "name": "JudgeAdded",
      "type": "event"
    },
    {
      "anonymous": false,
      "inputs": [
        {
          "indexed": true,
          "name": "account",
          "type": "address"
        }
      ],
      "name": "JudgeRemoved",
      "type": "event"
    },
    {
      "anonymous": false,
      "inputs": [
        {
          "indexed": true,
          "name": "account",
          "type": "address"
        }
      ],
      "name": "OrganizerAdded",
      "type": "event"
    },
    {
      "anonymous": false,
      "inputs": [
        {
          "indexed": true,
          "name": "account",
          "type": "address"
        }
      ],
      "name": "OrganizerRemoved",
      "type": "event"
    },
    {
      "anonymous": false,
      "inputs": [
        {
          "indexed": true,
          "name": "teamId",
          "type": "uint256"
        },
        {
          "indexed": false,
          "name": "teamName",
          "type": "bytes32"
        },
        {
          "indexed": true,
          "name": "teamAddress",
          "type": "address"
        },
        {
          "indexed": false,
          "name": "approved",
          "type": "bool"
        }
      ],
      "name": "TeamRegistered",
      "type": "event"
    },
    {
      "anonymous": false,
      "inputs": [
        {
          "indexed": false,
          "name": "enabled",
          "type": "bool"
        }
      ],
      "name": "RegistrationStatusUpdated",
      "type": "event"
    },
    {
      "anonymous": false,
      "inputs": [
        {
          "indexed": false,
          "name": "enabled",
          "type": "bool"
        }
      ],
      "name": "SubmissionStatusUpdated",
      "type": "event"
    },
    {
      "anonymous": false,
      "inputs": [
        {
          "indexed": true,
          "name": "teamId",
          "type": "uint256"
        },
        {
          "indexed": true,
          "name": "teamAddress",
          "type": "address"
        },
        {
          "indexed": false,
          "name": "proposalData",
          "type": "bytes32"
        }
      ],
      "name": "TeamProposalUpdated",
      "type": "event"
    },
    {
      "anonymous": false,
      "inputs": [
        {
          "indexed": true,
          "name": "teamId",
          "type": "uint256"
        },
        {
          "indexed": true,
          "name": "teamAddress",
          "type": "address"
        },
        {
          "indexed": false,
          "name": "approved",
          "type": "bool"
        }
      ],
      "name": "TeamStatusUpdated",
      "type": "event"
    },
    {
      "anonymous": false,
      "inputs": [
        {
          "indexed": true,
          "name": "from",
          "type": "address"
        },
        {
          "indexed": false,
          "name": "amount",
          "type": "uint256"
        },
        {
          "indexed": true,
          "name": "datetime",
          "type": "uint256"
        }
      ],
      "name": "Deposit",
      "type": "event"
    },
    {
      "constant": false,
      "inputs": [
        {
          "name": "firstPrize",
          "type": "uint256"
        },
        {
          "name": "secondPrize",
          "type": "uint256"
        },
        {
          "name": "thirdPrize",
          "type": "uint256"
        }
      ],
      "name": "allocatePrize",
      "outputs": [],
      "payable": false,
      "stateMutability": "nonpayable",
      "type": "function"
    },
    {
      "constant": false,
      "inputs": [
        {
          "name": "winnerAddress",
          "type": "address"
        }
      ],
      "name": "withdrawPrize",
      "outputs": [],
      "payable": false,
      "stateMutability": "nonpayable",
      "type": "function"
    }
  ],
  "bytecode": "0x60806040523480156200001157600080fd5b5060405160808062003786833981018060405260808110156200003357600080fd5b50805160208201516040830151606090930151919290918080806001600160a01b038116620000c357604080517f08c379a000000000000000000000000000000000000000000000000000000000815260206004820152601460248201527f496e76616c6964207a65726f2061646472657373000000000000000000000000604482015290519081900360640190fd5b620000d4816200018b60201b60201c565b50849150600090501a60f81b7fff00000000000000000000000000000000000000000000000000000000000000166200016e57604080517f08c379a000000000000000000000000000000000000000000000000000000000815260206004820152600c60248201527f496e76616c6964206e616d650000000000000000000000000000000000000000604482015290519081900360640190fd5b50602392909255602455602555602c805460ff191690556200041a565b620001a1816200022560201b62002e8a1760201c565b6009805460018082019092557f6e1540171b6c0c960b71a7020d9f60077f6af931a8bbf590da0223dacf75c7af0180546001600160a01b0319166001600160a01b0384169081179091556000908152600b60209081526040909120805460ff191683179055600a546200021f92909162000277811b6200270317901c565b600a5550565b62000240816004620002f360201b62002fcc1790919060201c565b6040516001600160a01b038216907f37e96fc6762bae414e69ea6e2490e63bc46f2a1335de0f6b91f49cf808829bcf90600090a250565b600082820183811015620002ec57604080517f08c379a000000000000000000000000000000000000000000000000000000000815260206004820152601b60248201527f536166654d6174683a206164646974696f6e206f766572666c6f770000000000604482015290519081900360640190fd5b9392505050565b6200030582826200039760201b60201c565b156200037257604080517f08c379a000000000000000000000000000000000000000000000000000000000815260206004820152601f60248201527f526f6c65733a206163636f756e7420616c72656164792068617320726f6c6500604482015290519081900360640190fd5b6001600160a01b0316600090815260209190915260409020805460ff19166001179055565b60006001600160a01b038216620003fa576040517f08c379a0000000000000000000000000000000000000000000000000000000008152600401808060200182810382526022815260200180620037646022913960400191505060405180910390fd5b506001600160a01b03166000908152602091909152604090205460ff1690565b61333a806200042a6000396000f3fe6080604052600436106101ed5760003560e01c80637dc673bc1161010d578063d06e4ee7116100a0578063eaf2f9cd1161006f578063eaf2f9cd14610728578063ed896d6614610758578063f540548b1461078b578063f59ec3f9146107b5578063ffc6ff1e146107eb576101ed565b8063d06e4ee7146106c3578063d0e30db0146106d8578063e35fb241146106e0578063e4725f02146106f5576101ed565b8063ae237c77116100dc578063ae237c7714610651578063ae2ac4ae14610666578063af640d0f14610699578063b2a13f92146106ae576101ed565b80637dc673bc146105df57806390d768e4146105f4578063927cab4714610609578063a2bce8bd1461063c576101ed565b80634b30b66f1161018557806358e2f50e1161015457806358e2f50e146105435780637284e41614610558578063737a63401461056d5780637385712c146105a0576101ed565b80634b30b66f146104d15780634ea701a8146104e657806354e1db2b14610519578063567ad8621461052e576101ed565b8063288c4a46116101c1578063288c4a46146102d75780633e091f64146103545780633ed2b77a1461042357806341676f151461048a576101ed565b80628e0f1b146101f257806306fdde031461025157806311dc45c91461027857806324ba9fab146102ad575b600080fd5b3480156101fe57600080fd5b5061021c6004803603602081101561021557600080fd5b5035610800565b604080519586526001600160a01b03909416602086015284840192909252151560608401526080830152519081900360a00190f35b34801561025d57600080fd5b506102666108f0565b60408051918252519081900360200190f35b34801561028457600080fd5b506102ab6004803603602081101561029b57600080fd5b50356001600160a01b03166108f6565b005b3480156102b957600080fd5b506102ab600480360360208110156102d057600080fd5b5035610d2f565b3480156102e357600080fd5b506102ab600480360360208110156102fa57600080fd5b81019060208101813564010000000081111561031557600080fd5b82018360208201111561032757600080fd5b8035906020019184602083028401116401000000008311171561034957600080fd5b509092509050610d3b565b34801561036057600080fd5b506102ab6004803603604081101561037757600080fd5b81019060208101813564010000000081111561039257600080fd5b8201836020820111156103a457600080fd5b803590602001918460208302840111640100000000831117156103c657600080fd5b9193909290916020810190356401000000008111156103e457600080fd5b8201836020820111156103f657600080fd5b8035906020019184602083028401116401000000008311171561041857600080fd5b509092509050610d7b565b34801561042f57600080fd5b5061044d6004803603602081101561044657600080fd5b5035611147565b6040805196875260208701959095526001600160a01b039093168585015260608501919091521515608084015260a0830152519081900360c00190f35b34801561049657600080fd5b506104bd600480360360208110156104ad57600080fd5b50356001600160a01b031661119a565b604080519115158252519081900360200190f35b3480156104dd57600080fd5b506102ab6111b5565b3480156104f257600080fd5b5061021c6004803603602081101561050957600080fd5b50356001600160a01b03166111c0565b34801561052557600080fd5b506104bd6112a7565b34801561053a57600080fd5b506102ab6112b5565b34801561054f57600080fd5b506102ab6112be565b34801561056457600080fd5b50610266611365565b34801561057957600080fd5b5061058261136b565b60408051938452602084019290925282820152519081900360600190f35b3480156105ac57600080fd5b50610266600480360360608110156105c357600080fd5b508035906001600160a01b036020820135169060400135611379565b3480156105eb57600080fd5b506102ab61176a565b34801561060057600080fd5b506102ab611813565b34801561061557600080fd5b506102ab6004803603602081101561062c57600080fd5b50356001600160a01b0316611d04565b34801561064857600080fd5b506104bd611d54565b34801561065d57600080fd5b506102ab611d5d565b34801561067257600080fd5b506102ab6004803603602081101561068957600080fd5b50356001600160a01b0316611e06565b3480156106a557600080fd5b50610266611e56565b3480156106ba57600080fd5b506102ab611e5c565b3480156106cf57600080fd5b506102ab611efe565b6102ab611fa8565b3480156106ec57600080fd5b506104bd612023565b34801561070157600080fd5b506102ab6004803603602081101561071857600080fd5b50356001600160a01b031661202c565b34801561073457600080fd5b506102ab6004803603604081101561074b57600080fd5b508035906020013561207c565b34801561076457600080fd5b506104bd6004803603602081101561077b57600080fd5b50356001600160a01b0316612200565b34801561079757600080fd5b506102ab600480360360208110156107ae57600080fd5b5035612213565b3480156107c157600080fd5b506102ab600480360360608110156107d857600080fd5b508035906020810135906040013561221c565b3480156107f757600080fd5b506102ab6123de565b6000806000806000856108128161248c565b61085b5760408051600160e51b62461bcd02815260206004820152600f60248201526001608a1b6e125b9d985b1a59081d19585b481a5902604482015290519081900360640190fd5b610863613050565b6001888154811061087057fe5b60009182526020918290206040805160c08101825260069390930290910180548352600181015493830184905260028101546001600160a01b0316918301829052600381015460608401819052600482015460ff1615156080850181905260059092015460a0909401849052939c919b5092995091975095509350505050565b60245481565b60225460ff166109505760408051600160e51b62461bcd02815260206004820152601660248201527f52616e6b206e6f74207075626c69736865642079657400000000000000000000604482015290519081900360640190fd5b602c5460ff166109aa5760408051600160e51b62461bcd02815260206004820152601860248201527f5072697a6573206e6f7420616c6c6f6361746564207965740000000000000000604482015290519081900360640190fd5b806001600160a01b038116610a095760408051600160e51b62461bcd02815260206004820152601460248201527f496e76616c6964207a65726f2061646472657373000000000000000000000000604482015290519081900360640190fd5b6001600160a01b038116301415610a5457604051600160e51b62461bcd02815260040180806020018281038252603281526020018061316f6032913960400191505060405180910390fd5b81610a5e81612493565b610ab25760408051600160e51b62461bcd02815260206004820152601f60248201527f4163636f756e742061646472657373206973206e6f7420612077696e6e657200604482015290519081900360640190fd5b601254600090819081906001600160a01b0387811691161415610b3f5750506012546026546027546001600160a01b0390921692509060019060ff1615610b2d57604051600160e51b62461bcd0281526004018080602001828103825260228152602001806131e46022913960400191505060405180910390fd5b6027805460ff19166001179055610c85565b6018546001600160a01b0387811691161415610bc55750506018546028546029546001600160a01b0390921692509060029060ff1615610bb357604051600160e51b62461bcd0281526004018080602001828103825260238152602001806132ec6023913960400191505060405180910390fd5b6029805460ff19166001179055610c85565b601e546001600160a01b0387811691161415610c4b575050601e54602a54602b546001600160a01b0390921692509060039060ff1615610c3957604051600160e51b62461bcd0281526004018080602001828103825260228152602001806132456022913960400191505060405180910390fd5b602b805460ff19166001179055610c85565b604051600160e51b62461bcd0281526004018080602001828103825260438152602001806131a16043913960600191505060405180910390fd5b6040805183815260ff831660208201524281830152905133916001600160a01b038616917f24cc64e111181860a0e50314e2717d8d86bc21fb600e5681040e47cd5eab7f079181900360600190a3826001600160a01b031663d0e30db0836040518263ffffffff1660e01b81526004016000604051808303818588803b158015610d0e57600080fd5b505af1158015610d22573d6000803e3d6000fd5b5050505050505050505050565b610d38816124da565b50565b610d7782828080602002602001604051908101604052809392919081815260200183836020028082843760009201919091525061262d92505050565b5050565b600f5460ff16610dd55760408051600160e51b62461bcd02815260206004820152601460248201527f4576616c756174696f6e20697320636c6f736564000000000000000000000000604482015290519081900360640190fd5b610dde33612200565b610e1c57604051600160e51b62461bcd02815260040180806020018281038252602b8152602001806130f0602b913960400191505060405180910390fd5b828114610e5d57604051600160e51b62461bcd0281526004018080602001828103825260338152602001806132676033913960400191505060405180910390fd5b6002548314610ea057604051600160e51b62461bcd02815260040180806020018281038252603f815260200180613206603f913960400191505060405180910390fd5b600060025411610efa5760408051600160e51b62461bcd02815260206004820152601d60248201527f4e6f20617070726f766564207465616d7320746f206576616c75617465000000604482015290519081900360640190fd5b336000908152600e602052604090206001810154600160a81b900460ff1615610f5757604051600160e51b62461bcd0281526004018080602001828103825260228152602001806130ce6022913960400191505060405180910390fd5b60005b6002548110156110e4576000868683818110610f7257fe5b9050602002013590506000858584818110610f8957fe5b9050602002013560ff169050610f9e8261248c565b610fe75760408051600160e51b62461bcd02815260206004820152600f60248201526001608a1b6e125b9d985b1a59081d19585b481a5902604482015290519081900360640190fd5b610ff08261265d565b61103e5760408051600160e51b62461bcd0281526020600482015260146024820152600160621b731519585b481a5cc81b9bdd08185c1c1c9bdd995902604482015290519081900360640190fd5b611047816126f7565b61109b5760408051600160e51b62461bcd02815260206004820152600d60248201527f496e76616c696420677261646500000000000000000000000000000000000000604482015290519081900360640190fd5b6000600183815481106110aa57fe5b906000526020600020906006020190506110d48260ff16826005015461270390919063ffffffff16565b6005909101555050600101610f5a565b50600181018054600160a81b60ff021916600160a81b17908190558154604080516001600160a01b0390931683525190917fd62869bbd78965284c34750092d78b62093e2d02b730d0ce696ebdcb371bb5dc919081900360200190a25050505050565b6001818154811061115457fe5b600091825260209091206006909102018054600182015460028301546003840154600485015460059095015493955091936001600160a01b039091169260ff9091169086565b60006111ad60048363ffffffff61276716565b90505b919050565b6111be336127d1565b565b6000808080806001600160a01b0386166112245760408051600160e51b62461bcd02815260206004820152601460248201527f496e76616c6964207a65726f2061646472657373000000000000000000000000604482015290519081900360640190fd5b61122c613050565b505050506001600160a01b0392831660009081526020818152604091829020825160c0810184528154815260018201549281018390526002820154909616928601839052600381015460608701819052600482015460ff1615156080880181905260059092015460a090970187905291969295919450925090565b600354610100900460ff1690565b6111be3361282c565b600354610100900460ff16156113165760408051600160e51b62461bcd0281526020600482015260126024820152600160711b7129bab136b4b9b9b4b7b71034b99037b832b702604482015290519081900360640190fd5b61131f3361119a565b61135d57604051600160e51b62461bcd02815260040180806020018281038252603381526020018061311b6033913960400191505060405180910390fd5b6111be61286f565b60255481565b601054601654601c54909192565b60035460009060ff166113d65760408051600160e51b62461bcd02815260206004820152601660248201527f526567697374726174696f6e20697320636c6f73656400000000000000000000604482015290519081900360640190fd5b8360001a60f81b6001600160f81b03191661143b5760408051600160e51b62461bcd02815260206004820152601960248201527f5465616d206e616d652063616e6e6f7420626520656d70747900000000000000604482015290519081900360640190fd5b6001600160a01b0383166114995760408051600160e51b62461bcd02815260206004820152601b60248201527f5465616d20616464726573732063616e6e6f74206265207a65726f0000000000604482015290519081900360640190fd5b6001600160a01b03838116600090815260208190526040902060020154161561150c5760408051600160e51b62461bcd02815260206004820152601760248201527f5465616d20616c72656164792072656769737465726564000000000000000000604482015290519081900360640190fd5b600154611517613050565b506040805160c081018252828152602081018781526001600160a01b0387811693830193845260608301878152600160808501818152600060a08701818152835480850185559184905287517fb10e2d527612073b26eecdfd717e6a320cf44b4afac2b0732d9fcbe2b7fa0cf660069093029283015595517fb10e2d527612073b26eecdfd717e6a320cf44b4afac2b0732d9fcbe2b7fa0cf782015596517fb10e2d527612073b26eecdfd717e6a320cf44b4afac2b0732d9fcbe2b7fa0cf8880180546001600160a01b031916919095161790935590517fb10e2d527612073b26eecdfd717e6a320cf44b4afac2b0732d9fcbe2b7fa0cf986015590517fb10e2d527612073b26eecdfd717e6a320cf44b4afac2b0732d9fcbe2b7fa0cfa8501805460ff191691151591909117905590517fb10e2d527612073b26eecdfd717e6a320cf44b4afac2b0732d9fcbe2b7fa0cfb9093019290925581549091908390811061167f57fe5b600091825260208083206001600160a01b03808a1685529184905260409093206006909202909201805482556001808201548184015560028083015481850180546001600160a01b031916919096161790945560038083015490840155600480830154908401805460ff909216151560ff19909216919091179055600591820154919092015590546117169163ffffffff61270316565b600255604080518781526001602082015281516001600160a01b0388169285927f443b25596b838f2775d21b1153b87036f08c058fd4702446f1136ab26e5f3b90929081900390910190a350949350505050565b60035460ff166117c45760408051600160e51b62461bcd02815260206004820152601660248201527f526567697374726174696f6e20697320636c6f73656400000000000000000000604482015290519081900360640190fd5b6117cd3361119a565b61180b57604051600160e51b62461bcd02815260040180806020018281038252603381526020018061311b6033913960400191505060405180910390fd5b6111be6128bf565b60035460ff161561186e5760408051600160e51b62461bcd02815260206004820152601460248201527f526567697374726174696f6e206973206f70656e000000000000000000000000604482015290519081900360640190fd5b600354610100900460ff16156118c65760408051600160e51b62461bcd0281526020600482015260126024820152600160711b7129bab136b4b9b9b4b7b71034b99037b832b702604482015290519081900360640190fd5b600f5460ff16156119195760408051600160e51b62461bcd0281526020600482015260126024820152600160711b7122bb30b63ab0ba34b7b71034b99037b832b702604482015290519081900360640190fd5b6119223361119a565b61196057604051600160e51b62461bcd02815260040180806020018281038252603381526020018061311b6033913960400191505060405180910390fd5b60225460ff16156119bb5760408051600160e51b62461bcd02815260206004820152601660248201527f52616e6b20616c7265616479207075626c697368656400000000000000000000604482015290519081900360640190fd5b600060025411611a155760408051600160e51b62461bcd02815260206004820152601360248201527f4e6f207465616d73207265676973746572656400000000000000000000000000604482015290519081900360640190fd5b611a1d613050565b611a25613050565b611a2d613050565b611a35613050565b60005b600154811015611b205760018181548110611a4f57fe5b60009182526020918290206040805160c08101825260069093029091018054835260018101549383019390935260028301546001600160a01b03169082015260038201546060820152600482015460ff16158015608083015260059092015460a0820152955080611ac757508160a001518560a00151105b15611ad157611b18565b8360a001518560a001511115611aeb578493929150611b18565b8260a001518560a001511115611b045784929150611b18565b8160a001518560a001511115611b18578491505b600101611a38565b5082516010819055602080850151601155604080860151601280546001600160a01b03199081166001600160a01b0393841617918290556060808a01516013556080808b01516014805460ff1990811692151592909217905560a0808d015160158190558c516016558c8a01516017558c890151601880548816918a169190911790558c8501516019558c840151601a805485169115159190911790558c820151601b558b51601c558b8a0151601d558b890151601e8054909716908916179095558a840151601f558a830151895483169015151789558a0151602155602280549091166001908117909155865198895293909416958701959095528584015292840192909252517f78bd43bbb342abb837e10002dd4fcda5ea371db518ce4e9aff10ab136441a99c9281900390910190a1601654601854601b54604080519384526001600160a01b0390921660208401528282015260026060830152517f78bd43bbb342abb837e10002dd4fcda5ea371db518ce4e9aff10ab136441a99c9181900360800190a1601c54601e54602154604080519384526001600160a01b0390921660208401528282015260036060830152517f78bd43bbb342abb837e10002dd4fcda5ea371db518ce4e9aff10ab136441a99c9181900360800190a150505050565b611d0d3361119a565b611d4b57604051600160e51b62461bcd02815260040180806020018281038252603381526020018061311b6033913960400191505060405180910390fd5b610d38816128ff565b600f5460ff1690565b600f5460ff16611db75760408051600160e51b62461bcd02815260206004820152601460248201527f4576616c756174696f6e20697320636c6f736564000000000000000000000000604482015290519081900360640190fd5b611dc03361119a565b611dfe57604051600160e51b62461bcd02815260040180806020018281038252603381526020018061311b6033913960400191505060405180910390fd5b6111be612aab565b611e0f3361119a565b611e4d57604051600160e51b62461bcd02815260040180806020018281038252603381526020018061311b6033913960400191505060405180910390fd5b610d38816127d1565b60235481565b600f5460ff1615611eaf5760408051600160e51b62461bcd0281526020600482015260126024820152600160711b7122bb30b63ab0ba34b7b71034b99037b832b702604482015290519081900360640190fd5b611eb83361119a565b611ef657604051600160e51b62461bcd02815260040180806020018281038252603381526020018061311b6033913960400191505060405180910390fd5b6111be612aeb565b60035460ff1615611f595760408051600160e51b62461bcd02815260206004820152601460248201527f526567697374726174696f6e206973206f70656e000000000000000000000000604482015290519081900360640190fd5b611f623361119a565b611fa057604051600160e51b62461bcd02815260040180806020018281038252603381526020018061311b6033913960400191505060405180910390fd5b6111be612b35565b60003411611fea57604051600160e51b62461bcd0281526004018080602001828103825260218152602001806130ad6021913960400191505060405180910390fd5b604080513481529051429133917f90890809c654f11d6e72a28fa60149770a0d11ec6c92319d6ceb2bb0a4ea1a159181900360200190a3565b60035460ff1690565b6120353361119a565b61207357604051600160e51b62461bcd02815260040180806020018281038252603381526020018061311b6033913960400191505060405180910390fd5b610d3881612b7f565b816120868161248c565b6120cf5760408051600160e51b62461bcd02815260206004820152600f60248201526001608a1b6e125b9d985b1a59081d19585b481a5902604482015290519081900360640190fd5b826120d98161265d565b6121275760408051600160e51b62461bcd0281526020600482015260146024820152600160621b731519585b481a5cc81b9bdd08185c1c1c9bdd995902604482015290519081900360640190fd5b600354610100900460ff166121865760408051600160e51b62461bcd02815260206004820152601460248201527f5375626d697373696f6e20697320636c6f736564000000000000000000000000604482015290519081900360640190fd5b60006001858154811061219557fe5b60009182526020918290206003600690920201908101869055600281015481546040805189815290519395506001600160a01b039092169390927fa44de9e6ce79675199796005de8516704078af25aaf78ab4be180213882560ee9281900390910190a35050505050565b60006111ad60058363ffffffff61276716565b610d3881612bf6565b6122253361119a565b61226357604051600160e51b62461bcd02815260040180806020018281038252603381526020018061311b6033913960400191505060405180910390fd5b602c5460ff16156122be5760408051600160e51b62461bcd02815260206004820152601860248201527f5072697a657320616c726561647920616c6c6f63617465640000000000000000604482015290519081900360640190fd5b60006122e0826122d4868663ffffffff61270316565b9063ffffffff61270316565b9050303181111561232557604051600160e51b62461bcd0281526004018080602001828103825260308152602001806132bc6030913960400191505060405180910390fd5b6040805180820182528581526000602091820181905260268790556027805460ff199081169091558351808501855287815283018290526028879055602980548216905583518085018552868152830191909152602a859055602b805482169055602c805490911660011790558151868152908101859052808201849052426060820152905133917f60e7ffaf15f306ac55b9117669d2fd27994d49f2ccf8490fc874df9ebb5706aa919081900360800190a250505050565b600354610100900460ff1661243d5760408051600160e51b62461bcd02815260206004820152601460248201527f5375626d697373696f6e20697320636c6f736564000000000000000000000000604482015290519081900360640190fd5b6124463361119a565b61248457604051600160e51b62461bcd02815260040180806020018281038252603381526020018061311b6033913960400191505060405180910390fd5b6111be612cdd565b6001541190565b6012546000906001600160a01b03838116911614806124bf57506018546001600160a01b038381169116145b806111ad575050601e546001600160a01b0390811691161490565b806124e48161248c565b61252d5760408051600160e51b62461bcd02815260206004820152600f60248201526001608a1b6e125b9d985b1a59081d19585b481a5902604482015290519081900360640190fd5b816125378161265d565b1561258c5760408051600160e51b62461bcd02815260206004820152601560248201527f5465616d206973206e6f7420726570726f7665642e0000000000000000000000604482015290519081900360640190fd5b60006001848154811061259b57fe5b600091825260209091206004600690920201908101805460ff191660019081179091556002549192506125d4919063ffffffff61270316565b6002908155810154815460048301546040805160ff90921615158252516001600160a01b03909316927fd903780bcf5bcea81714ac3450a34cb3de7b0735a59883e1eb90edd901a54ad49181900360200190a350505050565b60005b8151811015610d775761265582828151811061264857fe5b6020026020010151612bf6565b600101612630565b60006126688261248c565b612674575060006111b0565b61267c613050565b6001838154811061268957fe5b60009182526020918290206040805160c08101825260069093029091018054835260018101549383019390935260028301546001600160a01b03169082015260038201546060820152600482015460ff1615156080820181905260059092015460a090910152915050919050565b600a60ff909116111590565b6000828201838110156127605760408051600160e51b62461bcd02815260206004820152601b60248201527f536166654d6174683a206164646974696f6e206f766572666c6f770000000000604482015290519081900360640190fd5b9392505050565b60006001600160a01b0382166127b157604051600160e51b62461bcd02815260040180806020018281038252602281526020018061329a6022913960400191505060405180910390fd5b506001600160a01b03166000908152602091909152604090205460ff1690565b6127da81612d28565b6001600160a01b0381166000908152600e602052604090206001808201805474ff000000000000000000000000000000000000000019169055600d546128259163ffffffff612d6b16565b600d555050565b61283581612dcb565b6001600160a01b0381166000908152600b60205260409020805460ff19169055600a5461286990600163ffffffff612d6b16565b600a5550565b6003805461ff00191661010090811791829055604080519190920460ff161515815290517f48fbf5c7b70581e7e2145562de373e14a5af56d09f9b96d73545d0d35f71f0889181900360200190a1565b6003805460ff19169055604080516000815290517f78b477400a612eb4ec0a343596323cccfac06b27624264a549d8322c736d055c9181900360200190a1565b61290881612e13565b600c54612913613085565b6040518060800160405280838152602001846001600160a01b03168152602001600115158152602001600015158152509050600c81908060018154018082558091505090600182039060005260206000209060020201600090919290919091506000820151816000015560208201518160010160006101000a8154816001600160a01b0302191690836001600160a01b0316021790555060408201518160010160146101000a81548160ff02191690831515021790555060608201518160010160156101000a81548160ff02191690831515021790555050505080600e6000856001600160a01b03166001600160a01b031681526020019081526020016000206000820151816000015560208201518160010160006101000a8154816001600160a01b0302191690836001600160a01b0316021790555060408201518160010160146101000a81548160ff02191690831515021790555060608201518160010160156101000a81548160ff021916908315150217905550905050612aa36001600d5461270390919063ffffffff16565b600d55505050565b600f805460ff19169055604080516000815290517f0266365b4830894a247179cbad20f3dfe40ba70917925976027d2af68d950bed9181900360200190a1565b600f805460ff1916600117908190556040805160ff9290921615158252517f0266365b4830894a247179cbad20f3dfe40ba70917925976027d2af68d950bed9181900360200190a1565b6003805460ff1916600117908190556040805160ff9290921615158252517f78b477400a612eb4ec0a343596323cccfac06b27624264a549d8322c736d055c9181900360200190a1565b612b8881612e8a565b6009805460018082019092557f6e1540171b6c0c960b71a7020d9f60077f6af931a8bbf590da0223dacf75c7af0180546001600160a01b0319166001600160a01b0384169081179091556000908152600b60205260409020805460ff191682179055600a5461286991612703565b80612c008161248c565b612c495760408051600160e51b62461bcd02815260206004820152600f60248201526001608a1b6e125b9d985b1a59081d19585b481a5902604482015290519081900360640190fd5b81612c538161265d565b612ca15760408051600160e51b62461bcd0281526020600482015260146024820152600160621b731519585b481a5cc81b9bdd08185c1c1c9bdd995902604482015290519081900360640190fd5b600060018481548110612cb057fe5b6000918252602090912060069091020160048101805460ff191690556002549091506125d4906001612d6b565b6003805461ff001916908190556040805161010090920460ff1615158252517f48fbf5c7b70581e7e2145562de373e14a5af56d09f9b96d73545d0d35f71f0889181900360200190a1565b612d3181612ed2565b6001600160a01b0381166000908152600860205260409020805460ff19169055600754612d6590600163ffffffff612d6b16565b60075550565b600082821115612dc55760408051600160e51b62461bcd02815260206004820152601e60248201527f536166654d6174683a207375627472616374696f6e206f766572666c6f770000604482015290519081900360640190fd5b50900390565b612ddc60048263ffffffff612f1a16565b6040516001600160a01b038216907fc459bd414676a5877fcf10a0d73ecf7e1f672a339650b03e628c4046534300e390600090a250565b612e1c81612f84565b6006805460018082019092557ff652222313e28459528d920b65115c16c04f3efc82aaedc97be59f3f377c0d3f0180546001600160a01b0319166001600160a01b0384169081179091556000908152600860205260409020805460ff191682179055600754612d6591612703565b612e9b60048263ffffffff612fcc16565b6040516001600160a01b038216907f37e96fc6762bae414e69ea6e2490e63bc46f2a1335de0f6b91f49cf808829bcf90600090a250565b612ee360058263ffffffff612f1a16565b6040516001600160a01b038216907f32a792a099c63670df7161917c5efb2fdc734cf9f943ebddccbecef87664f2b790600090a250565b612f248282612767565b612f6257604051600160e51b62461bcd02815260040180806020018281038252602181526020018061314e6021913960400191505060405180910390fd5b6001600160a01b0316600090815260209190915260409020805460ff19169055565b612f9560058263ffffffff612fcc16565b6040516001600160a01b038216907fe7f15f9ffff540ae14fdebcd9b6d6cc1fc143933338656c99caa595e8b80903990600090a250565b612fd68282612767565b1561302b5760408051600160e51b62461bcd02815260206004820152601f60248201527f526f6c65733a206163636f756e7420616c72656164792068617320726f6c6500604482015290519081900360640190fd5b6001600160a01b0316600090815260209190915260409020805460ff19166001179055565b6040805160c081018252600080825260208201819052918101829052606081018290526080810182905260a081019190915290565b6040805160808101825260008082526020820181905291810182905260608101919091529056fe6d73672e76616c7565206d757374206265206772656174686572207468616e20304a7564676520616c7265616479207375626d6974746564206576616c756174696f6e4a75646765526f6c653a2063616c6c657220646f6573206e6f742068617665204a7564676520526f6c652e4f7267616e697a6572526f6c653a2063616c6c657220646f6573206e6f742068617665204f7267616e697a657220526f6c652e526f6c65733a206163636f756e7420646f6573206e6f74206861766520726f6c65416464726573732063616e6e6f7420626520657175616c20746f20636f6e7472616374202874686973292061646472657373496e76616c696420616464726573732e204164647265737320636865636b206661696c65642e2053686f756c64206e6f74207265616368207468697320706f696e742e5072697a6520616c7265616479207061696420666f7220666972737420706c6163657465616d7349647320616e642067726164657320646f206e6f74206d617463682074686520636f756e74696e67206f6620617070726f766564207465616d735072697a6520616c7265616479207061696420666f7220746869726420706c6163654c656e677468206f66207465616d7320616e64207465616d47726164657320617272617973206d75737420626520657175616c526f6c65733a206163636f756e7420697320746865207a65726f20616464726573734e6f7420656e6f7567682066756e647320617661696c61626c6520696e206861636b6174686f6e20636f6e74726163745072697a6520616c7265616479207061696420666f72207365636f6e6420706c616365a165627a7a72305820fb9734476b260742f69f92e335e3c9c838f0ade428a41eb796f07a5919d4b7a30029526f6c65733a206163636f756e7420697320746865207a65726f2061646472657373",
  "source": "pragma solidity ^0.5.0;\n\nimport \"openzeppelin-solidity/contracts/math/SafeMath.sol\";\n\nimport \"./ContestBracketRegistry.sol\";\nimport \"../payment/Payable.sol\";\n\n// TODO: Add Pausable\ncontract Hackathon is Payable, ContestBracketRegistry {\n    using SafeMath for uint256;\n\n    /// @dev Represents a prize to be paid to a winner.\n    struct Prize {\n        uint256 amount;\n        bool paid;\n    }\n\n    uint256 public id;\n    bytes32 public name;\n    bytes32 public description;\n    Prize internal firstPlacePrize;\n    Prize internal secondPlacePrize;\n    Prize internal thirdPlacePrize;\n    bool internal prizesAllocated;\n\n    event PrizeAllocation(\n        uint256 firstPlacePrize,\n        uint256 secondPlacePrize,\n        uint256 thirdPlacePrize,\n        address indexed organizer,\n        uint256 datetime\n    );\n    event Withdraw(address indexed to, uint256 amount, uint8 rankPosition, address indexed requester, uint256 datetime);\n\n    modifier whenPrizeNotAllocated() {\n        require(!prizesAllocated, \"Prizes already allocated\");\n        _;\n    }\n\n    modifier whenPrizeAllocated() {\n        require(prizesAllocated, \"Prizes not allocated yet\");\n        _;\n    }\n\n    modifier onlyWinnerAddress(address winnerAddress) {\n        require(isWinnerAddress(winnerAddress), \"Account address is not a winner\");\n        _;\n    }\n\n    modifier onlyValidAddress(address account) {\n        require(account != address(0), \"Invalid zero address\");\n        require(account != address(this), \"Address cannot be equal to contract (this) address\");\n        _;\n    }\n\n    constructor(uint256 _id, bytes32 _name, bytes32 _description, address initialOrganizer)\n        public\n        ContestBracketRegistry(initialOrganizer)\n    {\n        require(_name[0] != 0, \"Invalid name\");\n        id = _id;\n        name = _name;\n        description = _description;\n        prizesAllocated = false;\n    }\n\n    /**\n        @notice Allows the organizer to allocate funds that's going to be distributed to winners.\n        @dev It does not associate the prize with a specific account, since prizes cound be associated any moment\n        by the organizers, as long as prizes were not allocated before.\n        The contract needs to have enought balance to allocate funds to winners.\n     */\n    function allocatePrize(uint256 firstPrize, uint256 secondPrize, uint256 thirdPrize)\n        external\n        onlyOrganizer\n        whenPrizeNotAllocated\n    {\n        uint256 totalPrizes = firstPrize.add(secondPrize).add(thirdPrize);\n        require(totalPrizes <= address(this).balance, \"Not enough funds available in hackathon contract\");\n        firstPlacePrize = Prize(firstPrize, false);\n        secondPlacePrize = Prize(secondPrize, false);\n        thirdPlacePrize = Prize(thirdPrize, false);\n        prizesAllocated = true;\n        emit PrizeAllocation(firstPrize, secondPrize, thirdPrize, msg.sender, now);\n    }\n\n    /**\n        @notice Allows withdrawing prizes to winners.\n        @dev Winners must implement IPayable to receive funds.\n     */\n    function withdrawPrize(address winnerAddress)\n        external\n        whenRankPublished\n        whenPrizeAllocated\n        onlyValidAddress(winnerAddress)\n        onlyWinnerAddress(winnerAddress)\n    {\n        address teamAddress;\n        uint256 amount;\n        uint8 rankPosition;\n\n        if (winnerAddress == firstPlace.teamAddress) {\n            teamAddress = firstPlace.teamAddress;\n            amount = firstPlacePrize.amount;\n            rankPosition = 1;\n            require(!firstPlacePrize.paid, \"Prize already paid for first place\");\n            firstPlacePrize.paid = true;\n        } else if (winnerAddress == secondPlace.teamAddress) {\n            teamAddress = secondPlace.teamAddress;\n            amount = secondPlacePrize.amount;\n            rankPosition = 2;\n            require(!secondPlacePrize.paid, \"Prize already paid for second place\");\n            secondPlacePrize.paid = true;\n        } else if (winnerAddress == thirdPlace.teamAddress) {\n            teamAddress = thirdPlace.teamAddress;\n            amount = thirdPlacePrize.amount;\n            rankPosition = 3;\n            require(!thirdPlacePrize.paid, \"Prize already paid for third place\");\n            thirdPlacePrize.paid = true;\n        } else {\n            revert(\"Invalid address. Address check failed. Should not reach this point.\");\n        }\n\n        emit Withdraw(teamAddress, amount, rankPosition, msg.sender, now);\n        // Pays winner using team addres.\n        IPayable(teamAddress).deposit.value(amount)();\n    }\n\n    function isWinnerAddress(address winnerAddress) private view returns (bool) {\n        return (\n            winnerAddress == firstPlace.teamAddress ||\n                winnerAddress == secondPlace.teamAddress ||\n                winnerAddress == thirdPlace.teamAddress\n        );\n    }\n\n    // TODO: destroy contract - only owner\n\n}\n",
  "sourcePath": "/home/odisi/dev/projects/hackapay/contracts/core/Hackathon.sol",
  "compiler": {
    "name": "solc",
    "version": "0.5.8+commit.23d335f2.Emscripten.clang"
  },
  "schemaVersion": "3.0.11",
  "updatedAt": "2019-07-31T01:58:33.599Z",
  "devdoc": {
    "methods": {
      "allocatePrize(uint256,uint256,uint256)": {
        "details": "It does not associate the prize with a specific account, since prizes cound be associated any moment by the organizers, as long as prizes were not allocated before. The contract needs to have enought balance to allocate funds to winners."
      },
      "approveTeam(uint256)": {
        "details": "Should be overwritten on inherited contract to add modifier or require statements for access control.",
        "params": {
          "teamId": "{uint256} the ids of the teams to be approved"
        }
      },
      "closeEvaluation()": {
        "details": "Should be overwritten on inherited contract to add modifier or require statements for access control."
      },
      "closeRegistration()": {
        "details": "Overwritten to add modifier for access control."
      },
      "closeSubmission()": {
        "details": "Should be overwritten on inherited contract to add modifier or require statements for access control."
      },
      "getEvaluationStatus()": {
        "return": "{bool} returns {true} if enabled; otherwise, {false}."
      },
      "getRegistrationStatus()": {
        "return": "{bool} returns {true} if enabled; otherwise, {false}."
      },
      "getTeam(uint256)": {
        "params": {
          "teamId": "{uint256} the team's unique identifier returned on registration"
        },
        "return": "{bytes32} team's name{address} team's address{bytes32} team's proposal data{bool} team's status: {true} for approved; {false} for reproved;{uint256} team's grade"
      },
      "getTeamByAddress(address)": {
        "params": {
          "teamAddress": "{address} the team's contract address used on registration"
        },
        "return": "{bytes32} team's name{address} team's address{bytes32} team's proposal data{bool} team's status: {true} for approved; {false} for reproved;{uint256} team's grade"
      },
      "openEvaluation()": {
        "details": "Should be overwritten on inherited contract to add modifier or require statements for access control."
      },
      "openRegistration()": {
        "details": "Overwritten to add modifier for access control."
      },
      "openSubmission()": {
        "details": "Should be overwritten on inherited contract to add modifier or require statements for access control."
      },
      "publishRank()": {
        "details": "emitts an WinnerAnnounced event for each winner (1st, 2nd, 3rd place)."
      },
      "registerTeam(bytes32,address,bytes32)": {
        "details": "Registration process must be open.",
        "params": {
          "teamName": "{bytes32} team's proposal data; could be a hash for a file  on IPFS or for a github link; not required"
        }
      },
      "reproveTeam(uint256)": {
        "details": "Should be overwritten on inherited contract to add modifier or require statements for access control.",
        "params": {
          "teamId": "{uint256} the ids of the teams to be reproved"
        }
      },
      "reproveTeams(uint256[])": {
        "details": "Should be overwritten on inherited contract to add modifier or require statements for access control.",
        "params": {
          "teamIds": "{uint256[]} an array containing the ids of the teams to be reproved"
        }
      },
      "submitEvaluation(uint256[],uint8[])": {
        "details": "The position of teamId and teamGrade must be the same in the array. For example, if teamId \"1\" is sent at {teamIds} array position \"5\" (zero-based), the grade for team \"1\" must be sent at position \"5\" in {teamGrades} array.",
        "params": {
          "teamGrades": "Array of the grades given by the judge for each team.",
          "teamIds": "Array of the ids associated with each team that is going to be evaluated."
        }
      },
      "updateProposalData(uint256,bytes32)": {
        "params": {
          "proposalData": "the updated data for the team's proposal",
          "teamId": "team's unique identifier; required"
        }
      },
      "withdrawPrize(address)": {
        "details": "Winners must implement IPayable to receive funds."
      }
    }
  },
  "userdoc": {
    "methods": {
      "allocatePrize(uint256,uint256,uint256)": {
        "notice": "Allows the organizer to allocate funds that's going to be distributed to winners."
      },
      "approveTeam(uint256)": {
        "notice": "(re)approves a team in participating in the contest"
      },
      "closeEvaluation()": {
        "notice": "Closes the evaluation process"
      },
      "closeRegistration()": {
        "notice": "Closes the registration process"
      },
      "closeSubmission()": {
        "notice": "Closes the proposal submission process"
      },
      "deposit()": {
        "notice": "Allows the contract to receive funds."
      },
      "getEvaluationStatus()": {
        "notice": "Gets the evaluation status"
      },
      "getRegistrationStatus()": {
        "notice": "Gets the registration status"
      },
      "getTeam(uint256)": {
        "notice": "Returns the stored information of a team"
      },
      "getTeamByAddress(address)": {
        "notice": "Returns the stored information of a team, based on a provided address"
      },
      "openEvaluation()": {
        "notice": "Opens the evaluation process"
      },
      "openRegistration()": {
        "notice": "Opens the registration process"
      },
      "openSubmission()": {
        "notice": "Opens the proposal submission process"
      },
      "publishRank()": {
        "notice": "Published the ranking results of the contest."
      },
      "registerTeam(bytes32,address,bytes32)": {
        "notice": "Registers a new team in the contest registry."
      },
      "reproveTeam(uint256)": {
        "notice": "reproves a team from participating in the contest"
      },
      "reproveTeams(uint256[])": {
        "notice": "reprove teams from participating in the contest"
      },
      "submitEvaluation(uint256[],uint8[])": {
        "notice": "Allows a judge to submit its evaluation for the teams competing in the contest. The evaluation for all teams must be submitted once."
      },
      "updateProposalData(uint256,bytes32)": {
        "notice": "Updates the proposal data for a specific team."
      },
      "withdrawPrize(address)": {
        "notice": "Allows withdrawing prizes to winners."
      }
    }
  }
}