{
  "contractName": "HackathonTeam",
  "abi": [
    {
      "constant": false,
      "inputs": [
        {
          "name": "account",
          "type": "address"
        }
      ],
      "name": "addAttendee",
      "outputs": [],
      "payable": false,
      "stateMutability": "nonpayable",
      "type": "function"
    },
    {
      "constant": true,
      "inputs": [
        {
          "name": "account",
          "type": "address"
        }
      ],
      "name": "isAttendee",
      "outputs": [
        {
          "name": "",
          "type": "bool"
        }
      ],
      "payable": false,
      "stateMutability": "view",
      "type": "function"
    },
    {
      "constant": false,
      "inputs": [],
      "name": "renounceAttendee",
      "outputs": [],
      "payable": false,
      "stateMutability": "nonpayable",
      "type": "function"
    },
    {
      "anonymous": false,
      "inputs": [
        {
          "indexed": true,
          "name": "from",
          "type": "address"
        },
        {
          "indexed": false,
          "name": "amount",
          "type": "uint256"
        },
        {
          "indexed": true,
          "name": "datetime",
          "type": "uint256"
        }
      ],
      "name": "Deposit",
      "type": "event"
    },
    {
      "anonymous": false,
      "inputs": [
        {
          "indexed": true,
          "name": "to",
          "type": "address"
        },
        {
          "indexed": false,
          "name": "amount",
          "type": "uint256"
        },
        {
          "indexed": true,
          "name": "datetime",
          "type": "uint256"
        }
      ],
      "name": "Withdraw",
      "type": "event"
    },
    {
      "anonymous": false,
      "inputs": [
        {
          "indexed": true,
          "name": "sender",
          "type": "address"
        },
        {
          "indexed": false,
          "name": "totalPrize",
          "type": "uint256"
        },
        {
          "indexed": false,
          "name": "membersCount",
          "type": "uint256"
        },
        {
          "indexed": false,
          "name": "memberPrize",
          "type": "uint256"
        },
        {
          "indexed": true,
          "name": "datetime",
          "type": "uint256"
        }
      ],
      "name": "PrizeSplit",
      "type": "event"
    },
    {
      "anonymous": false,
      "inputs": [
        {
          "indexed": true,
          "name": "account",
          "type": "address"
        }
      ],
      "name": "AttendeeAdded",
      "type": "event"
    },
    {
      "anonymous": false,
      "inputs": [
        {
          "indexed": true,
          "name": "account",
          "type": "address"
        }
      ],
      "name": "AttendeeRemoved",
      "type": "event"
    },
    {
      "constant": false,
      "inputs": [],
      "name": "deposit",
      "outputs": [],
      "payable": true,
      "stateMutability": "payable",
      "type": "function"
    },
    {
      "constant": false,
      "inputs": [],
      "name": "splitPrize",
      "outputs": [],
      "payable": false,
      "stateMutability": "nonpayable",
      "type": "function"
    },
    {
      "constant": false,
      "inputs": [
        {
          "name": "amount",
          "type": "uint256"
        }
      ],
      "name": "withdraw",
      "outputs": [],
      "payable": false,
      "stateMutability": "nonpayable",
      "type": "function"
    },
    {
      "constant": true,
      "inputs": [],
      "name": "getActiveMembers",
      "outputs": [
        {
          "name": "",
          "type": "address[]"
        }
      ],
      "payable": false,
      "stateMutability": "view",
      "type": "function"
    },
    {
      "constant": true,
      "inputs": [],
      "name": "getActiveMembersCount",
      "outputs": [
        {
          "name": "",
          "type": "uint256"
        }
      ],
      "payable": false,
      "stateMutability": "view",
      "type": "function"
    },
    {
      "constant": true,
      "inputs": [],
      "name": "balanceOf",
      "outputs": [
        {
          "name": "",
          "type": "uint256"
        }
      ],
      "payable": false,
      "stateMutability": "view",
      "type": "function"
    }
  ],
  "bytecode": "0x608060405262000015336200001b60201b60201c565b620003c3565b62000031816200011560201b620010d51760201c565b60018190806001815401808255809150509060018203906000526020600020016000909192909190916101000a81548173ffffffffffffffffffffffffffffffffffffffff021916908373ffffffffffffffffffffffffffffffffffffffff160217905550506001600360008373ffffffffffffffffffffffffffffffffffffffff1673ffffffffffffffffffffffffffffffffffffffff16815260200190815260200160002060006101000a81548160ff0219169083151502179055506200010c60016002546200017660201b62000dae1790919060201c565b60028190555050565b62000130816000620001ff60201b620011891790919060201c565b8073ffffffffffffffffffffffffffffffffffffffff167ff965229cbef17c17a2ced10d89ec5f669942d8dd77bd8a5debcaed392434504e60405160405180910390a250565b600080828401905083811015620001f5576040517f08c379a000000000000000000000000000000000000000000000000000000000815260040180806020018281038252601b8152602001807f536166654d6174683a206164646974696f6e206f766572666c6f77000000000081525060200191505060405180910390fd5b8091505092915050565b620002118282620002e360201b60201c565b1562000285576040517f08c379a000000000000000000000000000000000000000000000000000000000815260040180806020018281038252601f8152602001807f526f6c65733a206163636f756e7420616c72656164792068617320726f6c650081525060200191505060405180910390fd5b60018260000160008373ffffffffffffffffffffffffffffffffffffffff1673ffffffffffffffffffffffffffffffffffffffff16815260200190815260200160002060006101000a81548160ff0219169083151502179055505050565b60008073ffffffffffffffffffffffffffffffffffffffff168273ffffffffffffffffffffffffffffffffffffffff1614156200036c576040517f08c379a00000000000000000000000000000000000000000000000000000000081526004018080602001828103825260228152602001806200184b6022913960400191505060405180910390fd5b8260000160008373ffffffffffffffffffffffffffffffffffffffff1673ffffffffffffffffffffffffffffffffffffffff16815260200190815260200160002060009054906101000a900460ff16905092915050565b61147880620003d36000396000f3fe6080604052600436106100865760003560e01c80636cad2590116100595780636cad25901461019a578063722713f7146102035780638f7c85191461022e578063d0e30db014610259578063fb1da5431461026357610086565b8063070573821461008b57806310246254146100a25780632e1a7d4d146100f35780634876aebc1461012e575b600080fd5b34801561009757600080fd5b506100a061027a565b005b3480156100ae57600080fd5b506100f1600480360360208110156100c557600080fd5b81019080803573ffffffffffffffffffffffffffffffffffffffff1690602001909291905050506106cc565b005b3480156100ff57600080fd5b5061012c6004803603602081101561011657600080fd5b8101908080359060200190929190505050610736565b005b34801561013a57600080fd5b5061014361093d565b6040518080602001828103825283818151815260200191508051906020019060200280838360005b8381101561018657808201518184015260208101905061016b565b505050509050019250505060405180910390f35b3480156101a657600080fd5b506101e9600480360360208110156101bd57600080fd5b81019080803573ffffffffffffffffffffffffffffffffffffffff169060200190929190505050610a8f565b604051808215151515815260200191505060405180910390f35b34801561020f57600080fd5b50610218610aac565b6040518082815260200191505060405180910390f35b34801561023a57600080fd5b50610243610b51565b6040518082815260200191505060405180910390f35b610261610b5b565b005b34801561026f57600080fd5b50610278610c05565b005b61028333610a8f565b6102d8576040517f08c379a00000000000000000000000000000000000000000000000000000000081526004018080602001828103825260318152602001806113f56031913960400191505060405180910390fd5b60006103066005543073ffffffffffffffffffffffffffffffffffffffff1631610c1090919063ffffffff16565b90506000811161037e576040517f08c379a000000000000000000000000000000000000000000000000000000000815260040180806020018281038252601b8152602001807f436f6e74657374616e745465616d2062616c616e63652069732030000000000081525060200191505060405180910390fd5b600061039560025483610c9990919063ffffffff16565b90506000811161040d576040517f08c379a00000000000000000000000000000000000000000000000000000000081526004018080602001828103825260118152602001807f4d656d626572207072697a65206973203000000000000000000000000000000081525060200191505060405180910390fd5b600061041b82600254610d28565b9050600080600090505b6001805490508110156105805760006001828154811061044157fe5b9060005260206000200160009054906101000a900473ffffffffffffffffffffffffffffffffffffffff16905060011515600360008373ffffffffffffffffffffffffffffffffffffffff1673ffffffffffffffffffffffffffffffffffffffff16815260200190815260200160002060009054906101000a900460ff16151514156105725761051985600460008473ffffffffffffffffffffffffffffffffffffffff1673ffffffffffffffffffffffffffffffffffffffff16815260200190815260200160002054610dae90919063ffffffff16565b600460008373ffffffffffffffffffffffffffffffffffffffff1673ffffffffffffffffffffffffffffffffffffffff1681526020019081526020016000208190555061056f8584610dae90919063ffffffff16565b92505b508080600101915050610425565b5061059684600554610dae90919063ffffffff16565b6005819055508181146105f4576040517f08c379a00000000000000000000000000000000000000000000000000000000081526004018080602001828103825260248152602001806113436024913960400191505060405180910390fd5b6005543073ffffffffffffffffffffffffffffffffffffffff163114610665576040517f08c379a000000000000000000000000000000000000000000000000000000000815260040180806020018281038252602a815260200180611367602a913960400191505060405180910390fd5b423373ffffffffffffffffffffffffffffffffffffffff167f347ce84d9ed7334a67bdbc36e6519fbbc870a22468c5fa79fcbb5d68f5bc220d866002548760405180848152602001838152602001828152602001935050505060405180910390a350505050565b6106d533610a8f565b61072a576040517f08c379a00000000000000000000000000000000000000000000000000000000081526004018080602001828103825260318152602001806113f56031913960400191505060405180910390fd5b61073381610e36565b50565b80600460003373ffffffffffffffffffffffffffffffffffffffff1673ffffffffffffffffffffffffffffffffffffffff1681526020019081526020016000205410156107eb576040517f08c379a00000000000000000000000000000000000000000000000000000000081526004018080602001828103825260128152602001807f4e6f7420656e6f7567682062616c616e6365000000000000000000000000000081525060200191505060405180910390fd5b6000600460003373ffffffffffffffffffffffffffffffffffffffff1673ffffffffffffffffffffffffffffffffffffffff1681526020019081526020016000205490506108428282610c1090919063ffffffff16565b905080600460003373ffffffffffffffffffffffffffffffffffffffff1673ffffffffffffffffffffffffffffffffffffffff1681526020019081526020016000208190555061089d82600554610c1090919063ffffffff16565b6005819055503373ffffffffffffffffffffffffffffffffffffffff166108fc839081150290604051600060405180830381858888f193505050501580156108e9573d6000803e3d6000fd5b50423373ffffffffffffffffffffffffffffffffffffffff167ff279e6a1f5e320cca91135676d9cb6e44ca8a08c0b88342bcdb1144f6511b568846040518082815260200191505060405180910390a35050565b6060600180549050600254111561095357600080fd5b60606002546040519080825280602002602001820160405280156109865781602001602082028038833980820191505090505b50905060008090505b600180549050811015610a87576000600182815481106109ab57fe5b9060005260206000200160009054906101000a900473ffffffffffffffffffffffffffffffffffffffff16905060011515600360008373ffffffffffffffffffffffffffffffffffffffff1673ffffffffffffffffffffffffffffffffffffffff16815260200190815260200160002060009054906101000a900460ff1615151415610a795780838381518110610a3e57fe5b602002602001019073ffffffffffffffffffffffffffffffffffffffff16908173ffffffffffffffffffffffffffffffffffffffff16815250505b50808060010191505061098f565b508091505090565b6000610aa5826000610f1c90919063ffffffff16565b9050919050565b6000610ab733610a8f565b610b0c576040517f08c379a00000000000000000000000000000000000000000000000000000000081526004018080602001828103825260318152602001806113f56031913960400191505060405180910390fd5b600460003373ffffffffffffffffffffffffffffffffffffffff1673ffffffffffffffffffffffffffffffffffffffff16815260200190815260200160002054905090565b6000600254905090565b60003411610bb4576040517f08c379a00000000000000000000000000000000000000000000000000000000081526004018080602001828103825260218152602001806113226021913960400191505060405180910390fd5b423373ffffffffffffffffffffffffffffffffffffffff167f90890809c654f11d6e72a28fa60149770a0d11ec6c92319d6ceb2bb0a4ea1a15346040518082815260200191505060405180910390a3565b610c0e33610ffa565b565b600082821115610c88576040517f08c379a000000000000000000000000000000000000000000000000000000000815260040180806020018281038252601e8152602001807f536166654d6174683a207375627472616374696f6e206f766572666c6f77000081525060200191505060405180910390fd5b600082840390508091505092915050565b6000808211610d10576040517f08c379a000000000000000000000000000000000000000000000000000000000815260040180806020018281038252601a8152602001807f536166654d6174683a206469766973696f6e206279207a65726f00000000000081525060200191505060405180910390fd5b6000828481610d1b57fe5b0490508091505092915050565b600080831415610d3b5760009050610da8565b6000828402905082848281610d4c57fe5b0414610da3576040517f08c379a00000000000000000000000000000000000000000000000000000000081526004018080602001828103825260218152602001806113b26021913960400191505060405180910390fd5b809150505b92915050565b600080828401905083811015610e2c576040517f08c379a000000000000000000000000000000000000000000000000000000000815260040180806020018281038252601b8152602001807f536166654d6174683a206164646974696f6e206f766572666c6f77000000000081525060200191505060405180910390fd5b8091505092915050565b610e3f816110d5565b60018190806001815401808255809150509060018203906000526020600020016000909192909190916101000a81548173ffffffffffffffffffffffffffffffffffffffff021916908373ffffffffffffffffffffffffffffffffffffffff160217905550506001600360008373ffffffffffffffffffffffffffffffffffffffff1673ffffffffffffffffffffffffffffffffffffffff16815260200190815260200160002060006101000a81548160ff021916908315150217905550610f136001600254610dae90919063ffffffff16565b60028190555050565b60008073ffffffffffffffffffffffffffffffffffffffff168273ffffffffffffffffffffffffffffffffffffffff161415610fa3576040517f08c379a00000000000000000000000000000000000000000000000000000000081526004018080602001828103825260228152602001806113d36022913960400191505060405180910390fd5b8260000160008373ffffffffffffffffffffffffffffffffffffffff1673ffffffffffffffffffffffffffffffffffffffff16815260200190815260200160002060009054906101000a900460ff16905092915050565b600160025411611055576040517f08c379a00000000000000000000000000000000000000000000000000000000081526004018080602001828103825260278152602001806114266027913960400191505060405180910390fd5b61105e8161112f565b6000600360008373ffffffffffffffffffffffffffffffffffffffff1673ffffffffffffffffffffffffffffffffffffffff16815260200190815260200160002060006101000a81548160ff0219169083151502179055506110cc6001600254610c1090919063ffffffff16565b60028190555050565b6110e981600061118990919063ffffffff16565b8073ffffffffffffffffffffffffffffffffffffffff167ff965229cbef17c17a2ced10d89ec5f669942d8dd77bd8a5debcaed392434504e60405160405180910390a250565b61114381600061126490919063ffffffff16565b8073ffffffffffffffffffffffffffffffffffffffff167fac9358f7f807517a7bfea84ce37617a495e55d78f95d2efadcdfbf94817220e060405160405180910390a250565b6111938282610f1c565b15611206576040517f08c379a000000000000000000000000000000000000000000000000000000000815260040180806020018281038252601f8152602001807f526f6c65733a206163636f756e7420616c72656164792068617320726f6c650081525060200191505060405180910390fd5b60018260000160008373ffffffffffffffffffffffffffffffffffffffff1673ffffffffffffffffffffffffffffffffffffffff16815260200190815260200160002060006101000a81548160ff0219169083151502179055505050565b61126e8282610f1c565b6112c3576040517f08c379a00000000000000000000000000000000000000000000000000000000081526004018080602001828103825260218152602001806113916021913960400191505060405180910390fd5b60008260000160008373ffffffffffffffffffffffffffffffffffffffff1673ffffffffffffffffffffffffffffffffffffffff16815260200190815260200160002060006101000a81548160ff021916908315150217905550505056fe6d73672e76616c7565206d757374206265206772656174686572207468616e2030496e76616c69642073706c6974206265747765656e20616374697665206d656d6265727352657365727665642062616c616e63656420776173206e6f7420757064617465642070726f7065726c79526f6c65733a206163636f756e7420646f6573206e6f74206861766520726f6c65536166654d6174683a206d756c7469706c69636174696f6e206f766572666c6f77526f6c65733a206163636f756e7420697320746865207a65726f2061646472657373417474656e646565526f6c653a2063616c6c657220646f6573206e6f74206861766520417474656e64656520526f6c652e43616e6e6f742072656d6f7665206c617374206d656d6265722066726f6d20636f6e7472616374a165627a7a72305820ab3b43184f8380b3992f697addfe5561a9842845a2fb301c656d6cc6ff74e6300029526f6c65733a206163636f756e7420697320746865207a65726f2061646472657373",
  "source": "pragma solidity ^0.5.0;\n\nimport \"openzeppelin-solidity/contracts/math/SafeMath.sol\";\nimport \"../roles/AttendeeRole.sol\";\nimport \"./IPayableHackathonTeam.sol\";\n\n/**\n * @notice Represents a HackathonTeam, allowing the team to receive prizes, and members to split and withdraw their prizes.\n * @dev This contract follows the \"withdraw pattern\". This means that payments are not automatically forwarded to the\n * accounts but kept in this contract, and the actual transfer is triggered as a separate step by calling the {withdraw}\n * function.\n */\n\n// Future improvements\n//TODO: implement multisig to close the contract for new members.\n//TODO: implement multisig to destroy the contract.\n//TODO: implement multisig to remove members.\n//TODO: implement multisig to transfer contract's funds to another address. See TODO on {splitPrize}.\ncontract HackathonTeam is IPayableHackathonTeam, AttendeeRole {\n    using SafeMath for uint256;\n\n    address[] internal teamMembers; // List of members\n    uint256 internal activeTeamMembersCount; // Helper for {splitPrize} and {getActiveMembers}.\n    mapping(address => bool) internal activeTeamMembers; // Controls active members\n    mapping(address => uint256) internal balances; // Controls member's balances.\n    uint256 internal reservedBalance; // Controls reserved balance, that was already split.\n\n    /// @notice Event emitted when the contract recieves a deposit.\n    event Deposit(address indexed from, uint256 amount, uint256 indexed datetime);\n    /// @notice Event emitted when a member withdraws from the contract.\n    event Withdraw(address indexed to, uint256 amount, uint256 indexed datetime);\n    /// @notice Event emitted when the contract's balance (prize) is split between active members.\n    event PrizeSplit(\n        address indexed sender,\n        uint256 totalPrize,\n        uint256 membersCount,\n        uint256 memberPrize,\n        uint256 indexed datetime\n    );\n\n    /// @notice Allows the contract to receive funds.\n    function deposit() external payable {\n        require(msg.value > 0, \"msg.value must be greather than 0\");\n        emit Deposit(msg.sender, msg.value, now);\n    }\n\n    /**\n     * @notice Splits the available's contract balance between active team members.\n     * @dev Implements the \"withdraw pattern\" by allocating balances to team \n     * members, so they can request a withdraw once the split is done.\n     */\n    function splitPrize() public onlyAttendee {\n        // Cannot split amounts that were split in the past and are still pending from withdraw.\n        uint256 availableBalance = address(this).balance.sub(reservedBalance);\n        require(availableBalance > 0, \"ContestantTeam balance is 0\");\n\n        uint256 prize = availableBalance.div(activeTeamMembersCount);\n        require(prize > 0, \"Member prize is 0\");\n\n        uint256 expectedDistribution = SafeMath.mul(prize, activeTeamMembersCount);\n        uint256 distributedPrize;\n\n        for (uint256 index = 0; index < teamMembers.length; index++) {\n            address member = teamMembers[index];\n            // Credits active member's balance.\n            if (activeTeamMembers[member] == true) {\n                balances[member] = balances[member].add(prize);\n                distributedPrize = distributedPrize.add(prize);\n            }\n        }\n\n        // Makes sure new split is reserved and accounted in future splits\n        reservedBalance = reservedBalance.add(availableBalance);\n        // Makes sure no invalid distribution was done.\n        // TODO: this is a potential risk for contract's fund. In case there's a uncaught bug in the above\n        // logic, contract's funds could be stuck in the contract forever. See future improvements.\n        require(distributedPrize == expectedDistribution, \"Invalid split between active members\");\n        require(address(this).balance == reservedBalance, \"Reserved balanced was not updated properly\");\n        emit PrizeSplit(msg.sender, availableBalance, activeTeamMembersCount, prize, now);\n    }\n\n    /**\n     * @notice Allows a team member to withdraw its funds from the contract.\n     * @dev Implements the \"withdraw pattern\" allowing members to withdraw funds.\n     * The method is public, so inactive members (that renounced membership)\n     * are still able to withdraw funds in case balance > 0. \n     */\n    function withdraw(uint256 amount) public {\n        require(balances[msg.sender] >= amount, \"Not enough balance\");\n        uint256 currentBalance = balances[msg.sender];\n        currentBalance = currentBalance.sub(amount);\n        balances[msg.sender] = currentBalance;\n        // Updates contract's reserved balance, so future splits will be correctly calculated.\n        reservedBalance = reservedBalance.sub(amount);\n        msg.sender.transfer(amount);\n        emit Withdraw(msg.sender, amount, now);\n    }\n\n    /// @notice Gets the active members in the team.\n    function getActiveMembers() public view returns (address[] memory) {\n        require(activeTeamMembersCount <= teamMembers.length);\n        address[] memory activeMembers = new address[](activeTeamMembersCount);\n        // {teamMembers} can have INACTIVE members, so need to loop through to return only active members.\n        for (uint256 index = 0; index < teamMembers.length; index++) {\n            address member = teamMembers[index];\n            if (activeTeamMembers[member] == true) {\n                activeMembers[index] = member;\n            }\n        }\n        return activeMembers;\n    }\n\n    /// @notice Gets the number of active team members.\n    function getActiveMembersCount() public view returns (uint256) {\n        return activeTeamMembersCount;\n    }\n\n    /// @notice Get the balance of a team member\n    function balanceOf() public view onlyAttendee returns (uint256) {\n        return balances[msg.sender];\n    }\n\n    /// @dev Overrides {AttendeeRole} internal method, to properly update internal storage related to team members.\n    function _addAttendee(address account) internal {\n        super._addAttendee(account);\n        teamMembers.push(account);\n        activeTeamMembers[account] = true;\n        activeTeamMembersCount = activeTeamMembersCount.add(1);\n    }\n\n    /// @dev Overrides {AttendeeRole} internal method, to properly update internal storage related to team members.\n    function _removeAttendee(address account) internal {\n        // Makes sure the contract have at least of member/owner.\n        require(activeTeamMembersCount > 1, \"Cannot remove last member from contract\");\n        super._removeAttendee(account);\n        activeTeamMembers[account] = false;\n        activeTeamMembersCount = activeTeamMembersCount.sub(1);\n    }\n}\n",
  "sourcePath": "/home/odisi/dev/projects/hackapay/contracts/core/HackathonTeam.sol",
  "compiler": {
    "name": "solc",
    "version": "0.5.8+commit.23d335f2.Emscripten.clang"
  },
  "schemaVersion": "3.0.11",
  "updatedAt": "2019-07-21T21:00:09.211Z",
  "devdoc": {
    "details": "This contract follows the \"withdraw pattern\". This means that payments are not automatically forwarded to the accounts but kept in this contract, and the actual transfer is triggered as a separate step by calling the {withdraw} function.",
    "methods": {
      "splitPrize()": {
        "details": "Implements the \"withdraw pattern\" by allocating balances to team  members, so they can request a withdraw once the split is done."
      },
      "withdraw(uint256)": {
        "details": "Implements the \"withdraw pattern\" allowing members to withdraw funds. The method is public, so inactive members (that renounced membership) are still able to withdraw funds in case balance > 0. "
      }
    }
  },
  "userdoc": {
    "methods": {
      "balanceOf()": {
        "notice": "Get the balance of a team member"
      },
      "deposit()": {
        "notice": "Allows the contract to receive funds."
      },
      "getActiveMembers()": {
        "notice": "Gets the active members in the team."
      },
      "getActiveMembersCount()": {
        "notice": "Gets the number of active team members."
      },
      "splitPrize()": {
        "notice": "Splits the available's contract balance between active team members."
      },
      "withdraw(uint256)": {
        "notice": "Allows a team member to withdraw its funds from the contract."
      }
    },
    "notice": "Represents a HackathonTeam, allowing the team to receive prizes, and members to split and withdraw their prizes."
  }
}