{
  "contractName": "JudgeRoleMock",
  "abi": [
    {
      "constant": false,
      "inputs": [],
      "name": "renounceJudge",
      "outputs": [],
      "payable": false,
      "stateMutability": "nonpayable",
      "type": "function"
    },
    {
      "constant": true,
      "inputs": [
        {
          "name": "account",
          "type": "address"
        }
      ],
      "name": "isJudge",
      "outputs": [
        {
          "name": "",
          "type": "bool"
        }
      ],
      "payable": false,
      "stateMutability": "view",
      "type": "function"
    },
    {
      "inputs": [],
      "payable": false,
      "stateMutability": "nonpayable",
      "type": "constructor"
    },
    {
      "anonymous": false,
      "inputs": [
        {
          "indexed": true,
          "name": "account",
          "type": "address"
        }
      ],
      "name": "JudgeAdded",
      "type": "event"
    },
    {
      "anonymous": false,
      "inputs": [
        {
          "indexed": true,
          "name": "account",
          "type": "address"
        }
      ],
      "name": "JudgeRemoved",
      "type": "event"
    },
    {
      "constant": false,
      "inputs": [
        {
          "name": "account",
          "type": "address"
        }
      ],
      "name": "addJudge",
      "outputs": [],
      "payable": false,
      "stateMutability": "nonpayable",
      "type": "function"
    },
    {
      "constant": false,
      "inputs": [
        {
          "name": "account",
          "type": "address"
        }
      ],
      "name": "removeJudge",
      "outputs": [],
      "payable": false,
      "stateMutability": "nonpayable",
      "type": "function"
    },
    {
      "constant": true,
      "inputs": [],
      "name": "onlyJudgeMock",
      "outputs": [],
      "payable": false,
      "stateMutability": "view",
      "type": "function"
    }
  ],
  "bytecode": "0x608060405234801561001057600080fd5b506100243361002960201b61025e1760201c565b610246565b61004181600061008760201b6103f01790919060201c565b8073ffffffffffffffffffffffffffffffffffffffff167fe7f15f9ffff540ae14fdebcd9b6d6cc1fc143933338656c99caa595e8b80903960405160405180910390a250565b610097828261016860201b60201c565b1561010a576040517f08c379a000000000000000000000000000000000000000000000000000000000815260040180806020018281038252601f8152602001807f526f6c65733a206163636f756e7420616c72656164792068617320726f6c650081525060200191505060405180910390fd5b60018260000160008373ffffffffffffffffffffffffffffffffffffffff1673ffffffffffffffffffffffffffffffffffffffff16815260200190815260200160002060006101000a81548160ff0219169083151502179055505050565b60008073ffffffffffffffffffffffffffffffffffffffff168273ffffffffffffffffffffffffffffffffffffffff1614156101ef576040517f08c379a00000000000000000000000000000000000000000000000000000000081526004018080602001828103825260228152602001806108776022913960400191505060405180910390fd5b8260000160008373ffffffffffffffffffffffffffffffffffffffff1673ffffffffffffffffffffffffffffffffffffffff16815260200190815260200160002060009054906101000a900460ff16905092915050565b610622806102556000396000f3fe608060405234801561001057600080fd5b50600436106100575760003560e01c80634b30b66f1461005c578063927cab4714610066578063ae2ac4ae146100aa578063c13c90fd146100ee578063ed896d66146100f8575b600080fd5b610064610154565b005b6100a86004803603602081101561007c57600080fd5b81019080803573ffffffffffffffffffffffffffffffffffffffff16906020019092919050505061015f565b005b6100ec600480360360208110156100c057600080fd5b81019080803573ffffffffffffffffffffffffffffffffffffffff1690602001909291905050506101c9565b005b6100f66101d5565b005b61013a6004803603602081101561010e57600080fd5b81019080803573ffffffffffffffffffffffffffffffffffffffff169060200190929190505050610235565b604051808215151515815260200191505060405180910390f35b61015d33610252565b565b61016833610235565b6101bd576040517f08c379a000000000000000000000000000000000000000000000000000000000815260040180806020018281038252602b815260200180610589602b913960400191505060405180910390fd5b6101c68161025e565b50565b6101d281610252565b50565b6101de33610235565b610233576040517f08c379a000000000000000000000000000000000000000000000000000000000815260040180806020018281038252602b815260200180610589602b913960400191505060405180910390fd5b565b600061024b8260006102b890919063ffffffff16565b9050919050565b61025b81610396565b50565b6102728160006103f090919063ffffffff16565b8073ffffffffffffffffffffffffffffffffffffffff167fe7f15f9ffff540ae14fdebcd9b6d6cc1fc143933338656c99caa595e8b80903960405160405180910390a250565b60008073ffffffffffffffffffffffffffffffffffffffff168273ffffffffffffffffffffffffffffffffffffffff16141561033f576040517f08c379a00000000000000000000000000000000000000000000000000000000081526004018080602001828103825260228152602001806105d56022913960400191505060405180910390fd5b8260000160008373ffffffffffffffffffffffffffffffffffffffff1673ffffffffffffffffffffffffffffffffffffffff16815260200190815260200160002060009054906101000a900460ff16905092915050565b6103aa8160006104cb90919063ffffffff16565b8073ffffffffffffffffffffffffffffffffffffffff167f32a792a099c63670df7161917c5efb2fdc734cf9f943ebddccbecef87664f2b760405160405180910390a250565b6103fa82826102b8565b1561046d576040517f08c379a000000000000000000000000000000000000000000000000000000000815260040180806020018281038252601f8152602001807f526f6c65733a206163636f756e7420616c72656164792068617320726f6c650081525060200191505060405180910390fd5b60018260000160008373ffffffffffffffffffffffffffffffffffffffff1673ffffffffffffffffffffffffffffffffffffffff16815260200190815260200160002060006101000a81548160ff0219169083151502179055505050565b6104d582826102b8565b61052a576040517f08c379a00000000000000000000000000000000000000000000000000000000081526004018080602001828103825260218152602001806105b46021913960400191505060405180910390fd5b60008260000160008373ffffffffffffffffffffffffffffffffffffffff1673ffffffffffffffffffffffffffffffffffffffff16815260200190815260200160002060006101000a81548160ff021916908315150217905550505056fe4a75646765526f6c653a2063616c6c657220646f6573206e6f742068617665204a7564676520526f6c652e526f6c65733a206163636f756e7420646f6573206e6f74206861766520726f6c65526f6c65733a206163636f756e7420697320746865207a65726f2061646472657373a165627a7a72305820308764b2670789dbdbfa00a6bdea77a8b54986b4dcb55204375739ca2e8f35470029526f6c65733a206163636f756e7420697320746865207a65726f2061646472657373",
  "source": "pragma solidity ^0.5.0;\n\nimport \"../roles/JudgeRole.sol\";\n\ncontract JudgeRoleMock is JudgeRole {\n    constructor() public JudgeRole() {\n        super._addJudge(msg.sender);\n    }\n\n    function addJudge(address account) public onlyJudge {\n        super._addJudge(account);\n    }\n\n    function removeJudge(address account) public {\n        _removeJudge(account);\n    }\n\n    function onlyJudgeMock() public view onlyJudge {\n        // solhint-disable-previous-line no-empty-blocks\n    }\n\n    // Causes a compilation error if super._removeJudge is not internal\n    function _removeJudge(address account) internal {\n        super._removeJudge(account);\n    }\n}\n",
  "sourcePath": "/home/odisi/dev/projects/hackapay/contracts/mocks/JudgeRoleMock.sol",
  "compiler": {
    "name": "solc",
    "version": "0.5.8+commit.23d335f2.Emscripten.clang"
  },
  "schemaVersion": "3.0.11",
  "updatedAt": "2019-07-20T19:49:22.631Z",
  "devdoc": {
    "methods": {}
  },
  "userdoc": {
    "methods": {}
  }
}