{
  "contractName": "OrganizerRoleMock",
  "abi": [
    {
      "inputs": [],
      "payable": false,
      "stateMutability": "nonpayable",
      "type": "constructor"
    },
    {
      "anonymous": false,
      "inputs": [
        {
          "indexed": true,
          "internalType": "address",
          "name": "account",
          "type": "address"
        }
      ],
      "name": "OrganizerAdded",
      "type": "event"
    },
    {
      "anonymous": false,
      "inputs": [
        {
          "indexed": true,
          "internalType": "address",
          "name": "account",
          "type": "address"
        }
      ],
      "name": "OrganizerRemoved",
      "type": "event"
    },
    {
      "constant": false,
      "inputs": [
        {
          "internalType": "address",
          "name": "account",
          "type": "address"
        }
      ],
      "name": "addOrganizer",
      "outputs": [],
      "payable": false,
      "stateMutability": "nonpayable",
      "type": "function"
    },
    {
      "constant": true,
      "inputs": [
        {
          "internalType": "address",
          "name": "account",
          "type": "address"
        }
      ],
      "name": "isOrganizer",
      "outputs": [
        {
          "internalType": "bool",
          "name": "",
          "type": "bool"
        }
      ],
      "payable": false,
      "stateMutability": "view",
      "type": "function"
    },
    {
      "constant": false,
      "inputs": [],
      "name": "renounceOrganizer",
      "outputs": [],
      "payable": false,
      "stateMutability": "nonpayable",
      "type": "function"
    },
    {
      "constant": false,
      "inputs": [
        {
          "internalType": "address",
          "name": "account",
          "type": "address"
        }
      ],
      "name": "removeOrganizer",
      "outputs": [],
      "payable": false,
      "stateMutability": "nonpayable",
      "type": "function"
    },
    {
      "constant": true,
      "inputs": [],
      "name": "onlyOrganizerMock",
      "outputs": [],
      "payable": false,
      "stateMutability": "view",
      "type": "function"
    }
  ],
  "bytecode": "0x608060405234801561001057600080fd5b50338061007e57604080517f08c379a000000000000000000000000000000000000000000000000000000000815260206004820152601460248201527f496e76616c6964207a65726f2061646472657373000000000000000000000000604482015290519081900360640190fd5b610090816001600160e01b0361009616565b5061020a565b6100ae8160006100e560201b6102b41790919060201c565b6040516001600160a01b038216907f37e96fc6762bae414e69ea6e2490e63bc46f2a1335de0f6b91f49cf808829bcf90600090a250565b6100f882826001600160e01b0361018916565b1561016457604080517f08c379a000000000000000000000000000000000000000000000000000000000815260206004820152601f60248201527f526f6c65733a206163636f756e7420616c72656164792068617320726f6c6500604482015290519081900360640190fd5b6001600160a01b0316600090815260209190915260409020805460ff19166001179055565b60006001600160a01b0382166101ea576040517f08c379a00000000000000000000000000000000000000000000000000000000081526004018080602001828103825260228152602001806106606022913960400191505060405180910390fd5b506001600160a01b03166000908152602091909152604090205460ff1690565b610447806102196000396000f3fe608060405234801561001057600080fd5b50600436106100575760003560e01c806341676f151461005c57806344ade56d14610096578063478370df146100be578063567ad862146100c6578063e4725f02146100ce575b600080fd5b6100826004803603602081101561007257600080fd5b50356001600160a01b03166100f4565b604080519115158252519081900360200190f35b6100bc600480360360208110156100ac57600080fd5b50356001600160a01b031661010c565b005b6100bc610118565b6100bc61015e565b6100bc600480360360208110156100e457600080fd5b50356001600160a01b0316610167565b6000610106818363ffffffff6101b416565b92915050565b6101158161021b565b50565b610121336100f4565b61015c5760405162461bcd60e51b815260040180806020018281038252603381526020018061039d6033913960400191505060405180910390fd5b565b61015c3361021b565b610170336100f4565b6101ab5760405162461bcd60e51b815260040180806020018281038252603381526020018061039d6033913960400191505060405180910390fd5b61011581610224565b60006001600160a01b0382166101fb5760405162461bcd60e51b81526004018080602001828103825260228152602001806103f16022913960400191505060405180910390fd5b506001600160a01b03166000908152602091909152604090205460ff1690565b6101158161026c565b61023560008263ffffffff6102b416565b6040516001600160a01b038216907f37e96fc6762bae414e69ea6e2490e63bc46f2a1335de0f6b91f49cf808829bcf90600090a250565b61027d60008263ffffffff61033516565b6040516001600160a01b038216907fc459bd414676a5877fcf10a0d73ecf7e1f672a339650b03e628c4046534300e390600090a250565b6102be82826101b4565b15610310576040805162461bcd60e51b815260206004820152601f60248201527f526f6c65733a206163636f756e7420616c72656164792068617320726f6c6500604482015290519081900360640190fd5b6001600160a01b0316600090815260209190915260409020805460ff19166001179055565b61033f82826101b4565b61037a5760405162461bcd60e51b81526004018080602001828103825260218152602001806103d06021913960400191505060405180910390fd5b6001600160a01b0316600090815260209190915260409020805460ff1916905556fe4f7267616e697a6572526f6c653a2063616c6c657220646f6573206e6f742068617665204f7267616e697a657220526f6c652e526f6c65733a206163636f756e7420646f6573206e6f74206861766520726f6c65526f6c65733a206163636f756e7420697320746865207a65726f2061646472657373a265627a7a723158204cd5c7f9a1be36a2ee47d4db33c0644ad0f13f97ddfce5a4a2526a416fc6029664736f6c634300050c0032526f6c65733a206163636f756e7420697320746865207a65726f2061646472657373",
  "source": "// The MIT License(MIT)\n\n// Copyright(c) 2016 - 2019 zOS Global Limited\n\n// Permission is hereby granted, free of charge, to any person obtaining\n// a copy of this software and associated documentation files(the\n// \"Software\"), to deal in the Software without restriction, including\n// without limitation the rights to use, copy, modify, merge, publish,\n//   distribute, sublicense, and / or sell copies of the Software, and to\n// permit persons to whom the Software is furnished to do so, subject to\n// the following conditions:\n\n// The above copyright notice and this permission notice shall be included\n//   in all copies or substantial portions of the Software.\n\n// THE SOFTWARE IS PROVIDED \"AS IS\", WITHOUT WARRANTY OF ANY KIND, EXPRESS\n// OR IMPLIED, INCLUDING BUT NOT LIMITED TO THE WARRANTIES OF\n// MERCHANTABILITY, FITNESS FOR A PARTICULAR PURPOSE AND NONINFRINGEMENT.\n// IN NO EVENT SHALL THE AUTHORS OR COPYRIGHT HOLDERS BE LIABLE FOR ANY\n// CLAIM, DAMAGES OR OTHER LIABILITY, WHETHER IN AN ACTION OF CONTRACT,\n//   TORT OR OTHERWISE, ARISING FROM, OUT OF OR IN CONNECTION WITH THE\n// SOFTWARE OR THE USE OR OTHER DEALINGS IN THE SOFTWARE.\n\n// Based on OpenZeppelin's https://github.com/OpenZeppelin/openzeppelin-contracts/blob/master/contracts/mocks/MinterRoleMock.sol\n\npragma solidity ^0.5.0;\n\nimport \"../roles/OrganizerRole.sol\";\n\ncontract OrganizerRoleMock is OrganizerRole {\n    constructor() public OrganizerRole(msg.sender) {}\n\n    function removeOrganizer(address account) public {\n        _removeOrganizer(account);\n    }\n\n    function onlyOrganizerMock() public view onlyOrganizer {\n        // solhint-disable-previous-line no-empty-blocks\n    }\n\n    // Causes a compilation error if super._removeOrganizer is not internal\n    function _removeOrganizer(address account) internal {\n        super._removeOrganizer(account);\n    }\n}\n",
  "sourcePath": "/media/fodisi/56401C55401C3DE5/dev/Projects/hackapay/contracts/mocks/OrganizerRoleMock.sol",
  "compiler": {
    "name": "solc",
    "version": "0.5.12+commit.7709ece9.Emscripten.clang"
  },
  "schemaVersion": "3.0.20",
  "updatedAt": "2020-01-30T11:34:10.515Z",
  "devdoc": {
    "methods": {}
  },
  "userdoc": {
    "methods": {}
  }
}