{
  "contractName": "OrganizerRoleMock",
  "abi": [
    {
      "constant": true,
      "inputs": [
        {
          "name": "account",
          "type": "address"
        }
      ],
      "name": "isOrganizer",
      "outputs": [
        {
          "name": "",
          "type": "bool"
        }
      ],
      "payable": false,
      "stateMutability": "view",
      "type": "function"
    },
    {
      "constant": false,
      "inputs": [],
      "name": "renounceOrganizer",
      "outputs": [],
      "payable": false,
      "stateMutability": "nonpayable",
      "type": "function"
    },
    {
      "constant": false,
      "inputs": [
        {
          "name": "account",
          "type": "address"
        }
      ],
      "name": "addOrganizer",
      "outputs": [],
      "payable": false,
      "stateMutability": "nonpayable",
      "type": "function"
    },
    {
      "inputs": [],
      "payable": false,
      "stateMutability": "nonpayable",
      "type": "constructor"
    },
    {
      "anonymous": false,
      "inputs": [
        {
          "indexed": true,
          "name": "account",
          "type": "address"
        }
      ],
      "name": "OrganizerAdded",
      "type": "event"
    },
    {
      "anonymous": false,
      "inputs": [
        {
          "indexed": true,
          "name": "account",
          "type": "address"
        }
      ],
      "name": "OrganizerRemoved",
      "type": "event"
    },
    {
      "constant": false,
      "inputs": [
        {
          "name": "account",
          "type": "address"
        }
      ],
      "name": "removeOrganizer",
      "outputs": [],
      "payable": false,
      "stateMutability": "nonpayable",
      "type": "function"
    },
    {
      "constant": true,
      "inputs": [],
      "name": "onlyOrganizerMock",
      "outputs": [],
      "payable": false,
      "stateMutability": "view",
      "type": "function"
    }
  ],
  "bytecode": "0x608060405234801561001057600080fd5b5033600073ffffffffffffffffffffffffffffffffffffffff168173ffffffffffffffffffffffffffffffffffffffff1614156100b5576040517f08c379a00000000000000000000000000000000000000000000000000000000081526004018080602001828103825260148152602001807f496e76616c6964207a65726f206164647265737300000000000000000000000081525060200191505060405180910390fd5b6100c4816100ca60201b60201c565b506102e7565b6100e281600061012860201b6103f01790919060201c565b8073ffffffffffffffffffffffffffffffffffffffff167f37e96fc6762bae414e69ea6e2490e63bc46f2a1335de0f6b91f49cf808829bcf60405160405180910390a250565b610138828261020960201b60201c565b156101ab576040517f08c379a000000000000000000000000000000000000000000000000000000000815260040180806020018281038252601f8152602001807f526f6c65733a206163636f756e7420616c72656164792068617320726f6c650081525060200191505060405180910390fd5b60018260000160008373ffffffffffffffffffffffffffffffffffffffff1673ffffffffffffffffffffffffffffffffffffffff16815260200190815260200160002060006101000a81548160ff0219169083151502179055505050565b60008073ffffffffffffffffffffffffffffffffffffffff168273ffffffffffffffffffffffffffffffffffffffff161415610290576040517f08c379a00000000000000000000000000000000000000000000000000000000081526004018080602001828103825260228152602001806109206022913960400191505060405180910390fd5b8260000160008373ffffffffffffffffffffffffffffffffffffffff1673ffffffffffffffffffffffffffffffffffffffff16815260200190815260200160002060009054906101000a900460ff16905092915050565b61062a806102f66000396000f3fe608060405234801561001057600080fd5b50600436106100575760003560e01c806341676f151461005c57806344ade56d146100b8578063478370df146100fc578063567ad86214610106578063e4725f0214610110575b600080fd5b61009e6004803603602081101561007257600080fd5b81019080803573ffffffffffffffffffffffffffffffffffffffff169060200190929190505050610154565b604051808215151515815260200191505060405180910390f35b6100fa600480360360208110156100ce57600080fd5b81019080803573ffffffffffffffffffffffffffffffffffffffff169060200190929190505050610171565b005b61010461017d565b005b61010e6101dd565b005b6101526004803603602081101561012657600080fd5b81019080803573ffffffffffffffffffffffffffffffffffffffff1690602001909291905050506101e8565b005b600061016a82600061025290919063ffffffff16565b9050919050565b61017a81610330565b50565b61018633610154565b6101db576040517f08c379a00000000000000000000000000000000000000000000000000000000081526004018080602001828103825260338152602001806105896033913960400191505060405180910390fd5b565b6101e633610330565b565b6101f133610154565b610246576040517f08c379a00000000000000000000000000000000000000000000000000000000081526004018080602001828103825260338152602001806105896033913960400191505060405180910390fd5b61024f8161033c565b50565b60008073ffffffffffffffffffffffffffffffffffffffff168273ffffffffffffffffffffffffffffffffffffffff1614156102d9576040517f08c379a00000000000000000000000000000000000000000000000000000000081526004018080602001828103825260228152602001806105dd6022913960400191505060405180910390fd5b8260000160008373ffffffffffffffffffffffffffffffffffffffff1673ffffffffffffffffffffffffffffffffffffffff16815260200190815260200160002060009054906101000a900460ff16905092915050565b61033981610396565b50565b6103508160006103f090919063ffffffff16565b8073ffffffffffffffffffffffffffffffffffffffff167f37e96fc6762bae414e69ea6e2490e63bc46f2a1335de0f6b91f49cf808829bcf60405160405180910390a250565b6103aa8160006104cb90919063ffffffff16565b8073ffffffffffffffffffffffffffffffffffffffff167fc459bd414676a5877fcf10a0d73ecf7e1f672a339650b03e628c4046534300e360405160405180910390a250565b6103fa8282610252565b1561046d576040517f08c379a000000000000000000000000000000000000000000000000000000000815260040180806020018281038252601f8152602001807f526f6c65733a206163636f756e7420616c72656164792068617320726f6c650081525060200191505060405180910390fd5b60018260000160008373ffffffffffffffffffffffffffffffffffffffff1673ffffffffffffffffffffffffffffffffffffffff16815260200190815260200160002060006101000a81548160ff0219169083151502179055505050565b6104d58282610252565b61052a576040517f08c379a00000000000000000000000000000000000000000000000000000000081526004018080602001828103825260218152602001806105bc6021913960400191505060405180910390fd5b60008260000160008373ffffffffffffffffffffffffffffffffffffffff1673ffffffffffffffffffffffffffffffffffffffff16815260200190815260200160002060006101000a81548160ff021916908315150217905550505056fe4f7267616e697a6572526f6c653a2063616c6c657220646f6573206e6f742068617665204f7267616e697a657220526f6c652e526f6c65733a206163636f756e7420646f6573206e6f74206861766520726f6c65526f6c65733a206163636f756e7420697320746865207a65726f2061646472657373a165627a7a723058207f885a0b5e89f1f4f34d1b9cf1ba12fd046ab9760efafe133f3fbf102fe5739d0029526f6c65733a206163636f756e7420697320746865207a65726f2061646472657373",
  "source": "// The MIT License(MIT)\n\n// Copyright(c) 2016 - 2019 zOS Global Limited\n\n// Permission is hereby granted, free of charge, to any person obtaining\n// a copy of this software and associated documentation files(the\n// \"Software\"), to deal in the Software without restriction, including\n// without limitation the rights to use, copy, modify, merge, publish,\n//   distribute, sublicense, and / or sell copies of the Software, and to\n// permit persons to whom the Software is furnished to do so, subject to\n// the following conditions:\n\n// The above copyright notice and this permission notice shall be included\n//   in all copies or substantial portions of the Software.\n\n// THE SOFTWARE IS PROVIDED \"AS IS\", WITHOUT WARRANTY OF ANY KIND, EXPRESS\n// OR IMPLIED, INCLUDING BUT NOT LIMITED TO THE WARRANTIES OF\n// MERCHANTABILITY, FITNESS FOR A PARTICULAR PURPOSE AND NONINFRINGEMENT.\n// IN NO EVENT SHALL THE AUTHORS OR COPYRIGHT HOLDERS BE LIABLE FOR ANY\n// CLAIM, DAMAGES OR OTHER LIABILITY, WHETHER IN AN ACTION OF CONTRACT,\n//   TORT OR OTHERWISE, ARISING FROM, OUT OF OR IN CONNECTION WITH THE\n// SOFTWARE OR THE USE OR OTHER DEALINGS IN THE SOFTWARE.\n\n// Based on OpenZeppelin's https://github.com/OpenZeppelin/openzeppelin-contracts/blob/master/contracts/mocks/MinterRoleMock.sol\n\npragma solidity ^0.5.0;\n\nimport \"../roles/OrganizerRole.sol\";\n\ncontract OrganizerRoleMock is OrganizerRole {\n    constructor() public OrganizerRole(msg.sender) {}\n\n    function removeOrganizer(address account) public {\n        _removeOrganizer(account);\n    }\n\n    function onlyOrganizerMock() public view onlyOrganizer {\n        // solhint-disable-previous-line no-empty-blocks\n    }\n\n    // Causes a compilation error if super._removeOrganizer is not internal\n    function _removeOrganizer(address account) internal {\n        super._removeOrganizer(account);\n    }\n}\n",
  "sourcePath": "/home/odisi/dev/projects/hackapay/contracts/mocks/OrganizerRoleMock.sol",
  "compiler": {
    "name": "solc",
    "version": "0.5.8+commit.23d335f2.Emscripten.clang"
  },
  "schemaVersion": "3.0.11",
  "updatedAt": "2019-07-29T15:59:47.401Z",
  "devdoc": {
    "methods": {}
  },
  "userdoc": {
    "methods": {}
  }
}