{
  "contractName": "PausableMock",
  "abi": [
    {
      "constant": true,
      "inputs": [
        {
          "name": "account",
          "type": "address"
        }
      ],
      "name": "isOrganizer",
      "outputs": [
        {
          "name": "",
          "type": "bool"
        }
      ],
      "payable": false,
      "stateMutability": "view",
      "type": "function"
    },
    {
      "constant": false,
      "inputs": [],
      "name": "renounceOrganizer",
      "outputs": [],
      "payable": false,
      "stateMutability": "nonpayable",
      "type": "function"
    },
    {
      "constant": true,
      "inputs": [],
      "name": "isPaused",
      "outputs": [
        {
          "name": "",
          "type": "bool"
        }
      ],
      "payable": false,
      "stateMutability": "view",
      "type": "function"
    },
    {
      "constant": false,
      "inputs": [
        {
          "name": "account",
          "type": "address"
        }
      ],
      "name": "addOrganizer",
      "outputs": [],
      "payable": false,
      "stateMutability": "nonpayable",
      "type": "function"
    },
    {
      "constant": false,
      "inputs": [],
      "name": "_unpause",
      "outputs": [],
      "payable": false,
      "stateMutability": "nonpayable",
      "type": "function"
    },
    {
      "inputs": [],
      "payable": false,
      "stateMutability": "nonpayable",
      "type": "constructor"
    },
    {
      "anonymous": false,
      "inputs": [
        {
          "indexed": true,
          "name": "account",
          "type": "address"
        }
      ],
      "name": "OrganizerAdded",
      "type": "event"
    },
    {
      "anonymous": false,
      "inputs": [
        {
          "indexed": true,
          "name": "account",
          "type": "address"
        }
      ],
      "name": "OrganizerRemoved",
      "type": "event"
    },
    {
      "anonymous": false,
      "inputs": [
        {
          "indexed": false,
          "name": "account",
          "type": "address"
        }
      ],
      "name": "Paused",
      "type": "event"
    },
    {
      "anonymous": false,
      "inputs": [
        {
          "indexed": false,
          "name": "account",
          "type": "address"
        }
      ],
      "name": "Unpaused",
      "type": "event"
    },
    {
      "constant": false,
      "inputs": [],
      "name": "pause",
      "outputs": [],
      "payable": false,
      "stateMutability": "nonpayable",
      "type": "function"
    },
    {
      "constant": false,
      "inputs": [],
      "name": "unpause",
      "outputs": [],
      "payable": false,
      "stateMutability": "nonpayable",
      "type": "function"
    },
    {
      "constant": false,
      "inputs": [],
      "name": "onlyWorksWhenNotPaused",
      "outputs": [],
      "payable": false,
      "stateMutability": "nonpayable",
      "type": "function"
    },
    {
      "constant": false,
      "inputs": [],
      "name": "onlyWorksWhenPaused",
      "outputs": [],
      "payable": false,
      "stateMutability": "nonpayable",
      "type": "function"
    }
  ],
  "bytecode": "0x608060405234801561001057600080fd5b506000805460ff19169055338061008857604080517f08c379a000000000000000000000000000000000000000000000000000000000815260206004820152601460248201527f496e76616c6964207a65726f2061646472657373000000000000000000000000604482015290519081900360640190fd5b6100978161009d60201b60201c565b5061020e565b6100b58160016100ec60201b61059f1790919060201c565b6040516001600160a01b038216907f37e96fc6762bae414e69ea6e2490e63bc46f2a1335de0f6b91f49cf808829bcf90600090a250565b6100fc828261018d60201b60201c565b1561016857604080517f08c379a000000000000000000000000000000000000000000000000000000000815260206004820152601f60248201527f526f6c65733a206163636f756e7420616c72656164792068617320726f6c6500604482015290519081900360640190fd5b6001600160a01b0316600090815260209190915260409020805460ff19166001179055565b60006001600160a01b0382166101ee576040517f08c379a00000000000000000000000000000000000000000000000000000000081526004018080602001828103825260228152602001806108e26022913960400191505060405180910390fd5b506001600160a01b03166000908152602091909152604090205460ff1690565b6106c58061021d6000396000f3fe608060405234801561001057600080fd5b50600436106100935760003560e01c8063567ad86211610066578063567ad862146100ec5780638456cb59146100f4578063b187bd26146100fc578063e4725f0214610104578063fc8234cb1461012a57610093565b806339e36e61146100985780633f33d08c146100a25780633f4ba83a146100aa57806341676f15146100b2575b600080fd5b6100a0610132565b005b6100a0610187565b6100a06101e1565b6100d8600480360360208110156100c857600080fd5b50356001600160a01b0316610230565b604080519115158252519081900360200190f35b6100a0610249565b6100a0610252565b6100d86102a1565b6100a06004803603602081101561011a57600080fd5b50356001600160a01b03166102aa565b6100a06102fd565b60005460ff16156101855760408051600160e51b62461bcd0281526020600482015260126024820152600160721b7110dbdb9d1c9858dd081a5cc81c185d5cd95902604482015290519081900360640190fd5b565b60005460ff166101855760408051600160e51b62461bcd02815260206004820152601660248201527f436f6e7472616374206973206e6f742070617573656400000000000000000000604482015290519081900360640190fd5b6101ea33610230565b61022857604051600160e51b62461bcd0281526004018080602001828103825260338152602001806106246033913960400191505060405180910390fd5b610185610396565b600061024360018363ffffffff61039e16565b92915050565b61018533610408565b61025b33610230565b61029957604051600160e51b62461bcd0281526004018080602001828103825260338152602001806106246033913960400191505060405180910390fd5b610185610450565b60005460ff1690565b6102b333610230565b6102f157604051600160e51b62461bcd0281526004018080602001828103825260338152602001806106246033913960400191505060405180910390fd5b6102fa81610458565b50565b60005460ff166103575760408051600160e51b62461bcd02815260206004820152601660248201527f436f6e7472616374206973206e6f742070617573656400000000000000000000604482015290519081900360640190fd5b6000805460ff191690556040805133815290517f5db9ee0a495bf2e6ff9c91a7834c1ba4fdd244a5e8aa4e537bd38aeae4b073aa9181900360200190a1565b6101856102fd565b60006001600160a01b0382166103e857604051600160e51b62461bcd0281526004018080602001828103825260228152602001806106786022913960400191505060405180910390fd5b506001600160a01b03166000908152602091909152604090205460ff1690565b61041960018263ffffffff6104a016565b6040516001600160a01b038216907fc459bd414676a5877fcf10a0d73ecf7e1f672a339650b03e628c4046534300e390600090a250565b61018561050a565b61046960018263ffffffff61059f16565b6040516001600160a01b038216907f37e96fc6762bae414e69ea6e2490e63bc46f2a1335de0f6b91f49cf808829bcf90600090a250565b6104aa828261039e565b6104e857604051600160e51b62461bcd0281526004018080602001828103825260218152602001806106576021913960400191505060405180910390fd5b6001600160a01b0316600090815260209190915260409020805460ff19169055565b60005460ff161561055d5760408051600160e51b62461bcd0281526020600482015260126024820152600160721b7110dbdb9d1c9858dd081a5cc81c185d5cd95902604482015290519081900360640190fd5b6000805460ff191660011790556040805133815290517f62e78cea01bee320cd4e420270b5ea74000d11b0c9f74754ebdbfc544b05a2589181900360200190a1565b6105a9828261039e565b156105fe5760408051600160e51b62461bcd02815260206004820152601f60248201527f526f6c65733a206163636f756e7420616c72656164792068617320726f6c6500604482015290519081900360640190fd5b6001600160a01b0316600090815260209190915260409020805460ff1916600117905556fe4f7267616e697a6572526f6c653a2063616c6c657220646f6573206e6f742068617665204f7267616e697a657220526f6c652e526f6c65733a206163636f756e7420646f6573206e6f74206861766520726f6c65526f6c65733a206163636f756e7420697320746865207a65726f2061646472657373a165627a7a72305820036ff3d7aae15fcca20c7c62824b6ee332d0fa84e22aeeae8eb33e8ac5c266830029526f6c65733a206163636f756e7420697320746865207a65726f2061646472657373",
  "source": "pragma solidity ^0.5.0;\n\nimport \"../lifecycle/Pausable.sol\";\nimport \"../roles/OrganizerRole.sol\";\n\n// mock class using Pausable\ncontract PausableMock is Pausable, OrganizerRole {\n    constructor() public Pausable() OrganizerRole(msg.sender) {\n        // Do nothing.\n    }\n\n    function pause() public onlyOrganizer {\n        super.pause();\n    }\n\n    function unpause() public onlyOrganizer {\n        super.unpause();\n    }\n\n    function onlyWorksWhenNotPaused() external whenNotPaused {\n        // Do nothing. Just tests modifier\n    }\n\n    function onlyWorksWhenPaused() external whenPaused {\n        // Do nothing. Just tests modifier\n    }\n}\n",
  "sourcePath": "/home/odisi/dev/projects/hackapay/contracts/mocks/PausableMock.sol",
  "compiler": {
    "name": "solc",
    "version": "0.5.8+commit.23d335f2.Emscripten.clang"
  },
  "schemaVersion": "3.0.11",
  "updatedAt": "2019-07-31T17:11:29.879Z",
  "devdoc": {
    "methods": {
      "_unpause()": {
        "details": "Internal implementation that lifts the paused state."
      },
      "isPaused()": {
        "return": "{true} if the contract is paused; otherwise, {false}."
      }
    }
  },
  "userdoc": {
    "methods": {
      "isPaused()": {
        "notice": "Returns if the contract is paused or not."
      }
    }
  }
}